{
	"helloworld.sol": {
		"LocationObjets": {
			"abi": [
				{
					"anonymous": false,
					"inputs": [
						{
							"indexed": false,
							"internalType": "uint256",
							"name": "idObjet",
							"type": "uint256"
						},
						{
							"indexed": false,
							"internalType": "address",
							"name": "locataire",
							"type": "address"
						}
					],
					"name": "LocationTerminee",
					"type": "event"
				},
				{
					"anonymous": false,
					"inputs": [
						{
							"indexed": false,
							"internalType": "uint256",
							"name": "id",
							"type": "uint256"
						},
						{
							"indexed": false,
							"internalType": "string",
							"name": "nom",
							"type": "string"
						},
						{
							"indexed": false,
							"internalType": "address",
							"name": "proprietaire",
							"type": "address"
						}
					],
					"name": "ObjetAjoute",
					"type": "event"
				},
				{
					"anonymous": false,
					"inputs": [
						{
							"indexed": false,
							"internalType": "uint256",
							"name": "idObjet",
							"type": "uint256"
						},
						{
							"indexed": false,
							"internalType": "address",
							"name": "locataire",
							"type": "address"
						},
						{
							"indexed": false,
							"internalType": "uint256",
							"name": "dateDebut",
							"type": "uint256"
						},
						{
							"indexed": false,
							"internalType": "uint256",
							"name": "dateFin",
							"type": "uint256"
						}
					],
					"name": "ObjetLoue",
					"type": "event"
				},
				{
					"inputs": [
						{
							"internalType": "string",
							"name": "_nom",
							"type": "string"
						},
						{
							"internalType": "string",
							"name": "_description",
							"type": "string"
						},
						{
							"internalType": "uint256",
							"name": "_tarifJournalier",
							"type": "uint256"
						}
					],
					"name": "ajouterObjet",
					"outputs": [],
					"stateMutability": "nonpayable",
					"type": "function"
				},
				{
					"inputs": [],
					"name": "compteurLocations",
					"outputs": [
						{
							"internalType": "uint256",
							"name": "",
							"type": "uint256"
						}
					],
					"stateMutability": "view",
					"type": "function"
				},
				{
					"inputs": [],
					"name": "compteurObjets",
					"outputs": [
						{
							"internalType": "uint256",
							"name": "",
							"type": "uint256"
						}
					],
					"stateMutability": "view",
					"type": "function"
				},
				{
					"inputs": [
						{
							"internalType": "uint256",
							"name": "",
							"type": "uint256"
						}
					],
					"name": "locations",
					"outputs": [
						{
							"internalType": "uint256",
							"name": "idObjet",
							"type": "uint256"
						},
						{
							"internalType": "address",
							"name": "locataire",
							"type": "address"
						},
						{
							"internalType": "uint256",
							"name": "dateDebut",
							"type": "uint256"
						},
						{
							"internalType": "uint256",
							"name": "dateFin",
							"type": "uint256"
						},
						{
							"internalType": "bool",
							"name": "active",
							"type": "bool"
						}
					],
					"stateMutability": "view",
					"type": "function"
				},
				{
					"inputs": [
						{
							"internalType": "uint256",
							"name": "_idObjet",
							"type": "uint256"
						},
						{
							"internalType": "uint256",
							"name": "_jours",
							"type": "uint256"
						}
					],
					"name": "louerObjet",
					"outputs": [],
					"stateMutability": "payable",
					"type": "function"
				},
				{
					"inputs": [
						{
							"internalType": "uint256",
							"name": "",
							"type": "uint256"
						}
					],
					"name": "objets",
					"outputs": [
						{
							"internalType": "uint256",
							"name": "id",
							"type": "uint256"
						},
						{
							"internalType": "string",
							"name": "nom",
							"type": "string"
						},
						{
							"internalType": "string",
							"name": "description",
							"type": "string"
						},
						{
							"internalType": "uint256",
							"name": "tarifJournalier",
							"type": "uint256"
						},
						{
							"internalType": "address payable",
							"name": "proprietaire",
							"type": "address"
						},
						{
							"internalType": "bool",
							"name": "disponible",
							"type": "bool"
						}
					],
					"stateMutability": "view",
					"type": "function"
				},
				{
					"inputs": [
						{
							"internalType": "address",
							"name": "",
							"type": "address"
						},
						{
							"internalType": "uint256",
							"name": "",
							"type": "uint256"
						}
					],
					"name": "objetsParUtilisateur",
					"outputs": [
						{
							"internalType": "uint256",
							"name": "",
							"type": "uint256"
						}
					],
					"stateMutability": "view",
					"type": "function"
				},
				{
					"inputs": [
						{
							"internalType": "uint256",
							"name": "_idLocation",
							"type": "uint256"
						}
					],
					"name": "obtenirLocation",
					"outputs": [
						{
							"components": [
								{
									"internalType": "uint256",
									"name": "idObjet",
									"type": "uint256"
								},
								{
									"internalType": "address",
									"name": "locataire",
									"type": "address"
								},
								{
									"internalType": "uint256",
									"name": "dateDebut",
									"type": "uint256"
								},
								{
									"internalType": "uint256",
									"name": "dateFin",
									"type": "uint256"
								},
								{
									"internalType": "bool",
									"name": "active",
									"type": "bool"
								}
							],
							"internalType": "struct LocationObjets.Location",
							"name": "",
							"type": "tuple"
						}
					],
					"stateMutability": "view",
					"type": "function"
				},
				{
					"inputs": [
						{
							"internalType": "uint256",
							"name": "_idObjet",
							"type": "uint256"
						}
					],
					"name": "obtenirObjet",
					"outputs": [
						{
							"components": [
								{
									"internalType": "uint256",
									"name": "id",
									"type": "uint256"
								},
								{
									"internalType": "string",
									"name": "nom",
									"type": "string"
								},
								{
									"internalType": "string",
									"name": "description",
									"type": "string"
								},
								{
									"internalType": "uint256",
									"name": "tarifJournalier",
									"type": "uint256"
								},
								{
									"internalType": "address payable",
									"name": "proprietaire",
									"type": "address"
								},
								{
									"internalType": "bool",
									"name": "disponible",
									"type": "bool"
								}
							],
							"internalType": "struct LocationObjets.Objet",
							"name": "",
							"type": "tuple"
						}
					],
					"stateMutability": "view",
					"type": "function"
				},
				{
					"inputs": [
						{
							"internalType": "address",
							"name": "_utilisateur",
							"type": "address"
						}
					],
					"name": "obtenirObjetsUtilisateur",
					"outputs": [
						{
							"internalType": "uint256[]",
							"name": "",
							"type": "uint256[]"
						}
					],
					"stateMutability": "view",
					"type": "function"
				},
				{
					"inputs": [
						{
							"internalType": "uint256",
							"name": "_idLocation",
							"type": "uint256"
						}
					],
					"name": "terminerLocation",
					"outputs": [],
					"stateMutability": "nonpayable",
					"type": "function"
				}
			],
			"devdoc": {
				"kind": "dev",
				"methods": {},
				"version": 1
			},
			"evm": {
				"assembly": "    /* \"helloworld.sol\":59:4019  contract LocationObjets {... */\n  mstore(0x40, 0x80)\n  callvalue\n  dup1\n  iszero\n  tag_1\n  jumpi\n  0x00\n  dup1\n  revert\ntag_1:\n  pop\n  dataSize(sub_0)\n  dup1\n  dataOffset(sub_0)\n  0x00\n  codecopy\n  0x00\n  return\nstop\n\nsub_0: assembly {\n        /* \"helloworld.sol\":59:4019  contract LocationObjets {... */\n      mstore(0x40, 0x80)\n      jumpi(tag_1, lt(calldatasize, 0x04))\n      shr(0xe0, calldataload(0x00))\n      dup1\n      0xb8586e2e\n      gt\n      tag_13\n      jumpi\n      dup1\n      0xb8586e2e\n      eq\n      tag_7\n      jumpi\n      dup1\n      0xb9e0db35\n      eq\n      tag_8\n      jumpi\n      dup1\n      0xbb27edac\n      eq\n      tag_9\n      jumpi\n      dup1\n      0xc3ee4122\n      eq\n      tag_10\n      jumpi\n      dup1\n      0xc65bb605\n      eq\n      tag_11\n      jumpi\n      dup1\n      0xd2d1805a\n      eq\n      tag_12\n      jumpi\n      jump(tag_1)\n    tag_13:\n      dup1\n      0x13239ffe\n      eq\n      tag_2\n      jumpi\n      dup1\n      0x4270b161\n      eq\n      tag_3\n      jumpi\n      dup1\n      0x4f32870d\n      eq\n      tag_4\n      jumpi\n      dup1\n      0x733da1d5\n      eq\n      tag_5\n      jumpi\n      dup1\n      0xb4385ad0\n      eq\n      tag_6\n      jumpi\n    tag_1:\n      0x00\n      dup1\n      revert\n        /* \"helloworld.sol\":1199:1666  function ajouterObjet(string memory _nom, string memory _description, uint _tarifJournalier) public {... */\n    tag_2:\n      callvalue\n      dup1\n      iszero\n      tag_14\n      jumpi\n      0x00\n      dup1\n      revert\n    tag_14:\n      pop\n      tag_15\n      0x04\n      dup1\n      calldatasize\n      sub\n      dup2\n      add\n      swap1\n      tag_16\n      swap2\n      swap1\n      tag_17\n      jump\t// in\n    tag_16:\n      tag_18\n      jump\t// in\n    tag_15:\n      stop\n        /* \"helloworld.sol\":616:642  uint public compteurObjets */\n    tag_3:\n      callvalue\n      dup1\n      iszero\n      tag_19\n      jumpi\n      0x00\n      dup1\n      revert\n    tag_19:\n      pop\n      tag_20\n      tag_21\n      jump\t// in\n    tag_20:\n      mload(0x40)\n      tag_22\n      swap2\n      swap1\n      tag_23\n      jump\t// in\n    tag_22:\n      mload(0x40)\n      dup1\n      swap2\n      sub\n      swap1\n      return\n        /* \"helloworld.sol\":3383:3533  function obtenirObjetsUtilisateur(address _utilisateur) public view returns (uint[] memory) {... */\n    tag_4:\n      callvalue\n      dup1\n      iszero\n      tag_24\n      jumpi\n      0x00\n      dup1\n      revert\n    tag_24:\n      pop\n      tag_25\n      0x04\n      dup1\n      calldatasize\n      sub\n      dup2\n      add\n      swap1\n      tag_26\n      swap2\n      swap1\n      tag_27\n      jump\t// in\n    tag_26:\n      tag_28\n      jump\t// in\n    tag_25:\n      mload(0x40)\n      tag_29\n      swap2\n      swap1\n      tag_30\n      jump\t// in\n    tag_29:\n      mload(0x40)\n      dup1\n      swap2\n      sub\n      swap1\n      return\n        /* \"helloworld.sol\":574:610  mapping(uint => Objet) public objets */\n    tag_5:\n      callvalue\n      dup1\n      iszero\n      tag_31\n      jumpi\n      0x00\n      dup1\n      revert\n    tag_31:\n      pop\n      tag_32\n      0x04\n      dup1\n      calldatasize\n      sub\n      dup2\n      add\n      swap1\n      tag_33\n      swap2\n      swap1\n      tag_34\n      jump\t// in\n    tag_33:\n      tag_35\n      jump\t// in\n    tag_32:\n      mload(0x40)\n      tag_36\n      swap7\n      swap6\n      swap5\n      swap4\n      swap3\n      swap2\n      swap1\n      tag_37\n      jump\t// in\n    tag_36:\n      mload(0x40)\n      dup1\n      swap2\n      sub\n      swap1\n      return\n        /* \"helloworld.sol\":2674:3334  function terminerLocation(uint _idLocation) public {... */\n    tag_6:\n      callvalue\n      dup1\n      iszero\n      tag_38\n      jumpi\n      0x00\n      dup1\n      revert\n    tag_38:\n      pop\n      tag_39\n      0x04\n      dup1\n      calldatasize\n      sub\n      dup2\n      add\n      swap1\n      tag_40\n      swap2\n      swap1\n      tag_34\n      jump\t// in\n    tag_40:\n      tag_41\n      jump\t// in\n    tag_39:\n      stop\n        /* \"helloworld.sol\":1705:2610  function louerObjet(uint _idObjet, uint _jours) public payable {... */\n    tag_7:\n      tag_42\n      0x04\n      dup1\n      calldatasize\n      sub\n      dup2\n      add\n      swap1\n      tag_43\n      swap2\n      swap1\n      tag_44\n      jump\t// in\n    tag_43:\n      tag_45\n      jump\t// in\n    tag_42:\n      stop\n        /* \"helloworld.sol\":687:729  mapping(uint => Location) public locations */\n    tag_8:\n      callvalue\n      dup1\n      iszero\n      tag_46\n      jumpi\n      0x00\n      dup1\n      revert\n    tag_46:\n      pop\n      tag_47\n      0x04\n      dup1\n      calldatasize\n      sub\n      dup2\n      add\n      swap1\n      tag_48\n      swap2\n      swap1\n      tag_34\n      jump\t// in\n    tag_48:\n      tag_49\n      jump\t// in\n    tag_47:\n      mload(0x40)\n      tag_50\n      swap6\n      swap5\n      swap4\n      swap3\n      swap2\n      swap1\n      tag_51\n      jump\t// in\n    tag_50:\n      mload(0x40)\n      dup1\n      swap2\n      sub\n      swap1\n      return\n        /* \"helloworld.sol\":842:896  mapping(address => uint[]) public objetsParUtilisateur */\n    tag_9:\n      callvalue\n      dup1\n      iszero\n      tag_52\n      jumpi\n      0x00\n      dup1\n      revert\n    tag_52:\n      pop\n      tag_53\n      0x04\n      dup1\n      calldatasize\n      sub\n      dup2\n      add\n      swap1\n      tag_54\n      swap2\n      swap1\n      tag_55\n      jump\t// in\n    tag_54:\n      tag_56\n      jump\t// in\n    tag_53:\n      mload(0x40)\n      tag_57\n      swap2\n      swap1\n      tag_23\n      jump\t// in\n    tag_57:\n      mload(0x40)\n      dup1\n      swap2\n      sub\n      swap1\n      return\n        /* \"helloworld.sol\":3807:4017  function obtenirLocation(uint _idLocation) public view returns (Location memory) {... */\n    tag_10:\n      callvalue\n      dup1\n      iszero\n      tag_58\n      jumpi\n      0x00\n      dup1\n      revert\n    tag_58:\n      pop\n      tag_59\n      0x04\n      dup1\n      calldatasize\n      sub\n      dup2\n      add\n      swap1\n      tag_60\n      swap2\n      swap1\n      tag_34\n      jump\t// in\n    tag_60:\n      tag_61\n      jump\t// in\n    tag_59:\n      mload(0x40)\n      tag_62\n      swap2\n      swap1\n      tag_63\n      jump\t// in\n    tag_62:\n      mload(0x40)\n      dup1\n      swap2\n      sub\n      swap1\n      return\n        /* \"helloworld.sol\":3578:3758  function obtenirObjet(uint _idObjet) public view returns (Objet memory) {... */\n    tag_11:\n      callvalue\n      dup1\n      iszero\n      tag_64\n      jumpi\n      0x00\n      dup1\n      revert\n    tag_64:\n      pop\n      tag_65\n      0x04\n      dup1\n      calldatasize\n      sub\n      dup2\n      add\n      swap1\n      tag_66\n      swap2\n      swap1\n      tag_34\n      jump\t// in\n    tag_66:\n      tag_67\n      jump\t// in\n    tag_65:\n      mload(0x40)\n      tag_68\n      swap2\n      swap1\n      tag_69\n      jump\t// in\n    tag_68:\n      mload(0x40)\n      dup1\n      swap2\n      sub\n      swap1\n      return\n        /* \"helloworld.sol\":735:764  uint public compteurLocations */\n    tag_12:\n      callvalue\n      dup1\n      iszero\n      tag_70\n      jumpi\n      0x00\n      dup1\n      revert\n    tag_70:\n      pop\n      tag_71\n      tag_72\n      jump\t// in\n    tag_71:\n      mload(0x40)\n      tag_73\n      swap2\n      swap1\n      tag_23\n      jump\t// in\n    tag_73:\n      mload(0x40)\n      dup1\n      swap2\n      sub\n      swap1\n      return\n        /* \"helloworld.sol\":1199:1666  function ajouterObjet(string memory _nom, string memory _description, uint _tarifJournalier) public {... */\n    tag_18:\n        /* \"helloworld.sol\":1336:1337  0 */\n      0x00\n        /* \"helloworld.sol\":1317:1333  _tarifJournalier */\n      dup2\n        /* \"helloworld.sol\":1317:1337  _tarifJournalier > 0 */\n      gt\n        /* \"helloworld.sol\":1309:1389  require(_tarifJournalier > 0, \"Le tarif journalier doit etre superieur a zero.\") */\n      tag_75\n      jumpi\n      mload(0x40)\n      0x08c379a000000000000000000000000000000000000000000000000000000000\n      dup2\n      mstore\n      0x04\n      add\n      tag_76\n      swap1\n      tag_77\n      jump\t// in\n    tag_76:\n      mload(0x40)\n      dup1\n      swap2\n      sub\n      swap1\n      revert\n    tag_75:\n        /* \"helloworld.sol\":1399:1413  compteurObjets */\n      0x01\n      0x00\n        /* \"helloworld.sol\":1399:1415  compteurObjets++ */\n      dup2\n      sload\n      dup1\n      swap3\n      swap2\n      swap1\n      tag_78\n      swap1\n      tag_79\n      jump\t// in\n    tag_78:\n      swap2\n      swap1\n      pop\n      sstore\n      pop\n        /* \"helloworld.sol\":1450:1536  Objet(compteurObjets, _nom, _description, _tarifJournalier, payable(msg.sender), true) */\n      mload(0x40)\n      dup1\n      0xc0\n      add\n      0x40\n      mstore\n      dup1\n        /* \"helloworld.sol\":1456:1470  compteurObjets */\n      sload(0x01)\n        /* \"helloworld.sol\":1450:1536  Objet(compteurObjets, _nom, _description, _tarifJournalier, payable(msg.sender), true) */\n      dup2\n      mstore\n      0x20\n      add\n        /* \"helloworld.sol\":1472:1476  _nom */\n      dup5\n        /* \"helloworld.sol\":1450:1536  Objet(compteurObjets, _nom, _description, _tarifJournalier, payable(msg.sender), true) */\n      dup2\n      mstore\n      0x20\n      add\n        /* \"helloworld.sol\":1478:1490  _description */\n      dup4\n        /* \"helloworld.sol\":1450:1536  Objet(compteurObjets, _nom, _description, _tarifJournalier, payable(msg.sender), true) */\n      dup2\n      mstore\n      0x20\n      add\n        /* \"helloworld.sol\":1492:1508  _tarifJournalier */\n      dup3\n        /* \"helloworld.sol\":1450:1536  Objet(compteurObjets, _nom, _description, _tarifJournalier, payable(msg.sender), true) */\n      dup2\n      mstore\n      0x20\n      add\n        /* \"helloworld.sol\":1518:1528  msg.sender */\n      caller\n        /* \"helloworld.sol\":1450:1536  Objet(compteurObjets, _nom, _description, _tarifJournalier, payable(msg.sender), true) */\n      0xffffffffffffffffffffffffffffffffffffffff\n      and\n      dup2\n      mstore\n      0x20\n      add\n        /* \"helloworld.sol\":1531:1535  true */\n      0x01\n        /* \"helloworld.sol\":1450:1536  Objet(compteurObjets, _nom, _description, _tarifJournalier, payable(msg.sender), true) */\n      iszero\n      iszero\n      dup2\n      mstore\n      pop\n        /* \"helloworld.sol\":1425:1431  objets */\n      0x00\n        /* \"helloworld.sol\":1425:1447  objets[compteurObjets] */\n      dup1\n        /* \"helloworld.sol\":1432:1446  compteurObjets */\n      sload(0x01)\n        /* \"helloworld.sol\":1425:1447  objets[compteurObjets] */\n      dup2\n      mstore\n      0x20\n      add\n      swap1\n      dup2\n      mstore\n      0x20\n      add\n      0x00\n      keccak256\n        /* \"helloworld.sol\":1425:1536  objets[compteurObjets] = Objet(compteurObjets, _nom, _description, _tarifJournalier, payable(msg.sender), true) */\n      0x00\n      dup3\n      add\n      mload\n      dup2\n      0x00\n      add\n      sstore\n      0x20\n      dup3\n      add\n      mload\n      dup2\n      0x01\n      add\n      swap1\n      dup2\n      tag_80\n      swap2\n      swap1\n      tag_81\n      jump\t// in\n    tag_80:\n      pop\n      0x40\n      dup3\n      add\n      mload\n      dup2\n      0x02\n      add\n      swap1\n      dup2\n      tag_82\n      swap2\n      swap1\n      tag_81\n      jump\t// in\n    tag_82:\n      pop\n      0x60\n      dup3\n      add\n      mload\n      dup2\n      0x03\n      add\n      sstore\n      0x80\n      dup3\n      add\n      mload\n      dup2\n      0x04\n      add\n      exp(0x0100, 0x00)\n      dup2\n      sload\n      dup2\n      0xffffffffffffffffffffffffffffffffffffffff\n      mul\n      not\n      and\n      swap1\n      dup4\n      0xffffffffffffffffffffffffffffffffffffffff\n      and\n      mul\n      or\n      swap1\n      sstore\n      pop\n      0xa0\n      dup3\n      add\n      mload\n      dup2\n      0x04\n      add\n      exp(0x0100, 0x14)\n      dup2\n      sload\n      dup2\n      0xff\n      mul\n      not\n      and\n      swap1\n      dup4\n      iszero\n      iszero\n      mul\n      or\n      swap1\n      sstore\n      pop\n      swap1\n      pop\n      pop\n        /* \"helloworld.sol\":1546:1566  objetsParUtilisateur */\n      0x04\n        /* \"helloworld.sol\":1546:1578  objetsParUtilisateur[msg.sender] */\n      0x00\n        /* \"helloworld.sol\":1567:1577  msg.sender */\n      caller\n        /* \"helloworld.sol\":1546:1578  objetsParUtilisateur[msg.sender] */\n      0xffffffffffffffffffffffffffffffffffffffff\n      and\n      0xffffffffffffffffffffffffffffffffffffffff\n      and\n      dup2\n      mstore\n      0x20\n      add\n      swap1\n      dup2\n      mstore\n      0x20\n      add\n      0x00\n      keccak256\n        /* \"helloworld.sol\":1584:1598  compteurObjets */\n      sload(0x01)\n        /* \"helloworld.sol\":1546:1599  objetsParUtilisateur[msg.sender].push(compteurObjets) */\n      swap1\n      dup1\n      0x01\n      dup2\n      sload\n      add\n      dup1\n      dup3\n      sstore\n      dup1\n      swap2\n      pop\n      pop\n      0x01\n      swap1\n      sub\n      swap1\n      0x00\n      mstore\n      keccak256(0x00, 0x20)\n      add\n      0x00\n      swap1\n      swap2\n      swap1\n      swap2\n      swap1\n      swap2\n      pop\n      sstore\n        /* \"helloworld.sol\":1614:1659  ObjetAjoute(compteurObjets, _nom, msg.sender) */\n      0xfec6ce5e9a41de4f57d1fe9377d0c1c573a9793481f6e561a2f6b121e3601376\n        /* \"helloworld.sol\":1626:1640  compteurObjets */\n      sload(0x01)\n        /* \"helloworld.sol\":1642:1646  _nom */\n      dup5\n        /* \"helloworld.sol\":1648:1658  msg.sender */\n      caller\n        /* \"helloworld.sol\":1614:1659  ObjetAjoute(compteurObjets, _nom, msg.sender) */\n      mload(0x40)\n      tag_84\n      swap4\n      swap3\n      swap2\n      swap1\n      tag_85\n      jump\t// in\n    tag_84:\n      mload(0x40)\n      dup1\n      swap2\n      sub\n      swap1\n      log1\n        /* \"helloworld.sol\":1199:1666  function ajouterObjet(string memory _nom, string memory _description, uint _tarifJournalier) public {... */\n      pop\n      pop\n      pop\n      jump\t// out\n        /* \"helloworld.sol\":616:642  uint public compteurObjets */\n    tag_21:\n      sload(0x01)\n      dup2\n      jump\t// out\n        /* \"helloworld.sol\":3383:3533  function obtenirObjetsUtilisateur(address _utilisateur) public view returns (uint[] memory) {... */\n    tag_28:\n        /* \"helloworld.sol\":3460:3473  uint[] memory */\n      0x60\n        /* \"helloworld.sol\":3492:3512  objetsParUtilisateur */\n      0x04\n        /* \"helloworld.sol\":3492:3526  objetsParUtilisateur[_utilisateur] */\n      0x00\n        /* \"helloworld.sol\":3513:3525  _utilisateur */\n      dup4\n        /* \"helloworld.sol\":3492:3526  objetsParUtilisateur[_utilisateur] */\n      0xffffffffffffffffffffffffffffffffffffffff\n      and\n      0xffffffffffffffffffffffffffffffffffffffff\n      and\n      dup2\n      mstore\n      0x20\n      add\n      swap1\n      dup2\n      mstore\n      0x20\n      add\n      0x00\n      keccak256\n        /* \"helloworld.sol\":3485:3526  return objetsParUtilisateur[_utilisateur] */\n      dup1\n      sload\n      dup1\n      0x20\n      mul\n      0x20\n      add\n      mload(0x40)\n      swap1\n      dup2\n      add\n      0x40\n      mstore\n      dup1\n      swap3\n      swap2\n      swap1\n      dup2\n      dup2\n      mstore\n      0x20\n      add\n      dup3\n      dup1\n      sload\n      dup1\n      iszero\n      tag_87\n      jumpi\n      0x20\n      mul\n      dup3\n      add\n      swap2\n      swap1\n      0x00\n      mstore\n      keccak256(0x00, 0x20)\n      swap1\n    tag_88:\n      dup2\n      sload\n      dup2\n      mstore\n      0x20\n      add\n      swap1\n      0x01\n      add\n      swap1\n      dup1\n      dup4\n      gt\n      tag_88\n      jumpi\n    tag_87:\n      pop\n      pop\n      pop\n      pop\n      pop\n      swap1\n      pop\n        /* \"helloworld.sol\":3383:3533  function obtenirObjetsUtilisateur(address _utilisateur) public view returns (uint[] memory) {... */\n      swap2\n      swap1\n      pop\n      jump\t// out\n        /* \"helloworld.sol\":574:610  mapping(uint => Objet) public objets */\n    tag_35:\n      mstore(0x20, 0x00)\n      dup1\n      0x00\n      mstore\n      keccak256(0x00, 0x40)\n      0x00\n      swap2\n      pop\n      swap1\n      pop\n      dup1\n      0x00\n      add\n      sload\n      swap1\n      dup1\n      0x01\n      add\n      dup1\n      sload\n      tag_89\n      swap1\n      tag_90\n      jump\t// in\n    tag_89:\n      dup1\n      0x1f\n      add\n      0x20\n      dup1\n      swap2\n      div\n      mul\n      0x20\n      add\n      mload(0x40)\n      swap1\n      dup2\n      add\n      0x40\n      mstore\n      dup1\n      swap3\n      swap2\n      swap1\n      dup2\n      dup2\n      mstore\n      0x20\n      add\n      dup3\n      dup1\n      sload\n      tag_91\n      swap1\n      tag_90\n      jump\t// in\n    tag_91:\n      dup1\n      iszero\n      tag_92\n      jumpi\n      dup1\n      0x1f\n      lt\n      tag_93\n      jumpi\n      0x0100\n      dup1\n      dup4\n      sload\n      div\n      mul\n      dup4\n      mstore\n      swap2\n      0x20\n      add\n      swap2\n      jump(tag_92)\n    tag_93:\n      dup3\n      add\n      swap2\n      swap1\n      0x00\n      mstore\n      keccak256(0x00, 0x20)\n      swap1\n    tag_94:\n      dup2\n      sload\n      dup2\n      mstore\n      swap1\n      0x01\n      add\n      swap1\n      0x20\n      add\n      dup1\n      dup4\n      gt\n      tag_94\n      jumpi\n      dup3\n      swap1\n      sub\n      0x1f\n      and\n      dup3\n      add\n      swap2\n    tag_92:\n      pop\n      pop\n      pop\n      pop\n      pop\n      swap1\n      dup1\n      0x02\n      add\n      dup1\n      sload\n      tag_95\n      swap1\n      tag_90\n      jump\t// in\n    tag_95:\n      dup1\n      0x1f\n      add\n      0x20\n      dup1\n      swap2\n      div\n      mul\n      0x20\n      add\n      mload(0x40)\n      swap1\n      dup2\n      add\n      0x40\n      mstore\n      dup1\n      swap3\n      swap2\n      swap1\n      dup2\n      dup2\n      mstore\n      0x20\n      add\n      dup3\n      dup1\n      sload\n      tag_96\n      swap1\n      tag_90\n      jump\t// in\n    tag_96:\n      dup1\n      iszero\n      tag_97\n      jumpi\n      dup1\n      0x1f\n      lt\n      tag_98\n      jumpi\n      0x0100\n      dup1\n      dup4\n      sload\n      div\n      mul\n      dup4\n      mstore\n      swap2\n      0x20\n      add\n      swap2\n      jump(tag_97)\n    tag_98:\n      dup3\n      add\n      swap2\n      swap1\n      0x00\n      mstore\n      keccak256(0x00, 0x20)\n      swap1\n    tag_99:\n      dup2\n      sload\n      dup2\n      mstore\n      swap1\n      0x01\n      add\n      swap1\n      0x20\n      add\n      dup1\n      dup4\n      gt\n      tag_99\n      jumpi\n      dup3\n      swap1\n      sub\n      0x1f\n      and\n      dup3\n      add\n      swap2\n    tag_97:\n      pop\n      pop\n      pop\n      pop\n      pop\n      swap1\n      dup1\n      0x03\n      add\n      sload\n      swap1\n      dup1\n      0x04\n      add\n      0x00\n      swap1\n      sload\n      swap1\n      0x0100\n      exp\n      swap1\n      div\n      0xffffffffffffffffffffffffffffffffffffffff\n      and\n      swap1\n      dup1\n      0x04\n      add\n      0x14\n      swap1\n      sload\n      swap1\n      0x0100\n      exp\n      swap1\n      div\n      0xff\n      and\n      swap1\n      pop\n      dup7\n      jump\t// out\n        /* \"helloworld.sol\":2674:3334  function terminerLocation(uint _idLocation) public {... */\n    tag_41:\n        /* \"helloworld.sol\":2735:2760  Location storage location */\n      0x00\n        /* \"helloworld.sol\":2763:2772  locations */\n      0x02\n        /* \"helloworld.sol\":2763:2785  locations[_idLocation] */\n      0x00\n        /* \"helloworld.sol\":2773:2784  _idLocation */\n      dup4\n        /* \"helloworld.sol\":2763:2785  locations[_idLocation] */\n      dup2\n      mstore\n      0x20\n      add\n      swap1\n      dup2\n      mstore\n      0x20\n      add\n      0x00\n      keccak256\n        /* \"helloworld.sol\":2735:2785  Location storage location = locations[_idLocation] */\n      swap1\n      pop\n        /* \"helloworld.sol\":2823:2824  0 */\n      0x00\n        /* \"helloworld.sol\":2803:2811  location */\n      dup2\n        /* \"helloworld.sol\":2803:2819  location.idObjet */\n      0x00\n      add\n      sload\n        /* \"helloworld.sol\":2803:2824  location.idObjet != 0 */\n      sub\n        /* \"helloworld.sol\":2795:2854  require(location.idObjet != 0, \"La location n'existe pas.\") */\n      tag_101\n      jumpi\n      mload(0x40)\n      0x08c379a000000000000000000000000000000000000000000000000000000000\n      dup2\n      mstore\n      0x04\n      add\n      tag_102\n      swap1\n      tag_103\n      jump\t// in\n    tag_102:\n      mload(0x40)\n      dup1\n      swap2\n      sub\n      swap1\n      revert\n    tag_101:\n        /* \"helloworld.sol\":2894:2904  msg.sender */\n      caller\n        /* \"helloworld.sol\":2872:2904  location.locataire == msg.sender */\n      0xffffffffffffffffffffffffffffffffffffffff\n      and\n        /* \"helloworld.sol\":2872:2880  location */\n      dup2\n        /* \"helloworld.sol\":2872:2890  location.locataire */\n      0x01\n      add\n      0x00\n      swap1\n      sload\n      swap1\n      0x0100\n      exp\n      swap1\n      div\n      0xffffffffffffffffffffffffffffffffffffffff\n      and\n        /* \"helloworld.sol\":2872:2904  location.locataire == msg.sender */\n      0xffffffffffffffffffffffffffffffffffffffff\n      and\n      eq\n        /* \"helloworld.sol\":2864:2956  require(location.locataire == msg.sender, \"Vous n'etes pas le locataire de cette location.\") */\n      tag_104\n      jumpi\n      mload(0x40)\n      0x08c379a000000000000000000000000000000000000000000000000000000000\n      dup2\n      mstore\n      0x04\n      add\n      tag_105\n      swap1\n      tag_106\n      jump\t// in\n    tag_105:\n      mload(0x40)\n      dup1\n      swap2\n      sub\n      swap1\n      revert\n    tag_104:\n        /* \"helloworld.sol\":2974:2982  location */\n      dup1\n        /* \"helloworld.sol\":2974:2989  location.active */\n      0x04\n      add\n      0x00\n      swap1\n      sload\n      swap1\n      0x0100\n      exp\n      swap1\n      div\n      0xff\n      and\n        /* \"helloworld.sol\":2966:3024  require(location.active, \"La location est deja terminee.\") */\n      tag_107\n      jumpi\n      mload(0x40)\n      0x08c379a000000000000000000000000000000000000000000000000000000000\n      dup2\n      mstore\n      0x04\n      add\n      tag_108\n      swap1\n      tag_109\n      jump\t// in\n    tag_108:\n      mload(0x40)\n      dup1\n      swap2\n      sub\n      swap1\n      revert\n    tag_107:\n        /* \"helloworld.sol\":3061:3069  location */\n      dup1\n        /* \"helloworld.sol\":3061:3077  location.dateFin */\n      0x03\n      add\n      sload\n        /* \"helloworld.sol\":3042:3057  block.timestamp */\n      timestamp\n        /* \"helloworld.sol\":3042:3077  block.timestamp >= location.dateFin */\n      lt\n      iszero\n        /* \"helloworld.sol\":3034:3131  require(block.timestamp >= location.dateFin, \"La periode de location n'est pas encore terminee.\") */\n      tag_110\n      jumpi\n      mload(0x40)\n      0x08c379a000000000000000000000000000000000000000000000000000000000\n      dup2\n      mstore\n      0x04\n      add\n      tag_111\n      swap1\n      tag_112\n      jump\t// in\n    tag_111:\n      mload(0x40)\n      dup1\n      swap2\n      sub\n      swap1\n      revert\n    tag_110:\n        /* \"helloworld.sol\":3228:3232  true */\n      0x01\n        /* \"helloworld.sol\":3190:3196  objets */\n      0x00\n        /* \"helloworld.sol\":3190:3214  objets[location.idObjet] */\n      dup1\n        /* \"helloworld.sol\":3197:3205  location */\n      dup4\n        /* \"helloworld.sol\":3197:3213  location.idObjet */\n      0x00\n      add\n      sload\n        /* \"helloworld.sol\":3190:3214  objets[location.idObjet] */\n      dup2\n      mstore\n      0x20\n      add\n      swap1\n      dup2\n      mstore\n      0x20\n      add\n      0x00\n      keccak256\n        /* \"helloworld.sol\":3190:3225  objets[location.idObjet].disponible */\n      0x04\n      add\n      0x14\n        /* \"helloworld.sol\":3190:3232  objets[location.idObjet].disponible = true */\n      0x0100\n      exp\n      dup2\n      sload\n      dup2\n      0xff\n      mul\n      not\n      and\n      swap1\n      dup4\n      iszero\n      iszero\n      mul\n      or\n      swap1\n      sstore\n      pop\n        /* \"helloworld.sol\":3260:3265  false */\n      0x00\n        /* \"helloworld.sol\":3242:3250  location */\n      dup2\n        /* \"helloworld.sol\":3242:3257  location.active */\n      0x04\n      add\n      0x00\n        /* \"helloworld.sol\":3242:3265  location.active = false */\n      0x0100\n      exp\n      dup2\n      sload\n      dup2\n      0xff\n      mul\n      not\n      and\n      swap1\n      dup4\n      iszero\n      iszero\n      mul\n      or\n      swap1\n      sstore\n      pop\n        /* \"helloworld.sol\":3281:3327  LocationTerminee(location.idObjet, msg.sender) */\n      0x88b44be84c9052ba1bdca3b4b4466d38e2a4b94ea5b796d4bbb6070902d9bd19\n        /* \"helloworld.sol\":3298:3306  location */\n      dup2\n        /* \"helloworld.sol\":3298:3314  location.idObjet */\n      0x00\n      add\n      sload\n        /* \"helloworld.sol\":3316:3326  msg.sender */\n      caller\n        /* \"helloworld.sol\":3281:3327  LocationTerminee(location.idObjet, msg.sender) */\n      mload(0x40)\n      tag_113\n      swap3\n      swap2\n      swap1\n      tag_114\n      jump\t// in\n    tag_113:\n      mload(0x40)\n      dup1\n      swap2\n      sub\n      swap1\n      log1\n        /* \"helloworld.sol\":2725:3334  {... */\n      pop\n        /* \"helloworld.sol\":2674:3334  function terminerLocation(uint _idLocation) public {... */\n      pop\n      jump\t// out\n        /* \"helloworld.sol\":1705:2610  function louerObjet(uint _idObjet, uint _jours) public payable {... */\n    tag_45:\n        /* \"helloworld.sol\":1778:1797  Objet storage objet */\n      0x00\n        /* \"helloworld.sol\":1800:1806  objets */\n      dup1\n        /* \"helloworld.sol\":1800:1816  objets[_idObjet] */\n      0x00\n        /* \"helloworld.sol\":1807:1815  _idObjet */\n      dup5\n        /* \"helloworld.sol\":1800:1816  objets[_idObjet] */\n      dup2\n      mstore\n      0x20\n      add\n      swap1\n      dup2\n      mstore\n      0x20\n      add\n      0x00\n      keccak256\n        /* \"helloworld.sol\":1778:1816  Objet storage objet = objets[_idObjet] */\n      swap1\n      pop\n        /* \"helloworld.sol\":1846:1847  0 */\n      0x00\n        /* \"helloworld.sol\":1834:1839  objet */\n      dup2\n        /* \"helloworld.sol\":1834:1842  objet.id */\n      0x00\n      add\n      sload\n        /* \"helloworld.sol\":1834:1847  objet.id != 0 */\n      sub\n        /* \"helloworld.sol\":1826:1873  require(objet.id != 0, \"L'objet n'existe pas.\") */\n      tag_116\n      jumpi\n      mload(0x40)\n      0x08c379a000000000000000000000000000000000000000000000000000000000\n      dup2\n      mstore\n      0x04\n      add\n      tag_117\n      swap1\n      tag_118\n      jump\t// in\n    tag_117:\n      mload(0x40)\n      dup1\n      swap2\n      sub\n      swap1\n      revert\n    tag_116:\n        /* \"helloworld.sol\":1891:1896  objet */\n      dup1\n        /* \"helloworld.sol\":1891:1907  objet.disponible */\n      0x04\n      add\n      0x14\n      swap1\n      sload\n      swap1\n      0x0100\n      exp\n      swap1\n      div\n      0xff\n      and\n        /* \"helloworld.sol\":1883:1941  require(objet.disponible, \"L'objet n'est pas disponible.\") */\n      tag_119\n      jumpi\n      mload(0x40)\n      0x08c379a000000000000000000000000000000000000000000000000000000000\n      dup2\n      mstore\n      0x04\n      add\n      tag_120\n      swap1\n      tag_121\n      jump\t// in\n    tag_120:\n      mload(0x40)\n      dup1\n      swap2\n      sub\n      swap1\n      revert\n    tag_119:\n        /* \"helloworld.sol\":1968:1969  0 */\n      0x00\n        /* \"helloworld.sol\":1959:1965  _jours */\n      dup3\n        /* \"helloworld.sol\":1959:1969  _jours > 0 */\n      gt\n        /* \"helloworld.sol\":1951:2023  require(_jours > 0, \"La duree de location doit etre superieure a zero.\") */\n      tag_122\n      jumpi\n      mload(0x40)\n      0x08c379a000000000000000000000000000000000000000000000000000000000\n      dup2\n      mstore\n      0x04\n      add\n      tag_123\n      swap1\n      tag_124\n      jump\t// in\n    tag_123:\n      mload(0x40)\n      dup1\n      swap2\n      sub\n      swap1\n      revert\n    tag_122:\n        /* \"helloworld.sol\":2033:2050  uint montantTotal */\n      0x00\n        /* \"helloworld.sol\":2077:2083  _jours */\n      dup3\n        /* \"helloworld.sol\":2053:2058  objet */\n      dup3\n        /* \"helloworld.sol\":2053:2074  objet.tarifJournalier */\n      0x03\n      add\n      sload\n        /* \"helloworld.sol\":2053:2083  objet.tarifJournalier * _jours */\n      tag_125\n      swap2\n      swap1\n      tag_126\n      jump\t// in\n    tag_125:\n        /* \"helloworld.sol\":2033:2083  uint montantTotal = objet.tarifJournalier * _jours */\n      swap1\n      pop\n        /* \"helloworld.sol\":2114:2126  montantTotal */\n      dup1\n        /* \"helloworld.sol\":2101:2110  msg.value */\n      callvalue\n        /* \"helloworld.sol\":2101:2126  msg.value >= montantTotal */\n      lt\n      iszero\n        /* \"helloworld.sol\":2093:2165  require(msg.value >= montantTotal, \"Le montant envoye est insuffisant.\") */\n      tag_127\n      jumpi\n      mload(0x40)\n      0x08c379a000000000000000000000000000000000000000000000000000000000\n      dup2\n      mstore\n      0x04\n      add\n      tag_128\n      swap1\n      tag_129\n      jump\t// in\n    tag_128:\n      mload(0x40)\n      dup1\n      swap2\n      sub\n      swap1\n      revert\n    tag_127:\n        /* \"helloworld.sol\":2216:2233  compteurLocations */\n      0x03\n      0x00\n        /* \"helloworld.sol\":2216:2235  compteurLocations++ */\n      dup2\n      sload\n      dup1\n      swap3\n      swap2\n      swap1\n      tag_130\n      swap1\n      tag_79\n      jump\t// in\n    tag_130:\n      swap2\n      swap1\n      pop\n      sstore\n      pop\n        /* \"helloworld.sol\":2276:2366  Location(_idObjet, msg.sender, block.timestamp, block.timestamp + (_jours * 1 days), true) */\n      mload(0x40)\n      dup1\n      0xa0\n      add\n      0x40\n      mstore\n      dup1\n        /* \"helloworld.sol\":2285:2293  _idObjet */\n      dup6\n        /* \"helloworld.sol\":2276:2366  Location(_idObjet, msg.sender, block.timestamp, block.timestamp + (_jours * 1 days), true) */\n      dup2\n      mstore\n      0x20\n      add\n        /* \"helloworld.sol\":2295:2305  msg.sender */\n      caller\n        /* \"helloworld.sol\":2276:2366  Location(_idObjet, msg.sender, block.timestamp, block.timestamp + (_jours * 1 days), true) */\n      0xffffffffffffffffffffffffffffffffffffffff\n      and\n      dup2\n      mstore\n      0x20\n      add\n        /* \"helloworld.sol\":2307:2322  block.timestamp */\n      timestamp\n        /* \"helloworld.sol\":2276:2366  Location(_idObjet, msg.sender, block.timestamp, block.timestamp + (_jours * 1 days), true) */\n      dup2\n      mstore\n      0x20\n      add\n        /* \"helloworld.sol\":2352:2358  1 days */\n      0x015180\n        /* \"helloworld.sol\":2343:2349  _jours */\n      dup6\n        /* \"helloworld.sol\":2343:2358  _jours * 1 days */\n      tag_131\n      swap2\n      swap1\n      tag_126\n      jump\t// in\n    tag_131:\n        /* \"helloworld.sol\":2324:2339  block.timestamp */\n      timestamp\n        /* \"helloworld.sol\":2324:2359  block.timestamp + (_jours * 1 days) */\n      tag_132\n      swap2\n      swap1\n      tag_133\n      jump\t// in\n    tag_132:\n        /* \"helloworld.sol\":2276:2366  Location(_idObjet, msg.sender, block.timestamp, block.timestamp + (_jours * 1 days), true) */\n      dup2\n      mstore\n      0x20\n      add\n        /* \"helloworld.sol\":2361:2365  true */\n      0x01\n        /* \"helloworld.sol\":2276:2366  Location(_idObjet, msg.sender, block.timestamp, block.timestamp + (_jours * 1 days), true) */\n      iszero\n      iszero\n      dup2\n      mstore\n      pop\n        /* \"helloworld.sol\":2245:2254  locations */\n      0x02\n        /* \"helloworld.sol\":2245:2273  locations[compteurLocations] */\n      0x00\n        /* \"helloworld.sol\":2255:2272  compteurLocations */\n      sload(0x03)\n        /* \"helloworld.sol\":2245:2273  locations[compteurLocations] */\n      dup2\n      mstore\n      0x20\n      add\n      swap1\n      dup2\n      mstore\n      0x20\n      add\n      0x00\n      keccak256\n        /* \"helloworld.sol\":2245:2366  locations[compteurLocations] = Location(_idObjet, msg.sender, block.timestamp, block.timestamp + (_jours * 1 days), true) */\n      0x00\n      dup3\n      add\n      mload\n      dup2\n      0x00\n      add\n      sstore\n      0x20\n      dup3\n      add\n      mload\n      dup2\n      0x01\n      add\n      exp(0x0100, 0x00)\n      dup2\n      sload\n      dup2\n      0xffffffffffffffffffffffffffffffffffffffff\n      mul\n      not\n      and\n      swap1\n      dup4\n      0xffffffffffffffffffffffffffffffffffffffff\n      and\n      mul\n      or\n      swap1\n      sstore\n      pop\n      0x40\n      dup3\n      add\n      mload\n      dup2\n      0x02\n      add\n      sstore\n      0x60\n      dup3\n      add\n      mload\n      dup2\n      0x03\n      add\n      sstore\n      0x80\n      dup3\n      add\n      mload\n      dup2\n      0x04\n      add\n      exp(0x0100, 0x00)\n      dup2\n      sload\n      dup2\n      0xff\n      mul\n      not\n      and\n      swap1\n      dup4\n      iszero\n      iszero\n      mul\n      or\n      swap1\n      sstore\n      pop\n      swap1\n      pop\n      pop\n        /* \"helloworld.sol\":2395:2400  false */\n      0x00\n        /* \"helloworld.sol\":2376:2381  objet */\n      dup3\n        /* \"helloworld.sol\":2376:2392  objet.disponible */\n      0x04\n      add\n      0x14\n        /* \"helloworld.sol\":2376:2400  objet.disponible = false */\n      0x0100\n      exp\n      dup2\n      sload\n      dup2\n      0xff\n      mul\n      not\n      and\n      swap1\n      dup4\n      iszero\n      iszero\n      mul\n      or\n      swap1\n      sstore\n      pop\n        /* \"helloworld.sol\":2461:2466  objet */\n      dup2\n        /* \"helloworld.sol\":2461:2479  objet.proprietaire */\n      0x04\n      add\n      0x00\n      swap1\n      sload\n      swap1\n      0x0100\n      exp\n      swap1\n      div\n      0xffffffffffffffffffffffffffffffffffffffff\n      and\n        /* \"helloworld.sol\":2461:2488  objet.proprietaire.transfer */\n      0xffffffffffffffffffffffffffffffffffffffff\n      and\n        /* \"helloworld.sol\":2461:2502  objet.proprietaire.transfer(montantTotal) */\n      0x08fc\n        /* \"helloworld.sol\":2489:2501  montantTotal */\n      dup3\n        /* \"helloworld.sol\":2461:2502  objet.proprietaire.transfer(montantTotal) */\n      swap1\n      dup2\n      iszero\n      mul\n      swap1\n      mload(0x40)\n      0x00\n      mload(0x40)\n      dup1\n      dup4\n      sub\n      dup2\n      dup6\n      dup9\n      dup9\n      call\n      swap4\n      pop\n      pop\n      pop\n      pop\n      iszero\n      dup1\n      iszero\n      tag_135\n      jumpi\n      returndatasize\n      0x00\n      dup1\n      returndatacopy\n      revert(0x00, returndatasize)\n    tag_135:\n      pop\n        /* \"helloworld.sol\":2518:2603  ObjetLoue(_idObjet, msg.sender, block.timestamp, block.timestamp + (_jours * 1 days)) */\n      0xb5e6b43362122ac4abe748fad573713109c8b3e5613fe7b515335c012a9ba170\n        /* \"helloworld.sol\":2528:2536  _idObjet */\n      dup5\n        /* \"helloworld.sol\":2538:2548  msg.sender */\n      caller\n        /* \"helloworld.sol\":2550:2565  block.timestamp */\n      timestamp\n        /* \"helloworld.sol\":2595:2601  1 days */\n      0x015180\n        /* \"helloworld.sol\":2586:2592  _jours */\n      dup8\n        /* \"helloworld.sol\":2586:2601  _jours * 1 days */\n      tag_136\n      swap2\n      swap1\n      tag_126\n      jump\t// in\n    tag_136:\n        /* \"helloworld.sol\":2567:2582  block.timestamp */\n      timestamp\n        /* \"helloworld.sol\":2567:2602  block.timestamp + (_jours * 1 days) */\n      tag_137\n      swap2\n      swap1\n      tag_133\n      jump\t// in\n    tag_137:\n        /* \"helloworld.sol\":2518:2603  ObjetLoue(_idObjet, msg.sender, block.timestamp, block.timestamp + (_jours * 1 days)) */\n      mload(0x40)\n      tag_138\n      swap5\n      swap4\n      swap3\n      swap2\n      swap1\n      tag_139\n      jump\t// in\n    tag_138:\n      mload(0x40)\n      dup1\n      swap2\n      sub\n      swap1\n      log1\n        /* \"helloworld.sol\":1768:2610  {... */\n      pop\n      pop\n        /* \"helloworld.sol\":1705:2610  function louerObjet(uint _idObjet, uint _jours) public payable {... */\n      pop\n      pop\n      jump\t// out\n        /* \"helloworld.sol\":687:729  mapping(uint => Location) public locations */\n    tag_49:\n      mstore(0x20, 0x02)\n      dup1\n      0x00\n      mstore\n      keccak256(0x00, 0x40)\n      0x00\n      swap2\n      pop\n      swap1\n      pop\n      dup1\n      0x00\n      add\n      sload\n      swap1\n      dup1\n      0x01\n      add\n      0x00\n      swap1\n      sload\n      swap1\n      0x0100\n      exp\n      swap1\n      div\n      0xffffffffffffffffffffffffffffffffffffffff\n      and\n      swap1\n      dup1\n      0x02\n      add\n      sload\n      swap1\n      dup1\n      0x03\n      add\n      sload\n      swap1\n      dup1\n      0x04\n      add\n      0x00\n      swap1\n      sload\n      swap1\n      0x0100\n      exp\n      swap1\n      div\n      0xff\n      and\n      swap1\n      pop\n      dup6\n      jump\t// out\n        /* \"helloworld.sol\":842:896  mapping(address => uint[]) public objetsParUtilisateur */\n    tag_56:\n      mstore(0x20, 0x04)\n      dup2\n      0x00\n      mstore\n      keccak256(0x00, 0x40)\n      dup2\n      dup2\n      sload\n      dup2\n      lt\n      tag_140\n      jumpi\n      0x00\n      dup1\n      revert\n    tag_140:\n      swap1\n      0x00\n      mstore\n      keccak256(0x00, 0x20)\n      add\n      0x00\n      swap2\n      pop\n      swap2\n      pop\n      pop\n      sload\n      dup2\n      jump\t// out\n        /* \"helloworld.sol\":3807:4017  function obtenirLocation(uint _idLocation) public view returns (Location memory) {... */\n    tag_61:\n        /* \"helloworld.sol\":3871:3886  Location memory */\n      tag_142\n      tag_143\n      jump\t// in\n    tag_142:\n        /* \"helloworld.sol\":3940:3941  0 */\n      0x00\n        /* \"helloworld.sol\":3906:3915  locations */\n      0x02\n        /* \"helloworld.sol\":3906:3928  locations[_idLocation] */\n      0x00\n        /* \"helloworld.sol\":3916:3927  _idLocation */\n      dup5\n        /* \"helloworld.sol\":3906:3928  locations[_idLocation] */\n      dup2\n      mstore\n      0x20\n      add\n      swap1\n      dup2\n      mstore\n      0x20\n      add\n      0x00\n      keccak256\n        /* \"helloworld.sol\":3906:3936  locations[_idLocation].idObjet */\n      0x00\n      add\n      sload\n        /* \"helloworld.sol\":3906:3941  locations[_idLocation].idObjet != 0 */\n      sub\n        /* \"helloworld.sol\":3898:3971  require(locations[_idLocation].idObjet != 0, \"La location n'existe pas.\") */\n      tag_145\n      jumpi\n      mload(0x40)\n      0x08c379a000000000000000000000000000000000000000000000000000000000\n      dup2\n      mstore\n      0x04\n      add\n      tag_146\n      swap1\n      tag_103\n      jump\t// in\n    tag_146:\n      mload(0x40)\n      dup1\n      swap2\n      sub\n      swap1\n      revert\n    tag_145:\n        /* \"helloworld.sol\":3988:3997  locations */\n      0x02\n        /* \"helloworld.sol\":3988:4010  locations[_idLocation] */\n      0x00\n        /* \"helloworld.sol\":3998:4009  _idLocation */\n      dup4\n        /* \"helloworld.sol\":3988:4010  locations[_idLocation] */\n      dup2\n      mstore\n      0x20\n      add\n      swap1\n      dup2\n      mstore\n      0x20\n      add\n      0x00\n      keccak256\n        /* \"helloworld.sol\":3981:4010  return locations[_idLocation] */\n      mload(0x40)\n      dup1\n      0xa0\n      add\n      0x40\n      mstore\n      swap1\n      dup2\n      0x00\n      dup3\n      add\n      sload\n      dup2\n      mstore\n      0x20\n      add\n      0x01\n      dup3\n      add\n      0x00\n      swap1\n      sload\n      swap1\n      0x0100\n      exp\n      swap1\n      div\n      0xffffffffffffffffffffffffffffffffffffffff\n      and\n      0xffffffffffffffffffffffffffffffffffffffff\n      and\n      0xffffffffffffffffffffffffffffffffffffffff\n      and\n      dup2\n      mstore\n      0x20\n      add\n      0x02\n      dup3\n      add\n      sload\n      dup2\n      mstore\n      0x20\n      add\n      0x03\n      dup3\n      add\n      sload\n      dup2\n      mstore\n      0x20\n      add\n      0x04\n      dup3\n      add\n      0x00\n      swap1\n      sload\n      swap1\n      0x0100\n      exp\n      swap1\n      div\n      0xff\n      and\n      iszero\n      iszero\n      iszero\n      iszero\n      dup2\n      mstore\n      pop\n      pop\n      swap1\n      pop\n        /* \"helloworld.sol\":3807:4017  function obtenirLocation(uint _idLocation) public view returns (Location memory) {... */\n      swap2\n      swap1\n      pop\n      jump\t// out\n        /* \"helloworld.sol\":3578:3758  function obtenirObjet(uint _idObjet) public view returns (Objet memory) {... */\n    tag_67:\n        /* \"helloworld.sol\":3636:3648  Objet memory */\n      tag_147\n      tag_148\n      jump\t// in\n    tag_147:\n        /* \"helloworld.sol\":3691:3692  0 */\n      0x00\n        /* \"helloworld.sol\":3668:3674  objets */\n      dup1\n        /* \"helloworld.sol\":3668:3684  objets[_idObjet] */\n      0x00\n        /* \"helloworld.sol\":3675:3683  _idObjet */\n      dup5\n        /* \"helloworld.sol\":3668:3684  objets[_idObjet] */\n      dup2\n      mstore\n      0x20\n      add\n      swap1\n      dup2\n      mstore\n      0x20\n      add\n      0x00\n      keccak256\n        /* \"helloworld.sol\":3668:3687  objets[_idObjet].id */\n      0x00\n      add\n      sload\n        /* \"helloworld.sol\":3668:3692  objets[_idObjet].id != 0 */\n      sub\n        /* \"helloworld.sol\":3660:3718  require(objets[_idObjet].id != 0, \"L'objet n'existe pas.\") */\n      tag_150\n      jumpi\n      mload(0x40)\n      0x08c379a000000000000000000000000000000000000000000000000000000000\n      dup2\n      mstore\n      0x04\n      add\n      tag_151\n      swap1\n      tag_118\n      jump\t// in\n    tag_151:\n      mload(0x40)\n      dup1\n      swap2\n      sub\n      swap1\n      revert\n    tag_150:\n        /* \"helloworld.sol\":3735:3741  objets */\n      0x00\n        /* \"helloworld.sol\":3735:3751  objets[_idObjet] */\n      dup1\n        /* \"helloworld.sol\":3742:3750  _idObjet */\n      dup4\n        /* \"helloworld.sol\":3735:3751  objets[_idObjet] */\n      dup2\n      mstore\n      0x20\n      add\n      swap1\n      dup2\n      mstore\n      0x20\n      add\n      0x00\n      keccak256\n        /* \"helloworld.sol\":3728:3751  return objets[_idObjet] */\n      mload(0x40)\n      dup1\n      0xc0\n      add\n      0x40\n      mstore\n      swap1\n      dup2\n      0x00\n      dup3\n      add\n      sload\n      dup2\n      mstore\n      0x20\n      add\n      0x01\n      dup3\n      add\n      dup1\n      sload\n      tag_152\n      swap1\n      tag_90\n      jump\t// in\n    tag_152:\n      dup1\n      0x1f\n      add\n      0x20\n      dup1\n      swap2\n      div\n      mul\n      0x20\n      add\n      mload(0x40)\n      swap1\n      dup2\n      add\n      0x40\n      mstore\n      dup1\n      swap3\n      swap2\n      swap1\n      dup2\n      dup2\n      mstore\n      0x20\n      add\n      dup3\n      dup1\n      sload\n      tag_153\n      swap1\n      tag_90\n      jump\t// in\n    tag_153:\n      dup1\n      iszero\n      tag_154\n      jumpi\n      dup1\n      0x1f\n      lt\n      tag_155\n      jumpi\n      0x0100\n      dup1\n      dup4\n      sload\n      div\n      mul\n      dup4\n      mstore\n      swap2\n      0x20\n      add\n      swap2\n      jump(tag_154)\n    tag_155:\n      dup3\n      add\n      swap2\n      swap1\n      0x00\n      mstore\n      keccak256(0x00, 0x20)\n      swap1\n    tag_156:\n      dup2\n      sload\n      dup2\n      mstore\n      swap1\n      0x01\n      add\n      swap1\n      0x20\n      add\n      dup1\n      dup4\n      gt\n      tag_156\n      jumpi\n      dup3\n      swap1\n      sub\n      0x1f\n      and\n      dup3\n      add\n      swap2\n    tag_154:\n      pop\n      pop\n      pop\n      pop\n      pop\n      dup2\n      mstore\n      0x20\n      add\n      0x02\n      dup3\n      add\n      dup1\n      sload\n      tag_157\n      swap1\n      tag_90\n      jump\t// in\n    tag_157:\n      dup1\n      0x1f\n      add\n      0x20\n      dup1\n      swap2\n      div\n      mul\n      0x20\n      add\n      mload(0x40)\n      swap1\n      dup2\n      add\n      0x40\n      mstore\n      dup1\n      swap3\n      swap2\n      swap1\n      dup2\n      dup2\n      mstore\n      0x20\n      add\n      dup3\n      dup1\n      sload\n      tag_158\n      swap1\n      tag_90\n      jump\t// in\n    tag_158:\n      dup1\n      iszero\n      tag_159\n      jumpi\n      dup1\n      0x1f\n      lt\n      tag_160\n      jumpi\n      0x0100\n      dup1\n      dup4\n      sload\n      div\n      mul\n      dup4\n      mstore\n      swap2\n      0x20\n      add\n      swap2\n      jump(tag_159)\n    tag_160:\n      dup3\n      add\n      swap2\n      swap1\n      0x00\n      mstore\n      keccak256(0x00, 0x20)\n      swap1\n    tag_161:\n      dup2\n      sload\n      dup2\n      mstore\n      swap1\n      0x01\n      add\n      swap1\n      0x20\n      add\n      dup1\n      dup4\n      gt\n      tag_161\n      jumpi\n      dup3\n      swap1\n      sub\n      0x1f\n      and\n      dup3\n      add\n      swap2\n    tag_159:\n      pop\n      pop\n      pop\n      pop\n      pop\n      dup2\n      mstore\n      0x20\n      add\n      0x03\n      dup3\n      add\n      sload\n      dup2\n      mstore\n      0x20\n      add\n      0x04\n      dup3\n      add\n      0x00\n      swap1\n      sload\n      swap1\n      0x0100\n      exp\n      swap1\n      div\n      0xffffffffffffffffffffffffffffffffffffffff\n      and\n      0xffffffffffffffffffffffffffffffffffffffff\n      and\n      0xffffffffffffffffffffffffffffffffffffffff\n      and\n      dup2\n      mstore\n      0x20\n      add\n      0x04\n      dup3\n      add\n      0x14\n      swap1\n      sload\n      swap1\n      0x0100\n      exp\n      swap1\n      div\n      0xff\n      and\n      iszero\n      iszero\n      iszero\n      iszero\n      dup2\n      mstore\n      pop\n      pop\n      swap1\n      pop\n        /* \"helloworld.sol\":3578:3758  function obtenirObjet(uint _idObjet) public view returns (Objet memory) {... */\n      swap2\n      swap1\n      pop\n      jump\t// out\n        /* \"helloworld.sol\":735:764  uint public compteurLocations */\n    tag_72:\n      sload(0x03)\n      dup2\n      jump\t// out\n    tag_143:\n      mload(0x40)\n      dup1\n      0xa0\n      add\n      0x40\n      mstore\n      dup1\n      0x00\n      dup2\n      mstore\n      0x20\n      add\n      and(0xffffffffffffffffffffffffffffffffffffffff, 0x00)\n      dup2\n      mstore\n      0x20\n      add\n      0x00\n      dup2\n      mstore\n      0x20\n      add\n      0x00\n      dup2\n      mstore\n      0x20\n      add\n      iszero(iszero(0x00))\n      dup2\n      mstore\n      pop\n      swap1\n      jump\t// out\n    tag_148:\n      mload(0x40)\n      dup1\n      0xc0\n      add\n      0x40\n      mstore\n      dup1\n      0x00\n      dup2\n      mstore\n      0x20\n      add\n      0x60\n      dup2\n      mstore\n      0x20\n      add\n      0x60\n      dup2\n      mstore\n      0x20\n      add\n      0x00\n      dup2\n      mstore\n      0x20\n      add\n      and(0xffffffffffffffffffffffffffffffffffffffff, 0x00)\n      dup2\n      mstore\n      0x20\n      add\n      iszero(iszero(0x00))\n      dup2\n      mstore\n      pop\n      swap1\n      jump\t// out\n        /* \"#utility.yul\":7:82   */\n    tag_162:\n        /* \"#utility.yul\":40:46   */\n      0x00\n        /* \"#utility.yul\":73:75   */\n      0x40\n        /* \"#utility.yul\":67:76   */\n      mload\n        /* \"#utility.yul\":57:76   */\n      swap1\n      pop\n        /* \"#utility.yul\":7:82   */\n      swap1\n      jump\t// out\n        /* \"#utility.yul\":88:205   */\n    tag_163:\n        /* \"#utility.yul\":197:198   */\n      0x00\n        /* \"#utility.yul\":194:195   */\n      dup1\n        /* \"#utility.yul\":187:199   */\n      revert\n        /* \"#utility.yul\":211:328   */\n    tag_164:\n        /* \"#utility.yul\":320:321   */\n      0x00\n        /* \"#utility.yul\":317:318   */\n      dup1\n        /* \"#utility.yul\":310:322   */\n      revert\n        /* \"#utility.yul\":334:451   */\n    tag_165:\n        /* \"#utility.yul\":443:444   */\n      0x00\n        /* \"#utility.yul\":440:441   */\n      dup1\n        /* \"#utility.yul\":433:445   */\n      revert\n        /* \"#utility.yul\":457:574   */\n    tag_166:\n        /* \"#utility.yul\":566:567   */\n      0x00\n        /* \"#utility.yul\":563:564   */\n      dup1\n        /* \"#utility.yul\":556:568   */\n      revert\n        /* \"#utility.yul\":580:682   */\n    tag_167:\n        /* \"#utility.yul\":621:627   */\n      0x00\n        /* \"#utility.yul\":672:674   */\n      0x1f\n        /* \"#utility.yul\":668:675   */\n      not\n        /* \"#utility.yul\":663:665   */\n      0x1f\n        /* \"#utility.yul\":656:661   */\n      dup4\n        /* \"#utility.yul\":652:666   */\n      add\n        /* \"#utility.yul\":648:676   */\n      and\n        /* \"#utility.yul\":638:676   */\n      swap1\n      pop\n        /* \"#utility.yul\":580:682   */\n      swap2\n      swap1\n      pop\n      jump\t// out\n        /* \"#utility.yul\":688:868   */\n    tag_168:\n        /* \"#utility.yul\":736:813   */\n      0x4e487b7100000000000000000000000000000000000000000000000000000000\n        /* \"#utility.yul\":733:734   */\n      0x00\n        /* \"#utility.yul\":726:814   */\n      mstore\n        /* \"#utility.yul\":833:837   */\n      0x41\n        /* \"#utility.yul\":830:831   */\n      0x04\n        /* \"#utility.yul\":823:838   */\n      mstore\n        /* \"#utility.yul\":857:861   */\n      0x24\n        /* \"#utility.yul\":854:855   */\n      0x00\n        /* \"#utility.yul\":847:862   */\n      revert\n        /* \"#utility.yul\":874:1155   */\n    tag_169:\n        /* \"#utility.yul\":957:984   */\n      tag_250\n        /* \"#utility.yul\":979:983   */\n      dup3\n        /* \"#utility.yul\":957:984   */\n      tag_167\n      jump\t// in\n    tag_250:\n        /* \"#utility.yul\":949:955   */\n      dup2\n        /* \"#utility.yul\":945:985   */\n      add\n        /* \"#utility.yul\":1087:1093   */\n      dup2\n        /* \"#utility.yul\":1075:1085   */\n      dup2\n        /* \"#utility.yul\":1072:1094   */\n      lt\n        /* \"#utility.yul\":1051:1069   */\n      0xffffffffffffffff\n        /* \"#utility.yul\":1039:1049   */\n      dup3\n        /* \"#utility.yul\":1036:1070   */\n      gt\n        /* \"#utility.yul\":1033:1095   */\n      or\n        /* \"#utility.yul\":1030:1118   */\n      iszero\n      tag_251\n      jumpi\n        /* \"#utility.yul\":1098:1116   */\n      tag_252\n      tag_168\n      jump\t// in\n    tag_252:\n        /* \"#utility.yul\":1030:1118   */\n    tag_251:\n        /* \"#utility.yul\":1138:1148   */\n      dup1\n        /* \"#utility.yul\":1134:1136   */\n      0x40\n        /* \"#utility.yul\":1127:1149   */\n      mstore\n        /* \"#utility.yul\":917:1155   */\n      pop\n        /* \"#utility.yul\":874:1155   */\n      pop\n      pop\n      jump\t// out\n        /* \"#utility.yul\":1161:1290   */\n    tag_170:\n        /* \"#utility.yul\":1195:1201   */\n      0x00\n        /* \"#utility.yul\":1222:1242   */\n      tag_254\n      tag_162\n      jump\t// in\n    tag_254:\n        /* \"#utility.yul\":1212:1242   */\n      swap1\n      pop\n        /* \"#utility.yul\":1251:1284   */\n      tag_255\n        /* \"#utility.yul\":1279:1283   */\n      dup3\n        /* \"#utility.yul\":1271:1277   */\n      dup3\n        /* \"#utility.yul\":1251:1284   */\n      tag_169\n      jump\t// in\n    tag_255:\n        /* \"#utility.yul\":1161:1290   */\n      swap2\n      swap1\n      pop\n      jump\t// out\n        /* \"#utility.yul\":1296:1604   */\n    tag_171:\n        /* \"#utility.yul\":1358:1362   */\n      0x00\n        /* \"#utility.yul\":1448:1466   */\n      0xffffffffffffffff\n        /* \"#utility.yul\":1440:1446   */\n      dup3\n        /* \"#utility.yul\":1437:1467   */\n      gt\n        /* \"#utility.yul\":1434:1490   */\n      iszero\n      tag_257\n      jumpi\n        /* \"#utility.yul\":1470:1488   */\n      tag_258\n      tag_168\n      jump\t// in\n    tag_258:\n        /* \"#utility.yul\":1434:1490   */\n    tag_257:\n        /* \"#utility.yul\":1508:1537   */\n      tag_259\n        /* \"#utility.yul\":1530:1536   */\n      dup3\n        /* \"#utility.yul\":1508:1537   */\n      tag_167\n      jump\t// in\n    tag_259:\n        /* \"#utility.yul\":1500:1537   */\n      swap1\n      pop\n        /* \"#utility.yul\":1592:1596   */\n      0x20\n        /* \"#utility.yul\":1586:1590   */\n      dup2\n        /* \"#utility.yul\":1582:1597   */\n      add\n        /* \"#utility.yul\":1574:1597   */\n      swap1\n      pop\n        /* \"#utility.yul\":1296:1604   */\n      swap2\n      swap1\n      pop\n      jump\t// out\n        /* \"#utility.yul\":1610:1758   */\n    tag_172:\n        /* \"#utility.yul\":1708:1714   */\n      dup3\n        /* \"#utility.yul\":1703:1706   */\n      dup2\n        /* \"#utility.yul\":1698:1701   */\n      dup4\n        /* \"#utility.yul\":1685:1715   */\n      calldatacopy\n        /* \"#utility.yul\":1749:1750   */\n      0x00\n        /* \"#utility.yul\":1740:1746   */\n      dup4\n        /* \"#utility.yul\":1735:1738   */\n      dup4\n        /* \"#utility.yul\":1731:1747   */\n      add\n        /* \"#utility.yul\":1724:1751   */\n      mstore\n        /* \"#utility.yul\":1610:1758   */\n      pop\n      pop\n      pop\n      jump\t// out\n        /* \"#utility.yul\":1764:2189   */\n    tag_173:\n        /* \"#utility.yul\":1842:1847   */\n      0x00\n        /* \"#utility.yul\":1867:1933   */\n      tag_262\n        /* \"#utility.yul\":1883:1932   */\n      tag_263\n        /* \"#utility.yul\":1925:1931   */\n      dup5\n        /* \"#utility.yul\":1883:1932   */\n      tag_171\n      jump\t// in\n    tag_263:\n        /* \"#utility.yul\":1867:1933   */\n      tag_170\n      jump\t// in\n    tag_262:\n        /* \"#utility.yul\":1858:1933   */\n      swap1\n      pop\n        /* \"#utility.yul\":1956:1962   */\n      dup3\n        /* \"#utility.yul\":1949:1954   */\n      dup2\n        /* \"#utility.yul\":1942:1963   */\n      mstore\n        /* \"#utility.yul\":1994:1998   */\n      0x20\n        /* \"#utility.yul\":1987:1992   */\n      dup2\n        /* \"#utility.yul\":1983:1999   */\n      add\n        /* \"#utility.yul\":2032:2035   */\n      dup5\n        /* \"#utility.yul\":2023:2029   */\n      dup5\n        /* \"#utility.yul\":2018:2021   */\n      dup5\n        /* \"#utility.yul\":2014:2030   */\n      add\n        /* \"#utility.yul\":2011:2036   */\n      gt\n        /* \"#utility.yul\":2008:2120   */\n      iszero\n      tag_264\n      jumpi\n        /* \"#utility.yul\":2039:2118   */\n      tag_265\n      tag_166\n      jump\t// in\n    tag_265:\n        /* \"#utility.yul\":2008:2120   */\n    tag_264:\n        /* \"#utility.yul\":2129:2183   */\n      tag_266\n        /* \"#utility.yul\":2176:2182   */\n      dup5\n        /* \"#utility.yul\":2171:2174   */\n      dup3\n        /* \"#utility.yul\":2166:2169   */\n      dup6\n        /* \"#utility.yul\":2129:2183   */\n      tag_172\n      jump\t// in\n    tag_266:\n        /* \"#utility.yul\":1848:2189   */\n      pop\n        /* \"#utility.yul\":1764:2189   */\n      swap4\n      swap3\n      pop\n      pop\n      pop\n      jump\t// out\n        /* \"#utility.yul\":2209:2549   */\n    tag_174:\n        /* \"#utility.yul\":2265:2270   */\n      0x00\n        /* \"#utility.yul\":2314:2317   */\n      dup3\n        /* \"#utility.yul\":2307:2311   */\n      0x1f\n        /* \"#utility.yul\":2299:2305   */\n      dup4\n        /* \"#utility.yul\":2295:2312   */\n      add\n        /* \"#utility.yul\":2291:2318   */\n      slt\n        /* \"#utility.yul\":2281:2403   */\n      tag_268\n      jumpi\n        /* \"#utility.yul\":2322:2401   */\n      tag_269\n      tag_165\n      jump\t// in\n    tag_269:\n        /* \"#utility.yul\":2281:2403   */\n    tag_268:\n        /* \"#utility.yul\":2439:2445   */\n      dup2\n        /* \"#utility.yul\":2426:2446   */\n      calldataload\n        /* \"#utility.yul\":2464:2543   */\n      tag_270\n        /* \"#utility.yul\":2539:2542   */\n      dup5\n        /* \"#utility.yul\":2531:2537   */\n      dup3\n        /* \"#utility.yul\":2524:2528   */\n      0x20\n        /* \"#utility.yul\":2516:2522   */\n      dup7\n        /* \"#utility.yul\":2512:2529   */\n      add\n        /* \"#utility.yul\":2464:2543   */\n      tag_173\n      jump\t// in\n    tag_270:\n        /* \"#utility.yul\":2455:2543   */\n      swap2\n      pop\n        /* \"#utility.yul\":2271:2549   */\n      pop\n        /* \"#utility.yul\":2209:2549   */\n      swap3\n      swap2\n      pop\n      pop\n      jump\t// out\n        /* \"#utility.yul\":2555:2632   */\n    tag_175:\n        /* \"#utility.yul\":2592:2599   */\n      0x00\n        /* \"#utility.yul\":2621:2626   */\n      dup2\n        /* \"#utility.yul\":2610:2626   */\n      swap1\n      pop\n        /* \"#utility.yul\":2555:2632   */\n      swap2\n      swap1\n      pop\n      jump\t// out\n        /* \"#utility.yul\":2638:2760   */\n    tag_176:\n        /* \"#utility.yul\":2711:2735   */\n      tag_273\n        /* \"#utility.yul\":2729:2734   */\n      dup2\n        /* \"#utility.yul\":2711:2735   */\n      tag_175\n      jump\t// in\n    tag_273:\n        /* \"#utility.yul\":2704:2709   */\n      dup2\n        /* \"#utility.yul\":2701:2736   */\n      eq\n        /* \"#utility.yul\":2691:2754   */\n      tag_274\n      jumpi\n        /* \"#utility.yul\":2750:2751   */\n      0x00\n        /* \"#utility.yul\":2747:2748   */\n      dup1\n        /* \"#utility.yul\":2740:2752   */\n      revert\n        /* \"#utility.yul\":2691:2754   */\n    tag_274:\n        /* \"#utility.yul\":2638:2760   */\n      pop\n      jump\t// out\n        /* \"#utility.yul\":2766:2905   */\n    tag_177:\n        /* \"#utility.yul\":2812:2817   */\n      0x00\n        /* \"#utility.yul\":2850:2856   */\n      dup2\n        /* \"#utility.yul\":2837:2857   */\n      calldataload\n        /* \"#utility.yul\":2828:2857   */\n      swap1\n      pop\n        /* \"#utility.yul\":2866:2899   */\n      tag_276\n        /* \"#utility.yul\":2893:2898   */\n      dup2\n        /* \"#utility.yul\":2866:2899   */\n      tag_176\n      jump\t// in\n    tag_276:\n        /* \"#utility.yul\":2766:2905   */\n      swap3\n      swap2\n      pop\n      pop\n      jump\t// out\n        /* \"#utility.yul\":2911:3890   */\n    tag_17:\n        /* \"#utility.yul\":3008:3014   */\n      0x00\n        /* \"#utility.yul\":3016:3022   */\n      dup1\n        /* \"#utility.yul\":3024:3030   */\n      0x00\n        /* \"#utility.yul\":3073:3075   */\n      0x60\n        /* \"#utility.yul\":3061:3070   */\n      dup5\n        /* \"#utility.yul\":3052:3059   */\n      dup7\n        /* \"#utility.yul\":3048:3071   */\n      sub\n        /* \"#utility.yul\":3044:3076   */\n      slt\n        /* \"#utility.yul\":3041:3160   */\n      iszero\n      tag_278\n      jumpi\n        /* \"#utility.yul\":3079:3158   */\n      tag_279\n      tag_163\n      jump\t// in\n    tag_279:\n        /* \"#utility.yul\":3041:3160   */\n    tag_278:\n        /* \"#utility.yul\":3227:3228   */\n      0x00\n        /* \"#utility.yul\":3216:3225   */\n      dup5\n        /* \"#utility.yul\":3212:3229   */\n      add\n        /* \"#utility.yul\":3199:3230   */\n      calldataload\n        /* \"#utility.yul\":3257:3275   */\n      0xffffffffffffffff\n        /* \"#utility.yul\":3249:3255   */\n      dup2\n        /* \"#utility.yul\":3246:3276   */\n      gt\n        /* \"#utility.yul\":3243:3360   */\n      iszero\n      tag_280\n      jumpi\n        /* \"#utility.yul\":3279:3358   */\n      tag_281\n      tag_164\n      jump\t// in\n    tag_281:\n        /* \"#utility.yul\":3243:3360   */\n    tag_280:\n        /* \"#utility.yul\":3384:3447   */\n      tag_282\n        /* \"#utility.yul\":3439:3446   */\n      dup7\n        /* \"#utility.yul\":3430:3436   */\n      dup3\n        /* \"#utility.yul\":3419:3428   */\n      dup8\n        /* \"#utility.yul\":3415:3437   */\n      add\n        /* \"#utility.yul\":3384:3447   */\n      tag_174\n      jump\t// in\n    tag_282:\n        /* \"#utility.yul\":3374:3447   */\n      swap4\n      pop\n        /* \"#utility.yul\":3170:3457   */\n      pop\n        /* \"#utility.yul\":3524:3526   */\n      0x20\n        /* \"#utility.yul\":3513:3522   */\n      dup5\n        /* \"#utility.yul\":3509:3527   */\n      add\n        /* \"#utility.yul\":3496:3528   */\n      calldataload\n        /* \"#utility.yul\":3555:3573   */\n      0xffffffffffffffff\n        /* \"#utility.yul\":3547:3553   */\n      dup2\n        /* \"#utility.yul\":3544:3574   */\n      gt\n        /* \"#utility.yul\":3541:3658   */\n      iszero\n      tag_283\n      jumpi\n        /* \"#utility.yul\":3577:3656   */\n      tag_284\n      tag_164\n      jump\t// in\n    tag_284:\n        /* \"#utility.yul\":3541:3658   */\n    tag_283:\n        /* \"#utility.yul\":3682:3745   */\n      tag_285\n        /* \"#utility.yul\":3737:3744   */\n      dup7\n        /* \"#utility.yul\":3728:3734   */\n      dup3\n        /* \"#utility.yul\":3717:3726   */\n      dup8\n        /* \"#utility.yul\":3713:3735   */\n      add\n        /* \"#utility.yul\":3682:3745   */\n      tag_174\n      jump\t// in\n    tag_285:\n        /* \"#utility.yul\":3672:3745   */\n      swap3\n      pop\n        /* \"#utility.yul\":3467:3755   */\n      pop\n        /* \"#utility.yul\":3794:3796   */\n      0x40\n        /* \"#utility.yul\":3820:3873   */\n      tag_286\n        /* \"#utility.yul\":3865:3872   */\n      dup7\n        /* \"#utility.yul\":3856:3862   */\n      dup3\n        /* \"#utility.yul\":3845:3854   */\n      dup8\n        /* \"#utility.yul\":3841:3863   */\n      add\n        /* \"#utility.yul\":3820:3873   */\n      tag_177\n      jump\t// in\n    tag_286:\n        /* \"#utility.yul\":3810:3873   */\n      swap2\n      pop\n        /* \"#utility.yul\":3765:3883   */\n      pop\n        /* \"#utility.yul\":2911:3890   */\n      swap3\n      pop\n      swap3\n      pop\n      swap3\n      jump\t// out\n        /* \"#utility.yul\":3896:4014   */\n    tag_178:\n        /* \"#utility.yul\":3983:4007   */\n      tag_288\n        /* \"#utility.yul\":4001:4006   */\n      dup2\n        /* \"#utility.yul\":3983:4007   */\n      tag_175\n      jump\t// in\n    tag_288:\n        /* \"#utility.yul\":3978:3981   */\n      dup3\n        /* \"#utility.yul\":3971:4008   */\n      mstore\n        /* \"#utility.yul\":3896:4014   */\n      pop\n      pop\n      jump\t// out\n        /* \"#utility.yul\":4020:4242   */\n    tag_23:\n        /* \"#utility.yul\":4113:4117   */\n      0x00\n        /* \"#utility.yul\":4151:4153   */\n      0x20\n        /* \"#utility.yul\":4140:4149   */\n      dup3\n        /* \"#utility.yul\":4136:4154   */\n      add\n        /* \"#utility.yul\":4128:4154   */\n      swap1\n      pop\n        /* \"#utility.yul\":4164:4235   */\n      tag_290\n        /* \"#utility.yul\":4232:4233   */\n      0x00\n        /* \"#utility.yul\":4221:4230   */\n      dup4\n        /* \"#utility.yul\":4217:4234   */\n      add\n        /* \"#utility.yul\":4208:4214   */\n      dup5\n        /* \"#utility.yul\":4164:4235   */\n      tag_178\n      jump\t// in\n    tag_290:\n        /* \"#utility.yul\":4020:4242   */\n      swap3\n      swap2\n      pop\n      pop\n      jump\t// out\n        /* \"#utility.yul\":4248:4374   */\n    tag_179:\n        /* \"#utility.yul\":4285:4292   */\n      0x00\n        /* \"#utility.yul\":4325:4367   */\n      0xffffffffffffffffffffffffffffffffffffffff\n        /* \"#utility.yul\":4318:4323   */\n      dup3\n        /* \"#utility.yul\":4314:4368   */\n      and\n        /* \"#utility.yul\":4303:4368   */\n      swap1\n      pop\n        /* \"#utility.yul\":4248:4374   */\n      swap2\n      swap1\n      pop\n      jump\t// out\n        /* \"#utility.yul\":4380:4476   */\n    tag_180:\n        /* \"#utility.yul\":4417:4424   */\n      0x00\n        /* \"#utility.yul\":4446:4470   */\n      tag_293\n        /* \"#utility.yul\":4464:4469   */\n      dup3\n        /* \"#utility.yul\":4446:4470   */\n      tag_179\n      jump\t// in\n    tag_293:\n        /* \"#utility.yul\":4435:4470   */\n      swap1\n      pop\n        /* \"#utility.yul\":4380:4476   */\n      swap2\n      swap1\n      pop\n      jump\t// out\n        /* \"#utility.yul\":4482:4604   */\n    tag_181:\n        /* \"#utility.yul\":4555:4579   */\n      tag_295\n        /* \"#utility.yul\":4573:4578   */\n      dup2\n        /* \"#utility.yul\":4555:4579   */\n      tag_180\n      jump\t// in\n    tag_295:\n        /* \"#utility.yul\":4548:4553   */\n      dup2\n        /* \"#utility.yul\":4545:4580   */\n      eq\n        /* \"#utility.yul\":4535:4598   */\n      tag_296\n      jumpi\n        /* \"#utility.yul\":4594:4595   */\n      0x00\n        /* \"#utility.yul\":4591:4592   */\n      dup1\n        /* \"#utility.yul\":4584:4596   */\n      revert\n        /* \"#utility.yul\":4535:4598   */\n    tag_296:\n        /* \"#utility.yul\":4482:4604   */\n      pop\n      jump\t// out\n        /* \"#utility.yul\":4610:4749   */\n    tag_182:\n        /* \"#utility.yul\":4656:4661   */\n      0x00\n        /* \"#utility.yul\":4694:4700   */\n      dup2\n        /* \"#utility.yul\":4681:4701   */\n      calldataload\n        /* \"#utility.yul\":4672:4701   */\n      swap1\n      pop\n        /* \"#utility.yul\":4710:4743   */\n      tag_298\n        /* \"#utility.yul\":4737:4742   */\n      dup2\n        /* \"#utility.yul\":4710:4743   */\n      tag_181\n      jump\t// in\n    tag_298:\n        /* \"#utility.yul\":4610:4749   */\n      swap3\n      swap2\n      pop\n      pop\n      jump\t// out\n        /* \"#utility.yul\":4755:5084   */\n    tag_27:\n        /* \"#utility.yul\":4814:4820   */\n      0x00\n        /* \"#utility.yul\":4863:4865   */\n      0x20\n        /* \"#utility.yul\":4851:4860   */\n      dup3\n        /* \"#utility.yul\":4842:4849   */\n      dup5\n        /* \"#utility.yul\":4838:4861   */\n      sub\n        /* \"#utility.yul\":4834:4866   */\n      slt\n        /* \"#utility.yul\":4831:4950   */\n      iszero\n      tag_300\n      jumpi\n        /* \"#utility.yul\":4869:4948   */\n      tag_301\n      tag_163\n      jump\t// in\n    tag_301:\n        /* \"#utility.yul\":4831:4950   */\n    tag_300:\n        /* \"#utility.yul\":4989:4990   */\n      0x00\n        /* \"#utility.yul\":5014:5067   */\n      tag_302\n        /* \"#utility.yul\":5059:5066   */\n      dup5\n        /* \"#utility.yul\":5050:5056   */\n      dup3\n        /* \"#utility.yul\":5039:5048   */\n      dup6\n        /* \"#utility.yul\":5035:5057   */\n      add\n        /* \"#utility.yul\":5014:5067   */\n      tag_182\n      jump\t// in\n    tag_302:\n        /* \"#utility.yul\":5004:5067   */\n      swap2\n      pop\n        /* \"#utility.yul\":4960:5077   */\n      pop\n        /* \"#utility.yul\":4755:5084   */\n      swap3\n      swap2\n      pop\n      pop\n      jump\t// out\n        /* \"#utility.yul\":5090:5204   */\n    tag_183:\n        /* \"#utility.yul\":5157:5163   */\n      0x00\n        /* \"#utility.yul\":5191:5196   */\n      dup2\n        /* \"#utility.yul\":5185:5197   */\n      mload\n        /* \"#utility.yul\":5175:5197   */\n      swap1\n      pop\n        /* \"#utility.yul\":5090:5204   */\n      swap2\n      swap1\n      pop\n      jump\t// out\n        /* \"#utility.yul\":5210:5394   */\n    tag_184:\n        /* \"#utility.yul\":5309:5320   */\n      0x00\n        /* \"#utility.yul\":5343:5349   */\n      dup3\n        /* \"#utility.yul\":5338:5341   */\n      dup3\n        /* \"#utility.yul\":5331:5350   */\n      mstore\n        /* \"#utility.yul\":5383:5387   */\n      0x20\n        /* \"#utility.yul\":5378:5381   */\n      dup3\n        /* \"#utility.yul\":5374:5388   */\n      add\n        /* \"#utility.yul\":5359:5388   */\n      swap1\n      pop\n        /* \"#utility.yul\":5210:5394   */\n      swap3\n      swap2\n      pop\n      pop\n      jump\t// out\n        /* \"#utility.yul\":5400:5532   */\n    tag_185:\n        /* \"#utility.yul\":5467:5471   */\n      0x00\n        /* \"#utility.yul\":5490:5493   */\n      dup2\n        /* \"#utility.yul\":5482:5493   */\n      swap1\n      pop\n        /* \"#utility.yul\":5520:5524   */\n      0x20\n        /* \"#utility.yul\":5515:5518   */\n      dup3\n        /* \"#utility.yul\":5511:5525   */\n      add\n        /* \"#utility.yul\":5503:5525   */\n      swap1\n      pop\n        /* \"#utility.yul\":5400:5532   */\n      swap2\n      swap1\n      pop\n      jump\t// out\n        /* \"#utility.yul\":5538:5646   */\n    tag_186:\n        /* \"#utility.yul\":5615:5639   */\n      tag_307\n        /* \"#utility.yul\":5633:5638   */\n      dup2\n        /* \"#utility.yul\":5615:5639   */\n      tag_175\n      jump\t// in\n    tag_307:\n        /* \"#utility.yul\":5610:5613   */\n      dup3\n        /* \"#utility.yul\":5603:5640   */\n      mstore\n        /* \"#utility.yul\":5538:5646   */\n      pop\n      pop\n      jump\t// out\n        /* \"#utility.yul\":5652:5831   */\n    tag_187:\n        /* \"#utility.yul\":5721:5731   */\n      0x00\n        /* \"#utility.yul\":5742:5788   */\n      tag_309\n        /* \"#utility.yul\":5784:5787   */\n      dup4\n        /* \"#utility.yul\":5776:5782   */\n      dup4\n        /* \"#utility.yul\":5742:5788   */\n      tag_186\n      jump\t// in\n    tag_309:\n        /* \"#utility.yul\":5820:5824   */\n      0x20\n        /* \"#utility.yul\":5815:5818   */\n      dup4\n        /* \"#utility.yul\":5811:5825   */\n      add\n        /* \"#utility.yul\":5797:5825   */\n      swap1\n      pop\n        /* \"#utility.yul\":5652:5831   */\n      swap3\n      swap2\n      pop\n      pop\n      jump\t// out\n        /* \"#utility.yul\":5837:5950   */\n    tag_188:\n        /* \"#utility.yul\":5907:5911   */\n      0x00\n        /* \"#utility.yul\":5939:5943   */\n      0x20\n        /* \"#utility.yul\":5934:5937   */\n      dup3\n        /* \"#utility.yul\":5930:5944   */\n      add\n        /* \"#utility.yul\":5922:5944   */\n      swap1\n      pop\n        /* \"#utility.yul\":5837:5950   */\n      swap2\n      swap1\n      pop\n      jump\t// out\n        /* \"#utility.yul\":5986:6718   */\n    tag_189:\n        /* \"#utility.yul\":6105:6108   */\n      0x00\n        /* \"#utility.yul\":6134:6188   */\n      tag_312\n        /* \"#utility.yul\":6182:6187   */\n      dup3\n        /* \"#utility.yul\":6134:6188   */\n      tag_183\n      jump\t// in\n    tag_312:\n        /* \"#utility.yul\":6204:6290   */\n      tag_313\n        /* \"#utility.yul\":6283:6289   */\n      dup2\n        /* \"#utility.yul\":6278:6281   */\n      dup6\n        /* \"#utility.yul\":6204:6290   */\n      tag_184\n      jump\t// in\n    tag_313:\n        /* \"#utility.yul\":6197:6290   */\n      swap4\n      pop\n        /* \"#utility.yul\":6314:6370   */\n      tag_314\n        /* \"#utility.yul\":6364:6369   */\n      dup4\n        /* \"#utility.yul\":6314:6370   */\n      tag_185\n      jump\t// in\n    tag_314:\n        /* \"#utility.yul\":6393:6400   */\n      dup1\n        /* \"#utility.yul\":6424:6425   */\n      0x00\n        /* \"#utility.yul\":6409:6693   */\n    tag_315:\n        /* \"#utility.yul\":6434:6440   */\n      dup4\n        /* \"#utility.yul\":6431:6432   */\n      dup2\n        /* \"#utility.yul\":6428:6441   */\n      lt\n        /* \"#utility.yul\":6409:6693   */\n      iszero\n      tag_317\n      jumpi\n        /* \"#utility.yul\":6510:6516   */\n      dup2\n        /* \"#utility.yul\":6504:6517   */\n      mload\n        /* \"#utility.yul\":6537:6600   */\n      tag_318\n        /* \"#utility.yul\":6596:6599   */\n      dup9\n        /* \"#utility.yul\":6581:6594   */\n      dup3\n        /* \"#utility.yul\":6537:6600   */\n      tag_187\n      jump\t// in\n    tag_318:\n        /* \"#utility.yul\":6530:6600   */\n      swap8\n      pop\n        /* \"#utility.yul\":6623:6683   */\n      tag_319\n        /* \"#utility.yul\":6676:6682   */\n      dup4\n        /* \"#utility.yul\":6623:6683   */\n      tag_188\n      jump\t// in\n    tag_319:\n        /* \"#utility.yul\":6613:6683   */\n      swap3\n      pop\n        /* \"#utility.yul\":6469:6693   */\n      pop\n        /* \"#utility.yul\":6456:6457   */\n      0x01\n        /* \"#utility.yul\":6453:6454   */\n      dup2\n        /* \"#utility.yul\":6449:6458   */\n      add\n        /* \"#utility.yul\":6444:6458   */\n      swap1\n      pop\n        /* \"#utility.yul\":6409:6693   */\n      jump(tag_315)\n    tag_317:\n        /* \"#utility.yul\":6413:6427   */\n      pop\n        /* \"#utility.yul\":6709:6712   */\n      dup6\n        /* \"#utility.yul\":6702:6712   */\n      swap4\n      pop\n        /* \"#utility.yul\":6110:6718   */\n      pop\n      pop\n      pop\n        /* \"#utility.yul\":5986:6718   */\n      swap3\n      swap2\n      pop\n      pop\n      jump\t// out\n        /* \"#utility.yul\":6724:7097   */\n    tag_30:\n        /* \"#utility.yul\":6867:6871   */\n      0x00\n        /* \"#utility.yul\":6905:6907   */\n      0x20\n        /* \"#utility.yul\":6894:6903   */\n      dup3\n        /* \"#utility.yul\":6890:6908   */\n      add\n        /* \"#utility.yul\":6882:6908   */\n      swap1\n      pop\n        /* \"#utility.yul\":6954:6963   */\n      dup2\n        /* \"#utility.yul\":6948:6952   */\n      dup2\n        /* \"#utility.yul\":6944:6964   */\n      sub\n        /* \"#utility.yul\":6940:6941   */\n      0x00\n        /* \"#utility.yul\":6929:6938   */\n      dup4\n        /* \"#utility.yul\":6925:6942   */\n      add\n        /* \"#utility.yul\":6918:6965   */\n      mstore\n        /* \"#utility.yul\":6982:7090   */\n      tag_321\n        /* \"#utility.yul\":7085:7089   */\n      dup2\n        /* \"#utility.yul\":7076:7082   */\n      dup5\n        /* \"#utility.yul\":6982:7090   */\n      tag_189\n      jump\t// in\n    tag_321:\n        /* \"#utility.yul\":6974:7090   */\n      swap1\n      pop\n        /* \"#utility.yul\":6724:7097   */\n      swap3\n      swap2\n      pop\n      pop\n      jump\t// out\n        /* \"#utility.yul\":7103:7432   */\n    tag_34:\n        /* \"#utility.yul\":7162:7168   */\n      0x00\n        /* \"#utility.yul\":7211:7213   */\n      0x20\n        /* \"#utility.yul\":7199:7208   */\n      dup3\n        /* \"#utility.yul\":7190:7197   */\n      dup5\n        /* \"#utility.yul\":7186:7209   */\n      sub\n        /* \"#utility.yul\":7182:7214   */\n      slt\n        /* \"#utility.yul\":7179:7298   */\n      iszero\n      tag_323\n      jumpi\n        /* \"#utility.yul\":7217:7296   */\n      tag_324\n      tag_163\n      jump\t// in\n    tag_324:\n        /* \"#utility.yul\":7179:7298   */\n    tag_323:\n        /* \"#utility.yul\":7337:7338   */\n      0x00\n        /* \"#utility.yul\":7362:7415   */\n      tag_325\n        /* \"#utility.yul\":7407:7414   */\n      dup5\n        /* \"#utility.yul\":7398:7404   */\n      dup3\n        /* \"#utility.yul\":7387:7396   */\n      dup6\n        /* \"#utility.yul\":7383:7405   */\n      add\n        /* \"#utility.yul\":7362:7415   */\n      tag_177\n      jump\t// in\n    tag_325:\n        /* \"#utility.yul\":7352:7415   */\n      swap2\n      pop\n        /* \"#utility.yul\":7308:7425   */\n      pop\n        /* \"#utility.yul\":7103:7432   */\n      swap3\n      swap2\n      pop\n      pop\n      jump\t// out\n        /* \"#utility.yul\":7438:7537   */\n    tag_190:\n        /* \"#utility.yul\":7490:7496   */\n      0x00\n        /* \"#utility.yul\":7524:7529   */\n      dup2\n        /* \"#utility.yul\":7518:7530   */\n      mload\n        /* \"#utility.yul\":7508:7530   */\n      swap1\n      pop\n        /* \"#utility.yul\":7438:7537   */\n      swap2\n      swap1\n      pop\n      jump\t// out\n        /* \"#utility.yul\":7543:7712   */\n    tag_191:\n        /* \"#utility.yul\":7627:7638   */\n      0x00\n        /* \"#utility.yul\":7661:7667   */\n      dup3\n        /* \"#utility.yul\":7656:7659   */\n      dup3\n        /* \"#utility.yul\":7649:7668   */\n      mstore\n        /* \"#utility.yul\":7701:7705   */\n      0x20\n        /* \"#utility.yul\":7696:7699   */\n      dup3\n        /* \"#utility.yul\":7692:7706   */\n      add\n        /* \"#utility.yul\":7677:7706   */\n      swap1\n      pop\n        /* \"#utility.yul\":7543:7712   */\n      swap3\n      swap2\n      pop\n      pop\n      jump\t// out\n        /* \"#utility.yul\":7718:7857   */\n    tag_192:\n        /* \"#utility.yul\":7807:7813   */\n      dup3\n        /* \"#utility.yul\":7802:7805   */\n      dup2\n        /* \"#utility.yul\":7797:7800   */\n      dup4\n        /* \"#utility.yul\":7791:7814   */\n      mcopy\n        /* \"#utility.yul\":7848:7849   */\n      0x00\n        /* \"#utility.yul\":7839:7845   */\n      dup4\n        /* \"#utility.yul\":7834:7837   */\n      dup4\n        /* \"#utility.yul\":7830:7846   */\n      add\n        /* \"#utility.yul\":7823:7850   */\n      mstore\n        /* \"#utility.yul\":7718:7857   */\n      pop\n      pop\n      pop\n      jump\t// out\n        /* \"#utility.yul\":7863:8240   */\n    tag_193:\n        /* \"#utility.yul\":7951:7954   */\n      0x00\n        /* \"#utility.yul\":7979:8018   */\n      tag_330\n        /* \"#utility.yul\":8012:8017   */\n      dup3\n        /* \"#utility.yul\":7979:8018   */\n      tag_190\n      jump\t// in\n    tag_330:\n        /* \"#utility.yul\":8034:8105   */\n      tag_331\n        /* \"#utility.yul\":8098:8104   */\n      dup2\n        /* \"#utility.yul\":8093:8096   */\n      dup6\n        /* \"#utility.yul\":8034:8105   */\n      tag_191\n      jump\t// in\n    tag_331:\n        /* \"#utility.yul\":8027:8105   */\n      swap4\n      pop\n        /* \"#utility.yul\":8114:8179   */\n      tag_332\n        /* \"#utility.yul\":8172:8178   */\n      dup2\n        /* \"#utility.yul\":8167:8170   */\n      dup6\n        /* \"#utility.yul\":8160:8164   */\n      0x20\n        /* \"#utility.yul\":8153:8158   */\n      dup7\n        /* \"#utility.yul\":8149:8165   */\n      add\n        /* \"#utility.yul\":8114:8179   */\n      tag_192\n      jump\t// in\n    tag_332:\n        /* \"#utility.yul\":8204:8233   */\n      tag_333\n        /* \"#utility.yul\":8226:8232   */\n      dup2\n        /* \"#utility.yul\":8204:8233   */\n      tag_167\n      jump\t// in\n    tag_333:\n        /* \"#utility.yul\":8199:8202   */\n      dup5\n        /* \"#utility.yul\":8195:8234   */\n      add\n        /* \"#utility.yul\":8188:8234   */\n      swap2\n      pop\n        /* \"#utility.yul\":7955:8240   */\n      pop\n        /* \"#utility.yul\":7863:8240   */\n      swap3\n      swap2\n      pop\n      pop\n      jump\t// out\n        /* \"#utility.yul\":8246:8350   */\n    tag_194:\n        /* \"#utility.yul\":8291:8298   */\n      0x00\n        /* \"#utility.yul\":8320:8344   */\n      tag_335\n        /* \"#utility.yul\":8338:8343   */\n      dup3\n        /* \"#utility.yul\":8320:8344   */\n      tag_179\n      jump\t// in\n    tag_335:\n        /* \"#utility.yul\":8309:8344   */\n      swap1\n      pop\n        /* \"#utility.yul\":8246:8350   */\n      swap2\n      swap1\n      pop\n      jump\t// out\n        /* \"#utility.yul\":8356:8498   */\n    tag_195:\n        /* \"#utility.yul\":8459:8491   */\n      tag_337\n        /* \"#utility.yul\":8485:8490   */\n      dup2\n        /* \"#utility.yul\":8459:8491   */\n      tag_194\n      jump\t// in\n    tag_337:\n        /* \"#utility.yul\":8454:8457   */\n      dup3\n        /* \"#utility.yul\":8447:8492   */\n      mstore\n        /* \"#utility.yul\":8356:8498   */\n      pop\n      pop\n      jump\t// out\n        /* \"#utility.yul\":8504:8594   */\n    tag_196:\n        /* \"#utility.yul\":8538:8545   */\n      0x00\n        /* \"#utility.yul\":8581:8586   */\n      dup2\n        /* \"#utility.yul\":8574:8587   */\n      iszero\n        /* \"#utility.yul\":8567:8588   */\n      iszero\n        /* \"#utility.yul\":8556:8588   */\n      swap1\n      pop\n        /* \"#utility.yul\":8504:8594   */\n      swap2\n      swap1\n      pop\n      jump\t// out\n        /* \"#utility.yul\":8600:8709   */\n    tag_197:\n        /* \"#utility.yul\":8681:8702   */\n      tag_340\n        /* \"#utility.yul\":8696:8701   */\n      dup2\n        /* \"#utility.yul\":8681:8702   */\n      tag_196\n      jump\t// in\n    tag_340:\n        /* \"#utility.yul\":8676:8679   */\n      dup3\n        /* \"#utility.yul\":8669:8703   */\n      mstore\n        /* \"#utility.yul\":8600:8709   */\n      pop\n      pop\n      jump\t// out\n        /* \"#utility.yul\":8715:9692   */\n    tag_37:\n        /* \"#utility.yul\":8998:9002   */\n      0x00\n        /* \"#utility.yul\":9036:9039   */\n      0xc0\n        /* \"#utility.yul\":9025:9034   */\n      dup3\n        /* \"#utility.yul\":9021:9040   */\n      add\n        /* \"#utility.yul\":9013:9040   */\n      swap1\n      pop\n        /* \"#utility.yul\":9050:9121   */\n      tag_342\n        /* \"#utility.yul\":9118:9119   */\n      0x00\n        /* \"#utility.yul\":9107:9116   */\n      dup4\n        /* \"#utility.yul\":9103:9120   */\n      add\n        /* \"#utility.yul\":9094:9100   */\n      dup10\n        /* \"#utility.yul\":9050:9121   */\n      tag_178\n      jump\t// in\n    tag_342:\n        /* \"#utility.yul\":9168:9177   */\n      dup2\n        /* \"#utility.yul\":9162:9166   */\n      dup2\n        /* \"#utility.yul\":9158:9178   */\n      sub\n        /* \"#utility.yul\":9153:9155   */\n      0x20\n        /* \"#utility.yul\":9142:9151   */\n      dup4\n        /* \"#utility.yul\":9138:9156   */\n      add\n        /* \"#utility.yul\":9131:9179   */\n      mstore\n        /* \"#utility.yul\":9196:9274   */\n      tag_343\n        /* \"#utility.yul\":9269:9273   */\n      dup2\n        /* \"#utility.yul\":9260:9266   */\n      dup9\n        /* \"#utility.yul\":9196:9274   */\n      tag_193\n      jump\t// in\n    tag_343:\n        /* \"#utility.yul\":9188:9274   */\n      swap1\n      pop\n        /* \"#utility.yul\":9321:9330   */\n      dup2\n        /* \"#utility.yul\":9315:9319   */\n      dup2\n        /* \"#utility.yul\":9311:9331   */\n      sub\n        /* \"#utility.yul\":9306:9308   */\n      0x40\n        /* \"#utility.yul\":9295:9304   */\n      dup4\n        /* \"#utility.yul\":9291:9309   */\n      add\n        /* \"#utility.yul\":9284:9332   */\n      mstore\n        /* \"#utility.yul\":9349:9427   */\n      tag_344\n        /* \"#utility.yul\":9422:9426   */\n      dup2\n        /* \"#utility.yul\":9413:9419   */\n      dup8\n        /* \"#utility.yul\":9349:9427   */\n      tag_193\n      jump\t// in\n    tag_344:\n        /* \"#utility.yul\":9341:9427   */\n      swap1\n      pop\n        /* \"#utility.yul\":9437:9509   */\n      tag_345\n        /* \"#utility.yul\":9505:9507   */\n      0x60\n        /* \"#utility.yul\":9494:9503   */\n      dup4\n        /* \"#utility.yul\":9490:9508   */\n      add\n        /* \"#utility.yul\":9481:9487   */\n      dup7\n        /* \"#utility.yul\":9437:9509   */\n      tag_178\n      jump\t// in\n    tag_345:\n        /* \"#utility.yul\":9519:9608   */\n      tag_346\n        /* \"#utility.yul\":9603:9606   */\n      0x80\n        /* \"#utility.yul\":9592:9601   */\n      dup4\n        /* \"#utility.yul\":9588:9607   */\n      add\n        /* \"#utility.yul\":9579:9585   */\n      dup6\n        /* \"#utility.yul\":9519:9608   */\n      tag_195\n      jump\t// in\n    tag_346:\n        /* \"#utility.yul\":9618:9685   */\n      tag_347\n        /* \"#utility.yul\":9680:9683   */\n      0xa0\n        /* \"#utility.yul\":9669:9678   */\n      dup4\n        /* \"#utility.yul\":9665:9684   */\n      add\n        /* \"#utility.yul\":9656:9662   */\n      dup5\n        /* \"#utility.yul\":9618:9685   */\n      tag_197\n      jump\t// in\n    tag_347:\n        /* \"#utility.yul\":8715:9692   */\n      swap8\n      swap7\n      pop\n      pop\n      pop\n      pop\n      pop\n      pop\n      pop\n      jump\t// out\n        /* \"#utility.yul\":9698:10172   */\n    tag_44:\n        /* \"#utility.yul\":9766:9772   */\n      0x00\n        /* \"#utility.yul\":9774:9780   */\n      dup1\n        /* \"#utility.yul\":9823:9825   */\n      0x40\n        /* \"#utility.yul\":9811:9820   */\n      dup4\n        /* \"#utility.yul\":9802:9809   */\n      dup6\n        /* \"#utility.yul\":9798:9821   */\n      sub\n        /* \"#utility.yul\":9794:9826   */\n      slt\n        /* \"#utility.yul\":9791:9910   */\n      iszero\n      tag_349\n      jumpi\n        /* \"#utility.yul\":9829:9908   */\n      tag_350\n      tag_163\n      jump\t// in\n    tag_350:\n        /* \"#utility.yul\":9791:9910   */\n    tag_349:\n        /* \"#utility.yul\":9949:9950   */\n      0x00\n        /* \"#utility.yul\":9974:10027   */\n      tag_351\n        /* \"#utility.yul\":10019:10026   */\n      dup6\n        /* \"#utility.yul\":10010:10016   */\n      dup3\n        /* \"#utility.yul\":9999:10008   */\n      dup7\n        /* \"#utility.yul\":9995:10017   */\n      add\n        /* \"#utility.yul\":9974:10027   */\n      tag_177\n      jump\t// in\n    tag_351:\n        /* \"#utility.yul\":9964:10027   */\n      swap3\n      pop\n        /* \"#utility.yul\":9920:10037   */\n      pop\n        /* \"#utility.yul\":10076:10078   */\n      0x20\n        /* \"#utility.yul\":10102:10155   */\n      tag_352\n        /* \"#utility.yul\":10147:10154   */\n      dup6\n        /* \"#utility.yul\":10138:10144   */\n      dup3\n        /* \"#utility.yul\":10127:10136   */\n      dup7\n        /* \"#utility.yul\":10123:10145   */\n      add\n        /* \"#utility.yul\":10102:10155   */\n      tag_177\n      jump\t// in\n    tag_352:\n        /* \"#utility.yul\":10092:10155   */\n      swap2\n      pop\n        /* \"#utility.yul\":10047:10165   */\n      pop\n        /* \"#utility.yul\":9698:10172   */\n      swap3\n      pop\n      swap3\n      swap1\n      pop\n      jump\t// out\n        /* \"#utility.yul\":10178:10296   */\n    tag_198:\n        /* \"#utility.yul\":10265:10289   */\n      tag_354\n        /* \"#utility.yul\":10283:10288   */\n      dup2\n        /* \"#utility.yul\":10265:10289   */\n      tag_180\n      jump\t// in\n    tag_354:\n        /* \"#utility.yul\":10260:10263   */\n      dup3\n        /* \"#utility.yul\":10253:10290   */\n      mstore\n        /* \"#utility.yul\":10178:10296   */\n      pop\n      pop\n      jump\t// out\n        /* \"#utility.yul\":10302:10954   */\n    tag_51:\n        /* \"#utility.yul\":10501:10505   */\n      0x00\n        /* \"#utility.yul\":10539:10542   */\n      0xa0\n        /* \"#utility.yul\":10528:10537   */\n      dup3\n        /* \"#utility.yul\":10524:10543   */\n      add\n        /* \"#utility.yul\":10516:10543   */\n      swap1\n      pop\n        /* \"#utility.yul\":10553:10624   */\n      tag_356\n        /* \"#utility.yul\":10621:10622   */\n      0x00\n        /* \"#utility.yul\":10610:10619   */\n      dup4\n        /* \"#utility.yul\":10606:10623   */\n      add\n        /* \"#utility.yul\":10597:10603   */\n      dup9\n        /* \"#utility.yul\":10553:10624   */\n      tag_178\n      jump\t// in\n    tag_356:\n        /* \"#utility.yul\":10634:10706   */\n      tag_357\n        /* \"#utility.yul\":10702:10704   */\n      0x20\n        /* \"#utility.yul\":10691:10700   */\n      dup4\n        /* \"#utility.yul\":10687:10705   */\n      add\n        /* \"#utility.yul\":10678:10684   */\n      dup8\n        /* \"#utility.yul\":10634:10706   */\n      tag_198\n      jump\t// in\n    tag_357:\n        /* \"#utility.yul\":10716:10788   */\n      tag_358\n        /* \"#utility.yul\":10784:10786   */\n      0x40\n        /* \"#utility.yul\":10773:10782   */\n      dup4\n        /* \"#utility.yul\":10769:10787   */\n      add\n        /* \"#utility.yul\":10760:10766   */\n      dup7\n        /* \"#utility.yul\":10716:10788   */\n      tag_178\n      jump\t// in\n    tag_358:\n        /* \"#utility.yul\":10798:10870   */\n      tag_359\n        /* \"#utility.yul\":10866:10868   */\n      0x60\n        /* \"#utility.yul\":10855:10864   */\n      dup4\n        /* \"#utility.yul\":10851:10869   */\n      add\n        /* \"#utility.yul\":10842:10848   */\n      dup6\n        /* \"#utility.yul\":10798:10870   */\n      tag_178\n      jump\t// in\n    tag_359:\n        /* \"#utility.yul\":10880:10947   */\n      tag_360\n        /* \"#utility.yul\":10942:10945   */\n      0x80\n        /* \"#utility.yul\":10931:10940   */\n      dup4\n        /* \"#utility.yul\":10927:10946   */\n      add\n        /* \"#utility.yul\":10918:10924   */\n      dup5\n        /* \"#utility.yul\":10880:10947   */\n      tag_197\n      jump\t// in\n    tag_360:\n        /* \"#utility.yul\":10302:10954   */\n      swap7\n      swap6\n      pop\n      pop\n      pop\n      pop\n      pop\n      pop\n      jump\t// out\n        /* \"#utility.yul\":10960:11434   */\n    tag_55:\n        /* \"#utility.yul\":11028:11034   */\n      0x00\n        /* \"#utility.yul\":11036:11042   */\n      dup1\n        /* \"#utility.yul\":11085:11087   */\n      0x40\n        /* \"#utility.yul\":11073:11082   */\n      dup4\n        /* \"#utility.yul\":11064:11071   */\n      dup6\n        /* \"#utility.yul\":11060:11083   */\n      sub\n        /* \"#utility.yul\":11056:11088   */\n      slt\n        /* \"#utility.yul\":11053:11172   */\n      iszero\n      tag_362\n      jumpi\n        /* \"#utility.yul\":11091:11170   */\n      tag_363\n      tag_163\n      jump\t// in\n    tag_363:\n        /* \"#utility.yul\":11053:11172   */\n    tag_362:\n        /* \"#utility.yul\":11211:11212   */\n      0x00\n        /* \"#utility.yul\":11236:11289   */\n      tag_364\n        /* \"#utility.yul\":11281:11288   */\n      dup6\n        /* \"#utility.yul\":11272:11278   */\n      dup3\n        /* \"#utility.yul\":11261:11270   */\n      dup7\n        /* \"#utility.yul\":11257:11279   */\n      add\n        /* \"#utility.yul\":11236:11289   */\n      tag_182\n      jump\t// in\n    tag_364:\n        /* \"#utility.yul\":11226:11289   */\n      swap3\n      pop\n        /* \"#utility.yul\":11182:11299   */\n      pop\n        /* \"#utility.yul\":11338:11340   */\n      0x20\n        /* \"#utility.yul\":11364:11417   */\n      tag_365\n        /* \"#utility.yul\":11409:11416   */\n      dup6\n        /* \"#utility.yul\":11400:11406   */\n      dup3\n        /* \"#utility.yul\":11389:11398   */\n      dup7\n        /* \"#utility.yul\":11385:11407   */\n      add\n        /* \"#utility.yul\":11364:11417   */\n      tag_177\n      jump\t// in\n    tag_365:\n        /* \"#utility.yul\":11354:11417   */\n      swap2\n      pop\n        /* \"#utility.yul\":11309:11427   */\n      pop\n        /* \"#utility.yul\":10960:11434   */\n      swap3\n      pop\n      swap3\n      swap1\n      pop\n      jump\t// out\n        /* \"#utility.yul\":11440:11548   */\n    tag_199:\n        /* \"#utility.yul\":11517:11541   */\n      tag_367\n        /* \"#utility.yul\":11535:11540   */\n      dup2\n        /* \"#utility.yul\":11517:11541   */\n      tag_180\n      jump\t// in\n    tag_367:\n        /* \"#utility.yul\":11512:11515   */\n      dup3\n        /* \"#utility.yul\":11505:11542   */\n      mstore\n        /* \"#utility.yul\":11440:11548   */\n      pop\n      pop\n      jump\t// out\n        /* \"#utility.yul\":11554:11653   */\n    tag_200:\n        /* \"#utility.yul\":11625:11646   */\n      tag_369\n        /* \"#utility.yul\":11640:11645   */\n      dup2\n        /* \"#utility.yul\":11625:11646   */\n      tag_196\n      jump\t// in\n    tag_369:\n        /* \"#utility.yul\":11620:11623   */\n      dup3\n        /* \"#utility.yul\":11613:11647   */\n      mstore\n        /* \"#utility.yul\":11554:11653   */\n      pop\n      pop\n      jump\t// out\n        /* \"#utility.yul\":11731:12770   */\n    tag_201:\n        /* \"#utility.yul\":11876:11880   */\n      0xa0\n        /* \"#utility.yul\":11871:11874   */\n      dup3\n        /* \"#utility.yul\":11867:11881   */\n      add\n        /* \"#utility.yul\":11966:11970   */\n      0x00\n        /* \"#utility.yul\":11959:11964   */\n      dup3\n        /* \"#utility.yul\":11955:11971   */\n      add\n        /* \"#utility.yul\":11949:11972   */\n      mload\n        /* \"#utility.yul\":11985:12048   */\n      tag_371\n        /* \"#utility.yul\":12042:12046   */\n      0x00\n        /* \"#utility.yul\":12037:12040   */\n      dup6\n        /* \"#utility.yul\":12033:12047   */\n      add\n        /* \"#utility.yul\":12019:12031   */\n      dup3\n        /* \"#utility.yul\":11985:12048   */\n      tag_186\n      jump\t// in\n    tag_371:\n        /* \"#utility.yul\":11891:12058   */\n      pop\n        /* \"#utility.yul\":12145:12149   */\n      0x20\n        /* \"#utility.yul\":12138:12143   */\n      dup3\n        /* \"#utility.yul\":12134:12150   */\n      add\n        /* \"#utility.yul\":12128:12151   */\n      mload\n        /* \"#utility.yul\":12164:12227   */\n      tag_372\n        /* \"#utility.yul\":12221:12225   */\n      0x20\n        /* \"#utility.yul\":12216:12219   */\n      dup6\n        /* \"#utility.yul\":12212:12226   */\n      add\n        /* \"#utility.yul\":12198:12210   */\n      dup3\n        /* \"#utility.yul\":12164:12227   */\n      tag_199\n      jump\t// in\n    tag_372:\n        /* \"#utility.yul\":12068:12237   */\n      pop\n        /* \"#utility.yul\":12324:12328   */\n      0x40\n        /* \"#utility.yul\":12317:12322   */\n      dup3\n        /* \"#utility.yul\":12313:12329   */\n      add\n        /* \"#utility.yul\":12307:12330   */\n      mload\n        /* \"#utility.yul\":12343:12406   */\n      tag_373\n        /* \"#utility.yul\":12400:12404   */\n      0x40\n        /* \"#utility.yul\":12395:12398   */\n      dup6\n        /* \"#utility.yul\":12391:12405   */\n      add\n        /* \"#utility.yul\":12377:12389   */\n      dup3\n        /* \"#utility.yul\":12343:12406   */\n      tag_186\n      jump\t// in\n    tag_373:\n        /* \"#utility.yul\":12247:12416   */\n      pop\n        /* \"#utility.yul\":12501:12505   */\n      0x60\n        /* \"#utility.yul\":12494:12499   */\n      dup3\n        /* \"#utility.yul\":12490:12506   */\n      add\n        /* \"#utility.yul\":12484:12507   */\n      mload\n        /* \"#utility.yul\":12520:12583   */\n      tag_374\n        /* \"#utility.yul\":12577:12581   */\n      0x60\n        /* \"#utility.yul\":12572:12575   */\n      dup6\n        /* \"#utility.yul\":12568:12582   */\n      add\n        /* \"#utility.yul\":12554:12566   */\n      dup3\n        /* \"#utility.yul\":12520:12583   */\n      tag_186\n      jump\t// in\n    tag_374:\n        /* \"#utility.yul\":12426:12593   */\n      pop\n        /* \"#utility.yul\":12677:12681   */\n      0x80\n        /* \"#utility.yul\":12670:12675   */\n      dup3\n        /* \"#utility.yul\":12666:12682   */\n      add\n        /* \"#utility.yul\":12660:12683   */\n      mload\n        /* \"#utility.yul\":12696:12753   */\n      tag_375\n        /* \"#utility.yul\":12747:12751   */\n      0x80\n        /* \"#utility.yul\":12742:12745   */\n      dup6\n        /* \"#utility.yul\":12738:12752   */\n      add\n        /* \"#utility.yul\":12724:12736   */\n      dup3\n        /* \"#utility.yul\":12696:12753   */\n      tag_200\n      jump\t// in\n    tag_375:\n        /* \"#utility.yul\":12603:12763   */\n      pop\n        /* \"#utility.yul\":11845:12770   */\n      pop\n        /* \"#utility.yul\":11731:12770   */\n      pop\n      pop\n      jump\t// out\n        /* \"#utility.yul\":12776:13095   */\n    tag_63:\n        /* \"#utility.yul\":12917:12921   */\n      0x00\n        /* \"#utility.yul\":12955:12958   */\n      0xa0\n        /* \"#utility.yul\":12944:12953   */\n      dup3\n        /* \"#utility.yul\":12940:12959   */\n      add\n        /* \"#utility.yul\":12932:12959   */\n      swap1\n      pop\n        /* \"#utility.yul\":12969:13088   */\n      tag_377\n        /* \"#utility.yul\":13085:13086   */\n      0x00\n        /* \"#utility.yul\":13074:13083   */\n      dup4\n        /* \"#utility.yul\":13070:13087   */\n      add\n        /* \"#utility.yul\":13061:13067   */\n      dup5\n        /* \"#utility.yul\":12969:13088   */\n      tag_201\n      jump\t// in\n    tag_377:\n        /* \"#utility.yul\":12776:13095   */\n      swap3\n      swap2\n      pop\n      pop\n      jump\t// out\n        /* \"#utility.yul\":13101:13260   */\n    tag_202:\n        /* \"#utility.yul\":13175:13186   */\n      0x00\n        /* \"#utility.yul\":13209:13215   */\n      dup3\n        /* \"#utility.yul\":13204:13207   */\n      dup3\n        /* \"#utility.yul\":13197:13216   */\n      mstore\n        /* \"#utility.yul\":13249:13253   */\n      0x20\n        /* \"#utility.yul\":13244:13247   */\n      dup3\n        /* \"#utility.yul\":13240:13254   */\n      add\n        /* \"#utility.yul\":13225:13254   */\n      swap1\n      pop\n        /* \"#utility.yul\":13101:13260   */\n      swap3\n      swap2\n      pop\n      pop\n      jump\t// out\n        /* \"#utility.yul\":13266:13623   */\n    tag_203:\n        /* \"#utility.yul\":13344:13347   */\n      0x00\n        /* \"#utility.yul\":13372:13411   */\n      tag_380\n        /* \"#utility.yul\":13405:13410   */\n      dup3\n        /* \"#utility.yul\":13372:13411   */\n      tag_190\n      jump\t// in\n    tag_380:\n        /* \"#utility.yul\":13427:13488   */\n      tag_381\n        /* \"#utility.yul\":13481:13487   */\n      dup2\n        /* \"#utility.yul\":13476:13479   */\n      dup6\n        /* \"#utility.yul\":13427:13488   */\n      tag_202\n      jump\t// in\n    tag_381:\n        /* \"#utility.yul\":13420:13488   */\n      swap4\n      pop\n        /* \"#utility.yul\":13497:13562   */\n      tag_382\n        /* \"#utility.yul\":13555:13561   */\n      dup2\n        /* \"#utility.yul\":13550:13553   */\n      dup6\n        /* \"#utility.yul\":13543:13547   */\n      0x20\n        /* \"#utility.yul\":13536:13541   */\n      dup7\n        /* \"#utility.yul\":13532:13548   */\n      add\n        /* \"#utility.yul\":13497:13562   */\n      tag_192\n      jump\t// in\n    tag_382:\n        /* \"#utility.yul\":13587:13616   */\n      tag_383\n        /* \"#utility.yul\":13609:13615   */\n      dup2\n        /* \"#utility.yul\":13587:13616   */\n      tag_167\n      jump\t// in\n    tag_383:\n        /* \"#utility.yul\":13582:13585   */\n      dup5\n        /* \"#utility.yul\":13578:13617   */\n      add\n        /* \"#utility.yul\":13571:13617   */\n      swap2\n      pop\n        /* \"#utility.yul\":13348:13623   */\n      pop\n        /* \"#utility.yul\":13266:13623   */\n      swap3\n      swap2\n      pop\n      pop\n      jump\t// out\n        /* \"#utility.yul\":13629:13761   */\n    tag_204:\n        /* \"#utility.yul\":13722:13754   */\n      tag_385\n        /* \"#utility.yul\":13748:13753   */\n      dup2\n        /* \"#utility.yul\":13722:13754   */\n      tag_194\n      jump\t// in\n    tag_385:\n        /* \"#utility.yul\":13717:13720   */\n      dup3\n        /* \"#utility.yul\":13710:13755   */\n      mstore\n        /* \"#utility.yul\":13629:13761   */\n      pop\n      pop\n      jump\t// out\n        /* \"#utility.yul\":13833:15237   */\n    tag_205:\n        /* \"#utility.yul\":13944:13947   */\n      0x00\n        /* \"#utility.yul\":13980:13984   */\n      0xc0\n        /* \"#utility.yul\":13975:13978   */\n      dup4\n        /* \"#utility.yul\":13971:13985   */\n      add\n        /* \"#utility.yul\":14065:14069   */\n      0x00\n        /* \"#utility.yul\":14058:14063   */\n      dup4\n        /* \"#utility.yul\":14054:14070   */\n      add\n        /* \"#utility.yul\":14048:14071   */\n      mload\n        /* \"#utility.yul\":14084:14147   */\n      tag_387\n        /* \"#utility.yul\":14141:14145   */\n      0x00\n        /* \"#utility.yul\":14136:14139   */\n      dup7\n        /* \"#utility.yul\":14132:14146   */\n      add\n        /* \"#utility.yul\":14118:14130   */\n      dup3\n        /* \"#utility.yul\":14084:14147   */\n      tag_186\n      jump\t// in\n    tag_387:\n        /* \"#utility.yul\":13995:14157   */\n      pop\n        /* \"#utility.yul\":14238:14242   */\n      0x20\n        /* \"#utility.yul\":14231:14236   */\n      dup4\n        /* \"#utility.yul\":14227:14243   */\n      add\n        /* \"#utility.yul\":14221:14244   */\n      mload\n        /* \"#utility.yul\":14291:14294   */\n      dup5\n        /* \"#utility.yul\":14285:14289   */\n      dup3\n        /* \"#utility.yul\":14281:14295   */\n      sub\n        /* \"#utility.yul\":14274:14278   */\n      0x20\n        /* \"#utility.yul\":14269:14272   */\n      dup7\n        /* \"#utility.yul\":14265:14279   */\n      add\n        /* \"#utility.yul\":14258:14296   */\n      mstore\n        /* \"#utility.yul\":14317:14390   */\n      tag_388\n        /* \"#utility.yul\":14385:14389   */\n      dup3\n        /* \"#utility.yul\":14371:14383   */\n      dup3\n        /* \"#utility.yul\":14317:14390   */\n      tag_203\n      jump\t// in\n    tag_388:\n        /* \"#utility.yul\":14309:14390   */\n      swap2\n      pop\n        /* \"#utility.yul\":14167:14401   */\n      pop\n        /* \"#utility.yul\":14490:14494   */\n      0x40\n        /* \"#utility.yul\":14483:14488   */\n      dup4\n        /* \"#utility.yul\":14479:14495   */\n      add\n        /* \"#utility.yul\":14473:14496   */\n      mload\n        /* \"#utility.yul\":14543:14546   */\n      dup5\n        /* \"#utility.yul\":14537:14541   */\n      dup3\n        /* \"#utility.yul\":14533:14547   */\n      sub\n        /* \"#utility.yul\":14526:14530   */\n      0x40\n        /* \"#utility.yul\":14521:14524   */\n      dup7\n        /* \"#utility.yul\":14517:14531   */\n      add\n        /* \"#utility.yul\":14510:14548   */\n      mstore\n        /* \"#utility.yul\":14569:14642   */\n      tag_389\n        /* \"#utility.yul\":14637:14641   */\n      dup3\n        /* \"#utility.yul\":14623:14635   */\n      dup3\n        /* \"#utility.yul\":14569:14642   */\n      tag_203\n      jump\t// in\n    tag_389:\n        /* \"#utility.yul\":14561:14642   */\n      swap2\n      pop\n        /* \"#utility.yul\":14411:14653   */\n      pop\n        /* \"#utility.yul\":14746:14750   */\n      0x60\n        /* \"#utility.yul\":14739:14744   */\n      dup4\n        /* \"#utility.yul\":14735:14751   */\n      add\n        /* \"#utility.yul\":14729:14752   */\n      mload\n        /* \"#utility.yul\":14765:14828   */\n      tag_390\n        /* \"#utility.yul\":14822:14826   */\n      0x60\n        /* \"#utility.yul\":14817:14820   */\n      dup7\n        /* \"#utility.yul\":14813:14827   */\n      add\n        /* \"#utility.yul\":14799:14811   */\n      dup3\n        /* \"#utility.yul\":14765:14828   */\n      tag_186\n      jump\t// in\n    tag_390:\n        /* \"#utility.yul\":14663:14838   */\n      pop\n        /* \"#utility.yul\":14928:14932   */\n      0x80\n        /* \"#utility.yul\":14921:14926   */\n      dup4\n        /* \"#utility.yul\":14917:14933   */\n      add\n        /* \"#utility.yul\":14911:14934   */\n      mload\n        /* \"#utility.yul\":14947:15026   */\n      tag_391\n        /* \"#utility.yul\":15020:15024   */\n      0x80\n        /* \"#utility.yul\":15015:15018   */\n      dup7\n        /* \"#utility.yul\":15011:15025   */\n      add\n        /* \"#utility.yul\":14997:15009   */\n      dup3\n        /* \"#utility.yul\":14947:15026   */\n      tag_204\n      jump\t// in\n    tag_391:\n        /* \"#utility.yul\":14848:15036   */\n      pop\n        /* \"#utility.yul\":15124:15128   */\n      0xa0\n        /* \"#utility.yul\":15117:15122   */\n      dup4\n        /* \"#utility.yul\":15113:15129   */\n      add\n        /* \"#utility.yul\":15107:15130   */\n      mload\n        /* \"#utility.yul\":15143:15200   */\n      tag_392\n        /* \"#utility.yul\":15194:15198   */\n      0xa0\n        /* \"#utility.yul\":15189:15192   */\n      dup7\n        /* \"#utility.yul\":15185:15199   */\n      add\n        /* \"#utility.yul\":15171:15183   */\n      dup3\n        /* \"#utility.yul\":15143:15200   */\n      tag_200\n      jump\t// in\n    tag_392:\n        /* \"#utility.yul\":15046:15210   */\n      pop\n        /* \"#utility.yul\":15227:15231   */\n      dup1\n        /* \"#utility.yul\":15220:15231   */\n      swap2\n      pop\n        /* \"#utility.yul\":13949:15237   */\n      pop\n        /* \"#utility.yul\":13833:15237   */\n      swap3\n      swap2\n      pop\n      pop\n      jump\t// out\n        /* \"#utility.yul\":15243:15600   */\n    tag_69:\n        /* \"#utility.yul\":15378:15382   */\n      0x00\n        /* \"#utility.yul\":15416:15418   */\n      0x20\n        /* \"#utility.yul\":15405:15414   */\n      dup3\n        /* \"#utility.yul\":15401:15419   */\n      add\n        /* \"#utility.yul\":15393:15419   */\n      swap1\n      pop\n        /* \"#utility.yul\":15465:15474   */\n      dup2\n        /* \"#utility.yul\":15459:15463   */\n      dup2\n        /* \"#utility.yul\":15455:15475   */\n      sub\n        /* \"#utility.yul\":15451:15452   */\n      0x00\n        /* \"#utility.yul\":15440:15449   */\n      dup4\n        /* \"#utility.yul\":15436:15453   */\n      add\n        /* \"#utility.yul\":15429:15476   */\n      mstore\n        /* \"#utility.yul\":15493:15593   */\n      tag_394\n        /* \"#utility.yul\":15588:15592   */\n      dup2\n        /* \"#utility.yul\":15579:15585   */\n      dup5\n        /* \"#utility.yul\":15493:15593   */\n      tag_205\n      jump\t// in\n    tag_394:\n        /* \"#utility.yul\":15485:15593   */\n      swap1\n      pop\n        /* \"#utility.yul\":15243:15600   */\n      swap3\n      swap2\n      pop\n      pop\n      jump\t// out\n        /* \"#utility.yul\":15606:15840   */\n    tag_206:\n        /* \"#utility.yul\":15746:15780   */\n      0x4c65207461726966206a6f75726e616c69657220646f69742065747265207375\n        /* \"#utility.yul\":15742:15743   */\n      0x00\n        /* \"#utility.yul\":15734:15740   */\n      dup3\n        /* \"#utility.yul\":15730:15744   */\n      add\n        /* \"#utility.yul\":15723:15781   */\n      mstore\n        /* \"#utility.yul\":15815:15832   */\n      0x706572696575722061207a65726f2e0000000000000000000000000000000000\n        /* \"#utility.yul\":15810:15812   */\n      0x20\n        /* \"#utility.yul\":15802:15808   */\n      dup3\n        /* \"#utility.yul\":15798:15813   */\n      add\n        /* \"#utility.yul\":15791:15833   */\n      mstore\n        /* \"#utility.yul\":15606:15840   */\n      pop\n      jump\t// out\n        /* \"#utility.yul\":15846:16212   */\n    tag_207:\n        /* \"#utility.yul\":15988:15991   */\n      0x00\n        /* \"#utility.yul\":16009:16076   */\n      tag_397\n        /* \"#utility.yul\":16073:16075   */\n      0x2f\n        /* \"#utility.yul\":16068:16071   */\n      dup4\n        /* \"#utility.yul\":16009:16076   */\n      tag_191\n      jump\t// in\n    tag_397:\n        /* \"#utility.yul\":16002:16076   */\n      swap2\n      pop\n        /* \"#utility.yul\":16085:16178   */\n      tag_398\n        /* \"#utility.yul\":16174:16177   */\n      dup3\n        /* \"#utility.yul\":16085:16178   */\n      tag_206\n      jump\t// in\n    tag_398:\n        /* \"#utility.yul\":16203:16205   */\n      0x40\n        /* \"#utility.yul\":16198:16201   */\n      dup3\n        /* \"#utility.yul\":16194:16206   */\n      add\n        /* \"#utility.yul\":16187:16206   */\n      swap1\n      pop\n        /* \"#utility.yul\":15846:16212   */\n      swap2\n      swap1\n      pop\n      jump\t// out\n        /* \"#utility.yul\":16218:16637   */\n    tag_77:\n        /* \"#utility.yul\":16384:16388   */\n      0x00\n        /* \"#utility.yul\":16422:16424   */\n      0x20\n        /* \"#utility.yul\":16411:16420   */\n      dup3\n        /* \"#utility.yul\":16407:16425   */\n      add\n        /* \"#utility.yul\":16399:16425   */\n      swap1\n      pop\n        /* \"#utility.yul\":16471:16480   */\n      dup2\n        /* \"#utility.yul\":16465:16469   */\n      dup2\n        /* \"#utility.yul\":16461:16481   */\n      sub\n        /* \"#utility.yul\":16457:16458   */\n      0x00\n        /* \"#utility.yul\":16446:16455   */\n      dup4\n        /* \"#utility.yul\":16442:16459   */\n      add\n        /* \"#utility.yul\":16435:16482   */\n      mstore\n        /* \"#utility.yul\":16499:16630   */\n      tag_400\n        /* \"#utility.yul\":16625:16629   */\n      dup2\n        /* \"#utility.yul\":16499:16630   */\n      tag_207\n      jump\t// in\n    tag_400:\n        /* \"#utility.yul\":16491:16630   */\n      swap1\n      pop\n        /* \"#utility.yul\":16218:16637   */\n      swap2\n      swap1\n      pop\n      jump\t// out\n        /* \"#utility.yul\":16643:16823   */\n    tag_208:\n        /* \"#utility.yul\":16691:16768   */\n      0x4e487b7100000000000000000000000000000000000000000000000000000000\n        /* \"#utility.yul\":16688:16689   */\n      0x00\n        /* \"#utility.yul\":16681:16769   */\n      mstore\n        /* \"#utility.yul\":16788:16792   */\n      0x11\n        /* \"#utility.yul\":16785:16786   */\n      0x04\n        /* \"#utility.yul\":16778:16793   */\n      mstore\n        /* \"#utility.yul\":16812:16816   */\n      0x24\n        /* \"#utility.yul\":16809:16810   */\n      0x00\n        /* \"#utility.yul\":16802:16817   */\n      revert\n        /* \"#utility.yul\":16829:17062   */\n    tag_79:\n        /* \"#utility.yul\":16868:16871   */\n      0x00\n        /* \"#utility.yul\":16891:16915   */\n      tag_403\n        /* \"#utility.yul\":16909:16914   */\n      dup3\n        /* \"#utility.yul\":16891:16915   */\n      tag_175\n      jump\t// in\n    tag_403:\n        /* \"#utility.yul\":16882:16915   */\n      swap2\n      pop\n        /* \"#utility.yul\":16937:17003   */\n      0xffffffffffffffffffffffffffffffffffffffffffffffffffffffffffffffff\n        /* \"#utility.yul\":16930:16935   */\n      dup3\n        /* \"#utility.yul\":16927:17004   */\n      sub\n        /* \"#utility.yul\":16924:17027   */\n      tag_404\n      jumpi\n        /* \"#utility.yul\":17007:17025   */\n      tag_405\n      tag_208\n      jump\t// in\n    tag_405:\n        /* \"#utility.yul\":16924:17027   */\n    tag_404:\n        /* \"#utility.yul\":17054:17055   */\n      0x01\n        /* \"#utility.yul\":17047:17052   */\n      dup3\n        /* \"#utility.yul\":17043:17056   */\n      add\n        /* \"#utility.yul\":17036:17056   */\n      swap1\n      pop\n        /* \"#utility.yul\":16829:17062   */\n      swap2\n      swap1\n      pop\n      jump\t// out\n        /* \"#utility.yul\":17068:17248   */\n    tag_209:\n        /* \"#utility.yul\":17116:17193   */\n      0x4e487b7100000000000000000000000000000000000000000000000000000000\n        /* \"#utility.yul\":17113:17114   */\n      0x00\n        /* \"#utility.yul\":17106:17194   */\n      mstore\n        /* \"#utility.yul\":17213:17217   */\n      0x22\n        /* \"#utility.yul\":17210:17211   */\n      0x04\n        /* \"#utility.yul\":17203:17218   */\n      mstore\n        /* \"#utility.yul\":17237:17241   */\n      0x24\n        /* \"#utility.yul\":17234:17235   */\n      0x00\n        /* \"#utility.yul\":17227:17242   */\n      revert\n        /* \"#utility.yul\":17254:17574   */\n    tag_90:\n        /* \"#utility.yul\":17298:17304   */\n      0x00\n        /* \"#utility.yul\":17335:17336   */\n      0x02\n        /* \"#utility.yul\":17329:17333   */\n      dup3\n        /* \"#utility.yul\":17325:17337   */\n      div\n        /* \"#utility.yul\":17315:17337   */\n      swap1\n      pop\n        /* \"#utility.yul\":17382:17383   */\n      0x01\n        /* \"#utility.yul\":17376:17380   */\n      dup3\n        /* \"#utility.yul\":17372:17384   */\n      and\n        /* \"#utility.yul\":17403:17421   */\n      dup1\n        /* \"#utility.yul\":17393:17474   */\n      tag_408\n      jumpi\n        /* \"#utility.yul\":17459:17463   */\n      0x7f\n        /* \"#utility.yul\":17451:17457   */\n      dup3\n        /* \"#utility.yul\":17447:17464   */\n      and\n        /* \"#utility.yul\":17437:17464   */\n      swap2\n      pop\n        /* \"#utility.yul\":17393:17474   */\n    tag_408:\n        /* \"#utility.yul\":17521:17523   */\n      0x20\n        /* \"#utility.yul\":17513:17519   */\n      dup3\n        /* \"#utility.yul\":17510:17524   */\n      lt\n        /* \"#utility.yul\":17490:17508   */\n      dup2\n        /* \"#utility.yul\":17487:17525   */\n      sub\n        /* \"#utility.yul\":17484:17568   */\n      tag_409\n      jumpi\n        /* \"#utility.yul\":17540:17558   */\n      tag_410\n      tag_209\n      jump\t// in\n    tag_410:\n        /* \"#utility.yul\":17484:17568   */\n    tag_409:\n        /* \"#utility.yul\":17305:17574   */\n      pop\n        /* \"#utility.yul\":17254:17574   */\n      swap2\n      swap1\n      pop\n      jump\t// out\n        /* \"#utility.yul\":17580:17721   */\n    tag_210:\n        /* \"#utility.yul\":17629:17633   */\n      0x00\n        /* \"#utility.yul\":17652:17655   */\n      dup2\n        /* \"#utility.yul\":17644:17655   */\n      swap1\n      pop\n        /* \"#utility.yul\":17675:17678   */\n      dup2\n        /* \"#utility.yul\":17672:17673   */\n      0x00\n        /* \"#utility.yul\":17665:17679   */\n      mstore\n        /* \"#utility.yul\":17709:17713   */\n      0x20\n        /* \"#utility.yul\":17706:17707   */\n      0x00\n        /* \"#utility.yul\":17696:17714   */\n      keccak256\n        /* \"#utility.yul\":17688:17714   */\n      swap1\n      pop\n        /* \"#utility.yul\":17580:17721   */\n      swap2\n      swap1\n      pop\n      jump\t// out\n        /* \"#utility.yul\":17727:17820   */\n    tag_211:\n        /* \"#utility.yul\":17764:17770   */\n      0x00\n        /* \"#utility.yul\":17811:17813   */\n      0x20\n        /* \"#utility.yul\":17806:17808   */\n      0x1f\n        /* \"#utility.yul\":17799:17804   */\n      dup4\n        /* \"#utility.yul\":17795:17809   */\n      add\n        /* \"#utility.yul\":17791:17814   */\n      div\n        /* \"#utility.yul\":17781:17814   */\n      swap1\n      pop\n        /* \"#utility.yul\":17727:17820   */\n      swap2\n      swap1\n      pop\n      jump\t// out\n        /* \"#utility.yul\":17826:17933   */\n    tag_212:\n        /* \"#utility.yul\":17870:17878   */\n      0x00\n        /* \"#utility.yul\":17920:17925   */\n      dup3\n        /* \"#utility.yul\":17914:17918   */\n      dup3\n        /* \"#utility.yul\":17910:17926   */\n      shl\n        /* \"#utility.yul\":17889:17926   */\n      swap1\n      pop\n        /* \"#utility.yul\":17826:17933   */\n      swap3\n      swap2\n      pop\n      pop\n      jump\t// out\n        /* \"#utility.yul\":17939:18332   */\n    tag_213:\n        /* \"#utility.yul\":18008:18014   */\n      0x00\n        /* \"#utility.yul\":18058:18059   */\n      0x08\n        /* \"#utility.yul\":18046:18056   */\n      dup4\n        /* \"#utility.yul\":18042:18060   */\n      mul\n        /* \"#utility.yul\":18081:18178   */\n      tag_415\n        /* \"#utility.yul\":18111:18177   */\n      0xffffffffffffffffffffffffffffffffffffffffffffffffffffffffffffffff\n        /* \"#utility.yul\":18100:18109   */\n      dup3\n        /* \"#utility.yul\":18081:18178   */\n      tag_212\n      jump\t// in\n    tag_415:\n        /* \"#utility.yul\":18199:18238   */\n      tag_416\n        /* \"#utility.yul\":18229:18237   */\n      dup7\n        /* \"#utility.yul\":18218:18227   */\n      dup4\n        /* \"#utility.yul\":18199:18238   */\n      tag_212\n      jump\t// in\n    tag_416:\n        /* \"#utility.yul\":18187:18238   */\n      swap6\n      pop\n        /* \"#utility.yul\":18271:18275   */\n      dup1\n        /* \"#utility.yul\":18267:18276   */\n      not\n        /* \"#utility.yul\":18260:18265   */\n      dup5\n        /* \"#utility.yul\":18256:18277   */\n      and\n        /* \"#utility.yul\":18247:18277   */\n      swap4\n      pop\n        /* \"#utility.yul\":18320:18324   */\n      dup1\n        /* \"#utility.yul\":18310:18318   */\n      dup7\n        /* \"#utility.yul\":18306:18325   */\n      and\n        /* \"#utility.yul\":18299:18304   */\n      dup5\n        /* \"#utility.yul\":18296:18326   */\n      or\n        /* \"#utility.yul\":18286:18326   */\n      swap3\n      pop\n        /* \"#utility.yul\":18015:18332   */\n      pop\n      pop\n        /* \"#utility.yul\":17939:18332   */\n      swap4\n      swap3\n      pop\n      pop\n      pop\n      jump\t// out\n        /* \"#utility.yul\":18338:18398   */\n    tag_214:\n        /* \"#utility.yul\":18366:18369   */\n      0x00\n        /* \"#utility.yul\":18387:18392   */\n      dup2\n        /* \"#utility.yul\":18380:18392   */\n      swap1\n      pop\n        /* \"#utility.yul\":18338:18398   */\n      swap2\n      swap1\n      pop\n      jump\t// out\n        /* \"#utility.yul\":18404:18546   */\n    tag_215:\n        /* \"#utility.yul\":18454:18463   */\n      0x00\n        /* \"#utility.yul\":18487:18540   */\n      tag_419\n        /* \"#utility.yul\":18505:18539   */\n      tag_420\n        /* \"#utility.yul\":18514:18538   */\n      tag_421\n        /* \"#utility.yul\":18532:18537   */\n      dup5\n        /* \"#utility.yul\":18514:18538   */\n      tag_175\n      jump\t// in\n    tag_421:\n        /* \"#utility.yul\":18505:18539   */\n      tag_214\n      jump\t// in\n    tag_420:\n        /* \"#utility.yul\":18487:18540   */\n      tag_175\n      jump\t// in\n    tag_419:\n        /* \"#utility.yul\":18474:18540   */\n      swap1\n      pop\n        /* \"#utility.yul\":18404:18546   */\n      swap2\n      swap1\n      pop\n      jump\t// out\n        /* \"#utility.yul\":18552:18627   */\n    tag_216:\n        /* \"#utility.yul\":18595:18598   */\n      0x00\n        /* \"#utility.yul\":18616:18621   */\n      dup2\n        /* \"#utility.yul\":18609:18621   */\n      swap1\n      pop\n        /* \"#utility.yul\":18552:18627   */\n      swap2\n      swap1\n      pop\n      jump\t// out\n        /* \"#utility.yul\":18633:18902   */\n    tag_217:\n        /* \"#utility.yul\":18743:18782   */\n      tag_424\n        /* \"#utility.yul\":18774:18781   */\n      dup4\n        /* \"#utility.yul\":18743:18782   */\n      tag_215\n      jump\t// in\n    tag_424:\n        /* \"#utility.yul\":18804:18895   */\n      tag_425\n        /* \"#utility.yul\":18853:18894   */\n      tag_426\n        /* \"#utility.yul\":18877:18893   */\n      dup3\n        /* \"#utility.yul\":18853:18894   */\n      tag_216\n      jump\t// in\n    tag_426:\n        /* \"#utility.yul\":18845:18851   */\n      dup5\n        /* \"#utility.yul\":18838:18842   */\n      dup5\n        /* \"#utility.yul\":18832:18843   */\n      sload\n        /* \"#utility.yul\":18804:18895   */\n      tag_213\n      jump\t// in\n    tag_425:\n        /* \"#utility.yul\":18798:18802   */\n      dup3\n        /* \"#utility.yul\":18791:18896   */\n      sstore\n        /* \"#utility.yul\":18709:18902   */\n      pop\n        /* \"#utility.yul\":18633:18902   */\n      pop\n      pop\n      pop\n      jump\t// out\n        /* \"#utility.yul\":18908:18981   */\n    tag_218:\n        /* \"#utility.yul\":18953:18956   */\n      0x00\n        /* \"#utility.yul\":18908:18981   */\n      swap1\n      jump\t// out\n        /* \"#utility.yul\":18987:19176   */\n    tag_219:\n        /* \"#utility.yul\":19064:19096   */\n      tag_429\n      tag_218\n      jump\t// in\n    tag_429:\n        /* \"#utility.yul\":19105:19170   */\n      tag_430\n        /* \"#utility.yul\":19163:19169   */\n      dup2\n        /* \"#utility.yul\":19155:19161   */\n      dup5\n        /* \"#utility.yul\":19149:19153   */\n      dup5\n        /* \"#utility.yul\":19105:19170   */\n      tag_217\n      jump\t// in\n    tag_430:\n        /* \"#utility.yul\":19040:19176   */\n      pop\n        /* \"#utility.yul\":18987:19176   */\n      pop\n      pop\n      jump\t// out\n        /* \"#utility.yul\":19182:19368   */\n    tag_220:\n        /* \"#utility.yul\":19242:19362   */\n    tag_432:\n        /* \"#utility.yul\":19259:19262   */\n      dup2\n        /* \"#utility.yul\":19252:19257   */\n      dup2\n        /* \"#utility.yul\":19249:19263   */\n      lt\n        /* \"#utility.yul\":19242:19362   */\n      iszero\n      tag_434\n      jumpi\n        /* \"#utility.yul\":19313:19352   */\n      tag_435\n        /* \"#utility.yul\":19350:19351   */\n      0x00\n        /* \"#utility.yul\":19343:19348   */\n      dup3\n        /* \"#utility.yul\":19313:19352   */\n      tag_219\n      jump\t// in\n    tag_435:\n        /* \"#utility.yul\":19286:19287   */\n      0x01\n        /* \"#utility.yul\":19279:19284   */\n      dup2\n        /* \"#utility.yul\":19275:19288   */\n      add\n        /* \"#utility.yul\":19266:19288   */\n      swap1\n      pop\n        /* \"#utility.yul\":19242:19362   */\n      jump(tag_432)\n    tag_434:\n        /* \"#utility.yul\":19182:19368   */\n      pop\n      pop\n      jump\t// out\n        /* \"#utility.yul\":19374:19917   */\n    tag_221:\n        /* \"#utility.yul\":19475:19477   */\n      0x1f\n        /* \"#utility.yul\":19470:19473   */\n      dup3\n        /* \"#utility.yul\":19467:19478   */\n      gt\n        /* \"#utility.yul\":19464:19910   */\n      iszero\n      tag_437\n      jumpi\n        /* \"#utility.yul\":19509:19547   */\n      tag_438\n        /* \"#utility.yul\":19541:19546   */\n      dup2\n        /* \"#utility.yul\":19509:19547   */\n      tag_210\n      jump\t// in\n    tag_438:\n        /* \"#utility.yul\":19593:19622   */\n      tag_439\n        /* \"#utility.yul\":19611:19621   */\n      dup5\n        /* \"#utility.yul\":19593:19622   */\n      tag_211\n      jump\t// in\n    tag_439:\n        /* \"#utility.yul\":19583:19591   */\n      dup2\n        /* \"#utility.yul\":19579:19623   */\n      add\n        /* \"#utility.yul\":19776:19778   */\n      0x20\n        /* \"#utility.yul\":19764:19774   */\n      dup6\n        /* \"#utility.yul\":19761:19779   */\n      lt\n        /* \"#utility.yul\":19758:19807   */\n      iszero\n      tag_440\n      jumpi\n        /* \"#utility.yul\":19797:19805   */\n      dup2\n        /* \"#utility.yul\":19782:19805   */\n      swap1\n      pop\n        /* \"#utility.yul\":19758:19807   */\n    tag_440:\n        /* \"#utility.yul\":19820:19900   */\n      tag_441\n        /* \"#utility.yul\":19876:19898   */\n      tag_442\n        /* \"#utility.yul\":19894:19897   */\n      dup6\n        /* \"#utility.yul\":19876:19898   */\n      tag_211\n      jump\t// in\n    tag_442:\n        /* \"#utility.yul\":19866:19874   */\n      dup4\n        /* \"#utility.yul\":19862:19899   */\n      add\n        /* \"#utility.yul\":19849:19860   */\n      dup3\n        /* \"#utility.yul\":19820:19900   */\n      tag_220\n      jump\t// in\n    tag_441:\n        /* \"#utility.yul\":19479:19910   */\n      pop\n      pop\n        /* \"#utility.yul\":19464:19910   */\n    tag_437:\n        /* \"#utility.yul\":19374:19917   */\n      pop\n      pop\n      pop\n      jump\t// out\n        /* \"#utility.yul\":19923:20040   */\n    tag_222:\n        /* \"#utility.yul\":19977:19985   */\n      0x00\n        /* \"#utility.yul\":20027:20032   */\n      dup3\n        /* \"#utility.yul\":20021:20025   */\n      dup3\n        /* \"#utility.yul\":20017:20033   */\n      shr\n        /* \"#utility.yul\":19996:20033   */\n      swap1\n      pop\n        /* \"#utility.yul\":19923:20040   */\n      swap3\n      swap2\n      pop\n      pop\n      jump\t// out\n        /* \"#utility.yul\":20046:20215   */\n    tag_223:\n        /* \"#utility.yul\":20090:20096   */\n      0x00\n        /* \"#utility.yul\":20123:20174   */\n      tag_445\n        /* \"#utility.yul\":20171:20172   */\n      0x00\n        /* \"#utility.yul\":20167:20173   */\n      not\n        /* \"#utility.yul\":20159:20164   */\n      dup5\n        /* \"#utility.yul\":20156:20157   */\n      0x08\n        /* \"#utility.yul\":20152:20165   */\n      mul\n        /* \"#utility.yul\":20123:20174   */\n      tag_222\n      jump\t// in\n    tag_445:\n        /* \"#utility.yul\":20119:20175   */\n      not\n        /* \"#utility.yul\":20204:20208   */\n      dup1\n        /* \"#utility.yul\":20198:20202   */\n      dup4\n        /* \"#utility.yul\":20194:20209   */\n      and\n        /* \"#utility.yul\":20184:20209   */\n      swap2\n      pop\n        /* \"#utility.yul\":20097:20215   */\n      pop\n        /* \"#utility.yul\":20046:20215   */\n      swap3\n      swap2\n      pop\n      pop\n      jump\t// out\n        /* \"#utility.yul\":20220:20515   */\n    tag_224:\n        /* \"#utility.yul\":20296:20300   */\n      0x00\n        /* \"#utility.yul\":20442:20471   */\n      tag_447\n        /* \"#utility.yul\":20467:20470   */\n      dup4\n        /* \"#utility.yul\":20461:20465   */\n      dup4\n        /* \"#utility.yul\":20442:20471   */\n      tag_223\n      jump\t// in\n    tag_447:\n        /* \"#utility.yul\":20434:20471   */\n      swap2\n      pop\n        /* \"#utility.yul\":20504:20507   */\n      dup3\n        /* \"#utility.yul\":20501:20502   */\n      0x02\n        /* \"#utility.yul\":20497:20508   */\n      mul\n        /* \"#utility.yul\":20491:20495   */\n      dup3\n        /* \"#utility.yul\":20488:20509   */\n      or\n        /* \"#utility.yul\":20480:20509   */\n      swap1\n      pop\n        /* \"#utility.yul\":20220:20515   */\n      swap3\n      swap2\n      pop\n      pop\n      jump\t// out\n        /* \"#utility.yul\":20520:21915   */\n    tag_81:\n        /* \"#utility.yul\":20637:20674   */\n      tag_449\n        /* \"#utility.yul\":20670:20673   */\n      dup3\n        /* \"#utility.yul\":20637:20674   */\n      tag_190\n      jump\t// in\n    tag_449:\n        /* \"#utility.yul\":20739:20757   */\n      0xffffffffffffffff\n        /* \"#utility.yul\":20731:20737   */\n      dup2\n        /* \"#utility.yul\":20728:20758   */\n      gt\n        /* \"#utility.yul\":20725:20781   */\n      iszero\n      tag_450\n      jumpi\n        /* \"#utility.yul\":20761:20779   */\n      tag_451\n      tag_168\n      jump\t// in\n    tag_451:\n        /* \"#utility.yul\":20725:20781   */\n    tag_450:\n        /* \"#utility.yul\":20805:20843   */\n      tag_452\n        /* \"#utility.yul\":20837:20841   */\n      dup3\n        /* \"#utility.yul\":20831:20842   */\n      sload\n        /* \"#utility.yul\":20805:20843   */\n      tag_90\n      jump\t// in\n    tag_452:\n        /* \"#utility.yul\":20890:20957   */\n      tag_453\n        /* \"#utility.yul\":20950:20956   */\n      dup3\n        /* \"#utility.yul\":20942:20948   */\n      dup3\n        /* \"#utility.yul\":20936:20940   */\n      dup6\n        /* \"#utility.yul\":20890:20957   */\n      tag_221\n      jump\t// in\n    tag_453:\n        /* \"#utility.yul\":20984:20985   */\n      0x00\n        /* \"#utility.yul\":21008:21012   */\n      0x20\n        /* \"#utility.yul\":20995:21012   */\n      swap1\n      pop\n        /* \"#utility.yul\":21040:21042   */\n      0x1f\n        /* \"#utility.yul\":21032:21038   */\n      dup4\n        /* \"#utility.yul\":21029:21043   */\n      gt\n        /* \"#utility.yul\":21057:21058   */\n      0x01\n        /* \"#utility.yul\":21052:21670   */\n      dup2\n      eq\n      tag_455\n      jumpi\n        /* \"#utility.yul\":21714:21715   */\n      0x00\n        /* \"#utility.yul\":21731:21737   */\n      dup5\n        /* \"#utility.yul\":21728:21805   */\n      iszero\n      tag_456\n      jumpi\n        /* \"#utility.yul\":21780:21789   */\n      dup3\n        /* \"#utility.yul\":21775:21778   */\n      dup8\n        /* \"#utility.yul\":21771:21790   */\n      add\n        /* \"#utility.yul\":21765:21791   */\n      mload\n        /* \"#utility.yul\":21756:21791   */\n      swap1\n      pop\n        /* \"#utility.yul\":21728:21805   */\n    tag_456:\n        /* \"#utility.yul\":21831:21898   */\n      tag_457\n        /* \"#utility.yul\":21891:21897   */\n      dup6\n        /* \"#utility.yul\":21884:21889   */\n      dup3\n        /* \"#utility.yul\":21831:21898   */\n      tag_224\n      jump\t// in\n    tag_457:\n        /* \"#utility.yul\":21825:21829   */\n      dup7\n        /* \"#utility.yul\":21818:21899   */\n      sstore\n        /* \"#utility.yul\":21687:21909   */\n      pop\n        /* \"#utility.yul\":21022:21909   */\n      jump(tag_454)\n        /* \"#utility.yul\":21052:21670   */\n    tag_455:\n        /* \"#utility.yul\":21104:21108   */\n      0x1f\n        /* \"#utility.yul\":21100:21109   */\n      not\n        /* \"#utility.yul\":21092:21098   */\n      dup5\n        /* \"#utility.yul\":21088:21110   */\n      and\n        /* \"#utility.yul\":21138:21175   */\n      tag_458\n        /* \"#utility.yul\":21170:21174   */\n      dup7\n        /* \"#utility.yul\":21138:21175   */\n      tag_210\n      jump\t// in\n    tag_458:\n        /* \"#utility.yul\":21197:21198   */\n      0x00\n        /* \"#utility.yul\":21211:21419   */\n    tag_459:\n        /* \"#utility.yul\":21225:21232   */\n      dup3\n        /* \"#utility.yul\":21222:21223   */\n      dup2\n        /* \"#utility.yul\":21219:21233   */\n      lt\n        /* \"#utility.yul\":21211:21419   */\n      iszero\n      tag_461\n      jumpi\n        /* \"#utility.yul\":21304:21313   */\n      dup5\n        /* \"#utility.yul\":21299:21302   */\n      dup10\n        /* \"#utility.yul\":21295:21314   */\n      add\n        /* \"#utility.yul\":21289:21315   */\n      mload\n        /* \"#utility.yul\":21281:21287   */\n      dup3\n        /* \"#utility.yul\":21274:21316   */\n      sstore\n        /* \"#utility.yul\":21355:21356   */\n      0x01\n        /* \"#utility.yul\":21347:21353   */\n      dup3\n        /* \"#utility.yul\":21343:21357   */\n      add\n        /* \"#utility.yul\":21333:21357   */\n      swap2\n      pop\n        /* \"#utility.yul\":21402:21404   */\n      0x20\n        /* \"#utility.yul\":21391:21400   */\n      dup6\n        /* \"#utility.yul\":21387:21405   */\n      add\n        /* \"#utility.yul\":21374:21405   */\n      swap5\n      pop\n        /* \"#utility.yul\":21248:21252   */\n      0x20\n        /* \"#utility.yul\":21245:21246   */\n      dup2\n        /* \"#utility.yul\":21241:21253   */\n      add\n        /* \"#utility.yul\":21236:21253   */\n      swap1\n      pop\n        /* \"#utility.yul\":21211:21419   */\n      jump(tag_459)\n    tag_461:\n        /* \"#utility.yul\":21447:21453   */\n      dup7\n        /* \"#utility.yul\":21438:21445   */\n      dup4\n        /* \"#utility.yul\":21435:21454   */\n      lt\n        /* \"#utility.yul\":21432:21611   */\n      iszero\n      tag_462\n      jumpi\n        /* \"#utility.yul\":21505:21514   */\n      dup5\n        /* \"#utility.yul\":21500:21503   */\n      dup10\n        /* \"#utility.yul\":21496:21515   */\n      add\n        /* \"#utility.yul\":21490:21516   */\n      mload\n        /* \"#utility.yul\":21548:21596   */\n      tag_463\n        /* \"#utility.yul\":21590:21594   */\n      0x1f\n        /* \"#utility.yul\":21582:21588   */\n      dup10\n        /* \"#utility.yul\":21578:21595   */\n      and\n        /* \"#utility.yul\":21567:21576   */\n      dup3\n        /* \"#utility.yul\":21548:21596   */\n      tag_223\n      jump\t// in\n    tag_463:\n        /* \"#utility.yul\":21540:21546   */\n      dup4\n        /* \"#utility.yul\":21533:21597   */\n      sstore\n        /* \"#utility.yul\":21455:21611   */\n      pop\n        /* \"#utility.yul\":21432:21611   */\n    tag_462:\n        /* \"#utility.yul\":21657:21658   */\n      0x01\n        /* \"#utility.yul\":21653:21654   */\n      0x02\n        /* \"#utility.yul\":21645:21651   */\n      dup9\n        /* \"#utility.yul\":21641:21655   */\n      mul\n        /* \"#utility.yul\":21637:21659   */\n      add\n        /* \"#utility.yul\":21631:21635   */\n      dup9\n        /* \"#utility.yul\":21624:21660   */\n      sstore\n        /* \"#utility.yul\":21059:21670   */\n      pop\n      pop\n      pop\n        /* \"#utility.yul\":21022:21909   */\n    tag_454:\n      pop\n        /* \"#utility.yul\":20612:21915   */\n      pop\n      pop\n      pop\n        /* \"#utility.yul\":20520:21915   */\n      pop\n      pop\n      jump\t// out\n        /* \"#utility.yul\":21921:22454   */\n    tag_85:\n        /* \"#utility.yul\":22090:22094   */\n      0x00\n        /* \"#utility.yul\":22128:22130   */\n      0x60\n        /* \"#utility.yul\":22117:22126   */\n      dup3\n        /* \"#utility.yul\":22113:22131   */\n      add\n        /* \"#utility.yul\":22105:22131   */\n      swap1\n      pop\n        /* \"#utility.yul\":22141:22212   */\n      tag_465\n        /* \"#utility.yul\":22209:22210   */\n      0x00\n        /* \"#utility.yul\":22198:22207   */\n      dup4\n        /* \"#utility.yul\":22194:22211   */\n      add\n        /* \"#utility.yul\":22185:22191   */\n      dup7\n        /* \"#utility.yul\":22141:22212   */\n      tag_178\n      jump\t// in\n    tag_465:\n        /* \"#utility.yul\":22259:22268   */\n      dup2\n        /* \"#utility.yul\":22253:22257   */\n      dup2\n        /* \"#utility.yul\":22249:22269   */\n      sub\n        /* \"#utility.yul\":22244:22246   */\n      0x20\n        /* \"#utility.yul\":22233:22242   */\n      dup4\n        /* \"#utility.yul\":22229:22247   */\n      add\n        /* \"#utility.yul\":22222:22270   */\n      mstore\n        /* \"#utility.yul\":22287:22365   */\n      tag_466\n        /* \"#utility.yul\":22360:22364   */\n      dup2\n        /* \"#utility.yul\":22351:22357   */\n      dup6\n        /* \"#utility.yul\":22287:22365   */\n      tag_193\n      jump\t// in\n    tag_466:\n        /* \"#utility.yul\":22279:22365   */\n      swap1\n      pop\n        /* \"#utility.yul\":22375:22447   */\n      tag_467\n        /* \"#utility.yul\":22443:22445   */\n      0x40\n        /* \"#utility.yul\":22432:22441   */\n      dup4\n        /* \"#utility.yul\":22428:22446   */\n      add\n        /* \"#utility.yul\":22419:22425   */\n      dup5\n        /* \"#utility.yul\":22375:22447   */\n      tag_198\n      jump\t// in\n    tag_467:\n        /* \"#utility.yul\":21921:22454   */\n      swap5\n      swap4\n      pop\n      pop\n      pop\n      pop\n      jump\t// out\n        /* \"#utility.yul\":22460:22635   */\n    tag_225:\n        /* \"#utility.yul\":22600:22627   */\n      0x4c61206c6f636174696f6e206e27657869737465207061732e00000000000000\n        /* \"#utility.yul\":22596:22597   */\n      0x00\n        /* \"#utility.yul\":22588:22594   */\n      dup3\n        /* \"#utility.yul\":22584:22598   */\n      add\n        /* \"#utility.yul\":22577:22628   */\n      mstore\n        /* \"#utility.yul\":22460:22635   */\n      pop\n      jump\t// out\n        /* \"#utility.yul\":22641:23007   */\n    tag_226:\n        /* \"#utility.yul\":22783:22786   */\n      0x00\n        /* \"#utility.yul\":22804:22871   */\n      tag_470\n        /* \"#utility.yul\":22868:22870   */\n      0x19\n        /* \"#utility.yul\":22863:22866   */\n      dup4\n        /* \"#utility.yul\":22804:22871   */\n      tag_191\n      jump\t// in\n    tag_470:\n        /* \"#utility.yul\":22797:22871   */\n      swap2\n      pop\n        /* \"#utility.yul\":22880:22973   */\n      tag_471\n        /* \"#utility.yul\":22969:22972   */\n      dup3\n        /* \"#utility.yul\":22880:22973   */\n      tag_225\n      jump\t// in\n    tag_471:\n        /* \"#utility.yul\":22998:23000   */\n      0x20\n        /* \"#utility.yul\":22993:22996   */\n      dup3\n        /* \"#utility.yul\":22989:23001   */\n      add\n        /* \"#utility.yul\":22982:23001   */\n      swap1\n      pop\n        /* \"#utility.yul\":22641:23007   */\n      swap2\n      swap1\n      pop\n      jump\t// out\n        /* \"#utility.yul\":23013:23432   */\n    tag_103:\n        /* \"#utility.yul\":23179:23183   */\n      0x00\n        /* \"#utility.yul\":23217:23219   */\n      0x20\n        /* \"#utility.yul\":23206:23215   */\n      dup3\n        /* \"#utility.yul\":23202:23220   */\n      add\n        /* \"#utility.yul\":23194:23220   */\n      swap1\n      pop\n        /* \"#utility.yul\":23266:23275   */\n      dup2\n        /* \"#utility.yul\":23260:23264   */\n      dup2\n        /* \"#utility.yul\":23256:23276   */\n      sub\n        /* \"#utility.yul\":23252:23253   */\n      0x00\n        /* \"#utility.yul\":23241:23250   */\n      dup4\n        /* \"#utility.yul\":23237:23254   */\n      add\n        /* \"#utility.yul\":23230:23277   */\n      mstore\n        /* \"#utility.yul\":23294:23425   */\n      tag_473\n        /* \"#utility.yul\":23420:23424   */\n      dup2\n        /* \"#utility.yul\":23294:23425   */\n      tag_226\n      jump\t// in\n    tag_473:\n        /* \"#utility.yul\":23286:23425   */\n      swap1\n      pop\n        /* \"#utility.yul\":23013:23432   */\n      swap2\n      swap1\n      pop\n      jump\t// out\n        /* \"#utility.yul\":23438:23672   */\n    tag_227:\n        /* \"#utility.yul\":23578:23612   */\n      0x566f7573206e276574657320706173206c65206c6f6361746169726520646520\n        /* \"#utility.yul\":23574:23575   */\n      0x00\n        /* \"#utility.yul\":23566:23572   */\n      dup3\n        /* \"#utility.yul\":23562:23576   */\n      add\n        /* \"#utility.yul\":23555:23613   */\n      mstore\n        /* \"#utility.yul\":23647:23664   */\n      0x6365747465206c6f636174696f6e2e0000000000000000000000000000000000\n        /* \"#utility.yul\":23642:23644   */\n      0x20\n        /* \"#utility.yul\":23634:23640   */\n      dup3\n        /* \"#utility.yul\":23630:23645   */\n      add\n        /* \"#utility.yul\":23623:23665   */\n      mstore\n        /* \"#utility.yul\":23438:23672   */\n      pop\n      jump\t// out\n        /* \"#utility.yul\":23678:24044   */\n    tag_228:\n        /* \"#utility.yul\":23820:23823   */\n      0x00\n        /* \"#utility.yul\":23841:23908   */\n      tag_476\n        /* \"#utility.yul\":23905:23907   */\n      0x2f\n        /* \"#utility.yul\":23900:23903   */\n      dup4\n        /* \"#utility.yul\":23841:23908   */\n      tag_191\n      jump\t// in\n    tag_476:\n        /* \"#utility.yul\":23834:23908   */\n      swap2\n      pop\n        /* \"#utility.yul\":23917:24010   */\n      tag_477\n        /* \"#utility.yul\":24006:24009   */\n      dup3\n        /* \"#utility.yul\":23917:24010   */\n      tag_227\n      jump\t// in\n    tag_477:\n        /* \"#utility.yul\":24035:24037   */\n      0x40\n        /* \"#utility.yul\":24030:24033   */\n      dup3\n        /* \"#utility.yul\":24026:24038   */\n      add\n        /* \"#utility.yul\":24019:24038   */\n      swap1\n      pop\n        /* \"#utility.yul\":23678:24044   */\n      swap2\n      swap1\n      pop\n      jump\t// out\n        /* \"#utility.yul\":24050:24469   */\n    tag_106:\n        /* \"#utility.yul\":24216:24220   */\n      0x00\n        /* \"#utility.yul\":24254:24256   */\n      0x20\n        /* \"#utility.yul\":24243:24252   */\n      dup3\n        /* \"#utility.yul\":24239:24257   */\n      add\n        /* \"#utility.yul\":24231:24257   */\n      swap1\n      pop\n        /* \"#utility.yul\":24303:24312   */\n      dup2\n        /* \"#utility.yul\":24297:24301   */\n      dup2\n        /* \"#utility.yul\":24293:24313   */\n      sub\n        /* \"#utility.yul\":24289:24290   */\n      0x00\n        /* \"#utility.yul\":24278:24287   */\n      dup4\n        /* \"#utility.yul\":24274:24291   */\n      add\n        /* \"#utility.yul\":24267:24314   */\n      mstore\n        /* \"#utility.yul\":24331:24462   */\n      tag_479\n        /* \"#utility.yul\":24457:24461   */\n      dup2\n        /* \"#utility.yul\":24331:24462   */\n      tag_228\n      jump\t// in\n    tag_479:\n        /* \"#utility.yul\":24323:24462   */\n      swap1\n      pop\n        /* \"#utility.yul\":24050:24469   */\n      swap2\n      swap1\n      pop\n      jump\t// out\n        /* \"#utility.yul\":24475:24655   */\n    tag_229:\n        /* \"#utility.yul\":24615:24647   */\n      0x4c61206c6f636174696f6e206573742064656a61207465726d696e65652e0000\n        /* \"#utility.yul\":24611:24612   */\n      0x00\n        /* \"#utility.yul\":24603:24609   */\n      dup3\n        /* \"#utility.yul\":24599:24613   */\n      add\n        /* \"#utility.yul\":24592:24648   */\n      mstore\n        /* \"#utility.yul\":24475:24655   */\n      pop\n      jump\t// out\n        /* \"#utility.yul\":24661:25027   */\n    tag_230:\n        /* \"#utility.yul\":24803:24806   */\n      0x00\n        /* \"#utility.yul\":24824:24891   */\n      tag_482\n        /* \"#utility.yul\":24888:24890   */\n      0x1e\n        /* \"#utility.yul\":24883:24886   */\n      dup4\n        /* \"#utility.yul\":24824:24891   */\n      tag_191\n      jump\t// in\n    tag_482:\n        /* \"#utility.yul\":24817:24891   */\n      swap2\n      pop\n        /* \"#utility.yul\":24900:24993   */\n      tag_483\n        /* \"#utility.yul\":24989:24992   */\n      dup3\n        /* \"#utility.yul\":24900:24993   */\n      tag_229\n      jump\t// in\n    tag_483:\n        /* \"#utility.yul\":25018:25020   */\n      0x20\n        /* \"#utility.yul\":25013:25016   */\n      dup3\n        /* \"#utility.yul\":25009:25021   */\n      add\n        /* \"#utility.yul\":25002:25021   */\n      swap1\n      pop\n        /* \"#utility.yul\":24661:25027   */\n      swap2\n      swap1\n      pop\n      jump\t// out\n        /* \"#utility.yul\":25033:25452   */\n    tag_109:\n        /* \"#utility.yul\":25199:25203   */\n      0x00\n        /* \"#utility.yul\":25237:25239   */\n      0x20\n        /* \"#utility.yul\":25226:25235   */\n      dup3\n        /* \"#utility.yul\":25222:25240   */\n      add\n        /* \"#utility.yul\":25214:25240   */\n      swap1\n      pop\n        /* \"#utility.yul\":25286:25295   */\n      dup2\n        /* \"#utility.yul\":25280:25284   */\n      dup2\n        /* \"#utility.yul\":25276:25296   */\n      sub\n        /* \"#utility.yul\":25272:25273   */\n      0x00\n        /* \"#utility.yul\":25261:25270   */\n      dup4\n        /* \"#utility.yul\":25257:25274   */\n      add\n        /* \"#utility.yul\":25250:25297   */\n      mstore\n        /* \"#utility.yul\":25314:25445   */\n      tag_485\n        /* \"#utility.yul\":25440:25444   */\n      dup2\n        /* \"#utility.yul\":25314:25445   */\n      tag_230\n      jump\t// in\n    tag_485:\n        /* \"#utility.yul\":25306:25445   */\n      swap1\n      pop\n        /* \"#utility.yul\":25033:25452   */\n      swap2\n      swap1\n      pop\n      jump\t// out\n        /* \"#utility.yul\":25458:25694   */\n    tag_231:\n        /* \"#utility.yul\":25598:25632   */\n      0x4c6120706572696f6465206465206c6f636174696f6e206e2765737420706173\n        /* \"#utility.yul\":25594:25595   */\n      0x00\n        /* \"#utility.yul\":25586:25592   */\n      dup3\n        /* \"#utility.yul\":25582:25596   */\n      add\n        /* \"#utility.yul\":25575:25633   */\n      mstore\n        /* \"#utility.yul\":25667:25686   */\n      0x20656e636f7265207465726d696e65652e000000000000000000000000000000\n        /* \"#utility.yul\":25662:25664   */\n      0x20\n        /* \"#utility.yul\":25654:25660   */\n      dup3\n        /* \"#utility.yul\":25650:25665   */\n      add\n        /* \"#utility.yul\":25643:25687   */\n      mstore\n        /* \"#utility.yul\":25458:25694   */\n      pop\n      jump\t// out\n        /* \"#utility.yul\":25700:26066   */\n    tag_232:\n        /* \"#utility.yul\":25842:25845   */\n      0x00\n        /* \"#utility.yul\":25863:25930   */\n      tag_488\n        /* \"#utility.yul\":25927:25929   */\n      0x31\n        /* \"#utility.yul\":25922:25925   */\n      dup4\n        /* \"#utility.yul\":25863:25930   */\n      tag_191\n      jump\t// in\n    tag_488:\n        /* \"#utility.yul\":25856:25930   */\n      swap2\n      pop\n        /* \"#utility.yul\":25939:26032   */\n      tag_489\n        /* \"#utility.yul\":26028:26031   */\n      dup3\n        /* \"#utility.yul\":25939:26032   */\n      tag_231\n      jump\t// in\n    tag_489:\n        /* \"#utility.yul\":26057:26059   */\n      0x40\n        /* \"#utility.yul\":26052:26055   */\n      dup3\n        /* \"#utility.yul\":26048:26060   */\n      add\n        /* \"#utility.yul\":26041:26060   */\n      swap1\n      pop\n        /* \"#utility.yul\":25700:26066   */\n      swap2\n      swap1\n      pop\n      jump\t// out\n        /* \"#utility.yul\":26072:26491   */\n    tag_112:\n        /* \"#utility.yul\":26238:26242   */\n      0x00\n        /* \"#utility.yul\":26276:26278   */\n      0x20\n        /* \"#utility.yul\":26265:26274   */\n      dup3\n        /* \"#utility.yul\":26261:26279   */\n      add\n        /* \"#utility.yul\":26253:26279   */\n      swap1\n      pop\n        /* \"#utility.yul\":26325:26334   */\n      dup2\n        /* \"#utility.yul\":26319:26323   */\n      dup2\n        /* \"#utility.yul\":26315:26335   */\n      sub\n        /* \"#utility.yul\":26311:26312   */\n      0x00\n        /* \"#utility.yul\":26300:26309   */\n      dup4\n        /* \"#utility.yul\":26296:26313   */\n      add\n        /* \"#utility.yul\":26289:26336   */\n      mstore\n        /* \"#utility.yul\":26353:26484   */\n      tag_491\n        /* \"#utility.yul\":26479:26483   */\n      dup2\n        /* \"#utility.yul\":26353:26484   */\n      tag_232\n      jump\t// in\n    tag_491:\n        /* \"#utility.yul\":26345:26484   */\n      swap1\n      pop\n        /* \"#utility.yul\":26072:26491   */\n      swap2\n      swap1\n      pop\n      jump\t// out\n        /* \"#utility.yul\":26497:26829   */\n    tag_114:\n        /* \"#utility.yul\":26618:26622   */\n      0x00\n        /* \"#utility.yul\":26656:26658   */\n      0x40\n        /* \"#utility.yul\":26645:26654   */\n      dup3\n        /* \"#utility.yul\":26641:26659   */\n      add\n        /* \"#utility.yul\":26633:26659   */\n      swap1\n      pop\n        /* \"#utility.yul\":26669:26740   */\n      tag_493\n        /* \"#utility.yul\":26737:26738   */\n      0x00\n        /* \"#utility.yul\":26726:26735   */\n      dup4\n        /* \"#utility.yul\":26722:26739   */\n      add\n        /* \"#utility.yul\":26713:26719   */\n      dup6\n        /* \"#utility.yul\":26669:26740   */\n      tag_178\n      jump\t// in\n    tag_493:\n        /* \"#utility.yul\":26750:26822   */\n      tag_494\n        /* \"#utility.yul\":26818:26820   */\n      0x20\n        /* \"#utility.yul\":26807:26816   */\n      dup4\n        /* \"#utility.yul\":26803:26821   */\n      add\n        /* \"#utility.yul\":26794:26800   */\n      dup5\n        /* \"#utility.yul\":26750:26822   */\n      tag_198\n      jump\t// in\n    tag_494:\n        /* \"#utility.yul\":26497:26829   */\n      swap4\n      swap3\n      pop\n      pop\n      pop\n      jump\t// out\n        /* \"#utility.yul\":26835:27006   */\n    tag_233:\n        /* \"#utility.yul\":26975:26998   */\n      0x4c276f626a6574206e27657869737465207061732e0000000000000000000000\n        /* \"#utility.yul\":26971:26972   */\n      0x00\n        /* \"#utility.yul\":26963:26969   */\n      dup3\n        /* \"#utility.yul\":26959:26973   */\n      add\n        /* \"#utility.yul\":26952:26999   */\n      mstore\n        /* \"#utility.yul\":26835:27006   */\n      pop\n      jump\t// out\n        /* \"#utility.yul\":27012:27378   */\n    tag_234:\n        /* \"#utility.yul\":27154:27157   */\n      0x00\n        /* \"#utility.yul\":27175:27242   */\n      tag_497\n        /* \"#utility.yul\":27239:27241   */\n      0x15\n        /* \"#utility.yul\":27234:27237   */\n      dup4\n        /* \"#utility.yul\":27175:27242   */\n      tag_191\n      jump\t// in\n    tag_497:\n        /* \"#utility.yul\":27168:27242   */\n      swap2\n      pop\n        /* \"#utility.yul\":27251:27344   */\n      tag_498\n        /* \"#utility.yul\":27340:27343   */\n      dup3\n        /* \"#utility.yul\":27251:27344   */\n      tag_233\n      jump\t// in\n    tag_498:\n        /* \"#utility.yul\":27369:27371   */\n      0x20\n        /* \"#utility.yul\":27364:27367   */\n      dup3\n        /* \"#utility.yul\":27360:27372   */\n      add\n        /* \"#utility.yul\":27353:27372   */\n      swap1\n      pop\n        /* \"#utility.yul\":27012:27378   */\n      swap2\n      swap1\n      pop\n      jump\t// out\n        /* \"#utility.yul\":27384:27803   */\n    tag_118:\n        /* \"#utility.yul\":27550:27554   */\n      0x00\n        /* \"#utility.yul\":27588:27590   */\n      0x20\n        /* \"#utility.yul\":27577:27586   */\n      dup3\n        /* \"#utility.yul\":27573:27591   */\n      add\n        /* \"#utility.yul\":27565:27591   */\n      swap1\n      pop\n        /* \"#utility.yul\":27637:27646   */\n      dup2\n        /* \"#utility.yul\":27631:27635   */\n      dup2\n        /* \"#utility.yul\":27627:27647   */\n      sub\n        /* \"#utility.yul\":27623:27624   */\n      0x00\n        /* \"#utility.yul\":27612:27621   */\n      dup4\n        /* \"#utility.yul\":27608:27625   */\n      add\n        /* \"#utility.yul\":27601:27648   */\n      mstore\n        /* \"#utility.yul\":27665:27796   */\n      tag_500\n        /* \"#utility.yul\":27791:27795   */\n      dup2\n        /* \"#utility.yul\":27665:27796   */\n      tag_234\n      jump\t// in\n    tag_500:\n        /* \"#utility.yul\":27657:27796   */\n      swap1\n      pop\n        /* \"#utility.yul\":27384:27803   */\n      swap2\n      swap1\n      pop\n      jump\t// out\n        /* \"#utility.yul\":27809:27988   */\n    tag_235:\n        /* \"#utility.yul\":27949:27980   */\n      0x4c276f626a6574206e276573742070617320646973706f6e69626c652e000000\n        /* \"#utility.yul\":27945:27946   */\n      0x00\n        /* \"#utility.yul\":27937:27943   */\n      dup3\n        /* \"#utility.yul\":27933:27947   */\n      add\n        /* \"#utility.yul\":27926:27981   */\n      mstore\n        /* \"#utility.yul\":27809:27988   */\n      pop\n      jump\t// out\n        /* \"#utility.yul\":27994:28360   */\n    tag_236:\n        /* \"#utility.yul\":28136:28139   */\n      0x00\n        /* \"#utility.yul\":28157:28224   */\n      tag_503\n        /* \"#utility.yul\":28221:28223   */\n      0x1d\n        /* \"#utility.yul\":28216:28219   */\n      dup4\n        /* \"#utility.yul\":28157:28224   */\n      tag_191\n      jump\t// in\n    tag_503:\n        /* \"#utility.yul\":28150:28224   */\n      swap2\n      pop\n        /* \"#utility.yul\":28233:28326   */\n      tag_504\n        /* \"#utility.yul\":28322:28325   */\n      dup3\n        /* \"#utility.yul\":28233:28326   */\n      tag_235\n      jump\t// in\n    tag_504:\n        /* \"#utility.yul\":28351:28353   */\n      0x20\n        /* \"#utility.yul\":28346:28349   */\n      dup3\n        /* \"#utility.yul\":28342:28354   */\n      add\n        /* \"#utility.yul\":28335:28354   */\n      swap1\n      pop\n        /* \"#utility.yul\":27994:28360   */\n      swap2\n      swap1\n      pop\n      jump\t// out\n        /* \"#utility.yul\":28366:28785   */\n    tag_121:\n        /* \"#utility.yul\":28532:28536   */\n      0x00\n        /* \"#utility.yul\":28570:28572   */\n      0x20\n        /* \"#utility.yul\":28559:28568   */\n      dup3\n        /* \"#utility.yul\":28555:28573   */\n      add\n        /* \"#utility.yul\":28547:28573   */\n      swap1\n      pop\n        /* \"#utility.yul\":28619:28628   */\n      dup2\n        /* \"#utility.yul\":28613:28617   */\n      dup2\n        /* \"#utility.yul\":28609:28629   */\n      sub\n        /* \"#utility.yul\":28605:28606   */\n      0x00\n        /* \"#utility.yul\":28594:28603   */\n      dup4\n        /* \"#utility.yul\":28590:28607   */\n      add\n        /* \"#utility.yul\":28583:28630   */\n      mstore\n        /* \"#utility.yul\":28647:28778   */\n      tag_506\n        /* \"#utility.yul\":28773:28777   */\n      dup2\n        /* \"#utility.yul\":28647:28778   */\n      tag_236\n      jump\t// in\n    tag_506:\n        /* \"#utility.yul\":28639:28778   */\n      swap1\n      pop\n        /* \"#utility.yul\":28366:28785   */\n      swap2\n      swap1\n      pop\n      jump\t// out\n        /* \"#utility.yul\":28791:29027   */\n    tag_237:\n        /* \"#utility.yul\":28931:28965   */\n      0x4c61206475726565206465206c6f636174696f6e20646f697420657472652073\n        /* \"#utility.yul\":28927:28928   */\n      0x00\n        /* \"#utility.yul\":28919:28925   */\n      dup3\n        /* \"#utility.yul\":28915:28929   */\n      add\n        /* \"#utility.yul\":28908:28966   */\n      mstore\n        /* \"#utility.yul\":29000:29019   */\n      0x7570657269657572652061207a65726f2e000000000000000000000000000000\n        /* \"#utility.yul\":28995:28997   */\n      0x20\n        /* \"#utility.yul\":28987:28993   */\n      dup3\n        /* \"#utility.yul\":28983:28998   */\n      add\n        /* \"#utility.yul\":28976:29020   */\n      mstore\n        /* \"#utility.yul\":28791:29027   */\n      pop\n      jump\t// out\n        /* \"#utility.yul\":29033:29399   */\n    tag_238:\n        /* \"#utility.yul\":29175:29178   */\n      0x00\n        /* \"#utility.yul\":29196:29263   */\n      tag_509\n        /* \"#utility.yul\":29260:29262   */\n      0x31\n        /* \"#utility.yul\":29255:29258   */\n      dup4\n        /* \"#utility.yul\":29196:29263   */\n      tag_191\n      jump\t// in\n    tag_509:\n        /* \"#utility.yul\":29189:29263   */\n      swap2\n      pop\n        /* \"#utility.yul\":29272:29365   */\n      tag_510\n        /* \"#utility.yul\":29361:29364   */\n      dup3\n        /* \"#utility.yul\":29272:29365   */\n      tag_237\n      jump\t// in\n    tag_510:\n        /* \"#utility.yul\":29390:29392   */\n      0x40\n        /* \"#utility.yul\":29385:29388   */\n      dup3\n        /* \"#utility.yul\":29381:29393   */\n      add\n        /* \"#utility.yul\":29374:29393   */\n      swap1\n      pop\n        /* \"#utility.yul\":29033:29399   */\n      swap2\n      swap1\n      pop\n      jump\t// out\n        /* \"#utility.yul\":29405:29824   */\n    tag_124:\n        /* \"#utility.yul\":29571:29575   */\n      0x00\n        /* \"#utility.yul\":29609:29611   */\n      0x20\n        /* \"#utility.yul\":29598:29607   */\n      dup3\n        /* \"#utility.yul\":29594:29612   */\n      add\n        /* \"#utility.yul\":29586:29612   */\n      swap1\n      pop\n        /* \"#utility.yul\":29658:29667   */\n      dup2\n        /* \"#utility.yul\":29652:29656   */\n      dup2\n        /* \"#utility.yul\":29648:29668   */\n      sub\n        /* \"#utility.yul\":29644:29645   */\n      0x00\n        /* \"#utility.yul\":29633:29642   */\n      dup4\n        /* \"#utility.yul\":29629:29646   */\n      add\n        /* \"#utility.yul\":29622:29669   */\n      mstore\n        /* \"#utility.yul\":29686:29817   */\n      tag_512\n        /* \"#utility.yul\":29812:29816   */\n      dup2\n        /* \"#utility.yul\":29686:29817   */\n      tag_238\n      jump\t// in\n    tag_512:\n        /* \"#utility.yul\":29678:29817   */\n      swap1\n      pop\n        /* \"#utility.yul\":29405:29824   */\n      swap2\n      swap1\n      pop\n      jump\t// out\n        /* \"#utility.yul\":29830:30240   */\n    tag_126:\n        /* \"#utility.yul\":29870:29877   */\n      0x00\n        /* \"#utility.yul\":29893:29913   */\n      tag_514\n        /* \"#utility.yul\":29911:29912   */\n      dup3\n        /* \"#utility.yul\":29893:29913   */\n      tag_175\n      jump\t// in\n    tag_514:\n        /* \"#utility.yul\":29888:29913   */\n      swap2\n      pop\n        /* \"#utility.yul\":29927:29947   */\n      tag_515\n        /* \"#utility.yul\":29945:29946   */\n      dup4\n        /* \"#utility.yul\":29927:29947   */\n      tag_175\n      jump\t// in\n    tag_515:\n        /* \"#utility.yul\":29922:29947   */\n      swap3\n      pop\n        /* \"#utility.yul\":29982:29983   */\n      dup3\n        /* \"#utility.yul\":29979:29980   */\n      dup3\n        /* \"#utility.yul\":29975:29984   */\n      mul\n        /* \"#utility.yul\":30004:30034   */\n      tag_516\n        /* \"#utility.yul\":30022:30033   */\n      dup2\n        /* \"#utility.yul\":30004:30034   */\n      tag_175\n      jump\t// in\n    tag_516:\n        /* \"#utility.yul\":29993:30034   */\n      swap2\n      pop\n        /* \"#utility.yul\":30183:30184   */\n      dup3\n        /* \"#utility.yul\":30174:30181   */\n      dup3\n        /* \"#utility.yul\":30170:30185   */\n      div\n        /* \"#utility.yul\":30167:30168   */\n      dup5\n        /* \"#utility.yul\":30164:30186   */\n      eq\n        /* \"#utility.yul\":30144:30145   */\n      dup4\n        /* \"#utility.yul\":30137:30146   */\n      iszero\n        /* \"#utility.yul\":30117:30200   */\n      or\n        /* \"#utility.yul\":30094:30233   */\n      tag_517\n      jumpi\n        /* \"#utility.yul\":30213:30231   */\n      tag_518\n      tag_208\n      jump\t// in\n    tag_518:\n        /* \"#utility.yul\":30094:30233   */\n    tag_517:\n        /* \"#utility.yul\":29878:30240   */\n      pop\n        /* \"#utility.yul\":29830:30240   */\n      swap3\n      swap2\n      pop\n      pop\n      jump\t// out\n        /* \"#utility.yul\":30246:30467   */\n    tag_239:\n        /* \"#utility.yul\":30386:30420   */\n      0x4c65206d6f6e74616e7420656e766f79652065737420696e737566666973616e\n        /* \"#utility.yul\":30382:30383   */\n      0x00\n        /* \"#utility.yul\":30374:30380   */\n      dup3\n        /* \"#utility.yul\":30370:30384   */\n      add\n        /* \"#utility.yul\":30363:30421   */\n      mstore\n        /* \"#utility.yul\":30455:30459   */\n      0x742e000000000000000000000000000000000000000000000000000000000000\n        /* \"#utility.yul\":30450:30452   */\n      0x20\n        /* \"#utility.yul\":30442:30448   */\n      dup3\n        /* \"#utility.yul\":30438:30453   */\n      add\n        /* \"#utility.yul\":30431:30460   */\n      mstore\n        /* \"#utility.yul\":30246:30467   */\n      pop\n      jump\t// out\n        /* \"#utility.yul\":30473:30839   */\n    tag_240:\n        /* \"#utility.yul\":30615:30618   */\n      0x00\n        /* \"#utility.yul\":30636:30703   */\n      tag_521\n        /* \"#utility.yul\":30700:30702   */\n      0x22\n        /* \"#utility.yul\":30695:30698   */\n      dup4\n        /* \"#utility.yul\":30636:30703   */\n      tag_191\n      jump\t// in\n    tag_521:\n        /* \"#utility.yul\":30629:30703   */\n      swap2\n      pop\n        /* \"#utility.yul\":30712:30805   */\n      tag_522\n        /* \"#utility.yul\":30801:30804   */\n      dup3\n        /* \"#utility.yul\":30712:30805   */\n      tag_239\n      jump\t// in\n    tag_522:\n        /* \"#utility.yul\":30830:30832   */\n      0x40\n        /* \"#utility.yul\":30825:30828   */\n      dup3\n        /* \"#utility.yul\":30821:30833   */\n      add\n        /* \"#utility.yul\":30814:30833   */\n      swap1\n      pop\n        /* \"#utility.yul\":30473:30839   */\n      swap2\n      swap1\n      pop\n      jump\t// out\n        /* \"#utility.yul\":30845:31264   */\n    tag_129:\n        /* \"#utility.yul\":31011:31015   */\n      0x00\n        /* \"#utility.yul\":31049:31051   */\n      0x20\n        /* \"#utility.yul\":31038:31047   */\n      dup3\n        /* \"#utility.yul\":31034:31052   */\n      add\n        /* \"#utility.yul\":31026:31052   */\n      swap1\n      pop\n        /* \"#utility.yul\":31098:31107   */\n      dup2\n        /* \"#utility.yul\":31092:31096   */\n      dup2\n        /* \"#utility.yul\":31088:31108   */\n      sub\n        /* \"#utility.yul\":31084:31085   */\n      0x00\n        /* \"#utility.yul\":31073:31082   */\n      dup4\n        /* \"#utility.yul\":31069:31086   */\n      add\n        /* \"#utility.yul\":31062:31109   */\n      mstore\n        /* \"#utility.yul\":31126:31257   */\n      tag_524\n        /* \"#utility.yul\":31252:31256   */\n      dup2\n        /* \"#utility.yul\":31126:31257   */\n      tag_240\n      jump\t// in\n    tag_524:\n        /* \"#utility.yul\":31118:31257   */\n      swap1\n      pop\n        /* \"#utility.yul\":30845:31264   */\n      swap2\n      swap1\n      pop\n      jump\t// out\n        /* \"#utility.yul\":31270:31461   */\n    tag_133:\n        /* \"#utility.yul\":31310:31313   */\n      0x00\n        /* \"#utility.yul\":31329:31349   */\n      tag_526\n        /* \"#utility.yul\":31347:31348   */\n      dup3\n        /* \"#utility.yul\":31329:31349   */\n      tag_175\n      jump\t// in\n    tag_526:\n        /* \"#utility.yul\":31324:31349   */\n      swap2\n      pop\n        /* \"#utility.yul\":31363:31383   */\n      tag_527\n        /* \"#utility.yul\":31381:31382   */\n      dup4\n        /* \"#utility.yul\":31363:31383   */\n      tag_175\n      jump\t// in\n    tag_527:\n        /* \"#utility.yul\":31358:31383   */\n      swap3\n      pop\n        /* \"#utility.yul\":31406:31407   */\n      dup3\n        /* \"#utility.yul\":31403:31404   */\n      dup3\n        /* \"#utility.yul\":31399:31408   */\n      add\n        /* \"#utility.yul\":31392:31408   */\n      swap1\n      pop\n        /* \"#utility.yul\":31427:31430   */\n      dup1\n        /* \"#utility.yul\":31424:31425   */\n      dup3\n        /* \"#utility.yul\":31421:31431   */\n      gt\n        /* \"#utility.yul\":31418:31454   */\n      iszero\n      tag_528\n      jumpi\n        /* \"#utility.yul\":31434:31452   */\n      tag_529\n      tag_208\n      jump\t// in\n    tag_529:\n        /* \"#utility.yul\":31418:31454   */\n    tag_528:\n        /* \"#utility.yul\":31270:31461   */\n      swap3\n      swap2\n      pop\n      pop\n      jump\t// out\n        /* \"#utility.yul\":31467:32020   */\n    tag_139:\n        /* \"#utility.yul\":31644:31648   */\n      0x00\n        /* \"#utility.yul\":31682:31685   */\n      0x80\n        /* \"#utility.yul\":31671:31680   */\n      dup3\n        /* \"#utility.yul\":31667:31686   */\n      add\n        /* \"#utility.yul\":31659:31686   */\n      swap1\n      pop\n        /* \"#utility.yul\":31696:31767   */\n      tag_531\n        /* \"#utility.yul\":31764:31765   */\n      0x00\n        /* \"#utility.yul\":31753:31762   */\n      dup4\n        /* \"#utility.yul\":31749:31766   */\n      add\n        /* \"#utility.yul\":31740:31746   */\n      dup8\n        /* \"#utility.yul\":31696:31767   */\n      tag_178\n      jump\t// in\n    tag_531:\n        /* \"#utility.yul\":31777:31849   */\n      tag_532\n        /* \"#utility.yul\":31845:31847   */\n      0x20\n        /* \"#utility.yul\":31834:31843   */\n      dup4\n        /* \"#utility.yul\":31830:31848   */\n      add\n        /* \"#utility.yul\":31821:31827   */\n      dup7\n        /* \"#utility.yul\":31777:31849   */\n      tag_198\n      jump\t// in\n    tag_532:\n        /* \"#utility.yul\":31859:31931   */\n      tag_533\n        /* \"#utility.yul\":31927:31929   */\n      0x40\n        /* \"#utility.yul\":31916:31925   */\n      dup4\n        /* \"#utility.yul\":31912:31930   */\n      add\n        /* \"#utility.yul\":31903:31909   */\n      dup6\n        /* \"#utility.yul\":31859:31931   */\n      tag_178\n      jump\t// in\n    tag_533:\n        /* \"#utility.yul\":31941:32013   */\n      tag_534\n        /* \"#utility.yul\":32009:32011   */\n      0x60\n        /* \"#utility.yul\":31998:32007   */\n      dup4\n        /* \"#utility.yul\":31994:32012   */\n      add\n        /* \"#utility.yul\":31985:31991   */\n      dup5\n        /* \"#utility.yul\":31941:32013   */\n      tag_178\n      jump\t// in\n    tag_534:\n        /* \"#utility.yul\":31467:32020   */\n      swap6\n      swap5\n      pop\n      pop\n      pop\n      pop\n      pop\n      jump\t// out\n\n    auxdata: 0xa264697066735822122035fe529c05bec25eeacfbd36a3a53f0115eaf3c9dfb739aa9a153f4db5304d4564736f6c634300081a0033\n}\n",
				"bytecode": {
					"linkReferences": {},
					"object": "6080604052348015600e575f80fd5b5061207e8061001c5f395ff3fe60806040526004361061009b575f3560e01c8063b8586e2e11610063578063b8586e2e14610196578063b9e0db35146101b2578063bb27edac146101f2578063c3ee41221461022e578063c65bb6051461026a578063d2d1805a146102a65761009b565b806313239ffe1461009f5780634270b161146100c75780634f32870d146100f1578063733da1d51461012d578063b4385ad01461016e575b5f80fd5b3480156100aa575f80fd5b506100c560048036038101906100c091906111d0565b6102d0565b005b3480156100d2575f80fd5b506100db6104cf565b6040516100e89190611267565b60405180910390f35b3480156100fc575f80fd5b50610117600480360381019061011291906112da565b6104d5565b60405161012491906113bc565b60405180910390f35b348015610138575f80fd5b50610153600480360381019061014e91906113dc565b610568565b604051610165969594939291906114a1565b60405180910390f35b348015610179575f80fd5b50610194600480360381019061018f91906113dc565b6106d7565b005b6101b060048036038101906101ab919061150e565b6108e2565b005b3480156101bd575f80fd5b506101d860048036038101906101d391906113dc565b610c09565b6040516101e995949392919061155b565b60405180910390f35b3480156101fd575f80fd5b50610218600480360381019061021391906115ac565b610c66565b6040516102259190611267565b60405180910390f35b348015610239575f80fd5b50610254600480360381019061024f91906113dc565b610c91565b604051610261919061166e565b60405180910390f35b348015610275575f80fd5b50610290600480360381019061028b91906113dc565b610d9d565b60405161029d919061176b565b60405180910390f35b3480156102b1575f80fd5b506102ba610fbe565b6040516102c79190611267565b60405180910390f35b5f8111610312576040517f08c379a0000000000000000000000000000000000000000000000000000000008152600401610309906117fb565b60405180910390fd5b60015f81548092919061032490611846565b91905055506040518060c0016040528060015481526020018481526020018381526020018281526020013373ffffffffffffffffffffffffffffffffffffffff168152602001600115158152505f8060015481526020019081526020015f205f820151815f015560208201518160010190816103a09190611a87565b5060408201518160020190816103b69190611a87565b50606082015181600301556080820151816004015f6101000a81548173ffffffffffffffffffffffffffffffffffffffff021916908373ffffffffffffffffffffffffffffffffffffffff16021790555060a08201518160040160146101000a81548160ff02191690831515021790555090505060045f3373ffffffffffffffffffffffffffffffffffffffff1673ffffffffffffffffffffffffffffffffffffffff1681526020019081526020015f20600154908060018154018082558091505060019003905f5260205f20015f90919091909150557ffec6ce5e9a41de4f57d1fe9377d0c1c573a9793481f6e561a2f6b121e360137660015484336040516104c293929190611b56565b60405180910390a1505050565b60015481565b606060045f8373ffffffffffffffffffffffffffffffffffffffff1673ffffffffffffffffffffffffffffffffffffffff1681526020019081526020015f2080548060200260200160405190810160405280929190818152602001828054801561055c57602002820191905f5260205f20905b815481526020019060010190808311610548575b50505050509050919050565b5f602052805f5260405f205f91509050805f01549080600101805461058c906118ba565b80601f01602080910402602001604051908101604052809291908181526020018280546105b8906118ba565b80156106035780601f106105da57610100808354040283529160200191610603565b820191905f5260205f20905b8154815290600101906020018083116105e657829003601f168201915b505050505090806002018054610618906118ba565b80601f0160208091040260200160405190810160405280929190818152602001828054610644906118ba565b801561068f5780601f106106665761010080835404028352916020019161068f565b820191905f5260205f20905b81548152906001019060200180831161067257829003601f168201915b505050505090806003015490806004015f9054906101000a900473ffffffffffffffffffffffffffffffffffffffff16908060040160149054906101000a900460ff16905086565b5f60025f8381526020019081526020015f2090505f815f015403610730576040517f08c379a000000000000000000000000000000000000000000000000000000000815260040161072790611bdc565b60405180910390fd5b3373ffffffffffffffffffffffffffffffffffffffff16816001015f9054906101000a900473ffffffffffffffffffffffffffffffffffffffff1673ffffffffffffffffffffffffffffffffffffffff16146107c1576040517f08c379a00000000000000000000000000000000000000000000000000000000081526004016107b890611c6a565b60405180910390fd5b806004015f9054906101000a900460ff16610811576040517f08c379a000000000000000000000000000000000000000000000000000000000815260040161080890611cd2565b60405180910390fd5b8060030154421015610858576040517f08c379a000000000000000000000000000000000000000000000000000000000815260040161084f90611d60565b60405180910390fd5b60015f80835f015481526020019081526020015f2060040160146101000a81548160ff0219169083151502179055505f816004015f6101000a81548160ff0219169083151502179055507f88b44be84c9052ba1bdca3b4b4466d38e2a4b94ea5b796d4bbb6070902d9bd19815f0154336040516108d6929190611d7e565b60405180910390a15050565b5f805f8481526020019081526020015f2090505f815f01540361093a576040517f08c379a000000000000000000000000000000000000000000000000000000000815260040161093190611def565b60405180910390fd5b8060040160149054906101000a900460ff1661098b576040517f08c379a000000000000000000000000000000000000000000000000000000000815260040161098290611e57565b60405180910390fd5b5f82116109cd576040517f08c379a00000000000000000000000000000000000000000000000000000000081526004016109c490611ee5565b60405180910390fd5b5f8282600301546109de9190611f03565b905080341015610a23576040517f08c379a0000000000000000000000000000000000000000000000000000000008152600401610a1a90611fb4565b60405180910390fd5b60035f815480929190610a3590611846565b91905055506040518060a001604052808581526020013373ffffffffffffffffffffffffffffffffffffffff1681526020014281526020016201518085610a7c9190611f03565b42610a879190611fd2565b81526020016001151581525060025f60035481526020019081526020015f205f820151815f01556020820151816001015f6101000a81548173ffffffffffffffffffffffffffffffffffffffff021916908373ffffffffffffffffffffffffffffffffffffffff16021790555060408201518160020155606082015181600301556080820151816004015f6101000a81548160ff0219169083151502179055509050505f8260040160146101000a81548160ff021916908315150217905550816004015f9054906101000a900473ffffffffffffffffffffffffffffffffffffffff1673ffffffffffffffffffffffffffffffffffffffff166108fc8290811502906040515f60405180830381858888f19350505050158015610bac573d5f803e3d5ffd5b507fb5e6b43362122ac4abe748fad573713109c8b3e5613fe7b515335c012a9ba1708433426201518087610be09190611f03565b42610beb9190611fd2565b604051610bfb9493929190612005565b60405180910390a150505050565b6002602052805f5260405f205f91509050805f015490806001015f9054906101000a900473ffffffffffffffffffffffffffffffffffffffff1690806002015490806003015490806004015f9054906101000a900460ff16905085565b6004602052815f5260405f208181548110610c7f575f80fd5b905f5260205f20015f91509150505481565b610c99610fc4565b5f60025f8481526020019081526020015f205f015403610cee576040517f08c379a0000000000000000000000000000000000000000000000000000000008152600401610ce590611bdc565b60405180910390fd5b60025f8381526020019081526020015f206040518060a00160405290815f8201548152602001600182015f9054906101000a900473ffffffffffffffffffffffffffffffffffffffff1673ffffffffffffffffffffffffffffffffffffffff1673ffffffffffffffffffffffffffffffffffffffff1681526020016002820154815260200160038201548152602001600482015f9054906101000a900460ff1615151515815250509050919050565b610da5611006565b5f805f8481526020019081526020015f205f015403610df9576040517f08c379a0000000000000000000000000000000000000000000000000000000008152600401610df090611def565b60405180910390fd5b5f808381526020019081526020015f206040518060c00160405290815f8201548152602001600182018054610e2d906118ba565b80601f0160208091040260200160405190810160405280929190818152602001828054610e59906118ba565b8015610ea45780601f10610e7b57610100808354040283529160200191610ea4565b820191905f5260205f20905b815481529060010190602001808311610e8757829003601f168201915b50505050508152602001600282018054610ebd906118ba565b80601f0160208091040260200160405190810160405280929190818152602001828054610ee9906118ba565b8015610f345780601f10610f0b57610100808354040283529160200191610f34565b820191905f5260205f20905b815481529060010190602001808311610f1757829003601f168201915b5050505050815260200160038201548152602001600482015f9054906101000a900473ffffffffffffffffffffffffffffffffffffffff1673ffffffffffffffffffffffffffffffffffffffff1673ffffffffffffffffffffffffffffffffffffffff1681526020016004820160149054906101000a900460ff1615151515815250509050919050565b60035481565b6040518060a001604052805f81526020015f73ffffffffffffffffffffffffffffffffffffffff1681526020015f81526020015f81526020015f151581525090565b6040518060c001604052805f815260200160608152602001606081526020015f81526020015f73ffffffffffffffffffffffffffffffffffffffff1681526020015f151581525090565b5f604051905090565b5f80fd5b5f80fd5b5f80fd5b5f80fd5b5f601f19601f8301169050919050565b7f4e487b71000000000000000000000000000000000000000000000000000000005f52604160045260245ffd5b6110af82611069565b810181811067ffffffffffffffff821117156110ce576110cd611079565b5b80604052505050565b5f6110e0611050565b90506110ec82826110a6565b919050565b5f67ffffffffffffffff82111561110b5761110a611079565b5b61111482611069565b9050602081019050919050565b828183375f83830152505050565b5f61114161113c846110f1565b6110d7565b90508281526020810184848401111561115d5761115c611065565b5b611168848285611121565b509392505050565b5f82601f83011261118457611183611061565b5b813561119484826020860161112f565b91505092915050565b5f819050919050565b6111af8161119d565b81146111b9575f80fd5b50565b5f813590506111ca816111a6565b92915050565b5f805f606084860312156111e7576111e6611059565b5b5f84013567ffffffffffffffff8111156112045761120361105d565b5b61121086828701611170565b935050602084013567ffffffffffffffff8111156112315761123061105d565b5b61123d86828701611170565b925050604061124e868287016111bc565b9150509250925092565b6112618161119d565b82525050565b5f60208201905061127a5f830184611258565b92915050565b5f73ffffffffffffffffffffffffffffffffffffffff82169050919050565b5f6112a982611280565b9050919050565b6112b98161129f565b81146112c3575f80fd5b50565b5f813590506112d4816112b0565b92915050565b5f602082840312156112ef576112ee611059565b5b5f6112fc848285016112c6565b91505092915050565b5f81519050919050565b5f82825260208201905092915050565b5f819050602082019050919050565b6113378161119d565b82525050565b5f611348838361132e565b60208301905092915050565b5f602082019050919050565b5f61136a82611305565b611374818561130f565b935061137f8361131f565b805f5b838110156113af578151611396888261133d565b97506113a183611354565b925050600181019050611382565b5085935050505092915050565b5f6020820190508181035f8301526113d48184611360565b905092915050565b5f602082840312156113f1576113f0611059565b5b5f6113fe848285016111bc565b91505092915050565b5f81519050919050565b5f82825260208201905092915050565b8281835e5f83830152505050565b5f61143982611407565b6114438185611411565b9350611453818560208601611421565b61145c81611069565b840191505092915050565b5f61147182611280565b9050919050565b61148181611467565b82525050565b5f8115159050919050565b61149b81611487565b82525050565b5f60c0820190506114b45f830189611258565b81810360208301526114c6818861142f565b905081810360408301526114da818761142f565b90506114e96060830186611258565b6114f66080830185611478565b61150360a0830184611492565b979650505050505050565b5f806040838503121561152457611523611059565b5b5f611531858286016111bc565b9250506020611542858286016111bc565b9150509250929050565b6115558161129f565b82525050565b5f60a08201905061156e5f830188611258565b61157b602083018761154c565b6115886040830186611258565b6115956060830185611258565b6115a26080830184611492565b9695505050505050565b5f80604083850312156115c2576115c1611059565b5b5f6115cf858286016112c6565b92505060206115e0858286016111bc565b9150509250929050565b6115f38161129f565b82525050565b61160281611487565b82525050565b60a082015f82015161161c5f85018261132e565b50602082015161162f60208501826115ea565b506040820151611642604085018261132e565b506060820151611655606085018261132e565b50608082015161166860808501826115f9565b50505050565b5f60a0820190506116815f830184611608565b92915050565b5f82825260208201905092915050565b5f6116a182611407565b6116ab8185611687565b93506116bb818560208601611421565b6116c481611069565b840191505092915050565b6116d881611467565b82525050565b5f60c083015f8301516116f35f86018261132e565b506020830151848203602086015261170b8282611697565b915050604083015184820360408601526117258282611697565b915050606083015161173a606086018261132e565b50608083015161174d60808601826116cf565b5060a083015161176060a08601826115f9565b508091505092915050565b5f6020820190508181035f83015261178381846116de565b905092915050565b7f4c65207461726966206a6f75726e616c69657220646f697420657472652073755f8201527f706572696575722061207a65726f2e0000000000000000000000000000000000602082015250565b5f6117e5602f83611411565b91506117f08261178b565b604082019050919050565b5f6020820190508181035f830152611812816117d9565b9050919050565b7f4e487b71000000000000000000000000000000000000000000000000000000005f52601160045260245ffd5b5f6118508261119d565b91507fffffffffffffffffffffffffffffffffffffffffffffffffffffffffffffffff820361188257611881611819565b5b600182019050919050565b7f4e487b71000000000000000000000000000000000000000000000000000000005f52602260045260245ffd5b5f60028204905060018216806118d157607f821691505b6020821081036118e4576118e361188d565b5b50919050565b5f819050815f5260205f209050919050565b5f6020601f8301049050919050565b5f82821b905092915050565b5f600883026119467fffffffffffffffffffffffffffffffffffffffffffffffffffffffffffffffff8261190b565b611950868361190b565b95508019841693508086168417925050509392505050565b5f819050919050565b5f61198b6119866119818461119d565b611968565b61119d565b9050919050565b5f819050919050565b6119a483611971565b6119b86119b082611992565b848454611917565b825550505050565b5f90565b6119cc6119c0565b6119d781848461199b565b505050565b5b818110156119fa576119ef5f826119c4565b6001810190506119dd565b5050565b601f821115611a3f57611a10816118ea565b611a19846118fc565b81016020851015611a28578190505b611a3c611a34856118fc565b8301826119dc565b50505b505050565b5f82821c905092915050565b5f611a5f5f1984600802611a44565b1980831691505092915050565b5f611a778383611a50565b9150826002028217905092915050565b611a9082611407565b67ffffffffffffffff811115611aa957611aa8611079565b5b611ab382546118ba565b611abe8282856119fe565b5f60209050601f831160018114611aef575f8415611add578287015190505b611ae78582611a6c565b865550611b4e565b601f198416611afd866118ea565b5f5b82811015611b2457848901518255600182019150602085019450602081019050611aff565b86831015611b415784890151611b3d601f891682611a50565b8355505b6001600288020188555050505b505050505050565b5f606082019050611b695f830186611258565b8181036020830152611b7b818561142f565b9050611b8a604083018461154c565b949350505050565b7f4c61206c6f636174696f6e206e27657869737465207061732e000000000000005f82015250565b5f611bc6601983611411565b9150611bd182611b92565b602082019050919050565b5f6020820190508181035f830152611bf381611bba565b9050919050565b7f566f7573206e276574657320706173206c65206c6f63617461697265206465205f8201527f6365747465206c6f636174696f6e2e0000000000000000000000000000000000602082015250565b5f611c54602f83611411565b9150611c5f82611bfa565b604082019050919050565b5f6020820190508181035f830152611c8181611c48565b9050919050565b7f4c61206c6f636174696f6e206573742064656a61207465726d696e65652e00005f82015250565b5f611cbc601e83611411565b9150611cc782611c88565b602082019050919050565b5f6020820190508181035f830152611ce981611cb0565b9050919050565b7f4c6120706572696f6465206465206c6f636174696f6e206e27657374207061735f8201527f20656e636f7265207465726d696e65652e000000000000000000000000000000602082015250565b5f611d4a603183611411565b9150611d5582611cf0565b604082019050919050565b5f6020820190508181035f830152611d7781611d3e565b9050919050565b5f604082019050611d915f830185611258565b611d9e602083018461154c565b9392505050565b7f4c276f626a6574206e27657869737465207061732e00000000000000000000005f82015250565b5f611dd9601583611411565b9150611de482611da5565b602082019050919050565b5f6020820190508181035f830152611e0681611dcd565b9050919050565b7f4c276f626a6574206e276573742070617320646973706f6e69626c652e0000005f82015250565b5f611e41601d83611411565b9150611e4c82611e0d565b602082019050919050565b5f6020820190508181035f830152611e6e81611e35565b9050919050565b7f4c61206475726565206465206c6f636174696f6e20646f6974206574726520735f8201527f7570657269657572652061207a65726f2e000000000000000000000000000000602082015250565b5f611ecf603183611411565b9150611eda82611e75565b604082019050919050565b5f6020820190508181035f830152611efc81611ec3565b9050919050565b5f611f0d8261119d565b9150611f188361119d565b9250828202611f268161119d565b91508282048414831517611f3d57611f3c611819565b5b5092915050565b7f4c65206d6f6e74616e7420656e766f79652065737420696e737566666973616e5f8201527f742e000000000000000000000000000000000000000000000000000000000000602082015250565b5f611f9e602283611411565b9150611fa982611f44565b604082019050919050565b5f6020820190508181035f830152611fcb81611f92565b9050919050565b5f611fdc8261119d565b9150611fe78361119d565b9250828201905080821115611fff57611ffe611819565b5b92915050565b5f6080820190506120185f830187611258565b612025602083018661154c565b6120326040830185611258565b61203f6060830184611258565b9594505050505056fea264697066735822122035fe529c05bec25eeacfbd36a3a53f0115eaf3c9dfb739aa9a153f4db5304d4564736f6c634300081a0033",
					"opcodes": "PUSH1 0x80 PUSH1 0x40 MSTORE CALLVALUE DUP1 ISZERO PUSH1 0xE JUMPI PUSH0 DUP1 REVERT JUMPDEST POP PUSH2 0x207E DUP1 PUSH2 0x1C PUSH0 CODECOPY PUSH0 RETURN INVALID PUSH1 0x80 PUSH1 0x40 MSTORE PUSH1 0x4 CALLDATASIZE LT PUSH2 0x9B JUMPI PUSH0 CALLDATALOAD PUSH1 0xE0 SHR DUP1 PUSH4 0xB8586E2E GT PUSH2 0x63 JUMPI DUP1 PUSH4 0xB8586E2E EQ PUSH2 0x196 JUMPI DUP1 PUSH4 0xB9E0DB35 EQ PUSH2 0x1B2 JUMPI DUP1 PUSH4 0xBB27EDAC EQ PUSH2 0x1F2 JUMPI DUP1 PUSH4 0xC3EE4122 EQ PUSH2 0x22E JUMPI DUP1 PUSH4 0xC65BB605 EQ PUSH2 0x26A JUMPI DUP1 PUSH4 0xD2D1805A EQ PUSH2 0x2A6 JUMPI PUSH2 0x9B JUMP JUMPDEST DUP1 PUSH4 0x13239FFE EQ PUSH2 0x9F JUMPI DUP1 PUSH4 0x4270B161 EQ PUSH2 0xC7 JUMPI DUP1 PUSH4 0x4F32870D EQ PUSH2 0xF1 JUMPI DUP1 PUSH4 0x733DA1D5 EQ PUSH2 0x12D JUMPI DUP1 PUSH4 0xB4385AD0 EQ PUSH2 0x16E JUMPI JUMPDEST PUSH0 DUP1 REVERT JUMPDEST CALLVALUE DUP1 ISZERO PUSH2 0xAA JUMPI PUSH0 DUP1 REVERT JUMPDEST POP PUSH2 0xC5 PUSH1 0x4 DUP1 CALLDATASIZE SUB DUP2 ADD SWAP1 PUSH2 0xC0 SWAP2 SWAP1 PUSH2 0x11D0 JUMP JUMPDEST PUSH2 0x2D0 JUMP JUMPDEST STOP JUMPDEST CALLVALUE DUP1 ISZERO PUSH2 0xD2 JUMPI PUSH0 DUP1 REVERT JUMPDEST POP PUSH2 0xDB PUSH2 0x4CF JUMP JUMPDEST PUSH1 0x40 MLOAD PUSH2 0xE8 SWAP2 SWAP1 PUSH2 0x1267 JUMP JUMPDEST PUSH1 0x40 MLOAD DUP1 SWAP2 SUB SWAP1 RETURN JUMPDEST CALLVALUE DUP1 ISZERO PUSH2 0xFC JUMPI PUSH0 DUP1 REVERT JUMPDEST POP PUSH2 0x117 PUSH1 0x4 DUP1 CALLDATASIZE SUB DUP2 ADD SWAP1 PUSH2 0x112 SWAP2 SWAP1 PUSH2 0x12DA JUMP JUMPDEST PUSH2 0x4D5 JUMP JUMPDEST PUSH1 0x40 MLOAD PUSH2 0x124 SWAP2 SWAP1 PUSH2 0x13BC JUMP JUMPDEST PUSH1 0x40 MLOAD DUP1 SWAP2 SUB SWAP1 RETURN JUMPDEST CALLVALUE DUP1 ISZERO PUSH2 0x138 JUMPI PUSH0 DUP1 REVERT JUMPDEST POP PUSH2 0x153 PUSH1 0x4 DUP1 CALLDATASIZE SUB DUP2 ADD SWAP1 PUSH2 0x14E SWAP2 SWAP1 PUSH2 0x13DC JUMP JUMPDEST PUSH2 0x568 JUMP JUMPDEST PUSH1 0x40 MLOAD PUSH2 0x165 SWAP7 SWAP6 SWAP5 SWAP4 SWAP3 SWAP2 SWAP1 PUSH2 0x14A1 JUMP JUMPDEST PUSH1 0x40 MLOAD DUP1 SWAP2 SUB SWAP1 RETURN JUMPDEST CALLVALUE DUP1 ISZERO PUSH2 0x179 JUMPI PUSH0 DUP1 REVERT JUMPDEST POP PUSH2 0x194 PUSH1 0x4 DUP1 CALLDATASIZE SUB DUP2 ADD SWAP1 PUSH2 0x18F SWAP2 SWAP1 PUSH2 0x13DC JUMP JUMPDEST PUSH2 0x6D7 JUMP JUMPDEST STOP JUMPDEST PUSH2 0x1B0 PUSH1 0x4 DUP1 CALLDATASIZE SUB DUP2 ADD SWAP1 PUSH2 0x1AB SWAP2 SWAP1 PUSH2 0x150E JUMP JUMPDEST PUSH2 0x8E2 JUMP JUMPDEST STOP JUMPDEST CALLVALUE DUP1 ISZERO PUSH2 0x1BD JUMPI PUSH0 DUP1 REVERT JUMPDEST POP PUSH2 0x1D8 PUSH1 0x4 DUP1 CALLDATASIZE SUB DUP2 ADD SWAP1 PUSH2 0x1D3 SWAP2 SWAP1 PUSH2 0x13DC JUMP JUMPDEST PUSH2 0xC09 JUMP JUMPDEST PUSH1 0x40 MLOAD PUSH2 0x1E9 SWAP6 SWAP5 SWAP4 SWAP3 SWAP2 SWAP1 PUSH2 0x155B JUMP JUMPDEST PUSH1 0x40 MLOAD DUP1 SWAP2 SUB SWAP1 RETURN JUMPDEST CALLVALUE DUP1 ISZERO PUSH2 0x1FD JUMPI PUSH0 DUP1 REVERT JUMPDEST POP PUSH2 0x218 PUSH1 0x4 DUP1 CALLDATASIZE SUB DUP2 ADD SWAP1 PUSH2 0x213 SWAP2 SWAP1 PUSH2 0x15AC JUMP JUMPDEST PUSH2 0xC66 JUMP JUMPDEST PUSH1 0x40 MLOAD PUSH2 0x225 SWAP2 SWAP1 PUSH2 0x1267 JUMP JUMPDEST PUSH1 0x40 MLOAD DUP1 SWAP2 SUB SWAP1 RETURN JUMPDEST CALLVALUE DUP1 ISZERO PUSH2 0x239 JUMPI PUSH0 DUP1 REVERT JUMPDEST POP PUSH2 0x254 PUSH1 0x4 DUP1 CALLDATASIZE SUB DUP2 ADD SWAP1 PUSH2 0x24F SWAP2 SWAP1 PUSH2 0x13DC JUMP JUMPDEST PUSH2 0xC91 JUMP JUMPDEST PUSH1 0x40 MLOAD PUSH2 0x261 SWAP2 SWAP1 PUSH2 0x166E JUMP JUMPDEST PUSH1 0x40 MLOAD DUP1 SWAP2 SUB SWAP1 RETURN JUMPDEST CALLVALUE DUP1 ISZERO PUSH2 0x275 JUMPI PUSH0 DUP1 REVERT JUMPDEST POP PUSH2 0x290 PUSH1 0x4 DUP1 CALLDATASIZE SUB DUP2 ADD SWAP1 PUSH2 0x28B SWAP2 SWAP1 PUSH2 0x13DC JUMP JUMPDEST PUSH2 0xD9D JUMP JUMPDEST PUSH1 0x40 MLOAD PUSH2 0x29D SWAP2 SWAP1 PUSH2 0x176B JUMP JUMPDEST PUSH1 0x40 MLOAD DUP1 SWAP2 SUB SWAP1 RETURN JUMPDEST CALLVALUE DUP1 ISZERO PUSH2 0x2B1 JUMPI PUSH0 DUP1 REVERT JUMPDEST POP PUSH2 0x2BA PUSH2 0xFBE JUMP JUMPDEST PUSH1 0x40 MLOAD PUSH2 0x2C7 SWAP2 SWAP1 PUSH2 0x1267 JUMP JUMPDEST PUSH1 0x40 MLOAD DUP1 SWAP2 SUB SWAP1 RETURN JUMPDEST PUSH0 DUP2 GT PUSH2 0x312 JUMPI PUSH1 0x40 MLOAD PUSH32 0x8C379A000000000000000000000000000000000000000000000000000000000 DUP2 MSTORE PUSH1 0x4 ADD PUSH2 0x309 SWAP1 PUSH2 0x17FB JUMP JUMPDEST PUSH1 0x40 MLOAD DUP1 SWAP2 SUB SWAP1 REVERT JUMPDEST PUSH1 0x1 PUSH0 DUP2 SLOAD DUP1 SWAP3 SWAP2 SWAP1 PUSH2 0x324 SWAP1 PUSH2 0x1846 JUMP JUMPDEST SWAP2 SWAP1 POP SSTORE POP PUSH1 0x40 MLOAD DUP1 PUSH1 0xC0 ADD PUSH1 0x40 MSTORE DUP1 PUSH1 0x1 SLOAD DUP2 MSTORE PUSH1 0x20 ADD DUP5 DUP2 MSTORE PUSH1 0x20 ADD DUP4 DUP2 MSTORE PUSH1 0x20 ADD DUP3 DUP2 MSTORE PUSH1 0x20 ADD CALLER PUSH20 0xFFFFFFFFFFFFFFFFFFFFFFFFFFFFFFFFFFFFFFFF AND DUP2 MSTORE PUSH1 0x20 ADD PUSH1 0x1 ISZERO ISZERO DUP2 MSTORE POP PUSH0 DUP1 PUSH1 0x1 SLOAD DUP2 MSTORE PUSH1 0x20 ADD SWAP1 DUP2 MSTORE PUSH1 0x20 ADD PUSH0 KECCAK256 PUSH0 DUP3 ADD MLOAD DUP2 PUSH0 ADD SSTORE PUSH1 0x20 DUP3 ADD MLOAD DUP2 PUSH1 0x1 ADD SWAP1 DUP2 PUSH2 0x3A0 SWAP2 SWAP1 PUSH2 0x1A87 JUMP JUMPDEST POP PUSH1 0x40 DUP3 ADD MLOAD DUP2 PUSH1 0x2 ADD SWAP1 DUP2 PUSH2 0x3B6 SWAP2 SWAP1 PUSH2 0x1A87 JUMP JUMPDEST POP PUSH1 0x60 DUP3 ADD MLOAD DUP2 PUSH1 0x3 ADD SSTORE PUSH1 0x80 DUP3 ADD MLOAD DUP2 PUSH1 0x4 ADD PUSH0 PUSH2 0x100 EXP DUP2 SLOAD DUP2 PUSH20 0xFFFFFFFFFFFFFFFFFFFFFFFFFFFFFFFFFFFFFFFF MUL NOT AND SWAP1 DUP4 PUSH20 0xFFFFFFFFFFFFFFFFFFFFFFFFFFFFFFFFFFFFFFFF AND MUL OR SWAP1 SSTORE POP PUSH1 0xA0 DUP3 ADD MLOAD DUP2 PUSH1 0x4 ADD PUSH1 0x14 PUSH2 0x100 EXP DUP2 SLOAD DUP2 PUSH1 0xFF MUL NOT AND SWAP1 DUP4 ISZERO ISZERO MUL OR SWAP1 SSTORE POP SWAP1 POP POP PUSH1 0x4 PUSH0 CALLER PUSH20 0xFFFFFFFFFFFFFFFFFFFFFFFFFFFFFFFFFFFFFFFF AND PUSH20 0xFFFFFFFFFFFFFFFFFFFFFFFFFFFFFFFFFFFFFFFF AND DUP2 MSTORE PUSH1 0x20 ADD SWAP1 DUP2 MSTORE PUSH1 0x20 ADD PUSH0 KECCAK256 PUSH1 0x1 SLOAD SWAP1 DUP1 PUSH1 0x1 DUP2 SLOAD ADD DUP1 DUP3 SSTORE DUP1 SWAP2 POP POP PUSH1 0x1 SWAP1 SUB SWAP1 PUSH0 MSTORE PUSH1 0x20 PUSH0 KECCAK256 ADD PUSH0 SWAP1 SWAP2 SWAP1 SWAP2 SWAP1 SWAP2 POP SSTORE PUSH32 0xFEC6CE5E9A41DE4F57D1FE9377D0C1C573A9793481F6E561A2F6B121E3601376 PUSH1 0x1 SLOAD DUP5 CALLER PUSH1 0x40 MLOAD PUSH2 0x4C2 SWAP4 SWAP3 SWAP2 SWAP1 PUSH2 0x1B56 JUMP JUMPDEST PUSH1 0x40 MLOAD DUP1 SWAP2 SUB SWAP1 LOG1 POP POP POP JUMP JUMPDEST PUSH1 0x1 SLOAD DUP2 JUMP JUMPDEST PUSH1 0x60 PUSH1 0x4 PUSH0 DUP4 PUSH20 0xFFFFFFFFFFFFFFFFFFFFFFFFFFFFFFFFFFFFFFFF AND PUSH20 0xFFFFFFFFFFFFFFFFFFFFFFFFFFFFFFFFFFFFFFFF AND DUP2 MSTORE PUSH1 0x20 ADD SWAP1 DUP2 MSTORE PUSH1 0x20 ADD PUSH0 KECCAK256 DUP1 SLOAD DUP1 PUSH1 0x20 MUL PUSH1 0x20 ADD PUSH1 0x40 MLOAD SWAP1 DUP2 ADD PUSH1 0x40 MSTORE DUP1 SWAP3 SWAP2 SWAP1 DUP2 DUP2 MSTORE PUSH1 0x20 ADD DUP3 DUP1 SLOAD DUP1 ISZERO PUSH2 0x55C JUMPI PUSH1 0x20 MUL DUP3 ADD SWAP2 SWAP1 PUSH0 MSTORE PUSH1 0x20 PUSH0 KECCAK256 SWAP1 JUMPDEST DUP2 SLOAD DUP2 MSTORE PUSH1 0x20 ADD SWAP1 PUSH1 0x1 ADD SWAP1 DUP1 DUP4 GT PUSH2 0x548 JUMPI JUMPDEST POP POP POP POP POP SWAP1 POP SWAP2 SWAP1 POP JUMP JUMPDEST PUSH0 PUSH1 0x20 MSTORE DUP1 PUSH0 MSTORE PUSH1 0x40 PUSH0 KECCAK256 PUSH0 SWAP2 POP SWAP1 POP DUP1 PUSH0 ADD SLOAD SWAP1 DUP1 PUSH1 0x1 ADD DUP1 SLOAD PUSH2 0x58C SWAP1 PUSH2 0x18BA JUMP JUMPDEST DUP1 PUSH1 0x1F ADD PUSH1 0x20 DUP1 SWAP2 DIV MUL PUSH1 0x20 ADD PUSH1 0x40 MLOAD SWAP1 DUP2 ADD PUSH1 0x40 MSTORE DUP1 SWAP3 SWAP2 SWAP1 DUP2 DUP2 MSTORE PUSH1 0x20 ADD DUP3 DUP1 SLOAD PUSH2 0x5B8 SWAP1 PUSH2 0x18BA JUMP JUMPDEST DUP1 ISZERO PUSH2 0x603 JUMPI DUP1 PUSH1 0x1F LT PUSH2 0x5DA JUMPI PUSH2 0x100 DUP1 DUP4 SLOAD DIV MUL DUP4 MSTORE SWAP2 PUSH1 0x20 ADD SWAP2 PUSH2 0x603 JUMP JUMPDEST DUP3 ADD SWAP2 SWAP1 PUSH0 MSTORE PUSH1 0x20 PUSH0 KECCAK256 SWAP1 JUMPDEST DUP2 SLOAD DUP2 MSTORE SWAP1 PUSH1 0x1 ADD SWAP1 PUSH1 0x20 ADD DUP1 DUP4 GT PUSH2 0x5E6 JUMPI DUP3 SWAP1 SUB PUSH1 0x1F AND DUP3 ADD SWAP2 JUMPDEST POP POP POP POP POP SWAP1 DUP1 PUSH1 0x2 ADD DUP1 SLOAD PUSH2 0x618 SWAP1 PUSH2 0x18BA JUMP JUMPDEST DUP1 PUSH1 0x1F ADD PUSH1 0x20 DUP1 SWAP2 DIV MUL PUSH1 0x20 ADD PUSH1 0x40 MLOAD SWAP1 DUP2 ADD PUSH1 0x40 MSTORE DUP1 SWAP3 SWAP2 SWAP1 DUP2 DUP2 MSTORE PUSH1 0x20 ADD DUP3 DUP1 SLOAD PUSH2 0x644 SWAP1 PUSH2 0x18BA JUMP JUMPDEST DUP1 ISZERO PUSH2 0x68F JUMPI DUP1 PUSH1 0x1F LT PUSH2 0x666 JUMPI PUSH2 0x100 DUP1 DUP4 SLOAD DIV MUL DUP4 MSTORE SWAP2 PUSH1 0x20 ADD SWAP2 PUSH2 0x68F JUMP JUMPDEST DUP3 ADD SWAP2 SWAP1 PUSH0 MSTORE PUSH1 0x20 PUSH0 KECCAK256 SWAP1 JUMPDEST DUP2 SLOAD DUP2 MSTORE SWAP1 PUSH1 0x1 ADD SWAP1 PUSH1 0x20 ADD DUP1 DUP4 GT PUSH2 0x672 JUMPI DUP3 SWAP1 SUB PUSH1 0x1F AND DUP3 ADD SWAP2 JUMPDEST POP POP POP POP POP SWAP1 DUP1 PUSH1 0x3 ADD SLOAD SWAP1 DUP1 PUSH1 0x4 ADD PUSH0 SWAP1 SLOAD SWAP1 PUSH2 0x100 EXP SWAP1 DIV PUSH20 0xFFFFFFFFFFFFFFFFFFFFFFFFFFFFFFFFFFFFFFFF AND SWAP1 DUP1 PUSH1 0x4 ADD PUSH1 0x14 SWAP1 SLOAD SWAP1 PUSH2 0x100 EXP SWAP1 DIV PUSH1 0xFF AND SWAP1 POP DUP7 JUMP JUMPDEST PUSH0 PUSH1 0x2 PUSH0 DUP4 DUP2 MSTORE PUSH1 0x20 ADD SWAP1 DUP2 MSTORE PUSH1 0x20 ADD PUSH0 KECCAK256 SWAP1 POP PUSH0 DUP2 PUSH0 ADD SLOAD SUB PUSH2 0x730 JUMPI PUSH1 0x40 MLOAD PUSH32 0x8C379A000000000000000000000000000000000000000000000000000000000 DUP2 MSTORE PUSH1 0x4 ADD PUSH2 0x727 SWAP1 PUSH2 0x1BDC JUMP JUMPDEST PUSH1 0x40 MLOAD DUP1 SWAP2 SUB SWAP1 REVERT JUMPDEST CALLER PUSH20 0xFFFFFFFFFFFFFFFFFFFFFFFFFFFFFFFFFFFFFFFF AND DUP2 PUSH1 0x1 ADD PUSH0 SWAP1 SLOAD SWAP1 PUSH2 0x100 EXP SWAP1 DIV PUSH20 0xFFFFFFFFFFFFFFFFFFFFFFFFFFFFFFFFFFFFFFFF AND PUSH20 0xFFFFFFFFFFFFFFFFFFFFFFFFFFFFFFFFFFFFFFFF AND EQ PUSH2 0x7C1 JUMPI PUSH1 0x40 MLOAD PUSH32 0x8C379A000000000000000000000000000000000000000000000000000000000 DUP2 MSTORE PUSH1 0x4 ADD PUSH2 0x7B8 SWAP1 PUSH2 0x1C6A JUMP JUMPDEST PUSH1 0x40 MLOAD DUP1 SWAP2 SUB SWAP1 REVERT JUMPDEST DUP1 PUSH1 0x4 ADD PUSH0 SWAP1 SLOAD SWAP1 PUSH2 0x100 EXP SWAP1 DIV PUSH1 0xFF AND PUSH2 0x811 JUMPI PUSH1 0x40 MLOAD PUSH32 0x8C379A000000000000000000000000000000000000000000000000000000000 DUP2 MSTORE PUSH1 0x4 ADD PUSH2 0x808 SWAP1 PUSH2 0x1CD2 JUMP JUMPDEST PUSH1 0x40 MLOAD DUP1 SWAP2 SUB SWAP1 REVERT JUMPDEST DUP1 PUSH1 0x3 ADD SLOAD TIMESTAMP LT ISZERO PUSH2 0x858 JUMPI PUSH1 0x40 MLOAD PUSH32 0x8C379A000000000000000000000000000000000000000000000000000000000 DUP2 MSTORE PUSH1 0x4 ADD PUSH2 0x84F SWAP1 PUSH2 0x1D60 JUMP JUMPDEST PUSH1 0x40 MLOAD DUP1 SWAP2 SUB SWAP1 REVERT JUMPDEST PUSH1 0x1 PUSH0 DUP1 DUP4 PUSH0 ADD SLOAD DUP2 MSTORE PUSH1 0x20 ADD SWAP1 DUP2 MSTORE PUSH1 0x20 ADD PUSH0 KECCAK256 PUSH1 0x4 ADD PUSH1 0x14 PUSH2 0x100 EXP DUP2 SLOAD DUP2 PUSH1 0xFF MUL NOT AND SWAP1 DUP4 ISZERO ISZERO MUL OR SWAP1 SSTORE POP PUSH0 DUP2 PUSH1 0x4 ADD PUSH0 PUSH2 0x100 EXP DUP2 SLOAD DUP2 PUSH1 0xFF MUL NOT AND SWAP1 DUP4 ISZERO ISZERO MUL OR SWAP1 SSTORE POP PUSH32 0x88B44BE84C9052BA1BDCA3B4B4466D38E2A4B94EA5B796D4BBB6070902D9BD19 DUP2 PUSH0 ADD SLOAD CALLER PUSH1 0x40 MLOAD PUSH2 0x8D6 SWAP3 SWAP2 SWAP1 PUSH2 0x1D7E JUMP JUMPDEST PUSH1 0x40 MLOAD DUP1 SWAP2 SUB SWAP1 LOG1 POP POP JUMP JUMPDEST PUSH0 DUP1 PUSH0 DUP5 DUP2 MSTORE PUSH1 0x20 ADD SWAP1 DUP2 MSTORE PUSH1 0x20 ADD PUSH0 KECCAK256 SWAP1 POP PUSH0 DUP2 PUSH0 ADD SLOAD SUB PUSH2 0x93A JUMPI PUSH1 0x40 MLOAD PUSH32 0x8C379A000000000000000000000000000000000000000000000000000000000 DUP2 MSTORE PUSH1 0x4 ADD PUSH2 0x931 SWAP1 PUSH2 0x1DEF JUMP JUMPDEST PUSH1 0x40 MLOAD DUP1 SWAP2 SUB SWAP1 REVERT JUMPDEST DUP1 PUSH1 0x4 ADD PUSH1 0x14 SWAP1 SLOAD SWAP1 PUSH2 0x100 EXP SWAP1 DIV PUSH1 0xFF AND PUSH2 0x98B JUMPI PUSH1 0x40 MLOAD PUSH32 0x8C379A000000000000000000000000000000000000000000000000000000000 DUP2 MSTORE PUSH1 0x4 ADD PUSH2 0x982 SWAP1 PUSH2 0x1E57 JUMP JUMPDEST PUSH1 0x40 MLOAD DUP1 SWAP2 SUB SWAP1 REVERT JUMPDEST PUSH0 DUP3 GT PUSH2 0x9CD JUMPI PUSH1 0x40 MLOAD PUSH32 0x8C379A000000000000000000000000000000000000000000000000000000000 DUP2 MSTORE PUSH1 0x4 ADD PUSH2 0x9C4 SWAP1 PUSH2 0x1EE5 JUMP JUMPDEST PUSH1 0x40 MLOAD DUP1 SWAP2 SUB SWAP1 REVERT JUMPDEST PUSH0 DUP3 DUP3 PUSH1 0x3 ADD SLOAD PUSH2 0x9DE SWAP2 SWAP1 PUSH2 0x1F03 JUMP JUMPDEST SWAP1 POP DUP1 CALLVALUE LT ISZERO PUSH2 0xA23 JUMPI PUSH1 0x40 MLOAD PUSH32 0x8C379A000000000000000000000000000000000000000000000000000000000 DUP2 MSTORE PUSH1 0x4 ADD PUSH2 0xA1A SWAP1 PUSH2 0x1FB4 JUMP JUMPDEST PUSH1 0x40 MLOAD DUP1 SWAP2 SUB SWAP1 REVERT JUMPDEST PUSH1 0x3 PUSH0 DUP2 SLOAD DUP1 SWAP3 SWAP2 SWAP1 PUSH2 0xA35 SWAP1 PUSH2 0x1846 JUMP JUMPDEST SWAP2 SWAP1 POP SSTORE POP PUSH1 0x40 MLOAD DUP1 PUSH1 0xA0 ADD PUSH1 0x40 MSTORE DUP1 DUP6 DUP2 MSTORE PUSH1 0x20 ADD CALLER PUSH20 0xFFFFFFFFFFFFFFFFFFFFFFFFFFFFFFFFFFFFFFFF AND DUP2 MSTORE PUSH1 0x20 ADD TIMESTAMP DUP2 MSTORE PUSH1 0x20 ADD PUSH3 0x15180 DUP6 PUSH2 0xA7C SWAP2 SWAP1 PUSH2 0x1F03 JUMP JUMPDEST TIMESTAMP PUSH2 0xA87 SWAP2 SWAP1 PUSH2 0x1FD2 JUMP JUMPDEST DUP2 MSTORE PUSH1 0x20 ADD PUSH1 0x1 ISZERO ISZERO DUP2 MSTORE POP PUSH1 0x2 PUSH0 PUSH1 0x3 SLOAD DUP2 MSTORE PUSH1 0x20 ADD SWAP1 DUP2 MSTORE PUSH1 0x20 ADD PUSH0 KECCAK256 PUSH0 DUP3 ADD MLOAD DUP2 PUSH0 ADD SSTORE PUSH1 0x20 DUP3 ADD MLOAD DUP2 PUSH1 0x1 ADD PUSH0 PUSH2 0x100 EXP DUP2 SLOAD DUP2 PUSH20 0xFFFFFFFFFFFFFFFFFFFFFFFFFFFFFFFFFFFFFFFF MUL NOT AND SWAP1 DUP4 PUSH20 0xFFFFFFFFFFFFFFFFFFFFFFFFFFFFFFFFFFFFFFFF AND MUL OR SWAP1 SSTORE POP PUSH1 0x40 DUP3 ADD MLOAD DUP2 PUSH1 0x2 ADD SSTORE PUSH1 0x60 DUP3 ADD MLOAD DUP2 PUSH1 0x3 ADD SSTORE PUSH1 0x80 DUP3 ADD MLOAD DUP2 PUSH1 0x4 ADD PUSH0 PUSH2 0x100 EXP DUP2 SLOAD DUP2 PUSH1 0xFF MUL NOT AND SWAP1 DUP4 ISZERO ISZERO MUL OR SWAP1 SSTORE POP SWAP1 POP POP PUSH0 DUP3 PUSH1 0x4 ADD PUSH1 0x14 PUSH2 0x100 EXP DUP2 SLOAD DUP2 PUSH1 0xFF MUL NOT AND SWAP1 DUP4 ISZERO ISZERO MUL OR SWAP1 SSTORE POP DUP2 PUSH1 0x4 ADD PUSH0 SWAP1 SLOAD SWAP1 PUSH2 0x100 EXP SWAP1 DIV PUSH20 0xFFFFFFFFFFFFFFFFFFFFFFFFFFFFFFFFFFFFFFFF AND PUSH20 0xFFFFFFFFFFFFFFFFFFFFFFFFFFFFFFFFFFFFFFFF AND PUSH2 0x8FC DUP3 SWAP1 DUP2 ISZERO MUL SWAP1 PUSH1 0x40 MLOAD PUSH0 PUSH1 0x40 MLOAD DUP1 DUP4 SUB DUP2 DUP6 DUP9 DUP9 CALL SWAP4 POP POP POP POP ISZERO DUP1 ISZERO PUSH2 0xBAC JUMPI RETURNDATASIZE PUSH0 DUP1 RETURNDATACOPY RETURNDATASIZE PUSH0 REVERT JUMPDEST POP PUSH32 0xB5E6B43362122AC4ABE748FAD573713109C8B3E5613FE7B515335C012A9BA170 DUP5 CALLER TIMESTAMP PUSH3 0x15180 DUP8 PUSH2 0xBE0 SWAP2 SWAP1 PUSH2 0x1F03 JUMP JUMPDEST TIMESTAMP PUSH2 0xBEB SWAP2 SWAP1 PUSH2 0x1FD2 JUMP JUMPDEST PUSH1 0x40 MLOAD PUSH2 0xBFB SWAP5 SWAP4 SWAP3 SWAP2 SWAP1 PUSH2 0x2005 JUMP JUMPDEST PUSH1 0x40 MLOAD DUP1 SWAP2 SUB SWAP1 LOG1 POP POP POP POP JUMP JUMPDEST PUSH1 0x2 PUSH1 0x20 MSTORE DUP1 PUSH0 MSTORE PUSH1 0x40 PUSH0 KECCAK256 PUSH0 SWAP2 POP SWAP1 POP DUP1 PUSH0 ADD SLOAD SWAP1 DUP1 PUSH1 0x1 ADD PUSH0 SWAP1 SLOAD SWAP1 PUSH2 0x100 EXP SWAP1 DIV PUSH20 0xFFFFFFFFFFFFFFFFFFFFFFFFFFFFFFFFFFFFFFFF AND SWAP1 DUP1 PUSH1 0x2 ADD SLOAD SWAP1 DUP1 PUSH1 0x3 ADD SLOAD SWAP1 DUP1 PUSH1 0x4 ADD PUSH0 SWAP1 SLOAD SWAP1 PUSH2 0x100 EXP SWAP1 DIV PUSH1 0xFF AND SWAP1 POP DUP6 JUMP JUMPDEST PUSH1 0x4 PUSH1 0x20 MSTORE DUP2 PUSH0 MSTORE PUSH1 0x40 PUSH0 KECCAK256 DUP2 DUP2 SLOAD DUP2 LT PUSH2 0xC7F JUMPI PUSH0 DUP1 REVERT JUMPDEST SWAP1 PUSH0 MSTORE PUSH1 0x20 PUSH0 KECCAK256 ADD PUSH0 SWAP2 POP SWAP2 POP POP SLOAD DUP2 JUMP JUMPDEST PUSH2 0xC99 PUSH2 0xFC4 JUMP JUMPDEST PUSH0 PUSH1 0x2 PUSH0 DUP5 DUP2 MSTORE PUSH1 0x20 ADD SWAP1 DUP2 MSTORE PUSH1 0x20 ADD PUSH0 KECCAK256 PUSH0 ADD SLOAD SUB PUSH2 0xCEE JUMPI PUSH1 0x40 MLOAD PUSH32 0x8C379A000000000000000000000000000000000000000000000000000000000 DUP2 MSTORE PUSH1 0x4 ADD PUSH2 0xCE5 SWAP1 PUSH2 0x1BDC JUMP JUMPDEST PUSH1 0x40 MLOAD DUP1 SWAP2 SUB SWAP1 REVERT JUMPDEST PUSH1 0x2 PUSH0 DUP4 DUP2 MSTORE PUSH1 0x20 ADD SWAP1 DUP2 MSTORE PUSH1 0x20 ADD PUSH0 KECCAK256 PUSH1 0x40 MLOAD DUP1 PUSH1 0xA0 ADD PUSH1 0x40 MSTORE SWAP1 DUP2 PUSH0 DUP3 ADD SLOAD DUP2 MSTORE PUSH1 0x20 ADD PUSH1 0x1 DUP3 ADD PUSH0 SWAP1 SLOAD SWAP1 PUSH2 0x100 EXP SWAP1 DIV PUSH20 0xFFFFFFFFFFFFFFFFFFFFFFFFFFFFFFFFFFFFFFFF AND PUSH20 0xFFFFFFFFFFFFFFFFFFFFFFFFFFFFFFFFFFFFFFFF AND PUSH20 0xFFFFFFFFFFFFFFFFFFFFFFFFFFFFFFFFFFFFFFFF AND DUP2 MSTORE PUSH1 0x20 ADD PUSH1 0x2 DUP3 ADD SLOAD DUP2 MSTORE PUSH1 0x20 ADD PUSH1 0x3 DUP3 ADD SLOAD DUP2 MSTORE PUSH1 0x20 ADD PUSH1 0x4 DUP3 ADD PUSH0 SWAP1 SLOAD SWAP1 PUSH2 0x100 EXP SWAP1 DIV PUSH1 0xFF AND ISZERO ISZERO ISZERO ISZERO DUP2 MSTORE POP POP SWAP1 POP SWAP2 SWAP1 POP JUMP JUMPDEST PUSH2 0xDA5 PUSH2 0x1006 JUMP JUMPDEST PUSH0 DUP1 PUSH0 DUP5 DUP2 MSTORE PUSH1 0x20 ADD SWAP1 DUP2 MSTORE PUSH1 0x20 ADD PUSH0 KECCAK256 PUSH0 ADD SLOAD SUB PUSH2 0xDF9 JUMPI PUSH1 0x40 MLOAD PUSH32 0x8C379A000000000000000000000000000000000000000000000000000000000 DUP2 MSTORE PUSH1 0x4 ADD PUSH2 0xDF0 SWAP1 PUSH2 0x1DEF JUMP JUMPDEST PUSH1 0x40 MLOAD DUP1 SWAP2 SUB SWAP1 REVERT JUMPDEST PUSH0 DUP1 DUP4 DUP2 MSTORE PUSH1 0x20 ADD SWAP1 DUP2 MSTORE PUSH1 0x20 ADD PUSH0 KECCAK256 PUSH1 0x40 MLOAD DUP1 PUSH1 0xC0 ADD PUSH1 0x40 MSTORE SWAP1 DUP2 PUSH0 DUP3 ADD SLOAD DUP2 MSTORE PUSH1 0x20 ADD PUSH1 0x1 DUP3 ADD DUP1 SLOAD PUSH2 0xE2D SWAP1 PUSH2 0x18BA JUMP JUMPDEST DUP1 PUSH1 0x1F ADD PUSH1 0x20 DUP1 SWAP2 DIV MUL PUSH1 0x20 ADD PUSH1 0x40 MLOAD SWAP1 DUP2 ADD PUSH1 0x40 MSTORE DUP1 SWAP3 SWAP2 SWAP1 DUP2 DUP2 MSTORE PUSH1 0x20 ADD DUP3 DUP1 SLOAD PUSH2 0xE59 SWAP1 PUSH2 0x18BA JUMP JUMPDEST DUP1 ISZERO PUSH2 0xEA4 JUMPI DUP1 PUSH1 0x1F LT PUSH2 0xE7B JUMPI PUSH2 0x100 DUP1 DUP4 SLOAD DIV MUL DUP4 MSTORE SWAP2 PUSH1 0x20 ADD SWAP2 PUSH2 0xEA4 JUMP JUMPDEST DUP3 ADD SWAP2 SWAP1 PUSH0 MSTORE PUSH1 0x20 PUSH0 KECCAK256 SWAP1 JUMPDEST DUP2 SLOAD DUP2 MSTORE SWAP1 PUSH1 0x1 ADD SWAP1 PUSH1 0x20 ADD DUP1 DUP4 GT PUSH2 0xE87 JUMPI DUP3 SWAP1 SUB PUSH1 0x1F AND DUP3 ADD SWAP2 JUMPDEST POP POP POP POP POP DUP2 MSTORE PUSH1 0x20 ADD PUSH1 0x2 DUP3 ADD DUP1 SLOAD PUSH2 0xEBD SWAP1 PUSH2 0x18BA JUMP JUMPDEST DUP1 PUSH1 0x1F ADD PUSH1 0x20 DUP1 SWAP2 DIV MUL PUSH1 0x20 ADD PUSH1 0x40 MLOAD SWAP1 DUP2 ADD PUSH1 0x40 MSTORE DUP1 SWAP3 SWAP2 SWAP1 DUP2 DUP2 MSTORE PUSH1 0x20 ADD DUP3 DUP1 SLOAD PUSH2 0xEE9 SWAP1 PUSH2 0x18BA JUMP JUMPDEST DUP1 ISZERO PUSH2 0xF34 JUMPI DUP1 PUSH1 0x1F LT PUSH2 0xF0B JUMPI PUSH2 0x100 DUP1 DUP4 SLOAD DIV MUL DUP4 MSTORE SWAP2 PUSH1 0x20 ADD SWAP2 PUSH2 0xF34 JUMP JUMPDEST DUP3 ADD SWAP2 SWAP1 PUSH0 MSTORE PUSH1 0x20 PUSH0 KECCAK256 SWAP1 JUMPDEST DUP2 SLOAD DUP2 MSTORE SWAP1 PUSH1 0x1 ADD SWAP1 PUSH1 0x20 ADD DUP1 DUP4 GT PUSH2 0xF17 JUMPI DUP3 SWAP1 SUB PUSH1 0x1F AND DUP3 ADD SWAP2 JUMPDEST POP POP POP POP POP DUP2 MSTORE PUSH1 0x20 ADD PUSH1 0x3 DUP3 ADD SLOAD DUP2 MSTORE PUSH1 0x20 ADD PUSH1 0x4 DUP3 ADD PUSH0 SWAP1 SLOAD SWAP1 PUSH2 0x100 EXP SWAP1 DIV PUSH20 0xFFFFFFFFFFFFFFFFFFFFFFFFFFFFFFFFFFFFFFFF AND PUSH20 0xFFFFFFFFFFFFFFFFFFFFFFFFFFFFFFFFFFFFFFFF AND PUSH20 0xFFFFFFFFFFFFFFFFFFFFFFFFFFFFFFFFFFFFFFFF AND DUP2 MSTORE PUSH1 0x20 ADD PUSH1 0x4 DUP3 ADD PUSH1 0x14 SWAP1 SLOAD SWAP1 PUSH2 0x100 EXP SWAP1 DIV PUSH1 0xFF AND ISZERO ISZERO ISZERO ISZERO DUP2 MSTORE POP POP SWAP1 POP SWAP2 SWAP1 POP JUMP JUMPDEST PUSH1 0x3 SLOAD DUP2 JUMP JUMPDEST PUSH1 0x40 MLOAD DUP1 PUSH1 0xA0 ADD PUSH1 0x40 MSTORE DUP1 PUSH0 DUP2 MSTORE PUSH1 0x20 ADD PUSH0 PUSH20 0xFFFFFFFFFFFFFFFFFFFFFFFFFFFFFFFFFFFFFFFF AND DUP2 MSTORE PUSH1 0x20 ADD PUSH0 DUP2 MSTORE PUSH1 0x20 ADD PUSH0 DUP2 MSTORE PUSH1 0x20 ADD PUSH0 ISZERO ISZERO DUP2 MSTORE POP SWAP1 JUMP JUMPDEST PUSH1 0x40 MLOAD DUP1 PUSH1 0xC0 ADD PUSH1 0x40 MSTORE DUP1 PUSH0 DUP2 MSTORE PUSH1 0x20 ADD PUSH1 0x60 DUP2 MSTORE PUSH1 0x20 ADD PUSH1 0x60 DUP2 MSTORE PUSH1 0x20 ADD PUSH0 DUP2 MSTORE PUSH1 0x20 ADD PUSH0 PUSH20 0xFFFFFFFFFFFFFFFFFFFFFFFFFFFFFFFFFFFFFFFF AND DUP2 MSTORE PUSH1 0x20 ADD PUSH0 ISZERO ISZERO DUP2 MSTORE POP SWAP1 JUMP JUMPDEST PUSH0 PUSH1 0x40 MLOAD SWAP1 POP SWAP1 JUMP JUMPDEST PUSH0 DUP1 REVERT JUMPDEST PUSH0 DUP1 REVERT JUMPDEST PUSH0 DUP1 REVERT JUMPDEST PUSH0 DUP1 REVERT JUMPDEST PUSH0 PUSH1 0x1F NOT PUSH1 0x1F DUP4 ADD AND SWAP1 POP SWAP2 SWAP1 POP JUMP JUMPDEST PUSH32 0x4E487B7100000000000000000000000000000000000000000000000000000000 PUSH0 MSTORE PUSH1 0x41 PUSH1 0x4 MSTORE PUSH1 0x24 PUSH0 REVERT JUMPDEST PUSH2 0x10AF DUP3 PUSH2 0x1069 JUMP JUMPDEST DUP2 ADD DUP2 DUP2 LT PUSH8 0xFFFFFFFFFFFFFFFF DUP3 GT OR ISZERO PUSH2 0x10CE JUMPI PUSH2 0x10CD PUSH2 0x1079 JUMP JUMPDEST JUMPDEST DUP1 PUSH1 0x40 MSTORE POP POP POP JUMP JUMPDEST PUSH0 PUSH2 0x10E0 PUSH2 0x1050 JUMP JUMPDEST SWAP1 POP PUSH2 0x10EC DUP3 DUP3 PUSH2 0x10A6 JUMP JUMPDEST SWAP2 SWAP1 POP JUMP JUMPDEST PUSH0 PUSH8 0xFFFFFFFFFFFFFFFF DUP3 GT ISZERO PUSH2 0x110B JUMPI PUSH2 0x110A PUSH2 0x1079 JUMP JUMPDEST JUMPDEST PUSH2 0x1114 DUP3 PUSH2 0x1069 JUMP JUMPDEST SWAP1 POP PUSH1 0x20 DUP2 ADD SWAP1 POP SWAP2 SWAP1 POP JUMP JUMPDEST DUP3 DUP2 DUP4 CALLDATACOPY PUSH0 DUP4 DUP4 ADD MSTORE POP POP POP JUMP JUMPDEST PUSH0 PUSH2 0x1141 PUSH2 0x113C DUP5 PUSH2 0x10F1 JUMP JUMPDEST PUSH2 0x10D7 JUMP JUMPDEST SWAP1 POP DUP3 DUP2 MSTORE PUSH1 0x20 DUP2 ADD DUP5 DUP5 DUP5 ADD GT ISZERO PUSH2 0x115D JUMPI PUSH2 0x115C PUSH2 0x1065 JUMP JUMPDEST JUMPDEST PUSH2 0x1168 DUP5 DUP3 DUP6 PUSH2 0x1121 JUMP JUMPDEST POP SWAP4 SWAP3 POP POP POP JUMP JUMPDEST PUSH0 DUP3 PUSH1 0x1F DUP4 ADD SLT PUSH2 0x1184 JUMPI PUSH2 0x1183 PUSH2 0x1061 JUMP JUMPDEST JUMPDEST DUP2 CALLDATALOAD PUSH2 0x1194 DUP5 DUP3 PUSH1 0x20 DUP7 ADD PUSH2 0x112F JUMP JUMPDEST SWAP2 POP POP SWAP3 SWAP2 POP POP JUMP JUMPDEST PUSH0 DUP2 SWAP1 POP SWAP2 SWAP1 POP JUMP JUMPDEST PUSH2 0x11AF DUP2 PUSH2 0x119D JUMP JUMPDEST DUP2 EQ PUSH2 0x11B9 JUMPI PUSH0 DUP1 REVERT JUMPDEST POP JUMP JUMPDEST PUSH0 DUP2 CALLDATALOAD SWAP1 POP PUSH2 0x11CA DUP2 PUSH2 0x11A6 JUMP JUMPDEST SWAP3 SWAP2 POP POP JUMP JUMPDEST PUSH0 DUP1 PUSH0 PUSH1 0x60 DUP5 DUP7 SUB SLT ISZERO PUSH2 0x11E7 JUMPI PUSH2 0x11E6 PUSH2 0x1059 JUMP JUMPDEST JUMPDEST PUSH0 DUP5 ADD CALLDATALOAD PUSH8 0xFFFFFFFFFFFFFFFF DUP2 GT ISZERO PUSH2 0x1204 JUMPI PUSH2 0x1203 PUSH2 0x105D JUMP JUMPDEST JUMPDEST PUSH2 0x1210 DUP7 DUP3 DUP8 ADD PUSH2 0x1170 JUMP JUMPDEST SWAP4 POP POP PUSH1 0x20 DUP5 ADD CALLDATALOAD PUSH8 0xFFFFFFFFFFFFFFFF DUP2 GT ISZERO PUSH2 0x1231 JUMPI PUSH2 0x1230 PUSH2 0x105D JUMP JUMPDEST JUMPDEST PUSH2 0x123D DUP7 DUP3 DUP8 ADD PUSH2 0x1170 JUMP JUMPDEST SWAP3 POP POP PUSH1 0x40 PUSH2 0x124E DUP7 DUP3 DUP8 ADD PUSH2 0x11BC JUMP JUMPDEST SWAP2 POP POP SWAP3 POP SWAP3 POP SWAP3 JUMP JUMPDEST PUSH2 0x1261 DUP2 PUSH2 0x119D JUMP JUMPDEST DUP3 MSTORE POP POP JUMP JUMPDEST PUSH0 PUSH1 0x20 DUP3 ADD SWAP1 POP PUSH2 0x127A PUSH0 DUP4 ADD DUP5 PUSH2 0x1258 JUMP JUMPDEST SWAP3 SWAP2 POP POP JUMP JUMPDEST PUSH0 PUSH20 0xFFFFFFFFFFFFFFFFFFFFFFFFFFFFFFFFFFFFFFFF DUP3 AND SWAP1 POP SWAP2 SWAP1 POP JUMP JUMPDEST PUSH0 PUSH2 0x12A9 DUP3 PUSH2 0x1280 JUMP JUMPDEST SWAP1 POP SWAP2 SWAP1 POP JUMP JUMPDEST PUSH2 0x12B9 DUP2 PUSH2 0x129F JUMP JUMPDEST DUP2 EQ PUSH2 0x12C3 JUMPI PUSH0 DUP1 REVERT JUMPDEST POP JUMP JUMPDEST PUSH0 DUP2 CALLDATALOAD SWAP1 POP PUSH2 0x12D4 DUP2 PUSH2 0x12B0 JUMP JUMPDEST SWAP3 SWAP2 POP POP JUMP JUMPDEST PUSH0 PUSH1 0x20 DUP3 DUP5 SUB SLT ISZERO PUSH2 0x12EF JUMPI PUSH2 0x12EE PUSH2 0x1059 JUMP JUMPDEST JUMPDEST PUSH0 PUSH2 0x12FC DUP5 DUP3 DUP6 ADD PUSH2 0x12C6 JUMP JUMPDEST SWAP2 POP POP SWAP3 SWAP2 POP POP JUMP JUMPDEST PUSH0 DUP2 MLOAD SWAP1 POP SWAP2 SWAP1 POP JUMP JUMPDEST PUSH0 DUP3 DUP3 MSTORE PUSH1 0x20 DUP3 ADD SWAP1 POP SWAP3 SWAP2 POP POP JUMP JUMPDEST PUSH0 DUP2 SWAP1 POP PUSH1 0x20 DUP3 ADD SWAP1 POP SWAP2 SWAP1 POP JUMP JUMPDEST PUSH2 0x1337 DUP2 PUSH2 0x119D JUMP JUMPDEST DUP3 MSTORE POP POP JUMP JUMPDEST PUSH0 PUSH2 0x1348 DUP4 DUP4 PUSH2 0x132E JUMP JUMPDEST PUSH1 0x20 DUP4 ADD SWAP1 POP SWAP3 SWAP2 POP POP JUMP JUMPDEST PUSH0 PUSH1 0x20 DUP3 ADD SWAP1 POP SWAP2 SWAP1 POP JUMP JUMPDEST PUSH0 PUSH2 0x136A DUP3 PUSH2 0x1305 JUMP JUMPDEST PUSH2 0x1374 DUP2 DUP6 PUSH2 0x130F JUMP JUMPDEST SWAP4 POP PUSH2 0x137F DUP4 PUSH2 0x131F JUMP JUMPDEST DUP1 PUSH0 JUMPDEST DUP4 DUP2 LT ISZERO PUSH2 0x13AF JUMPI DUP2 MLOAD PUSH2 0x1396 DUP9 DUP3 PUSH2 0x133D JUMP JUMPDEST SWAP8 POP PUSH2 0x13A1 DUP4 PUSH2 0x1354 JUMP JUMPDEST SWAP3 POP POP PUSH1 0x1 DUP2 ADD SWAP1 POP PUSH2 0x1382 JUMP JUMPDEST POP DUP6 SWAP4 POP POP POP POP SWAP3 SWAP2 POP POP JUMP JUMPDEST PUSH0 PUSH1 0x20 DUP3 ADD SWAP1 POP DUP2 DUP2 SUB PUSH0 DUP4 ADD MSTORE PUSH2 0x13D4 DUP2 DUP5 PUSH2 0x1360 JUMP JUMPDEST SWAP1 POP SWAP3 SWAP2 POP POP JUMP JUMPDEST PUSH0 PUSH1 0x20 DUP3 DUP5 SUB SLT ISZERO PUSH2 0x13F1 JUMPI PUSH2 0x13F0 PUSH2 0x1059 JUMP JUMPDEST JUMPDEST PUSH0 PUSH2 0x13FE DUP5 DUP3 DUP6 ADD PUSH2 0x11BC JUMP JUMPDEST SWAP2 POP POP SWAP3 SWAP2 POP POP JUMP JUMPDEST PUSH0 DUP2 MLOAD SWAP1 POP SWAP2 SWAP1 POP JUMP JUMPDEST PUSH0 DUP3 DUP3 MSTORE PUSH1 0x20 DUP3 ADD SWAP1 POP SWAP3 SWAP2 POP POP JUMP JUMPDEST DUP3 DUP2 DUP4 MCOPY PUSH0 DUP4 DUP4 ADD MSTORE POP POP POP JUMP JUMPDEST PUSH0 PUSH2 0x1439 DUP3 PUSH2 0x1407 JUMP JUMPDEST PUSH2 0x1443 DUP2 DUP6 PUSH2 0x1411 JUMP JUMPDEST SWAP4 POP PUSH2 0x1453 DUP2 DUP6 PUSH1 0x20 DUP7 ADD PUSH2 0x1421 JUMP JUMPDEST PUSH2 0x145C DUP2 PUSH2 0x1069 JUMP JUMPDEST DUP5 ADD SWAP2 POP POP SWAP3 SWAP2 POP POP JUMP JUMPDEST PUSH0 PUSH2 0x1471 DUP3 PUSH2 0x1280 JUMP JUMPDEST SWAP1 POP SWAP2 SWAP1 POP JUMP JUMPDEST PUSH2 0x1481 DUP2 PUSH2 0x1467 JUMP JUMPDEST DUP3 MSTORE POP POP JUMP JUMPDEST PUSH0 DUP2 ISZERO ISZERO SWAP1 POP SWAP2 SWAP1 POP JUMP JUMPDEST PUSH2 0x149B DUP2 PUSH2 0x1487 JUMP JUMPDEST DUP3 MSTORE POP POP JUMP JUMPDEST PUSH0 PUSH1 0xC0 DUP3 ADD SWAP1 POP PUSH2 0x14B4 PUSH0 DUP4 ADD DUP10 PUSH2 0x1258 JUMP JUMPDEST DUP2 DUP2 SUB PUSH1 0x20 DUP4 ADD MSTORE PUSH2 0x14C6 DUP2 DUP9 PUSH2 0x142F JUMP JUMPDEST SWAP1 POP DUP2 DUP2 SUB PUSH1 0x40 DUP4 ADD MSTORE PUSH2 0x14DA DUP2 DUP8 PUSH2 0x142F JUMP JUMPDEST SWAP1 POP PUSH2 0x14E9 PUSH1 0x60 DUP4 ADD DUP7 PUSH2 0x1258 JUMP JUMPDEST PUSH2 0x14F6 PUSH1 0x80 DUP4 ADD DUP6 PUSH2 0x1478 JUMP JUMPDEST PUSH2 0x1503 PUSH1 0xA0 DUP4 ADD DUP5 PUSH2 0x1492 JUMP JUMPDEST SWAP8 SWAP7 POP POP POP POP POP POP POP JUMP JUMPDEST PUSH0 DUP1 PUSH1 0x40 DUP4 DUP6 SUB SLT ISZERO PUSH2 0x1524 JUMPI PUSH2 0x1523 PUSH2 0x1059 JUMP JUMPDEST JUMPDEST PUSH0 PUSH2 0x1531 DUP6 DUP3 DUP7 ADD PUSH2 0x11BC JUMP JUMPDEST SWAP3 POP POP PUSH1 0x20 PUSH2 0x1542 DUP6 DUP3 DUP7 ADD PUSH2 0x11BC JUMP JUMPDEST SWAP2 POP POP SWAP3 POP SWAP3 SWAP1 POP JUMP JUMPDEST PUSH2 0x1555 DUP2 PUSH2 0x129F JUMP JUMPDEST DUP3 MSTORE POP POP JUMP JUMPDEST PUSH0 PUSH1 0xA0 DUP3 ADD SWAP1 POP PUSH2 0x156E PUSH0 DUP4 ADD DUP9 PUSH2 0x1258 JUMP JUMPDEST PUSH2 0x157B PUSH1 0x20 DUP4 ADD DUP8 PUSH2 0x154C JUMP JUMPDEST PUSH2 0x1588 PUSH1 0x40 DUP4 ADD DUP7 PUSH2 0x1258 JUMP JUMPDEST PUSH2 0x1595 PUSH1 0x60 DUP4 ADD DUP6 PUSH2 0x1258 JUMP JUMPDEST PUSH2 0x15A2 PUSH1 0x80 DUP4 ADD DUP5 PUSH2 0x1492 JUMP JUMPDEST SWAP7 SWAP6 POP POP POP POP POP POP JUMP JUMPDEST PUSH0 DUP1 PUSH1 0x40 DUP4 DUP6 SUB SLT ISZERO PUSH2 0x15C2 JUMPI PUSH2 0x15C1 PUSH2 0x1059 JUMP JUMPDEST JUMPDEST PUSH0 PUSH2 0x15CF DUP6 DUP3 DUP7 ADD PUSH2 0x12C6 JUMP JUMPDEST SWAP3 POP POP PUSH1 0x20 PUSH2 0x15E0 DUP6 DUP3 DUP7 ADD PUSH2 0x11BC JUMP JUMPDEST SWAP2 POP POP SWAP3 POP SWAP3 SWAP1 POP JUMP JUMPDEST PUSH2 0x15F3 DUP2 PUSH2 0x129F JUMP JUMPDEST DUP3 MSTORE POP POP JUMP JUMPDEST PUSH2 0x1602 DUP2 PUSH2 0x1487 JUMP JUMPDEST DUP3 MSTORE POP POP JUMP JUMPDEST PUSH1 0xA0 DUP3 ADD PUSH0 DUP3 ADD MLOAD PUSH2 0x161C PUSH0 DUP6 ADD DUP3 PUSH2 0x132E JUMP JUMPDEST POP PUSH1 0x20 DUP3 ADD MLOAD PUSH2 0x162F PUSH1 0x20 DUP6 ADD DUP3 PUSH2 0x15EA JUMP JUMPDEST POP PUSH1 0x40 DUP3 ADD MLOAD PUSH2 0x1642 PUSH1 0x40 DUP6 ADD DUP3 PUSH2 0x132E JUMP JUMPDEST POP PUSH1 0x60 DUP3 ADD MLOAD PUSH2 0x1655 PUSH1 0x60 DUP6 ADD DUP3 PUSH2 0x132E JUMP JUMPDEST POP PUSH1 0x80 DUP3 ADD MLOAD PUSH2 0x1668 PUSH1 0x80 DUP6 ADD DUP3 PUSH2 0x15F9 JUMP JUMPDEST POP POP POP POP JUMP JUMPDEST PUSH0 PUSH1 0xA0 DUP3 ADD SWAP1 POP PUSH2 0x1681 PUSH0 DUP4 ADD DUP5 PUSH2 0x1608 JUMP JUMPDEST SWAP3 SWAP2 POP POP JUMP JUMPDEST PUSH0 DUP3 DUP3 MSTORE PUSH1 0x20 DUP3 ADD SWAP1 POP SWAP3 SWAP2 POP POP JUMP JUMPDEST PUSH0 PUSH2 0x16A1 DUP3 PUSH2 0x1407 JUMP JUMPDEST PUSH2 0x16AB DUP2 DUP6 PUSH2 0x1687 JUMP JUMPDEST SWAP4 POP PUSH2 0x16BB DUP2 DUP6 PUSH1 0x20 DUP7 ADD PUSH2 0x1421 JUMP JUMPDEST PUSH2 0x16C4 DUP2 PUSH2 0x1069 JUMP JUMPDEST DUP5 ADD SWAP2 POP POP SWAP3 SWAP2 POP POP JUMP JUMPDEST PUSH2 0x16D8 DUP2 PUSH2 0x1467 JUMP JUMPDEST DUP3 MSTORE POP POP JUMP JUMPDEST PUSH0 PUSH1 0xC0 DUP4 ADD PUSH0 DUP4 ADD MLOAD PUSH2 0x16F3 PUSH0 DUP7 ADD DUP3 PUSH2 0x132E JUMP JUMPDEST POP PUSH1 0x20 DUP4 ADD MLOAD DUP5 DUP3 SUB PUSH1 0x20 DUP7 ADD MSTORE PUSH2 0x170B DUP3 DUP3 PUSH2 0x1697 JUMP JUMPDEST SWAP2 POP POP PUSH1 0x40 DUP4 ADD MLOAD DUP5 DUP3 SUB PUSH1 0x40 DUP7 ADD MSTORE PUSH2 0x1725 DUP3 DUP3 PUSH2 0x1697 JUMP JUMPDEST SWAP2 POP POP PUSH1 0x60 DUP4 ADD MLOAD PUSH2 0x173A PUSH1 0x60 DUP7 ADD DUP3 PUSH2 0x132E JUMP JUMPDEST POP PUSH1 0x80 DUP4 ADD MLOAD PUSH2 0x174D PUSH1 0x80 DUP7 ADD DUP3 PUSH2 0x16CF JUMP JUMPDEST POP PUSH1 0xA0 DUP4 ADD MLOAD PUSH2 0x1760 PUSH1 0xA0 DUP7 ADD DUP3 PUSH2 0x15F9 JUMP JUMPDEST POP DUP1 SWAP2 POP POP SWAP3 SWAP2 POP POP JUMP JUMPDEST PUSH0 PUSH1 0x20 DUP3 ADD SWAP1 POP DUP2 DUP2 SUB PUSH0 DUP4 ADD MSTORE PUSH2 0x1783 DUP2 DUP5 PUSH2 0x16DE JUMP JUMPDEST SWAP1 POP SWAP3 SWAP2 POP POP JUMP JUMPDEST PUSH32 0x4C65207461726966206A6F75726E616C69657220646F69742065747265207375 PUSH0 DUP3 ADD MSTORE PUSH32 0x706572696575722061207A65726F2E0000000000000000000000000000000000 PUSH1 0x20 DUP3 ADD MSTORE POP JUMP JUMPDEST PUSH0 PUSH2 0x17E5 PUSH1 0x2F DUP4 PUSH2 0x1411 JUMP JUMPDEST SWAP2 POP PUSH2 0x17F0 DUP3 PUSH2 0x178B JUMP JUMPDEST PUSH1 0x40 DUP3 ADD SWAP1 POP SWAP2 SWAP1 POP JUMP JUMPDEST PUSH0 PUSH1 0x20 DUP3 ADD SWAP1 POP DUP2 DUP2 SUB PUSH0 DUP4 ADD MSTORE PUSH2 0x1812 DUP2 PUSH2 0x17D9 JUMP JUMPDEST SWAP1 POP SWAP2 SWAP1 POP JUMP JUMPDEST PUSH32 0x4E487B7100000000000000000000000000000000000000000000000000000000 PUSH0 MSTORE PUSH1 0x11 PUSH1 0x4 MSTORE PUSH1 0x24 PUSH0 REVERT JUMPDEST PUSH0 PUSH2 0x1850 DUP3 PUSH2 0x119D JUMP JUMPDEST SWAP2 POP PUSH32 0xFFFFFFFFFFFFFFFFFFFFFFFFFFFFFFFFFFFFFFFFFFFFFFFFFFFFFFFFFFFFFFFF DUP3 SUB PUSH2 0x1882 JUMPI PUSH2 0x1881 PUSH2 0x1819 JUMP JUMPDEST JUMPDEST PUSH1 0x1 DUP3 ADD SWAP1 POP SWAP2 SWAP1 POP JUMP JUMPDEST PUSH32 0x4E487B7100000000000000000000000000000000000000000000000000000000 PUSH0 MSTORE PUSH1 0x22 PUSH1 0x4 MSTORE PUSH1 0x24 PUSH0 REVERT JUMPDEST PUSH0 PUSH1 0x2 DUP3 DIV SWAP1 POP PUSH1 0x1 DUP3 AND DUP1 PUSH2 0x18D1 JUMPI PUSH1 0x7F DUP3 AND SWAP2 POP JUMPDEST PUSH1 0x20 DUP3 LT DUP2 SUB PUSH2 0x18E4 JUMPI PUSH2 0x18E3 PUSH2 0x188D JUMP JUMPDEST JUMPDEST POP SWAP2 SWAP1 POP JUMP JUMPDEST PUSH0 DUP2 SWAP1 POP DUP2 PUSH0 MSTORE PUSH1 0x20 PUSH0 KECCAK256 SWAP1 POP SWAP2 SWAP1 POP JUMP JUMPDEST PUSH0 PUSH1 0x20 PUSH1 0x1F DUP4 ADD DIV SWAP1 POP SWAP2 SWAP1 POP JUMP JUMPDEST PUSH0 DUP3 DUP3 SHL SWAP1 POP SWAP3 SWAP2 POP POP JUMP JUMPDEST PUSH0 PUSH1 0x8 DUP4 MUL PUSH2 0x1946 PUSH32 0xFFFFFFFFFFFFFFFFFFFFFFFFFFFFFFFFFFFFFFFFFFFFFFFFFFFFFFFFFFFFFFFF DUP3 PUSH2 0x190B JUMP JUMPDEST PUSH2 0x1950 DUP7 DUP4 PUSH2 0x190B JUMP JUMPDEST SWAP6 POP DUP1 NOT DUP5 AND SWAP4 POP DUP1 DUP7 AND DUP5 OR SWAP3 POP POP POP SWAP4 SWAP3 POP POP POP JUMP JUMPDEST PUSH0 DUP2 SWAP1 POP SWAP2 SWAP1 POP JUMP JUMPDEST PUSH0 PUSH2 0x198B PUSH2 0x1986 PUSH2 0x1981 DUP5 PUSH2 0x119D JUMP JUMPDEST PUSH2 0x1968 JUMP JUMPDEST PUSH2 0x119D JUMP JUMPDEST SWAP1 POP SWAP2 SWAP1 POP JUMP JUMPDEST PUSH0 DUP2 SWAP1 POP SWAP2 SWAP1 POP JUMP JUMPDEST PUSH2 0x19A4 DUP4 PUSH2 0x1971 JUMP JUMPDEST PUSH2 0x19B8 PUSH2 0x19B0 DUP3 PUSH2 0x1992 JUMP JUMPDEST DUP5 DUP5 SLOAD PUSH2 0x1917 JUMP JUMPDEST DUP3 SSTORE POP POP POP POP JUMP JUMPDEST PUSH0 SWAP1 JUMP JUMPDEST PUSH2 0x19CC PUSH2 0x19C0 JUMP JUMPDEST PUSH2 0x19D7 DUP2 DUP5 DUP5 PUSH2 0x199B JUMP JUMPDEST POP POP POP JUMP JUMPDEST JUMPDEST DUP2 DUP2 LT ISZERO PUSH2 0x19FA JUMPI PUSH2 0x19EF PUSH0 DUP3 PUSH2 0x19C4 JUMP JUMPDEST PUSH1 0x1 DUP2 ADD SWAP1 POP PUSH2 0x19DD JUMP JUMPDEST POP POP JUMP JUMPDEST PUSH1 0x1F DUP3 GT ISZERO PUSH2 0x1A3F JUMPI PUSH2 0x1A10 DUP2 PUSH2 0x18EA JUMP JUMPDEST PUSH2 0x1A19 DUP5 PUSH2 0x18FC JUMP JUMPDEST DUP2 ADD PUSH1 0x20 DUP6 LT ISZERO PUSH2 0x1A28 JUMPI DUP2 SWAP1 POP JUMPDEST PUSH2 0x1A3C PUSH2 0x1A34 DUP6 PUSH2 0x18FC JUMP JUMPDEST DUP4 ADD DUP3 PUSH2 0x19DC JUMP JUMPDEST POP POP JUMPDEST POP POP POP JUMP JUMPDEST PUSH0 DUP3 DUP3 SHR SWAP1 POP SWAP3 SWAP2 POP POP JUMP JUMPDEST PUSH0 PUSH2 0x1A5F PUSH0 NOT DUP5 PUSH1 0x8 MUL PUSH2 0x1A44 JUMP JUMPDEST NOT DUP1 DUP4 AND SWAP2 POP POP SWAP3 SWAP2 POP POP JUMP JUMPDEST PUSH0 PUSH2 0x1A77 DUP4 DUP4 PUSH2 0x1A50 JUMP JUMPDEST SWAP2 POP DUP3 PUSH1 0x2 MUL DUP3 OR SWAP1 POP SWAP3 SWAP2 POP POP JUMP JUMPDEST PUSH2 0x1A90 DUP3 PUSH2 0x1407 JUMP JUMPDEST PUSH8 0xFFFFFFFFFFFFFFFF DUP2 GT ISZERO PUSH2 0x1AA9 JUMPI PUSH2 0x1AA8 PUSH2 0x1079 JUMP JUMPDEST JUMPDEST PUSH2 0x1AB3 DUP3 SLOAD PUSH2 0x18BA JUMP JUMPDEST PUSH2 0x1ABE DUP3 DUP3 DUP6 PUSH2 0x19FE JUMP JUMPDEST PUSH0 PUSH1 0x20 SWAP1 POP PUSH1 0x1F DUP4 GT PUSH1 0x1 DUP2 EQ PUSH2 0x1AEF JUMPI PUSH0 DUP5 ISZERO PUSH2 0x1ADD JUMPI DUP3 DUP8 ADD MLOAD SWAP1 POP JUMPDEST PUSH2 0x1AE7 DUP6 DUP3 PUSH2 0x1A6C JUMP JUMPDEST DUP7 SSTORE POP PUSH2 0x1B4E JUMP JUMPDEST PUSH1 0x1F NOT DUP5 AND PUSH2 0x1AFD DUP7 PUSH2 0x18EA JUMP JUMPDEST PUSH0 JUMPDEST DUP3 DUP2 LT ISZERO PUSH2 0x1B24 JUMPI DUP5 DUP10 ADD MLOAD DUP3 SSTORE PUSH1 0x1 DUP3 ADD SWAP2 POP PUSH1 0x20 DUP6 ADD SWAP5 POP PUSH1 0x20 DUP2 ADD SWAP1 POP PUSH2 0x1AFF JUMP JUMPDEST DUP7 DUP4 LT ISZERO PUSH2 0x1B41 JUMPI DUP5 DUP10 ADD MLOAD PUSH2 0x1B3D PUSH1 0x1F DUP10 AND DUP3 PUSH2 0x1A50 JUMP JUMPDEST DUP4 SSTORE POP JUMPDEST PUSH1 0x1 PUSH1 0x2 DUP9 MUL ADD DUP9 SSTORE POP POP POP JUMPDEST POP POP POP POP POP POP JUMP JUMPDEST PUSH0 PUSH1 0x60 DUP3 ADD SWAP1 POP PUSH2 0x1B69 PUSH0 DUP4 ADD DUP7 PUSH2 0x1258 JUMP JUMPDEST DUP2 DUP2 SUB PUSH1 0x20 DUP4 ADD MSTORE PUSH2 0x1B7B DUP2 DUP6 PUSH2 0x142F JUMP JUMPDEST SWAP1 POP PUSH2 0x1B8A PUSH1 0x40 DUP4 ADD DUP5 PUSH2 0x154C JUMP JUMPDEST SWAP5 SWAP4 POP POP POP POP JUMP JUMPDEST PUSH32 0x4C61206C6F636174696F6E206E27657869737465207061732E00000000000000 PUSH0 DUP3 ADD MSTORE POP JUMP JUMPDEST PUSH0 PUSH2 0x1BC6 PUSH1 0x19 DUP4 PUSH2 0x1411 JUMP JUMPDEST SWAP2 POP PUSH2 0x1BD1 DUP3 PUSH2 0x1B92 JUMP JUMPDEST PUSH1 0x20 DUP3 ADD SWAP1 POP SWAP2 SWAP1 POP JUMP JUMPDEST PUSH0 PUSH1 0x20 DUP3 ADD SWAP1 POP DUP2 DUP2 SUB PUSH0 DUP4 ADD MSTORE PUSH2 0x1BF3 DUP2 PUSH2 0x1BBA JUMP JUMPDEST SWAP1 POP SWAP2 SWAP1 POP JUMP JUMPDEST PUSH32 0x566F7573206E276574657320706173206C65206C6F6361746169726520646520 PUSH0 DUP3 ADD MSTORE PUSH32 0x6365747465206C6F636174696F6E2E0000000000000000000000000000000000 PUSH1 0x20 DUP3 ADD MSTORE POP JUMP JUMPDEST PUSH0 PUSH2 0x1C54 PUSH1 0x2F DUP4 PUSH2 0x1411 JUMP JUMPDEST SWAP2 POP PUSH2 0x1C5F DUP3 PUSH2 0x1BFA JUMP JUMPDEST PUSH1 0x40 DUP3 ADD SWAP1 POP SWAP2 SWAP1 POP JUMP JUMPDEST PUSH0 PUSH1 0x20 DUP3 ADD SWAP1 POP DUP2 DUP2 SUB PUSH0 DUP4 ADD MSTORE PUSH2 0x1C81 DUP2 PUSH2 0x1C48 JUMP JUMPDEST SWAP1 POP SWAP2 SWAP1 POP JUMP JUMPDEST PUSH32 0x4C61206C6F636174696F6E206573742064656A61207465726D696E65652E0000 PUSH0 DUP3 ADD MSTORE POP JUMP JUMPDEST PUSH0 PUSH2 0x1CBC PUSH1 0x1E DUP4 PUSH2 0x1411 JUMP JUMPDEST SWAP2 POP PUSH2 0x1CC7 DUP3 PUSH2 0x1C88 JUMP JUMPDEST PUSH1 0x20 DUP3 ADD SWAP1 POP SWAP2 SWAP1 POP JUMP JUMPDEST PUSH0 PUSH1 0x20 DUP3 ADD SWAP1 POP DUP2 DUP2 SUB PUSH0 DUP4 ADD MSTORE PUSH2 0x1CE9 DUP2 PUSH2 0x1CB0 JUMP JUMPDEST SWAP1 POP SWAP2 SWAP1 POP JUMP JUMPDEST PUSH32 0x4C6120706572696F6465206465206C6F636174696F6E206E2765737420706173 PUSH0 DUP3 ADD MSTORE PUSH32 0x20656E636F7265207465726D696E65652E000000000000000000000000000000 PUSH1 0x20 DUP3 ADD MSTORE POP JUMP JUMPDEST PUSH0 PUSH2 0x1D4A PUSH1 0x31 DUP4 PUSH2 0x1411 JUMP JUMPDEST SWAP2 POP PUSH2 0x1D55 DUP3 PUSH2 0x1CF0 JUMP JUMPDEST PUSH1 0x40 DUP3 ADD SWAP1 POP SWAP2 SWAP1 POP JUMP JUMPDEST PUSH0 PUSH1 0x20 DUP3 ADD SWAP1 POP DUP2 DUP2 SUB PUSH0 DUP4 ADD MSTORE PUSH2 0x1D77 DUP2 PUSH2 0x1D3E JUMP JUMPDEST SWAP1 POP SWAP2 SWAP1 POP JUMP JUMPDEST PUSH0 PUSH1 0x40 DUP3 ADD SWAP1 POP PUSH2 0x1D91 PUSH0 DUP4 ADD DUP6 PUSH2 0x1258 JUMP JUMPDEST PUSH2 0x1D9E PUSH1 0x20 DUP4 ADD DUP5 PUSH2 0x154C JUMP JUMPDEST SWAP4 SWAP3 POP POP POP JUMP JUMPDEST PUSH32 0x4C276F626A6574206E27657869737465207061732E0000000000000000000000 PUSH0 DUP3 ADD MSTORE POP JUMP JUMPDEST PUSH0 PUSH2 0x1DD9 PUSH1 0x15 DUP4 PUSH2 0x1411 JUMP JUMPDEST SWAP2 POP PUSH2 0x1DE4 DUP3 PUSH2 0x1DA5 JUMP JUMPDEST PUSH1 0x20 DUP3 ADD SWAP1 POP SWAP2 SWAP1 POP JUMP JUMPDEST PUSH0 PUSH1 0x20 DUP3 ADD SWAP1 POP DUP2 DUP2 SUB PUSH0 DUP4 ADD MSTORE PUSH2 0x1E06 DUP2 PUSH2 0x1DCD JUMP JUMPDEST SWAP1 POP SWAP2 SWAP1 POP JUMP JUMPDEST PUSH32 0x4C276F626A6574206E276573742070617320646973706F6E69626C652E000000 PUSH0 DUP3 ADD MSTORE POP JUMP JUMPDEST PUSH0 PUSH2 0x1E41 PUSH1 0x1D DUP4 PUSH2 0x1411 JUMP JUMPDEST SWAP2 POP PUSH2 0x1E4C DUP3 PUSH2 0x1E0D JUMP JUMPDEST PUSH1 0x20 DUP3 ADD SWAP1 POP SWAP2 SWAP1 POP JUMP JUMPDEST PUSH0 PUSH1 0x20 DUP3 ADD SWAP1 POP DUP2 DUP2 SUB PUSH0 DUP4 ADD MSTORE PUSH2 0x1E6E DUP2 PUSH2 0x1E35 JUMP JUMPDEST SWAP1 POP SWAP2 SWAP1 POP JUMP JUMPDEST PUSH32 0x4C61206475726565206465206C6F636174696F6E20646F697420657472652073 PUSH0 DUP3 ADD MSTORE PUSH32 0x7570657269657572652061207A65726F2E000000000000000000000000000000 PUSH1 0x20 DUP3 ADD MSTORE POP JUMP JUMPDEST PUSH0 PUSH2 0x1ECF PUSH1 0x31 DUP4 PUSH2 0x1411 JUMP JUMPDEST SWAP2 POP PUSH2 0x1EDA DUP3 PUSH2 0x1E75 JUMP JUMPDEST PUSH1 0x40 DUP3 ADD SWAP1 POP SWAP2 SWAP1 POP JUMP JUMPDEST PUSH0 PUSH1 0x20 DUP3 ADD SWAP1 POP DUP2 DUP2 SUB PUSH0 DUP4 ADD MSTORE PUSH2 0x1EFC DUP2 PUSH2 0x1EC3 JUMP JUMPDEST SWAP1 POP SWAP2 SWAP1 POP JUMP JUMPDEST PUSH0 PUSH2 0x1F0D DUP3 PUSH2 0x119D JUMP JUMPDEST SWAP2 POP PUSH2 0x1F18 DUP4 PUSH2 0x119D JUMP JUMPDEST SWAP3 POP DUP3 DUP3 MUL PUSH2 0x1F26 DUP2 PUSH2 0x119D JUMP JUMPDEST SWAP2 POP DUP3 DUP3 DIV DUP5 EQ DUP4 ISZERO OR PUSH2 0x1F3D JUMPI PUSH2 0x1F3C PUSH2 0x1819 JUMP JUMPDEST JUMPDEST POP SWAP3 SWAP2 POP POP JUMP JUMPDEST PUSH32 0x4C65206D6F6E74616E7420656E766F79652065737420696E737566666973616E PUSH0 DUP3 ADD MSTORE PUSH32 0x742E000000000000000000000000000000000000000000000000000000000000 PUSH1 0x20 DUP3 ADD MSTORE POP JUMP JUMPDEST PUSH0 PUSH2 0x1F9E PUSH1 0x22 DUP4 PUSH2 0x1411 JUMP JUMPDEST SWAP2 POP PUSH2 0x1FA9 DUP3 PUSH2 0x1F44 JUMP JUMPDEST PUSH1 0x40 DUP3 ADD SWAP1 POP SWAP2 SWAP1 POP JUMP JUMPDEST PUSH0 PUSH1 0x20 DUP3 ADD SWAP1 POP DUP2 DUP2 SUB PUSH0 DUP4 ADD MSTORE PUSH2 0x1FCB DUP2 PUSH2 0x1F92 JUMP JUMPDEST SWAP1 POP SWAP2 SWAP1 POP JUMP JUMPDEST PUSH0 PUSH2 0x1FDC DUP3 PUSH2 0x119D JUMP JUMPDEST SWAP2 POP PUSH2 0x1FE7 DUP4 PUSH2 0x119D JUMP JUMPDEST SWAP3 POP DUP3 DUP3 ADD SWAP1 POP DUP1 DUP3 GT ISZERO PUSH2 0x1FFF JUMPI PUSH2 0x1FFE PUSH2 0x1819 JUMP JUMPDEST JUMPDEST SWAP3 SWAP2 POP POP JUMP JUMPDEST PUSH0 PUSH1 0x80 DUP3 ADD SWAP1 POP PUSH2 0x2018 PUSH0 DUP4 ADD DUP8 PUSH2 0x1258 JUMP JUMPDEST PUSH2 0x2025 PUSH1 0x20 DUP4 ADD DUP7 PUSH2 0x154C JUMP JUMPDEST PUSH2 0x2032 PUSH1 0x40 DUP4 ADD DUP6 PUSH2 0x1258 JUMP JUMPDEST PUSH2 0x203F PUSH1 0x60 DUP4 ADD DUP5 PUSH2 0x1258 JUMP JUMPDEST SWAP6 SWAP5 POP POP POP POP POP JUMP INVALID LOG2 PUSH5 0x6970667358 0x22 SLT KECCAK256 CALLDATALOAD INVALID MSTORE SWAP13 SDIV 0xBE 0xC2 MCOPY 0xEA 0xCF 0xBD CALLDATASIZE LOG3 0xA5 EXTCODEHASH ADD ISZERO 0xEA RETURN 0xC9 0xDF 0xB7 CODECOPY 0xAA SWAP11 ISZERO EXTCODEHASH 0x4D 0xB5 ADDRESS 0x4D GASLIMIT PUSH5 0x736F6C6343 STOP ADDMOD BYTE STOP CALLER "
				},
				"gasEstimates": {
					"creation": {
						"codeDepositCost": "1663600",
						"executionCost": "1741",
						"totalCost": "1665341"
					},
					"external": {
						"ajouterObjet(string,string,uint256)": "infinite",
						"compteurLocations()": "2535",
						"compteurObjets()": "2448",
						"locations(uint256)": "infinite",
						"louerObjet(uint256,uint256)": "infinite",
						"objets(uint256)": "infinite",
						"objetsParUtilisateur(address,uint256)": "infinite",
						"obtenirLocation(uint256)": "infinite",
						"obtenirObjet(uint256)": "infinite",
						"obtenirObjetsUtilisateur(address)": "infinite",
						"terminerLocation(uint256)": "infinite"
					}
				},
				"methodIdentifiers": {
					"ajouterObjet(string,string,uint256)": "13239ffe",
					"compteurLocations()": "d2d1805a",
					"compteurObjets()": "4270b161",
					"locations(uint256)": "b9e0db35",
					"louerObjet(uint256,uint256)": "b8586e2e",
					"objets(uint256)": "733da1d5",
					"objetsParUtilisateur(address,uint256)": "bb27edac",
					"obtenirLocation(uint256)": "c3ee4122",
					"obtenirObjet(uint256)": "c65bb605",
					"obtenirObjetsUtilisateur(address)": "4f32870d",
					"terminerLocation(uint256)": "b4385ad0"
				}
			},
			"storageLayout": {
				"storage": [
					{
						"astId": 30,
						"contract": "helloworld.sol:LocationObjets",
						"label": "objets",
						"offset": 0,
						"slot": "0",
						"type": "t_mapping(t_uint256,t_struct(Objet)14_storage)"
					},
					{
						"astId": 32,
						"contract": "helloworld.sol:LocationObjets",
						"label": "compteurObjets",
						"offset": 0,
						"slot": "1",
						"type": "t_uint256"
					},
					{
						"astId": 37,
						"contract": "helloworld.sol:LocationObjets",
						"label": "locations",
						"offset": 0,
						"slot": "2",
						"type": "t_mapping(t_uint256,t_struct(Location)25_storage)"
					},
					{
						"astId": 39,
						"contract": "helloworld.sol:LocationObjets",
						"label": "compteurLocations",
						"offset": 0,
						"slot": "3",
						"type": "t_uint256"
					},
					{
						"astId": 44,
						"contract": "helloworld.sol:LocationObjets",
						"label": "objetsParUtilisateur",
						"offset": 0,
						"slot": "4",
						"type": "t_mapping(t_address,t_array(t_uint256)dyn_storage)"
					}
				],
				"types": {
					"t_address": {
						"encoding": "inplace",
						"label": "address",
						"numberOfBytes": "20"
					},
					"t_address_payable": {
						"encoding": "inplace",
						"label": "address payable",
						"numberOfBytes": "20"
					},
					"t_array(t_uint256)dyn_storage": {
						"base": "t_uint256",
						"encoding": "dynamic_array",
						"label": "uint256[]",
						"numberOfBytes": "32"
					},
					"t_bool": {
						"encoding": "inplace",
						"label": "bool",
						"numberOfBytes": "1"
					},
					"t_mapping(t_address,t_array(t_uint256)dyn_storage)": {
						"encoding": "mapping",
						"key": "t_address",
						"label": "mapping(address => uint256[])",
						"numberOfBytes": "32",
						"value": "t_array(t_uint256)dyn_storage"
					},
					"t_mapping(t_uint256,t_struct(Location)25_storage)": {
						"encoding": "mapping",
						"key": "t_uint256",
						"label": "mapping(uint256 => struct LocationObjets.Location)",
						"numberOfBytes": "32",
						"value": "t_struct(Location)25_storage"
					},
					"t_mapping(t_uint256,t_struct(Objet)14_storage)": {
						"encoding": "mapping",
						"key": "t_uint256",
						"label": "mapping(uint256 => struct LocationObjets.Objet)",
						"numberOfBytes": "32",
						"value": "t_struct(Objet)14_storage"
					},
					"t_string_storage": {
						"encoding": "bytes",
						"label": "string",
						"numberOfBytes": "32"
					},
					"t_struct(Location)25_storage": {
						"encoding": "inplace",
						"label": "struct LocationObjets.Location",
						"members": [
							{
								"astId": 16,
								"contract": "helloworld.sol:LocationObjets",
								"label": "idObjet",
								"offset": 0,
								"slot": "0",
								"type": "t_uint256"
							},
							{
								"astId": 18,
								"contract": "helloworld.sol:LocationObjets",
								"label": "locataire",
								"offset": 0,
								"slot": "1",
								"type": "t_address"
							},
							{
								"astId": 20,
								"contract": "helloworld.sol:LocationObjets",
								"label": "dateDebut",
								"offset": 0,
								"slot": "2",
								"type": "t_uint256"
							},
							{
								"astId": 22,
								"contract": "helloworld.sol:LocationObjets",
								"label": "dateFin",
								"offset": 0,
								"slot": "3",
								"type": "t_uint256"
							},
							{
								"astId": 24,
								"contract": "helloworld.sol:LocationObjets",
								"label": "active",
								"offset": 0,
								"slot": "4",
								"type": "t_bool"
							}
						],
						"numberOfBytes": "160"
					},
					"t_struct(Objet)14_storage": {
						"encoding": "inplace",
						"label": "struct LocationObjets.Objet",
						"members": [
							{
								"astId": 3,
								"contract": "helloworld.sol:LocationObjets",
								"label": "id",
								"offset": 0,
								"slot": "0",
								"type": "t_uint256"
							},
							{
								"astId": 5,
								"contract": "helloworld.sol:LocationObjets",
								"label": "nom",
								"offset": 0,
								"slot": "1",
								"type": "t_string_storage"
							},
							{
								"astId": 7,
								"contract": "helloworld.sol:LocationObjets",
								"label": "description",
								"offset": 0,
								"slot": "2",
								"type": "t_string_storage"
							},
							{
								"astId": 9,
								"contract": "helloworld.sol:LocationObjets",
								"label": "tarifJournalier",
								"offset": 0,
								"slot": "3",
								"type": "t_uint256"
							},
							{
								"astId": 11,
								"contract": "helloworld.sol:LocationObjets",
								"label": "proprietaire",
								"offset": 0,
								"slot": "4",
								"type": "t_address_payable"
							},
							{
								"astId": 13,
								"contract": "helloworld.sol:LocationObjets",
								"label": "disponible",
								"offset": 20,
								"slot": "4",
								"type": "t_bool"
							}
						],
						"numberOfBytes": "160"
					},
					"t_uint256": {
						"encoding": "inplace",
						"label": "uint256",
						"numberOfBytes": "32"
					}
				}
			},
			"userdoc": {
				"kind": "user",
				"methods": {},
				"version": 1
			}
		}
	}
}