{
	"helloworld.sol": {
		"LocationObjets": {
			"abi": [
				{
					"inputs": [
						{
							"internalType": "address",
							"name": "tokenAddress",
							"type": "address"
						}
					],
					"stateMutability": "nonpayable",
					"type": "constructor"
				},
				{
					"inputs": [],
					"name": "AccessControlBadConfirmation",
					"type": "error"
				},
				{
					"inputs": [
						{
							"internalType": "address",
							"name": "account",
							"type": "address"
						},
						{
							"internalType": "bytes32",
							"name": "neededRole",
							"type": "bytes32"
						}
					],
					"name": "AccessControlUnauthorizedAccount",
					"type": "error"
				},
				{
					"anonymous": false,
					"inputs": [
						{
							"indexed": false,
							"internalType": "uint256",
							"name": "idObjet",
							"type": "uint256"
						},
						{
							"indexed": false,
							"internalType": "address",
							"name": "locataire",
							"type": "address"
						}
					],
					"name": "LocationTerminee",
					"type": "event"
				},
				{
					"anonymous": false,
					"inputs": [
						{
							"indexed": false,
							"internalType": "uint256",
							"name": "id",
							"type": "uint256"
						},
						{
							"indexed": false,
							"internalType": "string",
							"name": "nom",
							"type": "string"
						},
						{
							"indexed": false,
							"internalType": "address",
							"name": "proprietaire",
							"type": "address"
						}
					],
					"name": "ObjetAjoute",
					"type": "event"
				},
				{
					"anonymous": false,
					"inputs": [
						{
							"indexed": false,
							"internalType": "uint256",
							"name": "idObjet",
							"type": "uint256"
						},
						{
							"indexed": false,
							"internalType": "address",
							"name": "locataire",
							"type": "address"
						},
						{
							"indexed": false,
							"internalType": "uint256",
							"name": "dateFin",
							"type": "uint256"
						}
					],
					"name": "ObjetLoue",
					"type": "event"
				},
				{
					"anonymous": false,
					"inputs": [
						{
							"indexed": true,
							"internalType": "bytes32",
							"name": "role",
							"type": "bytes32"
						},
						{
							"indexed": true,
							"internalType": "bytes32",
							"name": "previousAdminRole",
							"type": "bytes32"
						},
						{
							"indexed": true,
							"internalType": "bytes32",
							"name": "newAdminRole",
							"type": "bytes32"
						}
					],
					"name": "RoleAdminChanged",
					"type": "event"
				},
				{
					"anonymous": false,
					"inputs": [
						{
							"indexed": true,
							"internalType": "bytes32",
							"name": "role",
							"type": "bytes32"
						},
						{
							"indexed": true,
							"internalType": "address",
							"name": "account",
							"type": "address"
						},
						{
							"indexed": true,
							"internalType": "address",
							"name": "sender",
							"type": "address"
						}
					],
					"name": "RoleGranted",
					"type": "event"
				},
				{
					"anonymous": false,
					"inputs": [
						{
							"indexed": true,
							"internalType": "bytes32",
							"name": "role",
							"type": "bytes32"
						},
						{
							"indexed": true,
							"internalType": "address",
							"name": "account",
							"type": "address"
						},
						{
							"indexed": true,
							"internalType": "address",
							"name": "sender",
							"type": "address"
						}
					],
					"name": "RoleRevoked",
					"type": "event"
				},
				{
					"inputs": [],
					"name": "ADMIN_ROLE",
					"outputs": [
						{
							"internalType": "bytes32",
							"name": "",
							"type": "bytes32"
						}
					],
					"stateMutability": "view",
					"type": "function"
				},
				{
					"inputs": [],
					"name": "DEFAULT_ADMIN_ROLE",
					"outputs": [
						{
							"internalType": "bytes32",
							"name": "",
							"type": "bytes32"
						}
					],
					"stateMutability": "view",
					"type": "function"
				},
				{
					"inputs": [
						{
							"internalType": "string",
							"name": "_nom",
							"type": "string"
						},
						{
							"internalType": "uint256",
							"name": "_tarifJournalier",
							"type": "uint256"
						}
					],
					"name": "ajouterObjet",
					"outputs": [],
					"stateMutability": "nonpayable",
					"type": "function"
				},
				{
					"inputs": [
						{
							"internalType": "bytes32",
							"name": "role",
							"type": "bytes32"
						}
					],
					"name": "getRoleAdmin",
					"outputs": [
						{
							"internalType": "bytes32",
							"name": "",
							"type": "bytes32"
						}
					],
					"stateMutability": "view",
					"type": "function"
				},
				{
					"inputs": [],
					"name": "getSimulatedTime",
					"outputs": [
						{
							"internalType": "uint256",
							"name": "",
							"type": "uint256"
						}
					],
					"stateMutability": "view",
					"type": "function"
				},
				{
					"inputs": [
						{
							"internalType": "bytes32",
							"name": "role",
							"type": "bytes32"
						},
						{
							"internalType": "address",
							"name": "account",
							"type": "address"
						}
					],
					"name": "grantRole",
					"outputs": [],
					"stateMutability": "nonpayable",
					"type": "function"
				},
				{
					"inputs": [
						{
							"internalType": "bytes32",
							"name": "role",
							"type": "bytes32"
						},
						{
							"internalType": "address",
							"name": "account",
							"type": "address"
						}
					],
					"name": "hasRole",
					"outputs": [
						{
							"internalType": "bool",
							"name": "",
							"type": "bool"
						}
					],
					"stateMutability": "view",
					"type": "function"
				},
				{
					"inputs": [
						{
							"internalType": "uint256",
							"name": "",
							"type": "uint256"
						}
					],
					"name": "locations",
					"outputs": [
						{
							"internalType": "uint256",
							"name": "idObjet",
							"type": "uint256"
						},
						{
							"internalType": "address",
							"name": "locataire",
							"type": "address"
						},
						{
							"internalType": "uint256",
							"name": "dateFin",
							"type": "uint256"
						}
					],
					"stateMutability": "view",
					"type": "function"
				},
				{
					"inputs": [
						{
							"internalType": "uint256",
							"name": "_idObjet",
							"type": "uint256"
						},
						{
							"internalType": "uint256",
							"name": "_jours",
							"type": "uint256"
						}
					],
					"name": "louerObjet",
					"outputs": [],
					"stateMutability": "nonpayable",
					"type": "function"
				},
				{
					"inputs": [
						{
							"internalType": "uint256",
							"name": "",
							"type": "uint256"
						}
					],
					"name": "objets",
					"outputs": [
						{
							"internalType": "uint256",
							"name": "id",
							"type": "uint256"
						},
						{
							"internalType": "string",
							"name": "nom",
							"type": "string"
						},
						{
							"internalType": "uint256",
							"name": "tarifJournalier",
							"type": "uint256"
						},
						{
							"internalType": "address payable",
							"name": "proprietaire",
							"type": "address"
						},
						{
							"internalType": "bool",
							"name": "disponible",
							"type": "bool"
						}
					],
					"stateMutability": "view",
					"type": "function"
				},
				{
					"inputs": [
						{
							"internalType": "uint256",
							"name": "_jours",
							"type": "uint256"
						}
					],
					"name": "passerLeTemps",
					"outputs": [],
					"stateMutability": "nonpayable",
					"type": "function"
				},
				{
					"inputs": [
						{
							"internalType": "bytes32",
							"name": "role",
							"type": "bytes32"
						},
						{
							"internalType": "address",
							"name": "callerConfirmation",
							"type": "address"
						}
					],
					"name": "renounceRole",
					"outputs": [],
					"stateMutability": "nonpayable",
					"type": "function"
				},
				{
					"inputs": [
						{
							"internalType": "address",
							"name": "to",
							"type": "address"
						},
						{
							"internalType": "uint256",
							"name": "amount",
							"type": "uint256"
						}
					],
					"name": "retirerTokens",
					"outputs": [],
					"stateMutability": "nonpayable",
					"type": "function"
				},
				{
					"inputs": [
						{
							"internalType": "bytes32",
							"name": "role",
							"type": "bytes32"
						},
						{
							"internalType": "address",
							"name": "account",
							"type": "address"
						}
					],
					"name": "revokeRole",
					"outputs": [],
					"stateMutability": "nonpayable",
					"type": "function"
				},
				{
					"inputs": [],
					"name": "simulatedTime",
					"outputs": [
						{
							"internalType": "uint256",
							"name": "",
							"type": "uint256"
						}
					],
					"stateMutability": "view",
					"type": "function"
				},
				{
					"inputs": [
						{
							"internalType": "bytes4",
							"name": "interfaceId",
							"type": "bytes4"
						}
					],
					"name": "supportsInterface",
					"outputs": [
						{
							"internalType": "bool",
							"name": "",
							"type": "bool"
						}
					],
					"stateMutability": "view",
					"type": "function"
				},
				{
					"inputs": [
						{
							"internalType": "uint256",
							"name": "_idObjet",
							"type": "uint256"
						}
					],
					"name": "terminerLocation",
					"outputs": [],
					"stateMutability": "nonpayable",
					"type": "function"
				}
			],
			"devdoc": {
				"errors": {
					"AccessControlBadConfirmation()": [
						{
							"details": "The caller of a function is not the expected one. NOTE: Don't confuse with {AccessControlUnauthorizedAccount}."
						}
					],
					"AccessControlUnauthorizedAccount(address,bytes32)": [
						{
							"details": "The `account` is missing a role."
						}
					]
				},
				"events": {
					"RoleAdminChanged(bytes32,bytes32,bytes32)": {
						"details": "Emitted when `newAdminRole` is set as ``role``'s admin role, replacing `previousAdminRole` `DEFAULT_ADMIN_ROLE` is the starting admin for all roles, despite {RoleAdminChanged} not being emitted signaling this."
					},
					"RoleGranted(bytes32,address,address)": {
						"details": "Emitted when `account` is granted `role`. `sender` is the account that originated the contract call. This account bears the admin role (for the granted role). Expected in cases where the role was granted using the internal {AccessControl-_grantRole}."
					},
					"RoleRevoked(bytes32,address,address)": {
						"details": "Emitted when `account` is revoked `role`. `sender` is the account that originated the contract call:   - if using `revokeRole`, it is the admin role bearer   - if using `renounceRole`, it is the role bearer (i.e. `account`)"
					}
				},
				"kind": "dev",
				"methods": {
					"getRoleAdmin(bytes32)": {
						"details": "Returns the admin role that controls `role`. See {grantRole} and {revokeRole}. To change a role's admin, use {_setRoleAdmin}."
					},
					"grantRole(bytes32,address)": {
						"details": "Grants `role` to `account`. If `account` had not been already granted `role`, emits a {RoleGranted} event. Requirements: - the caller must have ``role``'s admin role. May emit a {RoleGranted} event."
					},
					"hasRole(bytes32,address)": {
						"details": "Returns `true` if `account` has been granted `role`."
					},
					"renounceRole(bytes32,address)": {
						"details": "Revokes `role` from the calling account. Roles are often managed via {grantRole} and {revokeRole}: this function's purpose is to provide a mechanism for accounts to lose their privileges if they are compromised (such as when a trusted device is misplaced). If the calling account had been revoked `role`, emits a {RoleRevoked} event. Requirements: - the caller must be `callerConfirmation`. May emit a {RoleRevoked} event."
					},
					"revokeRole(bytes32,address)": {
						"details": "Revokes `role` from `account`. If `account` had been granted `role`, emits a {RoleRevoked} event. Requirements: - the caller must have ``role``'s admin role. May emit a {RoleRevoked} event."
					},
					"supportsInterface(bytes4)": {
						"details": "See {IERC165-supportsInterface}."
					}
				},
				"version": 1
			},
			"evm": {
				"assembly": "    /* \"helloworld.sol\":145:3188  contract LocationObjets is AccessControl {... */\n  mstore(0x40, 0x80)\n    /* \"helloworld.sol\":949:1155  constructor(address tokenAddress) {... */\n  callvalue\n  dup1\n  iszero\n  tag_1\n  jumpi\n  0x00\n  dup1\n  revert\ntag_1:\n  pop\n  mload(0x40)\n  sub(codesize, bytecodeSize)\n  dup1\n  bytecodeSize\n  dup4\n  codecopy\n  dup2\n  dup2\n  add\n  0x40\n  mstore\n  dup2\n  add\n  swap1\n  tag_2\n  swap2\n  swap1\n  tag_3\n  jump\t// in\ntag_2:\n    /* \"helloworld.sol\":993:1027  _grantRole(ADMIN_ROLE, msg.sender) */\n  tag_6\n    /* \"helloworld.sol\":229:252  keccak256(\"ADMIN_ROLE\") */\n  0xa49807205ce4d355092ef5a8a18f56e8913cf4a201fbe287825b095693c21775\n    /* \"helloworld.sol\":1016:1026  msg.sender */\n  caller\n    /* \"helloworld.sol\":993:1003  _grantRole */\n  shl(0x20, tag_7)\n    /* \"helloworld.sol\":993:1027  _grantRole(ADMIN_ROLE, msg.sender) */\n  0x20\n  shr\n  jump\t// in\ntag_6:\n  pop\n    /* \"helloworld.sol\":1055:1067  tokenAddress */\n  dup1\n    /* \"helloworld.sol\":1037:1042  token */\n  0x04\n  0x00\n    /* \"helloworld.sol\":1037:1068  token = SNFTToken(tokenAddress) */\n  0x0100\n  exp\n  dup2\n  sload\n  dup2\n  0xffffffffffffffffffffffffffffffffffffffff\n  mul\n  not\n  and\n  swap1\n  dup4\n  0xffffffffffffffffffffffffffffffffffffffff\n  and\n  mul\n  or\n  swap1\n  sstore\n  pop\n    /* \"helloworld.sol\":1094:1109  block.timestamp */\n  timestamp\n    /* \"helloworld.sol\":1078:1091  simulatedTime */\n  0x05\n    /* \"helloworld.sol\":1078:1109  simulatedTime = block.timestamp */\n  dup2\n  swap1\n  sstore\n  pop\n    /* \"helloworld.sol\":949:1155  constructor(address tokenAddress) {... */\n  pop\n    /* \"helloworld.sol\":145:3188  contract LocationObjets is AccessControl {... */\n  jump(tag_8)\n    /* \"@openzeppelin/contracts/access/AccessControl.sol\":6179:6495  function _grantRole(bytes32 role, address account) internal virtual returns (bool) {... */\ntag_7:\n    /* \"@openzeppelin/contracts/access/AccessControl.sol\":6256:6260  bool */\n  0x00\n    /* \"@openzeppelin/contracts/access/AccessControl.sol\":6277:6299  hasRole(role, account) */\n  tag_10\n    /* \"@openzeppelin/contracts/access/AccessControl.sol\":6285:6289  role */\n  dup4\n    /* \"@openzeppelin/contracts/access/AccessControl.sol\":6291:6298  account */\n  dup4\n    /* \"@openzeppelin/contracts/access/AccessControl.sol\":6277:6284  hasRole */\n  shl(0x20, tag_11)\n    /* \"@openzeppelin/contracts/access/AccessControl.sol\":6277:6299  hasRole(role, account) */\n  0x20\n  shr\n  jump\t// in\ntag_10:\n    /* \"@openzeppelin/contracts/access/AccessControl.sol\":6272:6489  if (!hasRole(role, account)) {... */\n  tag_12\n  jumpi\n    /* \"@openzeppelin/contracts/access/AccessControl.sol\":6347:6351  true */\n  0x01\n    /* \"@openzeppelin/contracts/access/AccessControl.sol\":6315:6321  _roles */\n  0x00\n    /* \"@openzeppelin/contracts/access/AccessControl.sol\":6315:6327  _roles[role] */\n  dup1\n    /* \"@openzeppelin/contracts/access/AccessControl.sol\":6322:6326  role */\n  dup6\n    /* \"@openzeppelin/contracts/access/AccessControl.sol\":6315:6327  _roles[role] */\n  dup2\n  mstore\n  0x20\n  add\n  swap1\n  dup2\n  mstore\n  0x20\n  add\n  0x00\n  keccak256\n    /* \"@openzeppelin/contracts/access/AccessControl.sol\":6315:6335  _roles[role].hasRole */\n  0x00\n  add\n    /* \"@openzeppelin/contracts/access/AccessControl.sol\":6315:6344  _roles[role].hasRole[account] */\n  0x00\n    /* \"@openzeppelin/contracts/access/AccessControl.sol\":6336:6343  account */\n  dup5\n    /* \"@openzeppelin/contracts/access/AccessControl.sol\":6315:6344  _roles[role].hasRole[account] */\n  0xffffffffffffffffffffffffffffffffffffffff\n  and\n  0xffffffffffffffffffffffffffffffffffffffff\n  and\n  dup2\n  mstore\n  0x20\n  add\n  swap1\n  dup2\n  mstore\n  0x20\n  add\n  0x00\n  keccak256\n  0x00\n    /* \"@openzeppelin/contracts/access/AccessControl.sol\":6315:6351  _roles[role].hasRole[account] = true */\n  0x0100\n  exp\n  dup2\n  sload\n  dup2\n  0xff\n  mul\n  not\n  and\n  swap1\n  dup4\n  iszero\n  iszero\n  mul\n  or\n  swap1\n  sstore\n  pop\n    /* \"@openzeppelin/contracts/access/AccessControl.sol\":6397:6409  _msgSender() */\n  tag_13\n    /* \"@openzeppelin/contracts/access/AccessControl.sol\":6397:6407  _msgSender */\n  shl(0x20, tag_14)\n    /* \"@openzeppelin/contracts/access/AccessControl.sol\":6397:6409  _msgSender() */\n  0x20\n  shr\n  jump\t// in\ntag_13:\n    /* \"@openzeppelin/contracts/access/AccessControl.sol\":6370:6410  RoleGranted(role, account, _msgSender()) */\n  0xffffffffffffffffffffffffffffffffffffffff\n  and\n    /* \"@openzeppelin/contracts/access/AccessControl.sol\":6388:6395  account */\n  dup3\n    /* \"@openzeppelin/contracts/access/AccessControl.sol\":6370:6410  RoleGranted(role, account, _msgSender()) */\n  0xffffffffffffffffffffffffffffffffffffffff\n  and\n    /* \"@openzeppelin/contracts/access/AccessControl.sol\":6382:6386  role */\n  dup5\n    /* \"@openzeppelin/contracts/access/AccessControl.sol\":6370:6410  RoleGranted(role, account, _msgSender()) */\n  0x2f8788117e7eff1d82e926ec794901d17c78024a50270940304540a733656f0d\n  mload(0x40)\n  mload(0x40)\n  dup1\n  swap2\n  sub\n  swap1\n  log4\n    /* \"@openzeppelin/contracts/access/AccessControl.sol\":6431:6435  true */\n  0x01\n    /* \"@openzeppelin/contracts/access/AccessControl.sol\":6424:6435  return true */\n  swap1\n  pop\n  jump(tag_9)\n    /* \"@openzeppelin/contracts/access/AccessControl.sol\":6272:6489  if (!hasRole(role, account)) {... */\ntag_12:\n    /* \"@openzeppelin/contracts/access/AccessControl.sol\":6473:6478  false */\n  0x00\n    /* \"@openzeppelin/contracts/access/AccessControl.sol\":6466:6478  return false */\n  swap1\n  pop\n    /* \"@openzeppelin/contracts/access/AccessControl.sol\":6179:6495  function _grantRole(bytes32 role, address account) internal virtual returns (bool) {... */\ntag_9:\n  swap3\n  swap2\n  pop\n  pop\n  jump\t// out\n    /* \"@openzeppelin/contracts/access/AccessControl.sol\":2854:2990  function hasRole(bytes32 role, address account) public view virtual returns (bool) {... */\ntag_11:\n    /* \"@openzeppelin/contracts/access/AccessControl.sol\":2931:2935  bool */\n  0x00\n    /* \"@openzeppelin/contracts/access/AccessControl.sol\":2954:2960  _roles */\n  dup1\n    /* \"@openzeppelin/contracts/access/AccessControl.sol\":2954:2966  _roles[role] */\n  0x00\n    /* \"@openzeppelin/contracts/access/AccessControl.sol\":2961:2965  role */\n  dup5\n    /* \"@openzeppelin/contracts/access/AccessControl.sol\":2954:2966  _roles[role] */\n  dup2\n  mstore\n  0x20\n  add\n  swap1\n  dup2\n  mstore\n  0x20\n  add\n  0x00\n  keccak256\n    /* \"@openzeppelin/contracts/access/AccessControl.sol\":2954:2974  _roles[role].hasRole */\n  0x00\n  add\n    /* \"@openzeppelin/contracts/access/AccessControl.sol\":2954:2983  _roles[role].hasRole[account] */\n  0x00\n    /* \"@openzeppelin/contracts/access/AccessControl.sol\":2975:2982  account */\n  dup4\n    /* \"@openzeppelin/contracts/access/AccessControl.sol\":2954:2983  _roles[role].hasRole[account] */\n  0xffffffffffffffffffffffffffffffffffffffff\n  and\n  0xffffffffffffffffffffffffffffffffffffffff\n  and\n  dup2\n  mstore\n  0x20\n  add\n  swap1\n  dup2\n  mstore\n  0x20\n  add\n  0x00\n  keccak256\n  0x00\n  swap1\n  sload\n  swap1\n  0x0100\n  exp\n  swap1\n  div\n  0xff\n  and\n    /* \"@openzeppelin/contracts/access/AccessControl.sol\":2947:2983  return _roles[role].hasRole[account] */\n  swap1\n  pop\n    /* \"@openzeppelin/contracts/access/AccessControl.sol\":2854:2990  function hasRole(bytes32 role, address account) public view virtual returns (bool) {... */\n  swap3\n  swap2\n  pop\n  pop\n  jump\t// out\n    /* \"@openzeppelin/contracts/utils/Context.sol\":656:752  function _msgSender() internal view virtual returns (address) {... */\ntag_14:\n    /* \"@openzeppelin/contracts/utils/Context.sol\":709:716  address */\n  0x00\n    /* \"@openzeppelin/contracts/utils/Context.sol\":735:745  msg.sender */\n  caller\n    /* \"@openzeppelin/contracts/utils/Context.sol\":728:745  return msg.sender */\n  swap1\n  pop\n    /* \"@openzeppelin/contracts/utils/Context.sol\":656:752  function _msgSender() internal view virtual returns (address) {... */\n  swap1\n  jump\t// out\n    /* \"#utility.yul\":88:205   */\ntag_19:\n    /* \"#utility.yul\":197:198   */\n  0x00\n    /* \"#utility.yul\":194:195   */\n  dup1\n    /* \"#utility.yul\":187:199   */\n  revert\n    /* \"#utility.yul\":334:460   */\ntag_21:\n    /* \"#utility.yul\":371:378   */\n  0x00\n    /* \"#utility.yul\":411:453   */\n  0xffffffffffffffffffffffffffffffffffffffff\n    /* \"#utility.yul\":404:409   */\n  dup3\n    /* \"#utility.yul\":400:454   */\n  and\n    /* \"#utility.yul\":389:454   */\n  swap1\n  pop\n    /* \"#utility.yul\":334:460   */\n  swap2\n  swap1\n  pop\n  jump\t// out\n    /* \"#utility.yul\":466:562   */\ntag_22:\n    /* \"#utility.yul\":503:510   */\n  0x00\n    /* \"#utility.yul\":532:556   */\n  tag_31\n    /* \"#utility.yul\":550:555   */\n  dup3\n    /* \"#utility.yul\":532:556   */\n  tag_21\n  jump\t// in\ntag_31:\n    /* \"#utility.yul\":521:556   */\n  swap1\n  pop\n    /* \"#utility.yul\":466:562   */\n  swap2\n  swap1\n  pop\n  jump\t// out\n    /* \"#utility.yul\":568:690   */\ntag_23:\n    /* \"#utility.yul\":641:665   */\n  tag_33\n    /* \"#utility.yul\":659:664   */\n  dup2\n    /* \"#utility.yul\":641:665   */\n  tag_22\n  jump\t// in\ntag_33:\n    /* \"#utility.yul\":634:639   */\n  dup2\n    /* \"#utility.yul\":631:666   */\n  eq\n    /* \"#utility.yul\":621:684   */\n  tag_34\n  jumpi\n    /* \"#utility.yul\":680:681   */\n  0x00\n    /* \"#utility.yul\":677:678   */\n  dup1\n    /* \"#utility.yul\":670:682   */\n  revert\n    /* \"#utility.yul\":621:684   */\ntag_34:\n    /* \"#utility.yul\":568:690   */\n  pop\n  jump\t// out\n    /* \"#utility.yul\":696:839   */\ntag_24:\n    /* \"#utility.yul\":753:758   */\n  0x00\n    /* \"#utility.yul\":784:790   */\n  dup2\n    /* \"#utility.yul\":778:791   */\n  mload\n    /* \"#utility.yul\":769:791   */\n  swap1\n  pop\n    /* \"#utility.yul\":800:833   */\n  tag_36\n    /* \"#utility.yul\":827:832   */\n  dup2\n    /* \"#utility.yul\":800:833   */\n  tag_23\n  jump\t// in\ntag_36:\n    /* \"#utility.yul\":696:839   */\n  swap3\n  swap2\n  pop\n  pop\n  jump\t// out\n    /* \"#utility.yul\":845:1196   */\ntag_3:\n    /* \"#utility.yul\":915:921   */\n  0x00\n    /* \"#utility.yul\":964:966   */\n  0x20\n    /* \"#utility.yul\":952:961   */\n  dup3\n    /* \"#utility.yul\":943:950   */\n  dup5\n    /* \"#utility.yul\":939:962   */\n  sub\n    /* \"#utility.yul\":935:967   */\n  slt\n    /* \"#utility.yul\":932:1051   */\n  iszero\n  tag_38\n  jumpi\n    /* \"#utility.yul\":970:1049   */\n  tag_39\n  tag_19\n  jump\t// in\ntag_39:\n    /* \"#utility.yul\":932:1051   */\ntag_38:\n    /* \"#utility.yul\":1090:1091   */\n  0x00\n    /* \"#utility.yul\":1115:1179   */\n  tag_40\n    /* \"#utility.yul\":1171:1178   */\n  dup5\n    /* \"#utility.yul\":1162:1168   */\n  dup3\n    /* \"#utility.yul\":1151:1160   */\n  dup6\n    /* \"#utility.yul\":1147:1169   */\n  add\n    /* \"#utility.yul\":1115:1179   */\n  tag_24\n  jump\t// in\ntag_40:\n    /* \"#utility.yul\":1105:1179   */\n  swap2\n  pop\n    /* \"#utility.yul\":1061:1189   */\n  pop\n    /* \"#utility.yul\":845:1196   */\n  swap3\n  swap2\n  pop\n  pop\n  jump\t// out\n    /* \"helloworld.sol\":145:3188  contract LocationObjets is AccessControl {... */\ntag_8:\n  dataSize(sub_0)\n  dup1\n  dataOffset(sub_0)\n  0x00\n  codecopy\n  0x00\n  return\nstop\n\nsub_0: assembly {\n        /* \"helloworld.sol\":145:3188  contract LocationObjets is AccessControl {... */\n      mstore(0x40, 0x80)\n      callvalue\n      dup1\n      iszero\n      tag_1\n      jumpi\n      0x00\n      dup1\n      revert\n    tag_1:\n      pop\n      jumpi(tag_2, lt(calldatasize, 0x04))\n      shr(0xe0, calldataload(0x00))\n      dup1\n      0x75b238fc\n      gt\n      tag_20\n      jumpi\n      dup1\n      0xb8586e2e\n      gt\n      tag_21\n      jumpi\n      dup1\n      0xb8586e2e\n      eq\n      tag_15\n      jumpi\n      dup1\n      0xb9e0db35\n      eq\n      tag_16\n      jumpi\n      dup1\n      0xd547741f\n      eq\n      tag_17\n      jumpi\n      dup1\n      0xd8ae6d7b\n      eq\n      tag_18\n      jumpi\n      dup1\n      0xdfa212f6\n      eq\n      tag_19\n      jumpi\n      jump(tag_2)\n    tag_21:\n      dup1\n      0x75b238fc\n      eq\n      tag_11\n      jumpi\n      dup1\n      0x91d14854\n      eq\n      tag_12\n      jumpi\n      dup1\n      0xa217fddf\n      eq\n      tag_13\n      jumpi\n      dup1\n      0xb4385ad0\n      eq\n      tag_14\n      jumpi\n      jump(tag_2)\n    tag_20:\n      dup1\n      0x36568abe\n      gt\n      tag_22\n      jumpi\n      dup1\n      0x36568abe\n      eq\n      tag_7\n      jumpi\n      dup1\n      0x3b9fcca4\n      eq\n      tag_8\n      jumpi\n      dup1\n      0x73360948\n      eq\n      tag_9\n      jumpi\n      dup1\n      0x733da1d5\n      eq\n      tag_10\n      jumpi\n      jump(tag_2)\n    tag_22:\n      dup1\n      0x01ffc9a7\n      eq\n      tag_3\n      jumpi\n      dup1\n      0x0251b673\n      eq\n      tag_4\n      jumpi\n      dup1\n      0x248a9ca3\n      eq\n      tag_5\n      jumpi\n      dup1\n      0x2f2ff15d\n      eq\n      tag_6\n      jumpi\n    tag_2:\n      0x00\n      dup1\n      revert\n        /* \"@openzeppelin/contracts/access/AccessControl.sol\":2565:2767  function supportsInterface(bytes4 interfaceId) public view virtual override returns (bool) {... */\n    tag_3:\n      tag_23\n      0x04\n      dup1\n      calldatasize\n      sub\n      dup2\n      add\n      swap1\n      tag_24\n      swap2\n      swap1\n      tag_25\n      jump\t// in\n    tag_24:\n      tag_26\n      jump\t// in\n    tag_23:\n      mload(0x40)\n      tag_27\n      swap2\n      swap1\n      tag_28\n      jump\t// in\n    tag_27:\n      mload(0x40)\n      dup1\n      swap2\n      sub\n      swap1\n      return\n        /* \"helloworld.sol\":1161:1519  function ajouterObjet(string memory _nom, uint _tarifJournalier) public {... */\n    tag_4:\n      tag_29\n      0x04\n      dup1\n      calldatasize\n      sub\n      dup2\n      add\n      swap1\n      tag_30\n      swap2\n      swap1\n      tag_31\n      jump\t// in\n    tag_30:\n      tag_32\n      jump\t// in\n    tag_29:\n      stop\n        /* \"@openzeppelin/contracts/access/AccessControl.sol\":3810:3930  function getRoleAdmin(bytes32 role) public view virtual returns (bytes32) {... */\n    tag_5:\n      tag_33\n      0x04\n      dup1\n      calldatasize\n      sub\n      dup2\n      add\n      swap1\n      tag_34\n      swap2\n      swap1\n      tag_35\n      jump\t// in\n    tag_34:\n      tag_36\n      jump\t// in\n    tag_33:\n      mload(0x40)\n      tag_37\n      swap2\n      swap1\n      tag_38\n      jump\t// in\n    tag_37:\n      mload(0x40)\n      dup1\n      swap2\n      sub\n      swap1\n      return\n        /* \"@openzeppelin/contracts/access/AccessControl.sol\":4226:4362  function grantRole(bytes32 role, address account) public virtual onlyRole(getRoleAdmin(role)) {... */\n    tag_6:\n      tag_39\n      0x04\n      dup1\n      calldatasize\n      sub\n      dup2\n      add\n      swap1\n      tag_40\n      swap2\n      swap1\n      tag_41\n      jump\t// in\n    tag_40:\n      tag_42\n      jump\t// in\n    tag_39:\n      stop\n        /* \"@openzeppelin/contracts/access/AccessControl.sol\":5328:5573  function renounceRole(bytes32 role, address callerConfirmation) public virtual {... */\n    tag_7:\n      tag_43\n      0x04\n      dup1\n      calldatasize\n      sub\n      dup2\n      add\n      swap1\n      tag_44\n      swap2\n      swap1\n      tag_41\n      jump\t// in\n    tag_44:\n      tag_45\n      jump\t// in\n    tag_43:\n      stop\n        /* \"helloworld.sol\":3094:3186  function getSimulatedTime() public view returns (uint) {... */\n    tag_8:\n      tag_46\n      tag_47\n      jump\t// in\n    tag_46:\n      mload(0x40)\n      tag_48\n      swap2\n      swap1\n      tag_49\n      jump\t// in\n    tag_48:\n      mload(0x40)\n      dup1\n      swap2\n      sub\n      swap1\n      return\n        /* \"helloworld.sol\":2681:2897  function retirerTokens(address to, uint amount) public onlyRole(ADMIN_ROLE) {... */\n    tag_9:\n      tag_50\n      0x04\n      dup1\n      calldatasize\n      sub\n      dup2\n      add\n      swap1\n      tag_51\n      swap2\n      swap1\n      tag_52\n      jump\t// in\n    tag_51:\n      tag_53\n      jump\t// in\n    tag_50:\n      stop\n        /* \"helloworld.sol\":580:616  mapping(uint => Objet) public objets */\n    tag_10:\n      tag_54\n      0x04\n      dup1\n      calldatasize\n      sub\n      dup2\n      add\n      swap1\n      tag_55\n      swap2\n      swap1\n      tag_56\n      jump\t// in\n    tag_55:\n      tag_57\n      jump\t// in\n    tag_54:\n      mload(0x40)\n      tag_58\n      swap6\n      swap5\n      swap4\n      swap3\n      swap2\n      swap1\n      tag_59\n      jump\t// in\n    tag_58:\n      mload(0x40)\n      dup1\n      swap2\n      sub\n      swap1\n      return\n        /* \"helloworld.sol\":192:252  bytes32 public constant ADMIN_ROLE = keccak256(\"ADMIN_ROLE\") */\n    tag_11:\n      tag_60\n      tag_61\n      jump\t// in\n    tag_60:\n      mload(0x40)\n      tag_62\n      swap2\n      swap1\n      tag_38\n      jump\t// in\n    tag_62:\n      mload(0x40)\n      dup1\n      swap2\n      sub\n      swap1\n      return\n        /* \"@openzeppelin/contracts/access/AccessControl.sol\":2854:2990  function hasRole(bytes32 role, address account) public view virtual returns (bool) {... */\n    tag_12:\n      tag_63\n      0x04\n      dup1\n      calldatasize\n      sub\n      dup2\n      add\n      swap1\n      tag_64\n      swap2\n      swap1\n      tag_41\n      jump\t// in\n    tag_64:\n      tag_65\n      jump\t// in\n    tag_63:\n      mload(0x40)\n      tag_66\n      swap2\n      swap1\n      tag_28\n      jump\t// in\n    tag_66:\n      mload(0x40)\n      dup1\n      swap2\n      sub\n      swap1\n      return\n        /* \"@openzeppelin/contracts/access/AccessControl.sol\":2187:2236  bytes32 public constant DEFAULT_ADMIN_ROLE = 0x00 */\n    tag_13:\n      tag_67\n      tag_68\n      jump\t// in\n    tag_67:\n      mload(0x40)\n      tag_69\n      swap2\n      swap1\n      tag_38\n      jump\t// in\n    tag_69:\n      mload(0x40)\n      dup1\n      swap2\n      sub\n      swap1\n      return\n        /* \"helloworld.sol\":2175:2676  function terminerLocation(uint _idObjet) public {... */\n    tag_14:\n      tag_70\n      0x04\n      dup1\n      calldatasize\n      sub\n      dup2\n      add\n      swap1\n      tag_71\n      swap2\n      swap1\n      tag_56\n      jump\t// in\n    tag_71:\n      tag_72\n      jump\t// in\n    tag_70:\n      stop\n        /* \"helloworld.sol\":1525:2169  function louerObjet(uint _idObjet, uint _jours) public {... */\n    tag_15:\n      tag_73\n      0x04\n      dup1\n      calldatasize\n      sub\n      dup2\n      add\n      swap1\n      tag_74\n      swap2\n      swap1\n      tag_75\n      jump\t// in\n    tag_74:\n      tag_76\n      jump\t// in\n    tag_73:\n      stop\n        /* \"helloworld.sol\":622:664  mapping(uint => Location) public locations */\n    tag_16:\n      tag_77\n      0x04\n      dup1\n      calldatasize\n      sub\n      dup2\n      add\n      swap1\n      tag_78\n      swap2\n      swap1\n      tag_56\n      jump\t// in\n    tag_78:\n      tag_79\n      jump\t// in\n    tag_77:\n      mload(0x40)\n      tag_80\n      swap4\n      swap3\n      swap2\n      swap1\n      tag_81\n      jump\t// in\n    tag_80:\n      mload(0x40)\n      dup1\n      swap2\n      sub\n      swap1\n      return\n        /* \"@openzeppelin/contracts/access/AccessControl.sol\":4642:4780  function revokeRole(bytes32 role, address account) public virtual onlyRole(getRoleAdmin(role)) {... */\n    tag_17:\n      tag_82\n      0x04\n      dup1\n      calldatasize\n      sub\n      dup2\n      add\n      swap1\n      tag_83\n      swap2\n      swap1\n      tag_41\n      jump\t// in\n    tag_83:\n      tag_84\n      jump\t// in\n    tag_82:\n      stop\n        /* \"helloworld.sol\":2903:3088  function passerLeTemps(uint _jours) public onlyRole(ADMIN_ROLE) {... */\n    tag_18:\n      tag_85\n      0x04\n      dup1\n      calldatasize\n      sub\n      dup2\n      add\n      swap1\n      tag_86\n      swap2\n      swap1\n      tag_56\n      jump\t// in\n    tag_86:\n      tag_87\n      jump\t// in\n    tag_85:\n      stop\n        /* \"helloworld.sol\":701:726  uint public simulatedTime */\n    tag_19:\n      tag_88\n      tag_89\n      jump\t// in\n    tag_88:\n      mload(0x40)\n      tag_90\n      swap2\n      swap1\n      tag_49\n      jump\t// in\n    tag_90:\n      mload(0x40)\n      dup1\n      swap2\n      sub\n      swap1\n      return\n        /* \"@openzeppelin/contracts/access/AccessControl.sol\":2565:2767  function supportsInterface(bytes4 interfaceId) public view virtual override returns (bool) {... */\n    tag_26:\n        /* \"@openzeppelin/contracts/access/AccessControl.sol\":2650:2654  bool */\n      0x00\n        /* \"@openzeppelin/contracts/access/AccessControl.sol\":2688:2720  type(IAccessControl).interfaceId */\n      0x7965db0b00000000000000000000000000000000000000000000000000000000\n        /* \"@openzeppelin/contracts/access/AccessControl.sol\":2673:2720  interfaceId == type(IAccessControl).interfaceId */\n      not(0xffffffffffffffffffffffffffffffffffffffffffffffffffffffff)\n      and\n        /* \"@openzeppelin/contracts/access/AccessControl.sol\":2673:2684  interfaceId */\n      dup3\n        /* \"@openzeppelin/contracts/access/AccessControl.sol\":2673:2720  interfaceId == type(IAccessControl).interfaceId */\n      not(0xffffffffffffffffffffffffffffffffffffffffffffffffffffffff)\n      and\n      eq\n        /* \"@openzeppelin/contracts/access/AccessControl.sol\":2673:2760  interfaceId == type(IAccessControl).interfaceId || super.supportsInterface(interfaceId) */\n      dup1\n      tag_92\n      jumpi\n      pop\n        /* \"@openzeppelin/contracts/access/AccessControl.sol\":2724:2760  super.supportsInterface(interfaceId) */\n      tag_93\n        /* \"@openzeppelin/contracts/access/AccessControl.sol\":2748:2759  interfaceId */\n      dup3\n        /* \"@openzeppelin/contracts/access/AccessControl.sol\":2724:2747  super.supportsInterface */\n      tag_94\n        /* \"@openzeppelin/contracts/access/AccessControl.sol\":2724:2760  super.supportsInterface(interfaceId) */\n      jump\t// in\n    tag_93:\n        /* \"@openzeppelin/contracts/access/AccessControl.sol\":2673:2760  interfaceId == type(IAccessControl).interfaceId || super.supportsInterface(interfaceId) */\n    tag_92:\n        /* \"@openzeppelin/contracts/access/AccessControl.sol\":2666:2760  return interfaceId == type(IAccessControl).interfaceId || super.supportsInterface(interfaceId) */\n      swap1\n      pop\n        /* \"@openzeppelin/contracts/access/AccessControl.sol\":2565:2767  function supportsInterface(bytes4 interfaceId) public view virtual override returns (bool) {... */\n      swap2\n      swap1\n      pop\n      jump\t// out\n        /* \"helloworld.sol\":1161:1519  function ajouterObjet(string memory _nom, uint _tarifJournalier) public {... */\n    tag_32:\n        /* \"helloworld.sol\":1270:1271  0 */\n      0x00\n        /* \"helloworld.sol\":1251:1267  _tarifJournalier */\n      dup2\n        /* \"helloworld.sol\":1251:1271  _tarifJournalier > 0 */\n      gt\n        /* \"helloworld.sol\":1243:1319  require(_tarifJournalier > 0, \"Le tarif journalier doit etre superieur a 0\") */\n      tag_96\n      jumpi\n      mload(0x40)\n      0x08c379a000000000000000000000000000000000000000000000000000000000\n      dup2\n      mstore\n      0x04\n      add\n      tag_97\n      swap1\n      tag_98\n      jump\t// in\n    tag_97:\n      mload(0x40)\n      dup1\n      swap2\n      sub\n      swap1\n      revert\n    tag_96:\n        /* \"helloworld.sol\":1329:1343  compteurObjets */\n      0x01\n      0x00\n        /* \"helloworld.sol\":1329:1345  compteurObjets++ */\n      dup2\n      sload\n      dup1\n      swap3\n      swap2\n      swap1\n      tag_99\n      swap1\n      tag_100\n      jump\t// in\n    tag_99:\n      swap2\n      swap1\n      pop\n      sstore\n      pop\n        /* \"helloworld.sol\":1380:1452  Objet(compteurObjets, _nom, _tarifJournalier, payable(msg.sender), true) */\n      mload(0x40)\n      dup1\n      0xa0\n      add\n      0x40\n      mstore\n      dup1\n        /* \"helloworld.sol\":1386:1400  compteurObjets */\n      sload(0x01)\n        /* \"helloworld.sol\":1380:1452  Objet(compteurObjets, _nom, _tarifJournalier, payable(msg.sender), true) */\n      dup2\n      mstore\n      0x20\n      add\n        /* \"helloworld.sol\":1402:1406  _nom */\n      dup4\n        /* \"helloworld.sol\":1380:1452  Objet(compteurObjets, _nom, _tarifJournalier, payable(msg.sender), true) */\n      dup2\n      mstore\n      0x20\n      add\n        /* \"helloworld.sol\":1408:1424  _tarifJournalier */\n      dup3\n        /* \"helloworld.sol\":1380:1452  Objet(compteurObjets, _nom, _tarifJournalier, payable(msg.sender), true) */\n      dup2\n      mstore\n      0x20\n      add\n        /* \"helloworld.sol\":1434:1444  msg.sender */\n      caller\n        /* \"helloworld.sol\":1380:1452  Objet(compteurObjets, _nom, _tarifJournalier, payable(msg.sender), true) */\n      0xffffffffffffffffffffffffffffffffffffffff\n      and\n      dup2\n      mstore\n      0x20\n      add\n        /* \"helloworld.sol\":1447:1451  true */\n      0x01\n        /* \"helloworld.sol\":1380:1452  Objet(compteurObjets, _nom, _tarifJournalier, payable(msg.sender), true) */\n      iszero\n      iszero\n      dup2\n      mstore\n      pop\n        /* \"helloworld.sol\":1355:1361  objets */\n      0x02\n        /* \"helloworld.sol\":1355:1377  objets[compteurObjets] */\n      0x00\n        /* \"helloworld.sol\":1362:1376  compteurObjets */\n      sload(0x01)\n        /* \"helloworld.sol\":1355:1377  objets[compteurObjets] */\n      dup2\n      mstore\n      0x20\n      add\n      swap1\n      dup2\n      mstore\n      0x20\n      add\n      0x00\n      keccak256\n        /* \"helloworld.sol\":1355:1452  objets[compteurObjets] = Objet(compteurObjets, _nom, _tarifJournalier, payable(msg.sender), true) */\n      0x00\n      dup3\n      add\n      mload\n      dup2\n      0x00\n      add\n      sstore\n      0x20\n      dup3\n      add\n      mload\n      dup2\n      0x01\n      add\n      swap1\n      dup2\n      tag_101\n      swap2\n      swap1\n      tag_102\n      jump\t// in\n    tag_101:\n      pop\n      0x40\n      dup3\n      add\n      mload\n      dup2\n      0x02\n      add\n      sstore\n      0x60\n      dup3\n      add\n      mload\n      dup2\n      0x03\n      add\n      exp(0x0100, 0x00)\n      dup2\n      sload\n      dup2\n      0xffffffffffffffffffffffffffffffffffffffff\n      mul\n      not\n      and\n      swap1\n      dup4\n      0xffffffffffffffffffffffffffffffffffffffff\n      and\n      mul\n      or\n      swap1\n      sstore\n      pop\n      0x80\n      dup3\n      add\n      mload\n      dup2\n      0x03\n      add\n      exp(0x0100, 0x14)\n      dup2\n      sload\n      dup2\n      0xff\n      mul\n      not\n      and\n      swap1\n      dup4\n      iszero\n      iszero\n      mul\n      or\n      swap1\n      sstore\n      pop\n      swap1\n      pop\n      pop\n        /* \"helloworld.sol\":1467:1512  ObjetAjoute(compteurObjets, _nom, msg.sender) */\n      0xfec6ce5e9a41de4f57d1fe9377d0c1c573a9793481f6e561a2f6b121e3601376\n        /* \"helloworld.sol\":1479:1493  compteurObjets */\n      sload(0x01)\n        /* \"helloworld.sol\":1495:1499  _nom */\n      dup4\n        /* \"helloworld.sol\":1501:1511  msg.sender */\n      caller\n        /* \"helloworld.sol\":1467:1512  ObjetAjoute(compteurObjets, _nom, msg.sender) */\n      mload(0x40)\n      tag_103\n      swap4\n      swap3\n      swap2\n      swap1\n      tag_104\n      jump\t// in\n    tag_103:\n      mload(0x40)\n      dup1\n      swap2\n      sub\n      swap1\n      log1\n        /* \"helloworld.sol\":1161:1519  function ajouterObjet(string memory _nom, uint _tarifJournalier) public {... */\n      pop\n      pop\n      jump\t// out\n        /* \"@openzeppelin/contracts/access/AccessControl.sol\":3810:3930  function getRoleAdmin(bytes32 role) public view virtual returns (bytes32) {... */\n    tag_36:\n        /* \"@openzeppelin/contracts/access/AccessControl.sol\":3875:3882  bytes32 */\n      0x00\n        /* \"@openzeppelin/contracts/access/AccessControl.sol\":3901:3907  _roles */\n      dup1\n        /* \"@openzeppelin/contracts/access/AccessControl.sol\":3901:3913  _roles[role] */\n      0x00\n        /* \"@openzeppelin/contracts/access/AccessControl.sol\":3908:3912  role */\n      dup4\n        /* \"@openzeppelin/contracts/access/AccessControl.sol\":3901:3913  _roles[role] */\n      dup2\n      mstore\n      0x20\n      add\n      swap1\n      dup2\n      mstore\n      0x20\n      add\n      0x00\n      keccak256\n        /* \"@openzeppelin/contracts/access/AccessControl.sol\":3901:3923  _roles[role].adminRole */\n      0x01\n      add\n      sload\n        /* \"@openzeppelin/contracts/access/AccessControl.sol\":3894:3923  return _roles[role].adminRole */\n      swap1\n      pop\n        /* \"@openzeppelin/contracts/access/AccessControl.sol\":3810:3930  function getRoleAdmin(bytes32 role) public view virtual returns (bytes32) {... */\n      swap2\n      swap1\n      pop\n      jump\t// out\n        /* \"@openzeppelin/contracts/access/AccessControl.sol\":4226:4362  function grantRole(bytes32 role, address account) public virtual onlyRole(getRoleAdmin(role)) {... */\n    tag_42:\n        /* \"@openzeppelin/contracts/access/AccessControl.sol\":4300:4318  getRoleAdmin(role) */\n      tag_106\n        /* \"@openzeppelin/contracts/access/AccessControl.sol\":4313:4317  role */\n      dup3\n        /* \"@openzeppelin/contracts/access/AccessControl.sol\":4300:4312  getRoleAdmin */\n      tag_36\n        /* \"@openzeppelin/contracts/access/AccessControl.sol\":4300:4318  getRoleAdmin(role) */\n      jump\t// in\n    tag_106:\n        /* \"@openzeppelin/contracts/access/AccessControl.sol\":2464:2480  _checkRole(role) */\n      tag_108\n        /* \"@openzeppelin/contracts/access/AccessControl.sol\":2475:2479  role */\n      dup2\n        /* \"@openzeppelin/contracts/access/AccessControl.sol\":2464:2474  _checkRole */\n      tag_109\n        /* \"@openzeppelin/contracts/access/AccessControl.sol\":2464:2480  _checkRole(role) */\n      jump\t// in\n    tag_108:\n        /* \"@openzeppelin/contracts/access/AccessControl.sol\":4330:4355  _grantRole(role, account) */\n      tag_111\n        /* \"@openzeppelin/contracts/access/AccessControl.sol\":4341:4345  role */\n      dup4\n        /* \"@openzeppelin/contracts/access/AccessControl.sol\":4347:4354  account */\n      dup4\n        /* \"@openzeppelin/contracts/access/AccessControl.sol\":4330:4340  _grantRole */\n      tag_112\n        /* \"@openzeppelin/contracts/access/AccessControl.sol\":4330:4355  _grantRole(role, account) */\n      jump\t// in\n    tag_111:\n      pop\n        /* \"@openzeppelin/contracts/access/AccessControl.sol\":4226:4362  function grantRole(bytes32 role, address account) public virtual onlyRole(getRoleAdmin(role)) {... */\n      pop\n      pop\n      pop\n      jump\t// out\n        /* \"@openzeppelin/contracts/access/AccessControl.sol\":5328:5573  function renounceRole(bytes32 role, address callerConfirmation) public virtual {... */\n    tag_45:\n        /* \"@openzeppelin/contracts/access/AccessControl.sol\":5443:5455  _msgSender() */\n      tag_114\n        /* \"@openzeppelin/contracts/access/AccessControl.sol\":5443:5453  _msgSender */\n      tag_115\n        /* \"@openzeppelin/contracts/access/AccessControl.sol\":5443:5455  _msgSender() */\n      jump\t// in\n    tag_114:\n        /* \"@openzeppelin/contracts/access/AccessControl.sol\":5421:5455  callerConfirmation != _msgSender() */\n      0xffffffffffffffffffffffffffffffffffffffff\n      and\n        /* \"@openzeppelin/contracts/access/AccessControl.sol\":5421:5439  callerConfirmation */\n      dup2\n        /* \"@openzeppelin/contracts/access/AccessControl.sol\":5421:5455  callerConfirmation != _msgSender() */\n      0xffffffffffffffffffffffffffffffffffffffff\n      and\n      eq\n        /* \"@openzeppelin/contracts/access/AccessControl.sol\":5417:5519  if (callerConfirmation != _msgSender()) {... */\n      tag_116\n      jumpi\n        /* \"@openzeppelin/contracts/access/AccessControl.sol\":5478:5508  AccessControlBadConfirmation() */\n      mload(0x40)\n      0x6697b23200000000000000000000000000000000000000000000000000000000\n      dup2\n      mstore\n      0x04\n      add\n      mload(0x40)\n      dup1\n      swap2\n      sub\n      swap1\n      revert\n        /* \"@openzeppelin/contracts/access/AccessControl.sol\":5417:5519  if (callerConfirmation != _msgSender()) {... */\n    tag_116:\n        /* \"@openzeppelin/contracts/access/AccessControl.sol\":5529:5566  _revokeRole(role, callerConfirmation) */\n      tag_117\n        /* \"@openzeppelin/contracts/access/AccessControl.sol\":5541:5545  role */\n      dup3\n        /* \"@openzeppelin/contracts/access/AccessControl.sol\":5547:5565  callerConfirmation */\n      dup3\n        /* \"@openzeppelin/contracts/access/AccessControl.sol\":5529:5540  _revokeRole */\n      tag_118\n        /* \"@openzeppelin/contracts/access/AccessControl.sol\":5529:5566  _revokeRole(role, callerConfirmation) */\n      jump\t// in\n    tag_117:\n      pop\n        /* \"@openzeppelin/contracts/access/AccessControl.sol\":5328:5573  function renounceRole(bytes32 role, address callerConfirmation) public virtual {... */\n      pop\n      pop\n      jump\t// out\n        /* \"helloworld.sol\":3094:3186  function getSimulatedTime() public view returns (uint) {... */\n    tag_47:\n        /* \"helloworld.sol\":3143:3147  uint */\n      0x00\n        /* \"helloworld.sol\":3166:3179  simulatedTime */\n      sload(0x05)\n        /* \"helloworld.sol\":3159:3179  return simulatedTime */\n      swap1\n      pop\n        /* \"helloworld.sol\":3094:3186  function getSimulatedTime() public view returns (uint) {... */\n      swap1\n      jump\t// out\n        /* \"helloworld.sol\":2681:2897  function retirerTokens(address to, uint amount) public onlyRole(ADMIN_ROLE) {... */\n    tag_53:\n        /* \"helloworld.sol\":229:252  keccak256(\"ADMIN_ROLE\") */\n      0xa49807205ce4d355092ef5a8a18f56e8913cf4a201fbe287825b095693c21775\n        /* \"@openzeppelin/contracts/access/AccessControl.sol\":2464:2480  _checkRole(role) */\n      tag_121\n        /* \"@openzeppelin/contracts/access/AccessControl.sol\":2475:2479  role */\n      dup2\n        /* \"@openzeppelin/contracts/access/AccessControl.sol\":2464:2474  _checkRole */\n      tag_109\n        /* \"@openzeppelin/contracts/access/AccessControl.sol\":2464:2480  _checkRole(role) */\n      jump\t// in\n    tag_121:\n        /* \"helloworld.sol\":2809:2815  amount */\n      dup2\n        /* \"helloworld.sol\":2775:2780  token */\n      0x04\n      0x00\n      swap1\n      sload\n      swap1\n      0x0100\n      exp\n      swap1\n      div\n      0xffffffffffffffffffffffffffffffffffffffff\n      and\n        /* \"helloworld.sol\":2775:2790  token.balanceOf */\n      0xffffffffffffffffffffffffffffffffffffffff\n      and\n      0x70a08231\n        /* \"helloworld.sol\":2799:2803  this */\n      address\n        /* \"helloworld.sol\":2775:2805  token.balanceOf(address(this)) */\n      mload(0x40)\n      dup3\n      0xffffffff\n      and\n      0xe0\n      shl\n      dup2\n      mstore\n      0x04\n      add\n      tag_123\n      swap2\n      swap1\n      tag_124\n      jump\t// in\n    tag_123:\n      0x20\n      mload(0x40)\n      dup1\n      dup4\n      sub\n      dup2\n      dup7\n      gas\n      staticcall\n      iszero\n      dup1\n      iszero\n      tag_126\n      jumpi\n      returndatasize\n      0x00\n      dup1\n      returndatacopy\n      revert(0x00, returndatasize)\n    tag_126:\n      pop\n      pop\n      pop\n      pop\n      mload(0x40)\n      returndatasize\n      not(0x1f)\n      0x1f\n      dup3\n      add\n      and\n      dup3\n      add\n      dup1\n      0x40\n      mstore\n      pop\n      dup2\n      add\n      swap1\n      tag_127\n      swap2\n      swap1\n      tag_128\n      jump\t// in\n    tag_127:\n        /* \"helloworld.sol\":2775:2815  token.balanceOf(address(this)) >= amount */\n      lt\n      iszero\n        /* \"helloworld.sol\":2767:2854  require(token.balanceOf(address(this)) >= amount, \"Solde insuffisant dans le contrat.\") */\n      tag_129\n      jumpi\n      mload(0x40)\n      0x08c379a000000000000000000000000000000000000000000000000000000000\n      dup2\n      mstore\n      0x04\n      add\n      tag_130\n      swap1\n      tag_131\n      jump\t// in\n    tag_130:\n      mload(0x40)\n      dup1\n      swap2\n      sub\n      swap1\n      revert\n    tag_129:\n        /* \"helloworld.sol\":2864:2869  token */\n      0x04\n      0x00\n      swap1\n      sload\n      swap1\n      0x0100\n      exp\n      swap1\n      div\n      0xffffffffffffffffffffffffffffffffffffffff\n      and\n        /* \"helloworld.sol\":2864:2878  token.transfer */\n      0xffffffffffffffffffffffffffffffffffffffff\n      and\n      0xa9059cbb\n        /* \"helloworld.sol\":2879:2881  to */\n      dup5\n        /* \"helloworld.sol\":2883:2889  amount */\n      dup5\n        /* \"helloworld.sol\":2864:2890  token.transfer(to, amount) */\n      mload(0x40)\n      dup4\n      0xffffffff\n      and\n      0xe0\n      shl\n      dup2\n      mstore\n      0x04\n      add\n      tag_132\n      swap3\n      swap2\n      swap1\n      tag_133\n      jump\t// in\n    tag_132:\n      0x20\n      mload(0x40)\n      dup1\n      dup4\n      sub\n      dup2\n      0x00\n      dup8\n      gas\n      call\n      iszero\n      dup1\n      iszero\n      tag_135\n      jumpi\n      returndatasize\n      0x00\n      dup1\n      returndatacopy\n      revert(0x00, returndatasize)\n    tag_135:\n      pop\n      pop\n      pop\n      pop\n      mload(0x40)\n      returndatasize\n      not(0x1f)\n      0x1f\n      dup3\n      add\n      and\n      dup3\n      add\n      dup1\n      0x40\n      mstore\n      pop\n      dup2\n      add\n      swap1\n      tag_136\n      swap2\n      swap1\n      tag_137\n      jump\t// in\n    tag_136:\n      pop\n        /* \"helloworld.sol\":2681:2897  function retirerTokens(address to, uint amount) public onlyRole(ADMIN_ROLE) {... */\n      pop\n      pop\n      pop\n      jump\t// out\n        /* \"helloworld.sol\":580:616  mapping(uint => Objet) public objets */\n    tag_57:\n      mstore(0x20, 0x02)\n      dup1\n      0x00\n      mstore\n      keccak256(0x00, 0x40)\n      0x00\n      swap2\n      pop\n      swap1\n      pop\n      dup1\n      0x00\n      add\n      sload\n      swap1\n      dup1\n      0x01\n      add\n      dup1\n      sload\n      tag_138\n      swap1\n      tag_139\n      jump\t// in\n    tag_138:\n      dup1\n      0x1f\n      add\n      0x20\n      dup1\n      swap2\n      div\n      mul\n      0x20\n      add\n      mload(0x40)\n      swap1\n      dup2\n      add\n      0x40\n      mstore\n      dup1\n      swap3\n      swap2\n      swap1\n      dup2\n      dup2\n      mstore\n      0x20\n      add\n      dup3\n      dup1\n      sload\n      tag_140\n      swap1\n      tag_139\n      jump\t// in\n    tag_140:\n      dup1\n      iszero\n      tag_141\n      jumpi\n      dup1\n      0x1f\n      lt\n      tag_142\n      jumpi\n      0x0100\n      dup1\n      dup4\n      sload\n      div\n      mul\n      dup4\n      mstore\n      swap2\n      0x20\n      add\n      swap2\n      jump(tag_141)\n    tag_142:\n      dup3\n      add\n      swap2\n      swap1\n      0x00\n      mstore\n      keccak256(0x00, 0x20)\n      swap1\n    tag_143:\n      dup2\n      sload\n      dup2\n      mstore\n      swap1\n      0x01\n      add\n      swap1\n      0x20\n      add\n      dup1\n      dup4\n      gt\n      tag_143\n      jumpi\n      dup3\n      swap1\n      sub\n      0x1f\n      and\n      dup3\n      add\n      swap2\n    tag_141:\n      pop\n      pop\n      pop\n      pop\n      pop\n      swap1\n      dup1\n      0x02\n      add\n      sload\n      swap1\n      dup1\n      0x03\n      add\n      0x00\n      swap1\n      sload\n      swap1\n      0x0100\n      exp\n      swap1\n      div\n      0xffffffffffffffffffffffffffffffffffffffff\n      and\n      swap1\n      dup1\n      0x03\n      add\n      0x14\n      swap1\n      sload\n      swap1\n      0x0100\n      exp\n      swap1\n      div\n      0xff\n      and\n      swap1\n      pop\n      dup6\n      jump\t// out\n        /* \"helloworld.sol\":192:252  bytes32 public constant ADMIN_ROLE = keccak256(\"ADMIN_ROLE\") */\n    tag_61:\n        /* \"helloworld.sol\":229:252  keccak256(\"ADMIN_ROLE\") */\n      0xa49807205ce4d355092ef5a8a18f56e8913cf4a201fbe287825b095693c21775\n        /* \"helloworld.sol\":192:252  bytes32 public constant ADMIN_ROLE = keccak256(\"ADMIN_ROLE\") */\n      dup2\n      jump\t// out\n        /* \"@openzeppelin/contracts/access/AccessControl.sol\":2854:2990  function hasRole(bytes32 role, address account) public view virtual returns (bool) {... */\n    tag_65:\n        /* \"@openzeppelin/contracts/access/AccessControl.sol\":2931:2935  bool */\n      0x00\n        /* \"@openzeppelin/contracts/access/AccessControl.sol\":2954:2960  _roles */\n      dup1\n        /* \"@openzeppelin/contracts/access/AccessControl.sol\":2954:2966  _roles[role] */\n      0x00\n        /* \"@openzeppelin/contracts/access/AccessControl.sol\":2961:2965  role */\n      dup5\n        /* \"@openzeppelin/contracts/access/AccessControl.sol\":2954:2966  _roles[role] */\n      dup2\n      mstore\n      0x20\n      add\n      swap1\n      dup2\n      mstore\n      0x20\n      add\n      0x00\n      keccak256\n        /* \"@openzeppelin/contracts/access/AccessControl.sol\":2954:2974  _roles[role].hasRole */\n      0x00\n      add\n        /* \"@openzeppelin/contracts/access/AccessControl.sol\":2954:2983  _roles[role].hasRole[account] */\n      0x00\n        /* \"@openzeppelin/contracts/access/AccessControl.sol\":2975:2982  account */\n      dup4\n        /* \"@openzeppelin/contracts/access/AccessControl.sol\":2954:2983  _roles[role].hasRole[account] */\n      0xffffffffffffffffffffffffffffffffffffffff\n      and\n      0xffffffffffffffffffffffffffffffffffffffff\n      and\n      dup2\n      mstore\n      0x20\n      add\n      swap1\n      dup2\n      mstore\n      0x20\n      add\n      0x00\n      keccak256\n      0x00\n      swap1\n      sload\n      swap1\n      0x0100\n      exp\n      swap1\n      div\n      0xff\n      and\n        /* \"@openzeppelin/contracts/access/AccessControl.sol\":2947:2983  return _roles[role].hasRole[account] */\n      swap1\n      pop\n        /* \"@openzeppelin/contracts/access/AccessControl.sol\":2854:2990  function hasRole(bytes32 role, address account) public view virtual returns (bool) {... */\n      swap3\n      swap2\n      pop\n      pop\n      jump\t// out\n        /* \"@openzeppelin/contracts/access/AccessControl.sol\":2187:2236  bytes32 public constant DEFAULT_ADMIN_ROLE = 0x00 */\n    tag_68:\n        /* \"@openzeppelin/contracts/access/AccessControl.sol\":2232:2236  0x00 */\n      0x00\n        /* \"@openzeppelin/contracts/access/AccessControl.sol\":2187:2236  bytes32 public constant DEFAULT_ADMIN_ROLE = 0x00 */\n      dup1\n      shl\n      dup2\n      jump\t// out\n        /* \"helloworld.sol\":2175:2676  function terminerLocation(uint _idObjet) public {... */\n    tag_72:\n        /* \"helloworld.sol\":2282:2283  0 */\n      0x00\n        /* \"helloworld.sol\":2241:2284  locations[_idObjet].locataire != address(0) */\n      0xffffffffffffffffffffffffffffffffffffffff\n      and\n        /* \"helloworld.sol\":2241:2250  locations */\n      0x03\n        /* \"helloworld.sol\":2241:2260  locations[_idObjet] */\n      0x00\n        /* \"helloworld.sol\":2251:2259  _idObjet */\n      dup4\n        /* \"helloworld.sol\":2241:2260  locations[_idObjet] */\n      dup2\n      mstore\n      0x20\n      add\n      swap1\n      dup2\n      mstore\n      0x20\n      add\n      0x00\n      keccak256\n        /* \"helloworld.sol\":2241:2270  locations[_idObjet].locataire */\n      0x01\n      add\n      0x00\n      swap1\n      sload\n      swap1\n      0x0100\n      exp\n      swap1\n      div\n      0xffffffffffffffffffffffffffffffffffffffff\n      and\n        /* \"helloworld.sol\":2241:2284  locations[_idObjet].locataire != address(0) */\n      0xffffffffffffffffffffffffffffffffffffffff\n      and\n      sub\n        /* \"helloworld.sol\":2233:2327  require(locations[_idObjet].locataire != address(0), \"Aucune location active pour cet objet.\") */\n      tag_146\n      jumpi\n      mload(0x40)\n      0x08c379a000000000000000000000000000000000000000000000000000000000\n      dup2\n      mstore\n      0x04\n      add\n      tag_147\n      swap1\n      tag_148\n      jump\t// in\n    tag_147:\n      mload(0x40)\n      dup1\n      swap2\n      sub\n      swap1\n      revert\n    tag_146:\n        /* \"helloworld.sol\":2378:2388  msg.sender */\n      caller\n        /* \"helloworld.sol\":2345:2388  locations[_idObjet].locataire == msg.sender */\n      0xffffffffffffffffffffffffffffffffffffffff\n      and\n        /* \"helloworld.sol\":2345:2354  locations */\n      0x03\n        /* \"helloworld.sol\":2345:2364  locations[_idObjet] */\n      0x00\n        /* \"helloworld.sol\":2355:2363  _idObjet */\n      dup4\n        /* \"helloworld.sol\":2345:2364  locations[_idObjet] */\n      dup2\n      mstore\n      0x20\n      add\n      swap1\n      dup2\n      mstore\n      0x20\n      add\n      0x00\n      keccak256\n        /* \"helloworld.sol\":2345:2374  locations[_idObjet].locataire */\n      0x01\n      add\n      0x00\n      swap1\n      sload\n      swap1\n      0x0100\n      exp\n      swap1\n      div\n      0xffffffffffffffffffffffffffffffffffffffff\n      and\n        /* \"helloworld.sol\":2345:2388  locations[_idObjet].locataire == msg.sender */\n      0xffffffffffffffffffffffffffffffffffffffff\n      and\n      eq\n        /* \"helloworld.sol\":2337:2435  require(locations[_idObjet].locataire == msg.sender, \"Vous n'etes pas le locataire de cet objet.\") */\n      tag_149\n      jumpi\n      mload(0x40)\n      0x08c379a000000000000000000000000000000000000000000000000000000000\n      dup2\n      mstore\n      0x04\n      add\n      tag_150\n      swap1\n      tag_151\n      jump\t// in\n    tag_150:\n      mload(0x40)\n      dup1\n      swap2\n      sub\n      swap1\n      revert\n    tag_149:\n        /* \"helloworld.sol\":2470:2479  locations */\n      0x03\n        /* \"helloworld.sol\":2470:2489  locations[_idObjet] */\n      0x00\n        /* \"helloworld.sol\":2480:2488  _idObjet */\n      dup3\n        /* \"helloworld.sol\":2470:2489  locations[_idObjet] */\n      dup2\n      mstore\n      0x20\n      add\n      swap1\n      dup2\n      mstore\n      0x20\n      add\n      0x00\n      keccak256\n        /* \"helloworld.sol\":2470:2497  locations[_idObjet].dateFin */\n      0x02\n      add\n      sload\n        /* \"helloworld.sol\":2453:2466  simulatedTime */\n      sload(0x05)\n        /* \"helloworld.sol\":2453:2497  simulatedTime >= locations[_idObjet].dateFin */\n      lt\n      iszero\n        /* \"helloworld.sol\":2445:2534  require(simulatedTime >= locations[_idObjet].dateFin, \"La location est encore en cours.\") */\n      tag_152\n      jumpi\n      mload(0x40)\n      0x08c379a000000000000000000000000000000000000000000000000000000000\n      dup2\n      mstore\n      0x04\n      add\n      tag_153\n      swap1\n      tag_154\n      jump\t// in\n    tag_153:\n      mload(0x40)\n      dup1\n      swap2\n      sub\n      swap1\n      revert\n    tag_152:\n        /* \"helloworld.sol\":2575:2579  true */\n      0x01\n        /* \"helloworld.sol\":2545:2551  objets */\n      0x02\n        /* \"helloworld.sol\":2545:2561  objets[_idObjet] */\n      0x00\n        /* \"helloworld.sol\":2552:2560  _idObjet */\n      dup4\n        /* \"helloworld.sol\":2545:2561  objets[_idObjet] */\n      dup2\n      mstore\n      0x20\n      add\n      swap1\n      dup2\n      mstore\n      0x20\n      add\n      0x00\n      keccak256\n        /* \"helloworld.sol\":2545:2572  objets[_idObjet].disponible */\n      0x03\n      add\n      0x14\n        /* \"helloworld.sol\":2545:2579  objets[_idObjet].disponible = true */\n      0x0100\n      exp\n      dup2\n      sload\n      dup2\n      0xff\n      mul\n      not\n      and\n      swap1\n      dup4\n      iszero\n      iszero\n      mul\n      or\n      swap1\n      sstore\n      pop\n        /* \"helloworld.sol\":2596:2605  locations */\n      0x03\n        /* \"helloworld.sol\":2596:2615  locations[_idObjet] */\n      0x00\n        /* \"helloworld.sol\":2606:2614  _idObjet */\n      dup3\n        /* \"helloworld.sol\":2596:2615  locations[_idObjet] */\n      dup2\n      mstore\n      0x20\n      add\n      swap1\n      dup2\n      mstore\n      0x20\n      add\n      0x00\n      keccak256\n      0x00\n        /* \"helloworld.sol\":2589:2615  delete locations[_idObjet] */\n      dup1\n      dup3\n      add\n      0x00\n      swap1\n      sstore\n      0x01\n      dup3\n      add\n      exp(0x0100, 0x00)\n      dup2\n      sload\n      swap1\n      0xffffffffffffffffffffffffffffffffffffffff\n      mul\n      not\n      and\n      swap1\n      sstore\n      0x02\n      dup3\n      add\n      0x00\n      swap1\n      sstore\n      pop\n      pop\n        /* \"helloworld.sol\":2631:2669  LocationTerminee(_idObjet, msg.sender) */\n      0x88b44be84c9052ba1bdca3b4b4466d38e2a4b94ea5b796d4bbb6070902d9bd19\n        /* \"helloworld.sol\":2648:2656  _idObjet */\n      dup2\n        /* \"helloworld.sol\":2658:2668  msg.sender */\n      caller\n        /* \"helloworld.sol\":2631:2669  LocationTerminee(_idObjet, msg.sender) */\n      mload(0x40)\n      tag_155\n      swap3\n      swap2\n      swap1\n      tag_156\n      jump\t// in\n    tag_155:\n      mload(0x40)\n      dup1\n      swap2\n      sub\n      swap1\n      log1\n        /* \"helloworld.sol\":2175:2676  function terminerLocation(uint _idObjet) public {... */\n      pop\n      jump\t// out\n        /* \"helloworld.sol\":1525:2169  function louerObjet(uint _idObjet, uint _jours) public {... */\n    tag_76:\n        /* \"helloworld.sol\":1590:1609  Objet storage objet */\n      0x00\n        /* \"helloworld.sol\":1612:1618  objets */\n      0x02\n        /* \"helloworld.sol\":1612:1628  objets[_idObjet] */\n      0x00\n        /* \"helloworld.sol\":1619:1627  _idObjet */\n      dup5\n        /* \"helloworld.sol\":1612:1628  objets[_idObjet] */\n      dup2\n      mstore\n      0x20\n      add\n      swap1\n      dup2\n      mstore\n      0x20\n      add\n      0x00\n      keccak256\n        /* \"helloworld.sol\":1590:1628  Objet storage objet = objets[_idObjet] */\n      swap1\n      pop\n        /* \"helloworld.sol\":1646:1651  objet */\n      dup1\n        /* \"helloworld.sol\":1646:1662  objet.disponible */\n      0x03\n      add\n      0x14\n      swap1\n      sload\n      swap1\n      0x0100\n      exp\n      swap1\n      div\n      0xff\n      and\n        /* \"helloworld.sol\":1638:1696  require(objet.disponible, \"L'objet n'est pas disponible.\") */\n      tag_158\n      jumpi\n      mload(0x40)\n      0x08c379a000000000000000000000000000000000000000000000000000000000\n      dup2\n      mstore\n      0x04\n      add\n      tag_159\n      swap1\n      tag_160\n      jump\t// in\n    tag_159:\n      mload(0x40)\n      dup1\n      swap2\n      sub\n      swap1\n      revert\n    tag_158:\n        /* \"helloworld.sol\":1706:1718  uint montant */\n      0x00\n        /* \"helloworld.sol\":1745:1751  _jours */\n      dup3\n        /* \"helloworld.sol\":1721:1726  objet */\n      dup3\n        /* \"helloworld.sol\":1721:1742  objet.tarifJournalier */\n      0x02\n      add\n      sload\n        /* \"helloworld.sol\":1721:1751  objet.tarifJournalier * _jours */\n      tag_161\n      swap2\n      swap1\n      tag_162\n      jump\t// in\n    tag_161:\n        /* \"helloworld.sol\":1706:1751  uint montant = objet.tarifJournalier * _jours */\n      swap1\n      pop\n        /* \"helloworld.sol\":1800:1807  montant */\n      dup1\n        /* \"helloworld.sol\":1769:1774  token */\n      0x04\n      0x00\n      swap1\n      sload\n      swap1\n      0x0100\n      exp\n      swap1\n      div\n      0xffffffffffffffffffffffffffffffffffffffff\n      and\n        /* \"helloworld.sol\":1769:1784  token.balanceOf */\n      0xffffffffffffffffffffffffffffffffffffffff\n      and\n      0x70a08231\n        /* \"helloworld.sol\":1785:1795  msg.sender */\n      caller\n        /* \"helloworld.sol\":1769:1796  token.balanceOf(msg.sender) */\n      mload(0x40)\n      dup3\n      0xffffffff\n      and\n      0xe0\n      shl\n      dup2\n      mstore\n      0x04\n      add\n      tag_163\n      swap2\n      swap1\n      tag_124\n      jump\t// in\n    tag_163:\n      0x20\n      mload(0x40)\n      dup1\n      dup4\n      sub\n      dup2\n      dup7\n      gas\n      staticcall\n      iszero\n      dup1\n      iszero\n      tag_165\n      jumpi\n      returndatasize\n      0x00\n      dup1\n      returndatacopy\n      revert(0x00, returndatasize)\n    tag_165:\n      pop\n      pop\n      pop\n      pop\n      mload(0x40)\n      returndatasize\n      not(0x1f)\n      0x1f\n      dup3\n      add\n      and\n      dup3\n      add\n      dup1\n      0x40\n      mstore\n      pop\n      dup2\n      add\n      swap1\n      tag_166\n      swap2\n      swap1\n      tag_128\n      jump\t// in\n    tag_166:\n        /* \"helloworld.sol\":1769:1807  token.balanceOf(msg.sender) >= montant */\n      lt\n      iszero\n        /* \"helloworld.sol\":1761:1840  require(token.balanceOf(msg.sender) >= montant, \"Solde insuffisant en tokens.\") */\n      tag_167\n      jumpi\n      mload(0x40)\n      0x08c379a000000000000000000000000000000000000000000000000000000000\n      dup2\n      mstore\n      0x04\n      add\n      tag_168\n      swap1\n      tag_169\n      jump\t// in\n    tag_168:\n      mload(0x40)\n      dup1\n      swap2\n      sub\n      swap1\n      revert\n    tag_167:\n        /* \"helloworld.sol\":1851:1856  token */\n      0x04\n      0x00\n      swap1\n      sload\n      swap1\n      0x0100\n      exp\n      swap1\n      div\n      0xffffffffffffffffffffffffffffffffffffffff\n      and\n        /* \"helloworld.sol\":1851:1869  token.transferFrom */\n      0xffffffffffffffffffffffffffffffffffffffff\n      and\n      0x23b872dd\n        /* \"helloworld.sol\":1870:1880  msg.sender */\n      caller\n        /* \"helloworld.sol\":1882:1887  objet */\n      dup5\n        /* \"helloworld.sol\":1882:1900  objet.proprietaire */\n      0x03\n      add\n      0x00\n      swap1\n      sload\n      swap1\n      0x0100\n      exp\n      swap1\n      div\n      0xffffffffffffffffffffffffffffffffffffffff\n      and\n        /* \"helloworld.sol\":1902:1909  montant */\n      dup5\n        /* \"helloworld.sol\":1851:1910  token.transferFrom(msg.sender, objet.proprietaire, montant) */\n      mload(0x40)\n      dup5\n      0xffffffff\n      and\n      0xe0\n      shl\n      dup2\n      mstore\n      0x04\n      add\n      tag_170\n      swap4\n      swap3\n      swap2\n      swap1\n      tag_171\n      jump\t// in\n    tag_170:\n      0x20\n      mload(0x40)\n      dup1\n      dup4\n      sub\n      dup2\n      0x00\n      dup8\n      gas\n      call\n      iszero\n      dup1\n      iszero\n      tag_173\n      jumpi\n      returndatasize\n      0x00\n      dup1\n      returndatacopy\n      revert(0x00, returndatasize)\n    tag_173:\n      pop\n      pop\n      pop\n      pop\n      mload(0x40)\n      returndatasize\n      not(0x1f)\n      0x1f\n      dup3\n      add\n      and\n      dup3\n      add\n      dup1\n      0x40\n      mstore\n      pop\n      dup2\n      add\n      swap1\n      tag_174\n      swap2\n      swap1\n      tag_137\n      jump\t// in\n    tag_174:\n      pop\n        /* \"helloworld.sol\":1921:1933  uint dateFin */\n      0x00\n        /* \"helloworld.sol\":1962:1968  1 days */\n      0x015180\n        /* \"helloworld.sol\":1953:1959  _jours */\n      dup5\n        /* \"helloworld.sol\":1953:1968  _jours * 1 days */\n      tag_175\n      swap2\n      swap1\n      tag_162\n      jump\t// in\n    tag_175:\n        /* \"helloworld.sol\":1936:1949  simulatedTime */\n      sload(0x05)\n        /* \"helloworld.sol\":1936:1969  simulatedTime + (_jours * 1 days) */\n      tag_176\n      swap2\n      swap1\n      tag_177\n      jump\t// in\n    tag_176:\n        /* \"helloworld.sol\":1921:1969  uint dateFin = simulatedTime + (_jours * 1 days) */\n      swap1\n      pop\n        /* \"helloworld.sol\":2033:2072  Location(_idObjet, msg.sender, dateFin) */\n      mload(0x40)\n      dup1\n      0x60\n      add\n      0x40\n      mstore\n      dup1\n        /* \"helloworld.sol\":2042:2050  _idObjet */\n      dup7\n        /* \"helloworld.sol\":2033:2072  Location(_idObjet, msg.sender, dateFin) */\n      dup2\n      mstore\n      0x20\n      add\n        /* \"helloworld.sol\":2052:2062  msg.sender */\n      caller\n        /* \"helloworld.sol\":2033:2072  Location(_idObjet, msg.sender, dateFin) */\n      0xffffffffffffffffffffffffffffffffffffffff\n      and\n      dup2\n      mstore\n      0x20\n      add\n        /* \"helloworld.sol\":2064:2071  dateFin */\n      dup3\n        /* \"helloworld.sol\":2033:2072  Location(_idObjet, msg.sender, dateFin) */\n      dup2\n      mstore\n      pop\n        /* \"helloworld.sol\":2011:2020  locations */\n      0x03\n        /* \"helloworld.sol\":2011:2030  locations[_idObjet] */\n      0x00\n        /* \"helloworld.sol\":2021:2029  _idObjet */\n      dup8\n        /* \"helloworld.sol\":2011:2030  locations[_idObjet] */\n      dup2\n      mstore\n      0x20\n      add\n      swap1\n      dup2\n      mstore\n      0x20\n      add\n      0x00\n      keccak256\n        /* \"helloworld.sol\":2011:2072  locations[_idObjet] = Location(_idObjet, msg.sender, dateFin) */\n      0x00\n      dup3\n      add\n      mload\n      dup2\n      0x00\n      add\n      sstore\n      0x20\n      dup3\n      add\n      mload\n      dup2\n      0x01\n      add\n      exp(0x0100, 0x00)\n      dup2\n      sload\n      dup2\n      0xffffffffffffffffffffffffffffffffffffffff\n      mul\n      not\n      and\n      swap1\n      dup4\n      0xffffffffffffffffffffffffffffffffffffffff\n      and\n      mul\n      or\n      swap1\n      sstore\n      pop\n      0x40\n      dup3\n      add\n      mload\n      dup2\n      0x02\n      add\n      sstore\n      swap1\n      pop\n      pop\n        /* \"helloworld.sol\":2101:2106  false */\n      0x00\n        /* \"helloworld.sol\":2082:2087  objet */\n      dup4\n        /* \"helloworld.sol\":2082:2098  objet.disponible */\n      0x03\n      add\n      0x14\n        /* \"helloworld.sol\":2082:2106  objet.disponible = false */\n      0x0100\n      exp\n      dup2\n      sload\n      dup2\n      0xff\n      mul\n      not\n      and\n      swap1\n      dup4\n      iszero\n      iszero\n      mul\n      or\n      swap1\n      sstore\n      pop\n        /* \"helloworld.sol\":2122:2162  ObjetLoue(_idObjet, msg.sender, dateFin) */\n      0xd134efc08fe62d7a8a515dd4adfbeccb0fbb4932f18796599feae5c46dc10491\n        /* \"helloworld.sol\":2132:2140  _idObjet */\n      dup6\n        /* \"helloworld.sol\":2142:2152  msg.sender */\n      caller\n        /* \"helloworld.sol\":2154:2161  dateFin */\n      dup4\n        /* \"helloworld.sol\":2122:2162  ObjetLoue(_idObjet, msg.sender, dateFin) */\n      mload(0x40)\n      tag_178\n      swap4\n      swap3\n      swap2\n      swap1\n      tag_81\n      jump\t// in\n    tag_178:\n      mload(0x40)\n      dup1\n      swap2\n      sub\n      swap1\n      log1\n        /* \"helloworld.sol\":1580:2169  {... */\n      pop\n      pop\n      pop\n        /* \"helloworld.sol\":1525:2169  function louerObjet(uint _idObjet, uint _jours) public {... */\n      pop\n      pop\n      jump\t// out\n        /* \"helloworld.sol\":622:664  mapping(uint => Location) public locations */\n    tag_79:\n      mstore(0x20, 0x03)\n      dup1\n      0x00\n      mstore\n      keccak256(0x00, 0x40)\n      0x00\n      swap2\n      pop\n      swap1\n      pop\n      dup1\n      0x00\n      add\n      sload\n      swap1\n      dup1\n      0x01\n      add\n      0x00\n      swap1\n      sload\n      swap1\n      0x0100\n      exp\n      swap1\n      div\n      0xffffffffffffffffffffffffffffffffffffffff\n      and\n      swap1\n      dup1\n      0x02\n      add\n      sload\n      swap1\n      pop\n      dup4\n      jump\t// out\n        /* \"@openzeppelin/contracts/access/AccessControl.sol\":4642:4780  function revokeRole(bytes32 role, address account) public virtual onlyRole(getRoleAdmin(role)) {... */\n    tag_84:\n        /* \"@openzeppelin/contracts/access/AccessControl.sol\":4717:4735  getRoleAdmin(role) */\n      tag_179\n        /* \"@openzeppelin/contracts/access/AccessControl.sol\":4730:4734  role */\n      dup3\n        /* \"@openzeppelin/contracts/access/AccessControl.sol\":4717:4729  getRoleAdmin */\n      tag_36\n        /* \"@openzeppelin/contracts/access/AccessControl.sol\":4717:4735  getRoleAdmin(role) */\n      jump\t// in\n    tag_179:\n        /* \"@openzeppelin/contracts/access/AccessControl.sol\":2464:2480  _checkRole(role) */\n      tag_181\n        /* \"@openzeppelin/contracts/access/AccessControl.sol\":2475:2479  role */\n      dup2\n        /* \"@openzeppelin/contracts/access/AccessControl.sol\":2464:2474  _checkRole */\n      tag_109\n        /* \"@openzeppelin/contracts/access/AccessControl.sol\":2464:2480  _checkRole(role) */\n      jump\t// in\n    tag_181:\n        /* \"@openzeppelin/contracts/access/AccessControl.sol\":4747:4773  _revokeRole(role, account) */\n      tag_183\n        /* \"@openzeppelin/contracts/access/AccessControl.sol\":4759:4763  role */\n      dup4\n        /* \"@openzeppelin/contracts/access/AccessControl.sol\":4765:4772  account */\n      dup4\n        /* \"@openzeppelin/contracts/access/AccessControl.sol\":4747:4758  _revokeRole */\n      tag_118\n        /* \"@openzeppelin/contracts/access/AccessControl.sol\":4747:4773  _revokeRole(role, account) */\n      jump\t// in\n    tag_183:\n      pop\n        /* \"@openzeppelin/contracts/access/AccessControl.sol\":4642:4780  function revokeRole(bytes32 role, address account) public virtual onlyRole(getRoleAdmin(role)) {... */\n      pop\n      pop\n      pop\n      jump\t// out\n        /* \"helloworld.sol\":2903:3088  function passerLeTemps(uint _jours) public onlyRole(ADMIN_ROLE) {... */\n    tag_87:\n        /* \"helloworld.sol\":229:252  keccak256(\"ADMIN_ROLE\") */\n      0xa49807205ce4d355092ef5a8a18f56e8913cf4a201fbe287825b095693c21775\n        /* \"@openzeppelin/contracts/access/AccessControl.sol\":2464:2480  _checkRole(role) */\n      tag_185\n        /* \"@openzeppelin/contracts/access/AccessControl.sol\":2475:2479  role */\n      dup2\n        /* \"@openzeppelin/contracts/access/AccessControl.sol\":2464:2474  _checkRole */\n      tag_109\n        /* \"@openzeppelin/contracts/access/AccessControl.sol\":2464:2480  _checkRole(role) */\n      jump\t// in\n    tag_185:\n        /* \"helloworld.sol\":2995:2996  1 */\n      0x01\n        /* \"helloworld.sol\":2985:2991  _jours */\n      dup3\n        /* \"helloworld.sol\":2985:2996  _jours >= 1 */\n      lt\n      iszero\n        /* \"helloworld.sol\":2977:3039  require(_jours >= 1, \"Vous devez specifier au moins un jour.\") */\n      tag_187\n      jumpi\n      mload(0x40)\n      0x08c379a000000000000000000000000000000000000000000000000000000000\n      dup2\n      mstore\n      0x04\n      add\n      tag_188\n      swap1\n      tag_189\n      jump\t// in\n    tag_188:\n      mload(0x40)\n      dup1\n      swap2\n      sub\n      swap1\n      revert\n    tag_187:\n        /* \"helloworld.sol\":3075:3081  1 days */\n      0x015180\n        /* \"helloworld.sol\":3066:3072  _jours */\n      dup3\n        /* \"helloworld.sol\":3066:3081  _jours * 1 days */\n      tag_190\n      swap2\n      swap1\n      tag_162\n      jump\t// in\n    tag_190:\n        /* \"helloworld.sol\":3049:3062  simulatedTime */\n      0x05\n      0x00\n        /* \"helloworld.sol\":3049:3081  simulatedTime += _jours * 1 days */\n      dup3\n      dup3\n      sload\n      tag_191\n      swap2\n      swap1\n      tag_177\n      jump\t// in\n    tag_191:\n      swap3\n      pop\n      pop\n      dup2\n      swap1\n      sstore\n      pop\n        /* \"helloworld.sol\":2903:3088  function passerLeTemps(uint _jours) public onlyRole(ADMIN_ROLE) {... */\n      pop\n      pop\n      jump\t// out\n        /* \"helloworld.sol\":701:726  uint public simulatedTime */\n    tag_89:\n      sload(0x05)\n      dup2\n      jump\t// out\n        /* \"@openzeppelin/contracts/utils/introspection/ERC165.sol\":763:909  function supportsInterface(bytes4 interfaceId) public view virtual returns (bool) {... */\n    tag_94:\n        /* \"@openzeppelin/contracts/utils/introspection/ERC165.sol\":839:843  bool */\n      0x00\n        /* \"@openzeppelin/contracts/utils/introspection/ERC165.sol\":877:902  type(IERC165).interfaceId */\n      0x01ffc9a700000000000000000000000000000000000000000000000000000000\n        /* \"@openzeppelin/contracts/utils/introspection/ERC165.sol\":862:902  interfaceId == type(IERC165).interfaceId */\n      not(0xffffffffffffffffffffffffffffffffffffffffffffffffffffffff)\n      and\n        /* \"@openzeppelin/contracts/utils/introspection/ERC165.sol\":862:873  interfaceId */\n      dup3\n        /* \"@openzeppelin/contracts/utils/introspection/ERC165.sol\":862:902  interfaceId == type(IERC165).interfaceId */\n      not(0xffffffffffffffffffffffffffffffffffffffffffffffffffffffff)\n      and\n      eq\n        /* \"@openzeppelin/contracts/utils/introspection/ERC165.sol\":855:902  return interfaceId == type(IERC165).interfaceId */\n      swap1\n      pop\n        /* \"@openzeppelin/contracts/utils/introspection/ERC165.sol\":763:909  function supportsInterface(bytes4 interfaceId) public view virtual returns (bool) {... */\n      swap2\n      swap1\n      pop\n      jump\t// out\n        /* \"@openzeppelin/contracts/access/AccessControl.sol\":3199:3302  function _checkRole(bytes32 role) internal view virtual {... */\n    tag_109:\n        /* \"@openzeppelin/contracts/access/AccessControl.sol\":3265:3295  _checkRole(role, _msgSender()) */\n      tag_194\n        /* \"@openzeppelin/contracts/access/AccessControl.sol\":3276:3280  role */\n      dup2\n        /* \"@openzeppelin/contracts/access/AccessControl.sol\":3282:3294  _msgSender() */\n      tag_195\n        /* \"@openzeppelin/contracts/access/AccessControl.sol\":3282:3292  _msgSender */\n      tag_115\n        /* \"@openzeppelin/contracts/access/AccessControl.sol\":3282:3294  _msgSender() */\n      jump\t// in\n    tag_195:\n        /* \"@openzeppelin/contracts/access/AccessControl.sol\":3265:3275  _checkRole */\n      tag_196\n        /* \"@openzeppelin/contracts/access/AccessControl.sol\":3265:3295  _checkRole(role, _msgSender()) */\n      jump\t// in\n    tag_194:\n        /* \"@openzeppelin/contracts/access/AccessControl.sol\":3199:3302  function _checkRole(bytes32 role) internal view virtual {... */\n      pop\n      jump\t// out\n        /* \"@openzeppelin/contracts/access/AccessControl.sol\":6179:6495  function _grantRole(bytes32 role, address account) internal virtual returns (bool) {... */\n    tag_112:\n        /* \"@openzeppelin/contracts/access/AccessControl.sol\":6256:6260  bool */\n      0x00\n        /* \"@openzeppelin/contracts/access/AccessControl.sol\":6277:6299  hasRole(role, account) */\n      tag_198\n        /* \"@openzeppelin/contracts/access/AccessControl.sol\":6285:6289  role */\n      dup4\n        /* \"@openzeppelin/contracts/access/AccessControl.sol\":6291:6298  account */\n      dup4\n        /* \"@openzeppelin/contracts/access/AccessControl.sol\":6277:6284  hasRole */\n      tag_65\n        /* \"@openzeppelin/contracts/access/AccessControl.sol\":6277:6299  hasRole(role, account) */\n      jump\t// in\n    tag_198:\n        /* \"@openzeppelin/contracts/access/AccessControl.sol\":6272:6489  if (!hasRole(role, account)) {... */\n      tag_199\n      jumpi\n        /* \"@openzeppelin/contracts/access/AccessControl.sol\":6347:6351  true */\n      0x01\n        /* \"@openzeppelin/contracts/access/AccessControl.sol\":6315:6321  _roles */\n      0x00\n        /* \"@openzeppelin/contracts/access/AccessControl.sol\":6315:6327  _roles[role] */\n      dup1\n        /* \"@openzeppelin/contracts/access/AccessControl.sol\":6322:6326  role */\n      dup6\n        /* \"@openzeppelin/contracts/access/AccessControl.sol\":6315:6327  _roles[role] */\n      dup2\n      mstore\n      0x20\n      add\n      swap1\n      dup2\n      mstore\n      0x20\n      add\n      0x00\n      keccak256\n        /* \"@openzeppelin/contracts/access/AccessControl.sol\":6315:6335  _roles[role].hasRole */\n      0x00\n      add\n        /* \"@openzeppelin/contracts/access/AccessControl.sol\":6315:6344  _roles[role].hasRole[account] */\n      0x00\n        /* \"@openzeppelin/contracts/access/AccessControl.sol\":6336:6343  account */\n      dup5\n        /* \"@openzeppelin/contracts/access/AccessControl.sol\":6315:6344  _roles[role].hasRole[account] */\n      0xffffffffffffffffffffffffffffffffffffffff\n      and\n      0xffffffffffffffffffffffffffffffffffffffff\n      and\n      dup2\n      mstore\n      0x20\n      add\n      swap1\n      dup2\n      mstore\n      0x20\n      add\n      0x00\n      keccak256\n      0x00\n        /* \"@openzeppelin/contracts/access/AccessControl.sol\":6315:6351  _roles[role].hasRole[account] = true */\n      0x0100\n      exp\n      dup2\n      sload\n      dup2\n      0xff\n      mul\n      not\n      and\n      swap1\n      dup4\n      iszero\n      iszero\n      mul\n      or\n      swap1\n      sstore\n      pop\n        /* \"@openzeppelin/contracts/access/AccessControl.sol\":6397:6409  _msgSender() */\n      tag_200\n        /* \"@openzeppelin/contracts/access/AccessControl.sol\":6397:6407  _msgSender */\n      tag_115\n        /* \"@openzeppelin/contracts/access/AccessControl.sol\":6397:6409  _msgSender() */\n      jump\t// in\n    tag_200:\n        /* \"@openzeppelin/contracts/access/AccessControl.sol\":6370:6410  RoleGranted(role, account, _msgSender()) */\n      0xffffffffffffffffffffffffffffffffffffffff\n      and\n        /* \"@openzeppelin/contracts/access/AccessControl.sol\":6388:6395  account */\n      dup3\n        /* \"@openzeppelin/contracts/access/AccessControl.sol\":6370:6410  RoleGranted(role, account, _msgSender()) */\n      0xffffffffffffffffffffffffffffffffffffffff\n      and\n        /* \"@openzeppelin/contracts/access/AccessControl.sol\":6382:6386  role */\n      dup5\n        /* \"@openzeppelin/contracts/access/AccessControl.sol\":6370:6410  RoleGranted(role, account, _msgSender()) */\n      0x2f8788117e7eff1d82e926ec794901d17c78024a50270940304540a733656f0d\n      mload(0x40)\n      mload(0x40)\n      dup1\n      swap2\n      sub\n      swap1\n      log4\n        /* \"@openzeppelin/contracts/access/AccessControl.sol\":6431:6435  true */\n      0x01\n        /* \"@openzeppelin/contracts/access/AccessControl.sol\":6424:6435  return true */\n      swap1\n      pop\n      jump(tag_197)\n        /* \"@openzeppelin/contracts/access/AccessControl.sol\":6272:6489  if (!hasRole(role, account)) {... */\n    tag_199:\n        /* \"@openzeppelin/contracts/access/AccessControl.sol\":6473:6478  false */\n      0x00\n        /* \"@openzeppelin/contracts/access/AccessControl.sol\":6466:6478  return false */\n      swap1\n      pop\n        /* \"@openzeppelin/contracts/access/AccessControl.sol\":6179:6495  function _grantRole(bytes32 role, address account) internal virtual returns (bool) {... */\n    tag_197:\n      swap3\n      swap2\n      pop\n      pop\n      jump\t// out\n        /* \"@openzeppelin/contracts/utils/Context.sol\":656:752  function _msgSender() internal view virtual returns (address) {... */\n    tag_115:\n        /* \"@openzeppelin/contracts/utils/Context.sol\":709:716  address */\n      0x00\n        /* \"@openzeppelin/contracts/utils/Context.sol\":735:745  msg.sender */\n      caller\n        /* \"@openzeppelin/contracts/utils/Context.sol\":728:745  return msg.sender */\n      swap1\n      pop\n        /* \"@openzeppelin/contracts/utils/Context.sol\":656:752  function _msgSender() internal view virtual returns (address) {... */\n      swap1\n      jump\t// out\n        /* \"@openzeppelin/contracts/access/AccessControl.sol\":6730:7047  function _revokeRole(bytes32 role, address account) internal virtual returns (bool) {... */\n    tag_118:\n        /* \"@openzeppelin/contracts/access/AccessControl.sol\":6808:6812  bool */\n      0x00\n        /* \"@openzeppelin/contracts/access/AccessControl.sol\":6828:6850  hasRole(role, account) */\n      tag_204\n        /* \"@openzeppelin/contracts/access/AccessControl.sol\":6836:6840  role */\n      dup4\n        /* \"@openzeppelin/contracts/access/AccessControl.sol\":6842:6849  account */\n      dup4\n        /* \"@openzeppelin/contracts/access/AccessControl.sol\":6828:6835  hasRole */\n      tag_65\n        /* \"@openzeppelin/contracts/access/AccessControl.sol\":6828:6850  hasRole(role, account) */\n      jump\t// in\n    tag_204:\n        /* \"@openzeppelin/contracts/access/AccessControl.sol\":6824:7041  if (hasRole(role, account)) {... */\n      iszero\n      tag_205\n      jumpi\n        /* \"@openzeppelin/contracts/access/AccessControl.sol\":6898:6903  false */\n      0x00\n        /* \"@openzeppelin/contracts/access/AccessControl.sol\":6866:6872  _roles */\n      dup1\n        /* \"@openzeppelin/contracts/access/AccessControl.sol\":6866:6878  _roles[role] */\n      0x00\n        /* \"@openzeppelin/contracts/access/AccessControl.sol\":6873:6877  role */\n      dup6\n        /* \"@openzeppelin/contracts/access/AccessControl.sol\":6866:6878  _roles[role] */\n      dup2\n      mstore\n      0x20\n      add\n      swap1\n      dup2\n      mstore\n      0x20\n      add\n      0x00\n      keccak256\n        /* \"@openzeppelin/contracts/access/AccessControl.sol\":6866:6886  _roles[role].hasRole */\n      0x00\n      add\n        /* \"@openzeppelin/contracts/access/AccessControl.sol\":6866:6895  _roles[role].hasRole[account] */\n      0x00\n        /* \"@openzeppelin/contracts/access/AccessControl.sol\":6887:6894  account */\n      dup5\n        /* \"@openzeppelin/contracts/access/AccessControl.sol\":6866:6895  _roles[role].hasRole[account] */\n      0xffffffffffffffffffffffffffffffffffffffff\n      and\n      0xffffffffffffffffffffffffffffffffffffffff\n      and\n      dup2\n      mstore\n      0x20\n      add\n      swap1\n      dup2\n      mstore\n      0x20\n      add\n      0x00\n      keccak256\n      0x00\n        /* \"@openzeppelin/contracts/access/AccessControl.sol\":6866:6903  _roles[role].hasRole[account] = false */\n      0x0100\n      exp\n      dup2\n      sload\n      dup2\n      0xff\n      mul\n      not\n      and\n      swap1\n      dup4\n      iszero\n      iszero\n      mul\n      or\n      swap1\n      sstore\n      pop\n        /* \"@openzeppelin/contracts/access/AccessControl.sol\":6949:6961  _msgSender() */\n      tag_206\n        /* \"@openzeppelin/contracts/access/AccessControl.sol\":6949:6959  _msgSender */\n      tag_115\n        /* \"@openzeppelin/contracts/access/AccessControl.sol\":6949:6961  _msgSender() */\n      jump\t// in\n    tag_206:\n        /* \"@openzeppelin/contracts/access/AccessControl.sol\":6922:6962  RoleRevoked(role, account, _msgSender()) */\n      0xffffffffffffffffffffffffffffffffffffffff\n      and\n        /* \"@openzeppelin/contracts/access/AccessControl.sol\":6940:6947  account */\n      dup3\n        /* \"@openzeppelin/contracts/access/AccessControl.sol\":6922:6962  RoleRevoked(role, account, _msgSender()) */\n      0xffffffffffffffffffffffffffffffffffffffff\n      and\n        /* \"@openzeppelin/contracts/access/AccessControl.sol\":6934:6938  role */\n      dup5\n        /* \"@openzeppelin/contracts/access/AccessControl.sol\":6922:6962  RoleRevoked(role, account, _msgSender()) */\n      0xf6391f5c32d9c69d2a47ea670b442974b53935d1edc7fd64eb21e047a839171b\n      mload(0x40)\n      mload(0x40)\n      dup1\n      swap2\n      sub\n      swap1\n      log4\n        /* \"@openzeppelin/contracts/access/AccessControl.sol\":6983:6987  true */\n      0x01\n        /* \"@openzeppelin/contracts/access/AccessControl.sol\":6976:6987  return true */\n      swap1\n      pop\n      jump(tag_203)\n        /* \"@openzeppelin/contracts/access/AccessControl.sol\":6824:7041  if (hasRole(role, account)) {... */\n    tag_205:\n        /* \"@openzeppelin/contracts/access/AccessControl.sol\":7025:7030  false */\n      0x00\n        /* \"@openzeppelin/contracts/access/AccessControl.sol\":7018:7030  return false */\n      swap1\n      pop\n        /* \"@openzeppelin/contracts/access/AccessControl.sol\":6730:7047  function _revokeRole(bytes32 role, address account) internal virtual returns (bool) {... */\n    tag_203:\n      swap3\n      swap2\n      pop\n      pop\n      jump\t// out\n        /* \"@openzeppelin/contracts/access/AccessControl.sol\":3432:3629  function _checkRole(bytes32 role, address account) internal view virtual {... */\n    tag_196:\n        /* \"@openzeppelin/contracts/access/AccessControl.sol\":3520:3542  hasRole(role, account) */\n      tag_209\n        /* \"@openzeppelin/contracts/access/AccessControl.sol\":3528:3532  role */\n      dup3\n        /* \"@openzeppelin/contracts/access/AccessControl.sol\":3534:3541  account */\n      dup3\n        /* \"@openzeppelin/contracts/access/AccessControl.sol\":3520:3527  hasRole */\n      tag_65\n        /* \"@openzeppelin/contracts/access/AccessControl.sol\":3520:3542  hasRole(role, account) */\n      jump\t// in\n    tag_209:\n        /* \"@openzeppelin/contracts/access/AccessControl.sol\":3515:3623  if (!hasRole(role, account)) {... */\n      tag_210\n      jumpi\n        /* \"@openzeppelin/contracts/access/AccessControl.sol\":3598:3605  account */\n      dup1\n        /* \"@openzeppelin/contracts/access/AccessControl.sol\":3607:3611  role */\n      dup3\n        /* \"@openzeppelin/contracts/access/AccessControl.sol\":3565:3612  AccessControlUnauthorizedAccount(account, role) */\n      mload(0x40)\n      0xe2517d3f00000000000000000000000000000000000000000000000000000000\n      dup2\n      mstore\n      0x04\n      add\n      tag_211\n      swap3\n      swap2\n      swap1\n      tag_212\n      jump\t// in\n    tag_211:\n      mload(0x40)\n      dup1\n      swap2\n      sub\n      swap1\n      revert\n        /* \"@openzeppelin/contracts/access/AccessControl.sol\":3515:3623  if (!hasRole(role, account)) {... */\n    tag_210:\n        /* \"@openzeppelin/contracts/access/AccessControl.sol\":3432:3629  function _checkRole(bytes32 role, address account) internal view virtual {... */\n      pop\n      pop\n      jump\t// out\n        /* \"#utility.yul\":7:82   */\n    tag_213:\n        /* \"#utility.yul\":40:46   */\n      0x00\n        /* \"#utility.yul\":73:75   */\n      0x40\n        /* \"#utility.yul\":67:76   */\n      mload\n        /* \"#utility.yul\":57:76   */\n      swap1\n      pop\n        /* \"#utility.yul\":7:82   */\n      swap1\n      jump\t// out\n        /* \"#utility.yul\":88:205   */\n    tag_214:\n        /* \"#utility.yul\":197:198   */\n      0x00\n        /* \"#utility.yul\":194:195   */\n      dup1\n        /* \"#utility.yul\":187:199   */\n      revert\n        /* \"#utility.yul\":211:328   */\n    tag_215:\n        /* \"#utility.yul\":320:321   */\n      0x00\n        /* \"#utility.yul\":317:318   */\n      dup1\n        /* \"#utility.yul\":310:322   */\n      revert\n        /* \"#utility.yul\":334:483   */\n    tag_216:\n        /* \"#utility.yul\":370:377   */\n      0x00\n        /* \"#utility.yul\":410:476   */\n      0xffffffff00000000000000000000000000000000000000000000000000000000\n        /* \"#utility.yul\":403:408   */\n      dup3\n        /* \"#utility.yul\":399:477   */\n      and\n        /* \"#utility.yul\":388:477   */\n      swap1\n      pop\n        /* \"#utility.yul\":334:483   */\n      swap2\n      swap1\n      pop\n      jump\t// out\n        /* \"#utility.yul\":489:609   */\n    tag_217:\n        /* \"#utility.yul\":561:584   */\n      tag_296\n        /* \"#utility.yul\":578:583   */\n      dup2\n        /* \"#utility.yul\":561:584   */\n      tag_216\n      jump\t// in\n    tag_296:\n        /* \"#utility.yul\":554:559   */\n      dup2\n        /* \"#utility.yul\":551:585   */\n      eq\n        /* \"#utility.yul\":541:603   */\n      tag_297\n      jumpi\n        /* \"#utility.yul\":599:600   */\n      0x00\n        /* \"#utility.yul\":596:597   */\n      dup1\n        /* \"#utility.yul\":589:601   */\n      revert\n        /* \"#utility.yul\":541:603   */\n    tag_297:\n        /* \"#utility.yul\":489:609   */\n      pop\n      jump\t// out\n        /* \"#utility.yul\":615:752   */\n    tag_218:\n        /* \"#utility.yul\":660:665   */\n      0x00\n        /* \"#utility.yul\":698:704   */\n      dup2\n        /* \"#utility.yul\":685:705   */\n      calldataload\n        /* \"#utility.yul\":676:705   */\n      swap1\n      pop\n        /* \"#utility.yul\":714:746   */\n      tag_299\n        /* \"#utility.yul\":740:745   */\n      dup2\n        /* \"#utility.yul\":714:746   */\n      tag_217\n      jump\t// in\n    tag_299:\n        /* \"#utility.yul\":615:752   */\n      swap3\n      swap2\n      pop\n      pop\n      jump\t// out\n        /* \"#utility.yul\":758:1085   */\n    tag_25:\n        /* \"#utility.yul\":816:822   */\n      0x00\n        /* \"#utility.yul\":865:867   */\n      0x20\n        /* \"#utility.yul\":853:862   */\n      dup3\n        /* \"#utility.yul\":844:851   */\n      dup5\n        /* \"#utility.yul\":840:863   */\n      sub\n        /* \"#utility.yul\":836:868   */\n      slt\n        /* \"#utility.yul\":833:952   */\n      iszero\n      tag_301\n      jumpi\n        /* \"#utility.yul\":871:950   */\n      tag_302\n      tag_214\n      jump\t// in\n    tag_302:\n        /* \"#utility.yul\":833:952   */\n    tag_301:\n        /* \"#utility.yul\":991:992   */\n      0x00\n        /* \"#utility.yul\":1016:1068   */\n      tag_303\n        /* \"#utility.yul\":1060:1067   */\n      dup5\n        /* \"#utility.yul\":1051:1057   */\n      dup3\n        /* \"#utility.yul\":1040:1049   */\n      dup6\n        /* \"#utility.yul\":1036:1058   */\n      add\n        /* \"#utility.yul\":1016:1068   */\n      tag_218\n      jump\t// in\n    tag_303:\n        /* \"#utility.yul\":1006:1068   */\n      swap2\n      pop\n        /* \"#utility.yul\":962:1078   */\n      pop\n        /* \"#utility.yul\":758:1085   */\n      swap3\n      swap2\n      pop\n      pop\n      jump\t// out\n        /* \"#utility.yul\":1091:1181   */\n    tag_219:\n        /* \"#utility.yul\":1125:1132   */\n      0x00\n        /* \"#utility.yul\":1168:1173   */\n      dup2\n        /* \"#utility.yul\":1161:1174   */\n      iszero\n        /* \"#utility.yul\":1154:1175   */\n      iszero\n        /* \"#utility.yul\":1143:1175   */\n      swap1\n      pop\n        /* \"#utility.yul\":1091:1181   */\n      swap2\n      swap1\n      pop\n      jump\t// out\n        /* \"#utility.yul\":1187:1296   */\n    tag_220:\n        /* \"#utility.yul\":1268:1289   */\n      tag_306\n        /* \"#utility.yul\":1283:1288   */\n      dup2\n        /* \"#utility.yul\":1268:1289   */\n      tag_219\n      jump\t// in\n    tag_306:\n        /* \"#utility.yul\":1263:1266   */\n      dup3\n        /* \"#utility.yul\":1256:1290   */\n      mstore\n        /* \"#utility.yul\":1187:1296   */\n      pop\n      pop\n      jump\t// out\n        /* \"#utility.yul\":1302:1512   */\n    tag_28:\n        /* \"#utility.yul\":1389:1393   */\n      0x00\n        /* \"#utility.yul\":1427:1429   */\n      0x20\n        /* \"#utility.yul\":1416:1425   */\n      dup3\n        /* \"#utility.yul\":1412:1430   */\n      add\n        /* \"#utility.yul\":1404:1430   */\n      swap1\n      pop\n        /* \"#utility.yul\":1440:1505   */\n      tag_308\n        /* \"#utility.yul\":1502:1503   */\n      0x00\n        /* \"#utility.yul\":1491:1500   */\n      dup4\n        /* \"#utility.yul\":1487:1504   */\n      add\n        /* \"#utility.yul\":1478:1484   */\n      dup5\n        /* \"#utility.yul\":1440:1505   */\n      tag_220\n      jump\t// in\n    tag_308:\n        /* \"#utility.yul\":1302:1512   */\n      swap3\n      swap2\n      pop\n      pop\n      jump\t// out\n        /* \"#utility.yul\":1518:1635   */\n    tag_221:\n        /* \"#utility.yul\":1627:1628   */\n      0x00\n        /* \"#utility.yul\":1624:1625   */\n      dup1\n        /* \"#utility.yul\":1617:1629   */\n      revert\n        /* \"#utility.yul\":1641:1758   */\n    tag_222:\n        /* \"#utility.yul\":1750:1751   */\n      0x00\n        /* \"#utility.yul\":1747:1748   */\n      dup1\n        /* \"#utility.yul\":1740:1752   */\n      revert\n        /* \"#utility.yul\":1764:1866   */\n    tag_223:\n        /* \"#utility.yul\":1805:1811   */\n      0x00\n        /* \"#utility.yul\":1856:1858   */\n      0x1f\n        /* \"#utility.yul\":1852:1859   */\n      not\n        /* \"#utility.yul\":1847:1849   */\n      0x1f\n        /* \"#utility.yul\":1840:1845   */\n      dup4\n        /* \"#utility.yul\":1836:1850   */\n      add\n        /* \"#utility.yul\":1832:1860   */\n      and\n        /* \"#utility.yul\":1822:1860   */\n      swap1\n      pop\n        /* \"#utility.yul\":1764:1866   */\n      swap2\n      swap1\n      pop\n      jump\t// out\n        /* \"#utility.yul\":1872:2052   */\n    tag_224:\n        /* \"#utility.yul\":1920:1997   */\n      0x4e487b7100000000000000000000000000000000000000000000000000000000\n        /* \"#utility.yul\":1917:1918   */\n      0x00\n        /* \"#utility.yul\":1910:1998   */\n      mstore\n        /* \"#utility.yul\":2017:2021   */\n      0x41\n        /* \"#utility.yul\":2014:2015   */\n      0x04\n        /* \"#utility.yul\":2007:2022   */\n      mstore\n        /* \"#utility.yul\":2041:2045   */\n      0x24\n        /* \"#utility.yul\":2038:2039   */\n      0x00\n        /* \"#utility.yul\":2031:2046   */\n      revert\n        /* \"#utility.yul\":2058:2339   */\n    tag_225:\n        /* \"#utility.yul\":2141:2168   */\n      tag_314\n        /* \"#utility.yul\":2163:2167   */\n      dup3\n        /* \"#utility.yul\":2141:2168   */\n      tag_223\n      jump\t// in\n    tag_314:\n        /* \"#utility.yul\":2133:2139   */\n      dup2\n        /* \"#utility.yul\":2129:2169   */\n      add\n        /* \"#utility.yul\":2271:2277   */\n      dup2\n        /* \"#utility.yul\":2259:2269   */\n      dup2\n        /* \"#utility.yul\":2256:2278   */\n      lt\n        /* \"#utility.yul\":2235:2253   */\n      0xffffffffffffffff\n        /* \"#utility.yul\":2223:2233   */\n      dup3\n        /* \"#utility.yul\":2220:2254   */\n      gt\n        /* \"#utility.yul\":2217:2279   */\n      or\n        /* \"#utility.yul\":2214:2302   */\n      iszero\n      tag_315\n      jumpi\n        /* \"#utility.yul\":2282:2300   */\n      tag_316\n      tag_224\n      jump\t// in\n    tag_316:\n        /* \"#utility.yul\":2214:2302   */\n    tag_315:\n        /* \"#utility.yul\":2322:2332   */\n      dup1\n        /* \"#utility.yul\":2318:2320   */\n      0x40\n        /* \"#utility.yul\":2311:2333   */\n      mstore\n        /* \"#utility.yul\":2101:2339   */\n      pop\n        /* \"#utility.yul\":2058:2339   */\n      pop\n      pop\n      jump\t// out\n        /* \"#utility.yul\":2345:2474   */\n    tag_226:\n        /* \"#utility.yul\":2379:2385   */\n      0x00\n        /* \"#utility.yul\":2406:2426   */\n      tag_318\n      tag_213\n      jump\t// in\n    tag_318:\n        /* \"#utility.yul\":2396:2426   */\n      swap1\n      pop\n        /* \"#utility.yul\":2435:2468   */\n      tag_319\n        /* \"#utility.yul\":2463:2467   */\n      dup3\n        /* \"#utility.yul\":2455:2461   */\n      dup3\n        /* \"#utility.yul\":2435:2468   */\n      tag_225\n      jump\t// in\n    tag_319:\n        /* \"#utility.yul\":2345:2474   */\n      swap2\n      swap1\n      pop\n      jump\t// out\n        /* \"#utility.yul\":2480:2788   */\n    tag_227:\n        /* \"#utility.yul\":2542:2546   */\n      0x00\n        /* \"#utility.yul\":2632:2650   */\n      0xffffffffffffffff\n        /* \"#utility.yul\":2624:2630   */\n      dup3\n        /* \"#utility.yul\":2621:2651   */\n      gt\n        /* \"#utility.yul\":2618:2674   */\n      iszero\n      tag_321\n      jumpi\n        /* \"#utility.yul\":2654:2672   */\n      tag_322\n      tag_224\n      jump\t// in\n    tag_322:\n        /* \"#utility.yul\":2618:2674   */\n    tag_321:\n        /* \"#utility.yul\":2692:2721   */\n      tag_323\n        /* \"#utility.yul\":2714:2720   */\n      dup3\n        /* \"#utility.yul\":2692:2721   */\n      tag_223\n      jump\t// in\n    tag_323:\n        /* \"#utility.yul\":2684:2721   */\n      swap1\n      pop\n        /* \"#utility.yul\":2776:2780   */\n      0x20\n        /* \"#utility.yul\":2770:2774   */\n      dup2\n        /* \"#utility.yul\":2766:2781   */\n      add\n        /* \"#utility.yul\":2758:2781   */\n      swap1\n      pop\n        /* \"#utility.yul\":2480:2788   */\n      swap2\n      swap1\n      pop\n      jump\t// out\n        /* \"#utility.yul\":2794:2942   */\n    tag_228:\n        /* \"#utility.yul\":2892:2898   */\n      dup3\n        /* \"#utility.yul\":2887:2890   */\n      dup2\n        /* \"#utility.yul\":2882:2885   */\n      dup4\n        /* \"#utility.yul\":2869:2899   */\n      calldatacopy\n        /* \"#utility.yul\":2933:2934   */\n      0x00\n        /* \"#utility.yul\":2924:2930   */\n      dup4\n        /* \"#utility.yul\":2919:2922   */\n      dup4\n        /* \"#utility.yul\":2915:2931   */\n      add\n        /* \"#utility.yul\":2908:2935   */\n      mstore\n        /* \"#utility.yul\":2794:2942   */\n      pop\n      pop\n      pop\n      jump\t// out\n        /* \"#utility.yul\":2948:3373   */\n    tag_229:\n        /* \"#utility.yul\":3026:3031   */\n      0x00\n        /* \"#utility.yul\":3051:3117   */\n      tag_326\n        /* \"#utility.yul\":3067:3116   */\n      tag_327\n        /* \"#utility.yul\":3109:3115   */\n      dup5\n        /* \"#utility.yul\":3067:3116   */\n      tag_227\n      jump\t// in\n    tag_327:\n        /* \"#utility.yul\":3051:3117   */\n      tag_226\n      jump\t// in\n    tag_326:\n        /* \"#utility.yul\":3042:3117   */\n      swap1\n      pop\n        /* \"#utility.yul\":3140:3146   */\n      dup3\n        /* \"#utility.yul\":3133:3138   */\n      dup2\n        /* \"#utility.yul\":3126:3147   */\n      mstore\n        /* \"#utility.yul\":3178:3182   */\n      0x20\n        /* \"#utility.yul\":3171:3176   */\n      dup2\n        /* \"#utility.yul\":3167:3183   */\n      add\n        /* \"#utility.yul\":3216:3219   */\n      dup5\n        /* \"#utility.yul\":3207:3213   */\n      dup5\n        /* \"#utility.yul\":3202:3205   */\n      dup5\n        /* \"#utility.yul\":3198:3214   */\n      add\n        /* \"#utility.yul\":3195:3220   */\n      gt\n        /* \"#utility.yul\":3192:3304   */\n      iszero\n      tag_328\n      jumpi\n        /* \"#utility.yul\":3223:3302   */\n      tag_329\n      tag_222\n      jump\t// in\n    tag_329:\n        /* \"#utility.yul\":3192:3304   */\n    tag_328:\n        /* \"#utility.yul\":3313:3367   */\n      tag_330\n        /* \"#utility.yul\":3360:3366   */\n      dup5\n        /* \"#utility.yul\":3355:3358   */\n      dup3\n        /* \"#utility.yul\":3350:3353   */\n      dup6\n        /* \"#utility.yul\":3313:3367   */\n      tag_228\n      jump\t// in\n    tag_330:\n        /* \"#utility.yul\":3032:3373   */\n      pop\n        /* \"#utility.yul\":2948:3373   */\n      swap4\n      swap3\n      pop\n      pop\n      pop\n      jump\t// out\n        /* \"#utility.yul\":3393:3733   */\n    tag_230:\n        /* \"#utility.yul\":3449:3454   */\n      0x00\n        /* \"#utility.yul\":3498:3501   */\n      dup3\n        /* \"#utility.yul\":3491:3495   */\n      0x1f\n        /* \"#utility.yul\":3483:3489   */\n      dup4\n        /* \"#utility.yul\":3479:3496   */\n      add\n        /* \"#utility.yul\":3475:3502   */\n      slt\n        /* \"#utility.yul\":3465:3587   */\n      tag_332\n      jumpi\n        /* \"#utility.yul\":3506:3585   */\n      tag_333\n      tag_221\n      jump\t// in\n    tag_333:\n        /* \"#utility.yul\":3465:3587   */\n    tag_332:\n        /* \"#utility.yul\":3623:3629   */\n      dup2\n        /* \"#utility.yul\":3610:3630   */\n      calldataload\n        /* \"#utility.yul\":3648:3727   */\n      tag_334\n        /* \"#utility.yul\":3723:3726   */\n      dup5\n        /* \"#utility.yul\":3715:3721   */\n      dup3\n        /* \"#utility.yul\":3708:3712   */\n      0x20\n        /* \"#utility.yul\":3700:3706   */\n      dup7\n        /* \"#utility.yul\":3696:3713   */\n      add\n        /* \"#utility.yul\":3648:3727   */\n      tag_229\n      jump\t// in\n    tag_334:\n        /* \"#utility.yul\":3639:3727   */\n      swap2\n      pop\n        /* \"#utility.yul\":3455:3733   */\n      pop\n        /* \"#utility.yul\":3393:3733   */\n      swap3\n      swap2\n      pop\n      pop\n      jump\t// out\n        /* \"#utility.yul\":3739:3816   */\n    tag_231:\n        /* \"#utility.yul\":3776:3783   */\n      0x00\n        /* \"#utility.yul\":3805:3810   */\n      dup2\n        /* \"#utility.yul\":3794:3810   */\n      swap1\n      pop\n        /* \"#utility.yul\":3739:3816   */\n      swap2\n      swap1\n      pop\n      jump\t// out\n        /* \"#utility.yul\":3822:3944   */\n    tag_232:\n        /* \"#utility.yul\":3895:3919   */\n      tag_337\n        /* \"#utility.yul\":3913:3918   */\n      dup2\n        /* \"#utility.yul\":3895:3919   */\n      tag_231\n      jump\t// in\n    tag_337:\n        /* \"#utility.yul\":3888:3893   */\n      dup2\n        /* \"#utility.yul\":3885:3920   */\n      eq\n        /* \"#utility.yul\":3875:3938   */\n      tag_338\n      jumpi\n        /* \"#utility.yul\":3934:3935   */\n      0x00\n        /* \"#utility.yul\":3931:3932   */\n      dup1\n        /* \"#utility.yul\":3924:3936   */\n      revert\n        /* \"#utility.yul\":3875:3938   */\n    tag_338:\n        /* \"#utility.yul\":3822:3944   */\n      pop\n      jump\t// out\n        /* \"#utility.yul\":3950:4089   */\n    tag_233:\n        /* \"#utility.yul\":3996:4001   */\n      0x00\n        /* \"#utility.yul\":4034:4040   */\n      dup2\n        /* \"#utility.yul\":4021:4041   */\n      calldataload\n        /* \"#utility.yul\":4012:4041   */\n      swap1\n      pop\n        /* \"#utility.yul\":4050:4083   */\n      tag_340\n        /* \"#utility.yul\":4077:4082   */\n      dup2\n        /* \"#utility.yul\":4050:4083   */\n      tag_232\n      jump\t// in\n    tag_340:\n        /* \"#utility.yul\":3950:4089   */\n      swap3\n      swap2\n      pop\n      pop\n      jump\t// out\n        /* \"#utility.yul\":4095:4749   */\n    tag_31:\n        /* \"#utility.yul\":4173:4179   */\n      0x00\n        /* \"#utility.yul\":4181:4187   */\n      dup1\n        /* \"#utility.yul\":4230:4232   */\n      0x40\n        /* \"#utility.yul\":4218:4227   */\n      dup4\n        /* \"#utility.yul\":4209:4216   */\n      dup6\n        /* \"#utility.yul\":4205:4228   */\n      sub\n        /* \"#utility.yul\":4201:4233   */\n      slt\n        /* \"#utility.yul\":4198:4317   */\n      iszero\n      tag_342\n      jumpi\n        /* \"#utility.yul\":4236:4315   */\n      tag_343\n      tag_214\n      jump\t// in\n    tag_343:\n        /* \"#utility.yul\":4198:4317   */\n    tag_342:\n        /* \"#utility.yul\":4384:4385   */\n      0x00\n        /* \"#utility.yul\":4373:4382   */\n      dup4\n        /* \"#utility.yul\":4369:4386   */\n      add\n        /* \"#utility.yul\":4356:4387   */\n      calldataload\n        /* \"#utility.yul\":4414:4432   */\n      0xffffffffffffffff\n        /* \"#utility.yul\":4406:4412   */\n      dup2\n        /* \"#utility.yul\":4403:4433   */\n      gt\n        /* \"#utility.yul\":4400:4517   */\n      iszero\n      tag_344\n      jumpi\n        /* \"#utility.yul\":4436:4515   */\n      tag_345\n      tag_215\n      jump\t// in\n    tag_345:\n        /* \"#utility.yul\":4400:4517   */\n    tag_344:\n        /* \"#utility.yul\":4541:4604   */\n      tag_346\n        /* \"#utility.yul\":4596:4603   */\n      dup6\n        /* \"#utility.yul\":4587:4593   */\n      dup3\n        /* \"#utility.yul\":4576:4585   */\n      dup7\n        /* \"#utility.yul\":4572:4594   */\n      add\n        /* \"#utility.yul\":4541:4604   */\n      tag_230\n      jump\t// in\n    tag_346:\n        /* \"#utility.yul\":4531:4604   */\n      swap3\n      pop\n        /* \"#utility.yul\":4327:4614   */\n      pop\n        /* \"#utility.yul\":4653:4655   */\n      0x20\n        /* \"#utility.yul\":4679:4732   */\n      tag_347\n        /* \"#utility.yul\":4724:4731   */\n      dup6\n        /* \"#utility.yul\":4715:4721   */\n      dup3\n        /* \"#utility.yul\":4704:4713   */\n      dup7\n        /* \"#utility.yul\":4700:4722   */\n      add\n        /* \"#utility.yul\":4679:4732   */\n      tag_233\n      jump\t// in\n    tag_347:\n        /* \"#utility.yul\":4669:4732   */\n      swap2\n      pop\n        /* \"#utility.yul\":4624:4742   */\n      pop\n        /* \"#utility.yul\":4095:4749   */\n      swap3\n      pop\n      swap3\n      swap1\n      pop\n      jump\t// out\n        /* \"#utility.yul\":4755:4832   */\n    tag_234:\n        /* \"#utility.yul\":4792:4799   */\n      0x00\n        /* \"#utility.yul\":4821:4826   */\n      dup2\n        /* \"#utility.yul\":4810:4826   */\n      swap1\n      pop\n        /* \"#utility.yul\":4755:4832   */\n      swap2\n      swap1\n      pop\n      jump\t// out\n        /* \"#utility.yul\":4838:4960   */\n    tag_235:\n        /* \"#utility.yul\":4911:4935   */\n      tag_350\n        /* \"#utility.yul\":4929:4934   */\n      dup2\n        /* \"#utility.yul\":4911:4935   */\n      tag_234\n      jump\t// in\n    tag_350:\n        /* \"#utility.yul\":4904:4909   */\n      dup2\n        /* \"#utility.yul\":4901:4936   */\n      eq\n        /* \"#utility.yul\":4891:4954   */\n      tag_351\n      jumpi\n        /* \"#utility.yul\":4950:4951   */\n      0x00\n        /* \"#utility.yul\":4947:4948   */\n      dup1\n        /* \"#utility.yul\":4940:4952   */\n      revert\n        /* \"#utility.yul\":4891:4954   */\n    tag_351:\n        /* \"#utility.yul\":4838:4960   */\n      pop\n      jump\t// out\n        /* \"#utility.yul\":4966:5105   */\n    tag_236:\n        /* \"#utility.yul\":5012:5017   */\n      0x00\n        /* \"#utility.yul\":5050:5056   */\n      dup2\n        /* \"#utility.yul\":5037:5057   */\n      calldataload\n        /* \"#utility.yul\":5028:5057   */\n      swap1\n      pop\n        /* \"#utility.yul\":5066:5099   */\n      tag_353\n        /* \"#utility.yul\":5093:5098   */\n      dup2\n        /* \"#utility.yul\":5066:5099   */\n      tag_235\n      jump\t// in\n    tag_353:\n        /* \"#utility.yul\":4966:5105   */\n      swap3\n      swap2\n      pop\n      pop\n      jump\t// out\n        /* \"#utility.yul\":5111:5440   */\n    tag_35:\n        /* \"#utility.yul\":5170:5176   */\n      0x00\n        /* \"#utility.yul\":5219:5221   */\n      0x20\n        /* \"#utility.yul\":5207:5216   */\n      dup3\n        /* \"#utility.yul\":5198:5205   */\n      dup5\n        /* \"#utility.yul\":5194:5217   */\n      sub\n        /* \"#utility.yul\":5190:5222   */\n      slt\n        /* \"#utility.yul\":5187:5306   */\n      iszero\n      tag_355\n      jumpi\n        /* \"#utility.yul\":5225:5304   */\n      tag_356\n      tag_214\n      jump\t// in\n    tag_356:\n        /* \"#utility.yul\":5187:5306   */\n    tag_355:\n        /* \"#utility.yul\":5345:5346   */\n      0x00\n        /* \"#utility.yul\":5370:5423   */\n      tag_357\n        /* \"#utility.yul\":5415:5422   */\n      dup5\n        /* \"#utility.yul\":5406:5412   */\n      dup3\n        /* \"#utility.yul\":5395:5404   */\n      dup6\n        /* \"#utility.yul\":5391:5413   */\n      add\n        /* \"#utility.yul\":5370:5423   */\n      tag_236\n      jump\t// in\n    tag_357:\n        /* \"#utility.yul\":5360:5423   */\n      swap2\n      pop\n        /* \"#utility.yul\":5316:5433   */\n      pop\n        /* \"#utility.yul\":5111:5440   */\n      swap3\n      swap2\n      pop\n      pop\n      jump\t// out\n        /* \"#utility.yul\":5446:5564   */\n    tag_237:\n        /* \"#utility.yul\":5533:5557   */\n      tag_359\n        /* \"#utility.yul\":5551:5556   */\n      dup2\n        /* \"#utility.yul\":5533:5557   */\n      tag_234\n      jump\t// in\n    tag_359:\n        /* \"#utility.yul\":5528:5531   */\n      dup3\n        /* \"#utility.yul\":5521:5558   */\n      mstore\n        /* \"#utility.yul\":5446:5564   */\n      pop\n      pop\n      jump\t// out\n        /* \"#utility.yul\":5570:5792   */\n    tag_38:\n        /* \"#utility.yul\":5663:5667   */\n      0x00\n        /* \"#utility.yul\":5701:5703   */\n      0x20\n        /* \"#utility.yul\":5690:5699   */\n      dup3\n        /* \"#utility.yul\":5686:5704   */\n      add\n        /* \"#utility.yul\":5678:5704   */\n      swap1\n      pop\n        /* \"#utility.yul\":5714:5785   */\n      tag_361\n        /* \"#utility.yul\":5782:5783   */\n      0x00\n        /* \"#utility.yul\":5771:5780   */\n      dup4\n        /* \"#utility.yul\":5767:5784   */\n      add\n        /* \"#utility.yul\":5758:5764   */\n      dup5\n        /* \"#utility.yul\":5714:5785   */\n      tag_237\n      jump\t// in\n    tag_361:\n        /* \"#utility.yul\":5570:5792   */\n      swap3\n      swap2\n      pop\n      pop\n      jump\t// out\n        /* \"#utility.yul\":5798:5924   */\n    tag_238:\n        /* \"#utility.yul\":5835:5842   */\n      0x00\n        /* \"#utility.yul\":5875:5917   */\n      0xffffffffffffffffffffffffffffffffffffffff\n        /* \"#utility.yul\":5868:5873   */\n      dup3\n        /* \"#utility.yul\":5864:5918   */\n      and\n        /* \"#utility.yul\":5853:5918   */\n      swap1\n      pop\n        /* \"#utility.yul\":5798:5924   */\n      swap2\n      swap1\n      pop\n      jump\t// out\n        /* \"#utility.yul\":5930:6026   */\n    tag_239:\n        /* \"#utility.yul\":5967:5974   */\n      0x00\n        /* \"#utility.yul\":5996:6020   */\n      tag_364\n        /* \"#utility.yul\":6014:6019   */\n      dup3\n        /* \"#utility.yul\":5996:6020   */\n      tag_238\n      jump\t// in\n    tag_364:\n        /* \"#utility.yul\":5985:6020   */\n      swap1\n      pop\n        /* \"#utility.yul\":5930:6026   */\n      swap2\n      swap1\n      pop\n      jump\t// out\n        /* \"#utility.yul\":6032:6154   */\n    tag_240:\n        /* \"#utility.yul\":6105:6129   */\n      tag_366\n        /* \"#utility.yul\":6123:6128   */\n      dup2\n        /* \"#utility.yul\":6105:6129   */\n      tag_239\n      jump\t// in\n    tag_366:\n        /* \"#utility.yul\":6098:6103   */\n      dup2\n        /* \"#utility.yul\":6095:6130   */\n      eq\n        /* \"#utility.yul\":6085:6148   */\n      tag_367\n      jumpi\n        /* \"#utility.yul\":6144:6145   */\n      0x00\n        /* \"#utility.yul\":6141:6142   */\n      dup1\n        /* \"#utility.yul\":6134:6146   */\n      revert\n        /* \"#utility.yul\":6085:6148   */\n    tag_367:\n        /* \"#utility.yul\":6032:6154   */\n      pop\n      jump\t// out\n        /* \"#utility.yul\":6160:6299   */\n    tag_241:\n        /* \"#utility.yul\":6206:6211   */\n      0x00\n        /* \"#utility.yul\":6244:6250   */\n      dup2\n        /* \"#utility.yul\":6231:6251   */\n      calldataload\n        /* \"#utility.yul\":6222:6251   */\n      swap1\n      pop\n        /* \"#utility.yul\":6260:6293   */\n      tag_369\n        /* \"#utility.yul\":6287:6292   */\n      dup2\n        /* \"#utility.yul\":6260:6293   */\n      tag_240\n      jump\t// in\n    tag_369:\n        /* \"#utility.yul\":6160:6299   */\n      swap3\n      swap2\n      pop\n      pop\n      jump\t// out\n        /* \"#utility.yul\":6305:6779   */\n    tag_41:\n        /* \"#utility.yul\":6373:6379   */\n      0x00\n        /* \"#utility.yul\":6381:6387   */\n      dup1\n        /* \"#utility.yul\":6430:6432   */\n      0x40\n        /* \"#utility.yul\":6418:6427   */\n      dup4\n        /* \"#utility.yul\":6409:6416   */\n      dup6\n        /* \"#utility.yul\":6405:6428   */\n      sub\n        /* \"#utility.yul\":6401:6433   */\n      slt\n        /* \"#utility.yul\":6398:6517   */\n      iszero\n      tag_371\n      jumpi\n        /* \"#utility.yul\":6436:6515   */\n      tag_372\n      tag_214\n      jump\t// in\n    tag_372:\n        /* \"#utility.yul\":6398:6517   */\n    tag_371:\n        /* \"#utility.yul\":6556:6557   */\n      0x00\n        /* \"#utility.yul\":6581:6634   */\n      tag_373\n        /* \"#utility.yul\":6626:6633   */\n      dup6\n        /* \"#utility.yul\":6617:6623   */\n      dup3\n        /* \"#utility.yul\":6606:6615   */\n      dup7\n        /* \"#utility.yul\":6602:6624   */\n      add\n        /* \"#utility.yul\":6581:6634   */\n      tag_236\n      jump\t// in\n    tag_373:\n        /* \"#utility.yul\":6571:6634   */\n      swap3\n      pop\n        /* \"#utility.yul\":6527:6644   */\n      pop\n        /* \"#utility.yul\":6683:6685   */\n      0x20\n        /* \"#utility.yul\":6709:6762   */\n      tag_374\n        /* \"#utility.yul\":6754:6761   */\n      dup6\n        /* \"#utility.yul\":6745:6751   */\n      dup3\n        /* \"#utility.yul\":6734:6743   */\n      dup7\n        /* \"#utility.yul\":6730:6752   */\n      add\n        /* \"#utility.yul\":6709:6762   */\n      tag_241\n      jump\t// in\n    tag_374:\n        /* \"#utility.yul\":6699:6762   */\n      swap2\n      pop\n        /* \"#utility.yul\":6654:6772   */\n      pop\n        /* \"#utility.yul\":6305:6779   */\n      swap3\n      pop\n      swap3\n      swap1\n      pop\n      jump\t// out\n        /* \"#utility.yul\":6785:6903   */\n    tag_242:\n        /* \"#utility.yul\":6872:6896   */\n      tag_376\n        /* \"#utility.yul\":6890:6895   */\n      dup2\n        /* \"#utility.yul\":6872:6896   */\n      tag_231\n      jump\t// in\n    tag_376:\n        /* \"#utility.yul\":6867:6870   */\n      dup3\n        /* \"#utility.yul\":6860:6897   */\n      mstore\n        /* \"#utility.yul\":6785:6903   */\n      pop\n      pop\n      jump\t// out\n        /* \"#utility.yul\":6909:7131   */\n    tag_49:\n        /* \"#utility.yul\":7002:7006   */\n      0x00\n        /* \"#utility.yul\":7040:7042   */\n      0x20\n        /* \"#utility.yul\":7029:7038   */\n      dup3\n        /* \"#utility.yul\":7025:7043   */\n      add\n        /* \"#utility.yul\":7017:7043   */\n      swap1\n      pop\n        /* \"#utility.yul\":7053:7124   */\n      tag_378\n        /* \"#utility.yul\":7121:7122   */\n      0x00\n        /* \"#utility.yul\":7110:7119   */\n      dup4\n        /* \"#utility.yul\":7106:7123   */\n      add\n        /* \"#utility.yul\":7097:7103   */\n      dup5\n        /* \"#utility.yul\":7053:7124   */\n      tag_242\n      jump\t// in\n    tag_378:\n        /* \"#utility.yul\":6909:7131   */\n      swap3\n      swap2\n      pop\n      pop\n      jump\t// out\n        /* \"#utility.yul\":7137:7611   */\n    tag_52:\n        /* \"#utility.yul\":7205:7211   */\n      0x00\n        /* \"#utility.yul\":7213:7219   */\n      dup1\n        /* \"#utility.yul\":7262:7264   */\n      0x40\n        /* \"#utility.yul\":7250:7259   */\n      dup4\n        /* \"#utility.yul\":7241:7248   */\n      dup6\n        /* \"#utility.yul\":7237:7260   */\n      sub\n        /* \"#utility.yul\":7233:7265   */\n      slt\n        /* \"#utility.yul\":7230:7349   */\n      iszero\n      tag_380\n      jumpi\n        /* \"#utility.yul\":7268:7347   */\n      tag_381\n      tag_214\n      jump\t// in\n    tag_381:\n        /* \"#utility.yul\":7230:7349   */\n    tag_380:\n        /* \"#utility.yul\":7388:7389   */\n      0x00\n        /* \"#utility.yul\":7413:7466   */\n      tag_382\n        /* \"#utility.yul\":7458:7465   */\n      dup6\n        /* \"#utility.yul\":7449:7455   */\n      dup3\n        /* \"#utility.yul\":7438:7447   */\n      dup7\n        /* \"#utility.yul\":7434:7456   */\n      add\n        /* \"#utility.yul\":7413:7466   */\n      tag_241\n      jump\t// in\n    tag_382:\n        /* \"#utility.yul\":7403:7466   */\n      swap3\n      pop\n        /* \"#utility.yul\":7359:7476   */\n      pop\n        /* \"#utility.yul\":7515:7517   */\n      0x20\n        /* \"#utility.yul\":7541:7594   */\n      tag_383\n        /* \"#utility.yul\":7586:7593   */\n      dup6\n        /* \"#utility.yul\":7577:7583   */\n      dup3\n        /* \"#utility.yul\":7566:7575   */\n      dup7\n        /* \"#utility.yul\":7562:7584   */\n      add\n        /* \"#utility.yul\":7541:7594   */\n      tag_233\n      jump\t// in\n    tag_383:\n        /* \"#utility.yul\":7531:7594   */\n      swap2\n      pop\n        /* \"#utility.yul\":7486:7604   */\n      pop\n        /* \"#utility.yul\":7137:7611   */\n      swap3\n      pop\n      swap3\n      swap1\n      pop\n      jump\t// out\n        /* \"#utility.yul\":7617:7946   */\n    tag_56:\n        /* \"#utility.yul\":7676:7682   */\n      0x00\n        /* \"#utility.yul\":7725:7727   */\n      0x20\n        /* \"#utility.yul\":7713:7722   */\n      dup3\n        /* \"#utility.yul\":7704:7711   */\n      dup5\n        /* \"#utility.yul\":7700:7723   */\n      sub\n        /* \"#utility.yul\":7696:7728   */\n      slt\n        /* \"#utility.yul\":7693:7812   */\n      iszero\n      tag_385\n      jumpi\n        /* \"#utility.yul\":7731:7810   */\n      tag_386\n      tag_214\n      jump\t// in\n    tag_386:\n        /* \"#utility.yul\":7693:7812   */\n    tag_385:\n        /* \"#utility.yul\":7851:7852   */\n      0x00\n        /* \"#utility.yul\":7876:7929   */\n      tag_387\n        /* \"#utility.yul\":7921:7928   */\n      dup5\n        /* \"#utility.yul\":7912:7918   */\n      dup3\n        /* \"#utility.yul\":7901:7910   */\n      dup6\n        /* \"#utility.yul\":7897:7919   */\n      add\n        /* \"#utility.yul\":7876:7929   */\n      tag_233\n      jump\t// in\n    tag_387:\n        /* \"#utility.yul\":7866:7929   */\n      swap2\n      pop\n        /* \"#utility.yul\":7822:7939   */\n      pop\n        /* \"#utility.yul\":7617:7946   */\n      swap3\n      swap2\n      pop\n      pop\n      jump\t// out\n        /* \"#utility.yul\":7952:8051   */\n    tag_243:\n        /* \"#utility.yul\":8004:8010   */\n      0x00\n        /* \"#utility.yul\":8038:8043   */\n      dup2\n        /* \"#utility.yul\":8032:8044   */\n      mload\n        /* \"#utility.yul\":8022:8044   */\n      swap1\n      pop\n        /* \"#utility.yul\":7952:8051   */\n      swap2\n      swap1\n      pop\n      jump\t// out\n        /* \"#utility.yul\":8057:8226   */\n    tag_244:\n        /* \"#utility.yul\":8141:8152   */\n      0x00\n        /* \"#utility.yul\":8175:8181   */\n      dup3\n        /* \"#utility.yul\":8170:8173   */\n      dup3\n        /* \"#utility.yul\":8163:8182   */\n      mstore\n        /* \"#utility.yul\":8215:8219   */\n      0x20\n        /* \"#utility.yul\":8210:8213   */\n      dup3\n        /* \"#utility.yul\":8206:8220   */\n      add\n        /* \"#utility.yul\":8191:8220   */\n      swap1\n      pop\n        /* \"#utility.yul\":8057:8226   */\n      swap3\n      swap2\n      pop\n      pop\n      jump\t// out\n        /* \"#utility.yul\":8232:8371   */\n    tag_245:\n        /* \"#utility.yul\":8321:8327   */\n      dup3\n        /* \"#utility.yul\":8316:8319   */\n      dup2\n        /* \"#utility.yul\":8311:8314   */\n      dup4\n        /* \"#utility.yul\":8305:8328   */\n      mcopy\n        /* \"#utility.yul\":8362:8363   */\n      0x00\n        /* \"#utility.yul\":8353:8359   */\n      dup4\n        /* \"#utility.yul\":8348:8351   */\n      dup4\n        /* \"#utility.yul\":8344:8360   */\n      add\n        /* \"#utility.yul\":8337:8364   */\n      mstore\n        /* \"#utility.yul\":8232:8371   */\n      pop\n      pop\n      pop\n      jump\t// out\n        /* \"#utility.yul\":8377:8754   */\n    tag_246:\n        /* \"#utility.yul\":8465:8468   */\n      0x00\n        /* \"#utility.yul\":8493:8532   */\n      tag_392\n        /* \"#utility.yul\":8526:8531   */\n      dup3\n        /* \"#utility.yul\":8493:8532   */\n      tag_243\n      jump\t// in\n    tag_392:\n        /* \"#utility.yul\":8548:8619   */\n      tag_393\n        /* \"#utility.yul\":8612:8618   */\n      dup2\n        /* \"#utility.yul\":8607:8610   */\n      dup6\n        /* \"#utility.yul\":8548:8619   */\n      tag_244\n      jump\t// in\n    tag_393:\n        /* \"#utility.yul\":8541:8619   */\n      swap4\n      pop\n        /* \"#utility.yul\":8628:8693   */\n      tag_394\n        /* \"#utility.yul\":8686:8692   */\n      dup2\n        /* \"#utility.yul\":8681:8684   */\n      dup6\n        /* \"#utility.yul\":8674:8678   */\n      0x20\n        /* \"#utility.yul\":8667:8672   */\n      dup7\n        /* \"#utility.yul\":8663:8679   */\n      add\n        /* \"#utility.yul\":8628:8693   */\n      tag_245\n      jump\t// in\n    tag_394:\n        /* \"#utility.yul\":8718:8747   */\n      tag_395\n        /* \"#utility.yul\":8740:8746   */\n      dup2\n        /* \"#utility.yul\":8718:8747   */\n      tag_223\n      jump\t// in\n    tag_395:\n        /* \"#utility.yul\":8713:8716   */\n      dup5\n        /* \"#utility.yul\":8709:8748   */\n      add\n        /* \"#utility.yul\":8702:8748   */\n      swap2\n      pop\n        /* \"#utility.yul\":8469:8754   */\n      pop\n        /* \"#utility.yul\":8377:8754   */\n      swap3\n      swap2\n      pop\n      pop\n      jump\t// out\n        /* \"#utility.yul\":8760:8864   */\n    tag_247:\n        /* \"#utility.yul\":8805:8812   */\n      0x00\n        /* \"#utility.yul\":8834:8858   */\n      tag_397\n        /* \"#utility.yul\":8852:8857   */\n      dup3\n        /* \"#utility.yul\":8834:8858   */\n      tag_238\n      jump\t// in\n    tag_397:\n        /* \"#utility.yul\":8823:8858   */\n      swap1\n      pop\n        /* \"#utility.yul\":8760:8864   */\n      swap2\n      swap1\n      pop\n      jump\t// out\n        /* \"#utility.yul\":8870:9012   */\n    tag_248:\n        /* \"#utility.yul\":8973:9005   */\n      tag_399\n        /* \"#utility.yul\":8999:9004   */\n      dup2\n        /* \"#utility.yul\":8973:9005   */\n      tag_247\n      jump\t// in\n    tag_399:\n        /* \"#utility.yul\":8968:8971   */\n      dup3\n        /* \"#utility.yul\":8961:9006   */\n      mstore\n        /* \"#utility.yul\":8870:9012   */\n      pop\n      pop\n      jump\t// out\n        /* \"#utility.yul\":9018:9793   */\n    tag_59:\n        /* \"#utility.yul\":9253:9257   */\n      0x00\n        /* \"#utility.yul\":9291:9294   */\n      0xa0\n        /* \"#utility.yul\":9280:9289   */\n      dup3\n        /* \"#utility.yul\":9276:9295   */\n      add\n        /* \"#utility.yul\":9268:9295   */\n      swap1\n      pop\n        /* \"#utility.yul\":9305:9376   */\n      tag_401\n        /* \"#utility.yul\":9373:9374   */\n      0x00\n        /* \"#utility.yul\":9362:9371   */\n      dup4\n        /* \"#utility.yul\":9358:9375   */\n      add\n        /* \"#utility.yul\":9349:9355   */\n      dup9\n        /* \"#utility.yul\":9305:9376   */\n      tag_242\n      jump\t// in\n    tag_401:\n        /* \"#utility.yul\":9423:9432   */\n      dup2\n        /* \"#utility.yul\":9417:9421   */\n      dup2\n        /* \"#utility.yul\":9413:9433   */\n      sub\n        /* \"#utility.yul\":9408:9410   */\n      0x20\n        /* \"#utility.yul\":9397:9406   */\n      dup4\n        /* \"#utility.yul\":9393:9411   */\n      add\n        /* \"#utility.yul\":9386:9434   */\n      mstore\n        /* \"#utility.yul\":9451:9529   */\n      tag_402\n        /* \"#utility.yul\":9524:9528   */\n      dup2\n        /* \"#utility.yul\":9515:9521   */\n      dup8\n        /* \"#utility.yul\":9451:9529   */\n      tag_246\n      jump\t// in\n    tag_402:\n        /* \"#utility.yul\":9443:9529   */\n      swap1\n      pop\n        /* \"#utility.yul\":9539:9611   */\n      tag_403\n        /* \"#utility.yul\":9607:9609   */\n      0x40\n        /* \"#utility.yul\":9596:9605   */\n      dup4\n        /* \"#utility.yul\":9592:9610   */\n      add\n        /* \"#utility.yul\":9583:9589   */\n      dup7\n        /* \"#utility.yul\":9539:9611   */\n      tag_242\n      jump\t// in\n    tag_403:\n        /* \"#utility.yul\":9621:9709   */\n      tag_404\n        /* \"#utility.yul\":9705:9707   */\n      0x60\n        /* \"#utility.yul\":9694:9703   */\n      dup4\n        /* \"#utility.yul\":9690:9708   */\n      add\n        /* \"#utility.yul\":9681:9687   */\n      dup6\n        /* \"#utility.yul\":9621:9709   */\n      tag_248\n      jump\t// in\n    tag_404:\n        /* \"#utility.yul\":9719:9786   */\n      tag_405\n        /* \"#utility.yul\":9781:9784   */\n      0x80\n        /* \"#utility.yul\":9770:9779   */\n      dup4\n        /* \"#utility.yul\":9766:9785   */\n      add\n        /* \"#utility.yul\":9757:9763   */\n      dup5\n        /* \"#utility.yul\":9719:9786   */\n      tag_220\n      jump\t// in\n    tag_405:\n        /* \"#utility.yul\":9018:9793   */\n      swap7\n      swap6\n      pop\n      pop\n      pop\n      pop\n      pop\n      pop\n      jump\t// out\n        /* \"#utility.yul\":9799:10273   */\n    tag_75:\n        /* \"#utility.yul\":9867:9873   */\n      0x00\n        /* \"#utility.yul\":9875:9881   */\n      dup1\n        /* \"#utility.yul\":9924:9926   */\n      0x40\n        /* \"#utility.yul\":9912:9921   */\n      dup4\n        /* \"#utility.yul\":9903:9910   */\n      dup6\n        /* \"#utility.yul\":9899:9922   */\n      sub\n        /* \"#utility.yul\":9895:9927   */\n      slt\n        /* \"#utility.yul\":9892:10011   */\n      iszero\n      tag_407\n      jumpi\n        /* \"#utility.yul\":9930:10009   */\n      tag_408\n      tag_214\n      jump\t// in\n    tag_408:\n        /* \"#utility.yul\":9892:10011   */\n    tag_407:\n        /* \"#utility.yul\":10050:10051   */\n      0x00\n        /* \"#utility.yul\":10075:10128   */\n      tag_409\n        /* \"#utility.yul\":10120:10127   */\n      dup6\n        /* \"#utility.yul\":10111:10117   */\n      dup3\n        /* \"#utility.yul\":10100:10109   */\n      dup7\n        /* \"#utility.yul\":10096:10118   */\n      add\n        /* \"#utility.yul\":10075:10128   */\n      tag_233\n      jump\t// in\n    tag_409:\n        /* \"#utility.yul\":10065:10128   */\n      swap3\n      pop\n        /* \"#utility.yul\":10021:10138   */\n      pop\n        /* \"#utility.yul\":10177:10179   */\n      0x20\n        /* \"#utility.yul\":10203:10256   */\n      tag_410\n        /* \"#utility.yul\":10248:10255   */\n      dup6\n        /* \"#utility.yul\":10239:10245   */\n      dup3\n        /* \"#utility.yul\":10228:10237   */\n      dup7\n        /* \"#utility.yul\":10224:10246   */\n      add\n        /* \"#utility.yul\":10203:10256   */\n      tag_233\n      jump\t// in\n    tag_410:\n        /* \"#utility.yul\":10193:10256   */\n      swap2\n      pop\n        /* \"#utility.yul\":10148:10266   */\n      pop\n        /* \"#utility.yul\":9799:10273   */\n      swap3\n      pop\n      swap3\n      swap1\n      pop\n      jump\t// out\n        /* \"#utility.yul\":10279:10397   */\n    tag_249:\n        /* \"#utility.yul\":10366:10390   */\n      tag_412\n        /* \"#utility.yul\":10384:10389   */\n      dup2\n        /* \"#utility.yul\":10366:10390   */\n      tag_239\n      jump\t// in\n    tag_412:\n        /* \"#utility.yul\":10361:10364   */\n      dup3\n        /* \"#utility.yul\":10354:10391   */\n      mstore\n        /* \"#utility.yul\":10279:10397   */\n      pop\n      pop\n      jump\t// out\n        /* \"#utility.yul\":10403:10845   */\n    tag_81:\n        /* \"#utility.yul\":10552:10556   */\n      0x00\n        /* \"#utility.yul\":10590:10592   */\n      0x60\n        /* \"#utility.yul\":10579:10588   */\n      dup3\n        /* \"#utility.yul\":10575:10593   */\n      add\n        /* \"#utility.yul\":10567:10593   */\n      swap1\n      pop\n        /* \"#utility.yul\":10603:10674   */\n      tag_414\n        /* \"#utility.yul\":10671:10672   */\n      0x00\n        /* \"#utility.yul\":10660:10669   */\n      dup4\n        /* \"#utility.yul\":10656:10673   */\n      add\n        /* \"#utility.yul\":10647:10653   */\n      dup7\n        /* \"#utility.yul\":10603:10674   */\n      tag_242\n      jump\t// in\n    tag_414:\n        /* \"#utility.yul\":10684:10756   */\n      tag_415\n        /* \"#utility.yul\":10752:10754   */\n      0x20\n        /* \"#utility.yul\":10741:10750   */\n      dup4\n        /* \"#utility.yul\":10737:10755   */\n      add\n        /* \"#utility.yul\":10728:10734   */\n      dup6\n        /* \"#utility.yul\":10684:10756   */\n      tag_249\n      jump\t// in\n    tag_415:\n        /* \"#utility.yul\":10766:10838   */\n      tag_416\n        /* \"#utility.yul\":10834:10836   */\n      0x40\n        /* \"#utility.yul\":10823:10832   */\n      dup4\n        /* \"#utility.yul\":10819:10837   */\n      add\n        /* \"#utility.yul\":10810:10816   */\n      dup5\n        /* \"#utility.yul\":10766:10838   */\n      tag_242\n      jump\t// in\n    tag_416:\n        /* \"#utility.yul\":10403:10845   */\n      swap5\n      swap4\n      pop\n      pop\n      pop\n      pop\n      jump\t// out\n        /* \"#utility.yul\":10851:11081   */\n    tag_250:\n        /* \"#utility.yul\":10991:11025   */\n      0x4c65207461726966206a6f75726e616c69657220646f69742065747265207375\n        /* \"#utility.yul\":10987:10988   */\n      0x00\n        /* \"#utility.yul\":10979:10985   */\n      dup3\n        /* \"#utility.yul\":10975:10989   */\n      add\n        /* \"#utility.yul\":10968:11026   */\n      mstore\n        /* \"#utility.yul\":11060:11073   */\n      0x7065726965757220612030000000000000000000000000000000000000000000\n        /* \"#utility.yul\":11055:11057   */\n      0x20\n        /* \"#utility.yul\":11047:11053   */\n      dup3\n        /* \"#utility.yul\":11043:11058   */\n      add\n        /* \"#utility.yul\":11036:11074   */\n      mstore\n        /* \"#utility.yul\":10851:11081   */\n      pop\n      jump\t// out\n        /* \"#utility.yul\":11087:11453   */\n    tag_251:\n        /* \"#utility.yul\":11229:11232   */\n      0x00\n        /* \"#utility.yul\":11250:11317   */\n      tag_419\n        /* \"#utility.yul\":11314:11316   */\n      0x2b\n        /* \"#utility.yul\":11309:11312   */\n      dup4\n        /* \"#utility.yul\":11250:11317   */\n      tag_244\n      jump\t// in\n    tag_419:\n        /* \"#utility.yul\":11243:11317   */\n      swap2\n      pop\n        /* \"#utility.yul\":11326:11419   */\n      tag_420\n        /* \"#utility.yul\":11415:11418   */\n      dup3\n        /* \"#utility.yul\":11326:11419   */\n      tag_250\n      jump\t// in\n    tag_420:\n        /* \"#utility.yul\":11444:11446   */\n      0x40\n        /* \"#utility.yul\":11439:11442   */\n      dup3\n        /* \"#utility.yul\":11435:11447   */\n      add\n        /* \"#utility.yul\":11428:11447   */\n      swap1\n      pop\n        /* \"#utility.yul\":11087:11453   */\n      swap2\n      swap1\n      pop\n      jump\t// out\n        /* \"#utility.yul\":11459:11878   */\n    tag_98:\n        /* \"#utility.yul\":11625:11629   */\n      0x00\n        /* \"#utility.yul\":11663:11665   */\n      0x20\n        /* \"#utility.yul\":11652:11661   */\n      dup3\n        /* \"#utility.yul\":11648:11666   */\n      add\n        /* \"#utility.yul\":11640:11666   */\n      swap1\n      pop\n        /* \"#utility.yul\":11712:11721   */\n      dup2\n        /* \"#utility.yul\":11706:11710   */\n      dup2\n        /* \"#utility.yul\":11702:11722   */\n      sub\n        /* \"#utility.yul\":11698:11699   */\n      0x00\n        /* \"#utility.yul\":11687:11696   */\n      dup4\n        /* \"#utility.yul\":11683:11700   */\n      add\n        /* \"#utility.yul\":11676:11723   */\n      mstore\n        /* \"#utility.yul\":11740:11871   */\n      tag_422\n        /* \"#utility.yul\":11866:11870   */\n      dup2\n        /* \"#utility.yul\":11740:11871   */\n      tag_251\n      jump\t// in\n    tag_422:\n        /* \"#utility.yul\":11732:11871   */\n      swap1\n      pop\n        /* \"#utility.yul\":11459:11878   */\n      swap2\n      swap1\n      pop\n      jump\t// out\n        /* \"#utility.yul\":11884:12064   */\n    tag_252:\n        /* \"#utility.yul\":11932:12009   */\n      0x4e487b7100000000000000000000000000000000000000000000000000000000\n        /* \"#utility.yul\":11929:11930   */\n      0x00\n        /* \"#utility.yul\":11922:12010   */\n      mstore\n        /* \"#utility.yul\":12029:12033   */\n      0x11\n        /* \"#utility.yul\":12026:12027   */\n      0x04\n        /* \"#utility.yul\":12019:12034   */\n      mstore\n        /* \"#utility.yul\":12053:12057   */\n      0x24\n        /* \"#utility.yul\":12050:12051   */\n      0x00\n        /* \"#utility.yul\":12043:12058   */\n      revert\n        /* \"#utility.yul\":12070:12303   */\n    tag_100:\n        /* \"#utility.yul\":12109:12112   */\n      0x00\n        /* \"#utility.yul\":12132:12156   */\n      tag_425\n        /* \"#utility.yul\":12150:12155   */\n      dup3\n        /* \"#utility.yul\":12132:12156   */\n      tag_231\n      jump\t// in\n    tag_425:\n        /* \"#utility.yul\":12123:12156   */\n      swap2\n      pop\n        /* \"#utility.yul\":12178:12244   */\n      0xffffffffffffffffffffffffffffffffffffffffffffffffffffffffffffffff\n        /* \"#utility.yul\":12171:12176   */\n      dup3\n        /* \"#utility.yul\":12168:12245   */\n      sub\n        /* \"#utility.yul\":12165:12268   */\n      tag_426\n      jumpi\n        /* \"#utility.yul\":12248:12266   */\n      tag_427\n      tag_252\n      jump\t// in\n    tag_427:\n        /* \"#utility.yul\":12165:12268   */\n    tag_426:\n        /* \"#utility.yul\":12295:12296   */\n      0x01\n        /* \"#utility.yul\":12288:12293   */\n      dup3\n        /* \"#utility.yul\":12284:12297   */\n      add\n        /* \"#utility.yul\":12277:12297   */\n      swap1\n      pop\n        /* \"#utility.yul\":12070:12303   */\n      swap2\n      swap1\n      pop\n      jump\t// out\n        /* \"#utility.yul\":12309:12489   */\n    tag_253:\n        /* \"#utility.yul\":12357:12434   */\n      0x4e487b7100000000000000000000000000000000000000000000000000000000\n        /* \"#utility.yul\":12354:12355   */\n      0x00\n        /* \"#utility.yul\":12347:12435   */\n      mstore\n        /* \"#utility.yul\":12454:12458   */\n      0x22\n        /* \"#utility.yul\":12451:12452   */\n      0x04\n        /* \"#utility.yul\":12444:12459   */\n      mstore\n        /* \"#utility.yul\":12478:12482   */\n      0x24\n        /* \"#utility.yul\":12475:12476   */\n      0x00\n        /* \"#utility.yul\":12468:12483   */\n      revert\n        /* \"#utility.yul\":12495:12815   */\n    tag_139:\n        /* \"#utility.yul\":12539:12545   */\n      0x00\n        /* \"#utility.yul\":12576:12577   */\n      0x02\n        /* \"#utility.yul\":12570:12574   */\n      dup3\n        /* \"#utility.yul\":12566:12578   */\n      div\n        /* \"#utility.yul\":12556:12578   */\n      swap1\n      pop\n        /* \"#utility.yul\":12623:12624   */\n      0x01\n        /* \"#utility.yul\":12617:12621   */\n      dup3\n        /* \"#utility.yul\":12613:12625   */\n      and\n        /* \"#utility.yul\":12644:12662   */\n      dup1\n        /* \"#utility.yul\":12634:12715   */\n      tag_430\n      jumpi\n        /* \"#utility.yul\":12700:12704   */\n      0x7f\n        /* \"#utility.yul\":12692:12698   */\n      dup3\n        /* \"#utility.yul\":12688:12705   */\n      and\n        /* \"#utility.yul\":12678:12705   */\n      swap2\n      pop\n        /* \"#utility.yul\":12634:12715   */\n    tag_430:\n        /* \"#utility.yul\":12762:12764   */\n      0x20\n        /* \"#utility.yul\":12754:12760   */\n      dup3\n        /* \"#utility.yul\":12751:12765   */\n      lt\n        /* \"#utility.yul\":12731:12749   */\n      dup2\n        /* \"#utility.yul\":12728:12766   */\n      sub\n        /* \"#utility.yul\":12725:12809   */\n      tag_431\n      jumpi\n        /* \"#utility.yul\":12781:12799   */\n      tag_432\n      tag_253\n      jump\t// in\n    tag_432:\n        /* \"#utility.yul\":12725:12809   */\n    tag_431:\n        /* \"#utility.yul\":12546:12815   */\n      pop\n        /* \"#utility.yul\":12495:12815   */\n      swap2\n      swap1\n      pop\n      jump\t// out\n        /* \"#utility.yul\":12821:12962   */\n    tag_254:\n        /* \"#utility.yul\":12870:12874   */\n      0x00\n        /* \"#utility.yul\":12893:12896   */\n      dup2\n        /* \"#utility.yul\":12885:12896   */\n      swap1\n      pop\n        /* \"#utility.yul\":12916:12919   */\n      dup2\n        /* \"#utility.yul\":12913:12914   */\n      0x00\n        /* \"#utility.yul\":12906:12920   */\n      mstore\n        /* \"#utility.yul\":12950:12954   */\n      0x20\n        /* \"#utility.yul\":12947:12948   */\n      0x00\n        /* \"#utility.yul\":12937:12955   */\n      keccak256\n        /* \"#utility.yul\":12929:12955   */\n      swap1\n      pop\n        /* \"#utility.yul\":12821:12962   */\n      swap2\n      swap1\n      pop\n      jump\t// out\n        /* \"#utility.yul\":12968:13061   */\n    tag_255:\n        /* \"#utility.yul\":13005:13011   */\n      0x00\n        /* \"#utility.yul\":13052:13054   */\n      0x20\n        /* \"#utility.yul\":13047:13049   */\n      0x1f\n        /* \"#utility.yul\":13040:13045   */\n      dup4\n        /* \"#utility.yul\":13036:13050   */\n      add\n        /* \"#utility.yul\":13032:13055   */\n      div\n        /* \"#utility.yul\":13022:13055   */\n      swap1\n      pop\n        /* \"#utility.yul\":12968:13061   */\n      swap2\n      swap1\n      pop\n      jump\t// out\n        /* \"#utility.yul\":13067:13174   */\n    tag_256:\n        /* \"#utility.yul\":13111:13119   */\n      0x00\n        /* \"#utility.yul\":13161:13166   */\n      dup3\n        /* \"#utility.yul\":13155:13159   */\n      dup3\n        /* \"#utility.yul\":13151:13167   */\n      shl\n        /* \"#utility.yul\":13130:13167   */\n      swap1\n      pop\n        /* \"#utility.yul\":13067:13174   */\n      swap3\n      swap2\n      pop\n      pop\n      jump\t// out\n        /* \"#utility.yul\":13180:13573   */\n    tag_257:\n        /* \"#utility.yul\":13249:13255   */\n      0x00\n        /* \"#utility.yul\":13299:13300   */\n      0x08\n        /* \"#utility.yul\":13287:13297   */\n      dup4\n        /* \"#utility.yul\":13283:13301   */\n      mul\n        /* \"#utility.yul\":13322:13419   */\n      tag_437\n        /* \"#utility.yul\":13352:13418   */\n      0xffffffffffffffffffffffffffffffffffffffffffffffffffffffffffffffff\n        /* \"#utility.yul\":13341:13350   */\n      dup3\n        /* \"#utility.yul\":13322:13419   */\n      tag_256\n      jump\t// in\n    tag_437:\n        /* \"#utility.yul\":13440:13479   */\n      tag_438\n        /* \"#utility.yul\":13470:13478   */\n      dup7\n        /* \"#utility.yul\":13459:13468   */\n      dup4\n        /* \"#utility.yul\":13440:13479   */\n      tag_256\n      jump\t// in\n    tag_438:\n        /* \"#utility.yul\":13428:13479   */\n      swap6\n      pop\n        /* \"#utility.yul\":13512:13516   */\n      dup1\n        /* \"#utility.yul\":13508:13517   */\n      not\n        /* \"#utility.yul\":13501:13506   */\n      dup5\n        /* \"#utility.yul\":13497:13518   */\n      and\n        /* \"#utility.yul\":13488:13518   */\n      swap4\n      pop\n        /* \"#utility.yul\":13561:13565   */\n      dup1\n        /* \"#utility.yul\":13551:13559   */\n      dup7\n        /* \"#utility.yul\":13547:13566   */\n      and\n        /* \"#utility.yul\":13540:13545   */\n      dup5\n        /* \"#utility.yul\":13537:13567   */\n      or\n        /* \"#utility.yul\":13527:13567   */\n      swap3\n      pop\n        /* \"#utility.yul\":13256:13573   */\n      pop\n      pop\n        /* \"#utility.yul\":13180:13573   */\n      swap4\n      swap3\n      pop\n      pop\n      pop\n      jump\t// out\n        /* \"#utility.yul\":13579:13639   */\n    tag_258:\n        /* \"#utility.yul\":13607:13610   */\n      0x00\n        /* \"#utility.yul\":13628:13633   */\n      dup2\n        /* \"#utility.yul\":13621:13633   */\n      swap1\n      pop\n        /* \"#utility.yul\":13579:13639   */\n      swap2\n      swap1\n      pop\n      jump\t// out\n        /* \"#utility.yul\":13645:13787   */\n    tag_259:\n        /* \"#utility.yul\":13695:13704   */\n      0x00\n        /* \"#utility.yul\":13728:13781   */\n      tag_441\n        /* \"#utility.yul\":13746:13780   */\n      tag_442\n        /* \"#utility.yul\":13755:13779   */\n      tag_443\n        /* \"#utility.yul\":13773:13778   */\n      dup5\n        /* \"#utility.yul\":13755:13779   */\n      tag_231\n      jump\t// in\n    tag_443:\n        /* \"#utility.yul\":13746:13780   */\n      tag_258\n      jump\t// in\n    tag_442:\n        /* \"#utility.yul\":13728:13781   */\n      tag_231\n      jump\t// in\n    tag_441:\n        /* \"#utility.yul\":13715:13781   */\n      swap1\n      pop\n        /* \"#utility.yul\":13645:13787   */\n      swap2\n      swap1\n      pop\n      jump\t// out\n        /* \"#utility.yul\":13793:13868   */\n    tag_260:\n        /* \"#utility.yul\":13836:13839   */\n      0x00\n        /* \"#utility.yul\":13857:13862   */\n      dup2\n        /* \"#utility.yul\":13850:13862   */\n      swap1\n      pop\n        /* \"#utility.yul\":13793:13868   */\n      swap2\n      swap1\n      pop\n      jump\t// out\n        /* \"#utility.yul\":13874:14143   */\n    tag_261:\n        /* \"#utility.yul\":13984:14023   */\n      tag_446\n        /* \"#utility.yul\":14015:14022   */\n      dup4\n        /* \"#utility.yul\":13984:14023   */\n      tag_259\n      jump\t// in\n    tag_446:\n        /* \"#utility.yul\":14045:14136   */\n      tag_447\n        /* \"#utility.yul\":14094:14135   */\n      tag_448\n        /* \"#utility.yul\":14118:14134   */\n      dup3\n        /* \"#utility.yul\":14094:14135   */\n      tag_260\n      jump\t// in\n    tag_448:\n        /* \"#utility.yul\":14086:14092   */\n      dup5\n        /* \"#utility.yul\":14079:14083   */\n      dup5\n        /* \"#utility.yul\":14073:14084   */\n      sload\n        /* \"#utility.yul\":14045:14136   */\n      tag_257\n      jump\t// in\n    tag_447:\n        /* \"#utility.yul\":14039:14043   */\n      dup3\n        /* \"#utility.yul\":14032:14137   */\n      sstore\n        /* \"#utility.yul\":13950:14143   */\n      pop\n        /* \"#utility.yul\":13874:14143   */\n      pop\n      pop\n      pop\n      jump\t// out\n        /* \"#utility.yul\":14149:14222   */\n    tag_262:\n        /* \"#utility.yul\":14194:14197   */\n      0x00\n        /* \"#utility.yul\":14149:14222   */\n      swap1\n      jump\t// out\n        /* \"#utility.yul\":14228:14417   */\n    tag_263:\n        /* \"#utility.yul\":14305:14337   */\n      tag_451\n      tag_262\n      jump\t// in\n    tag_451:\n        /* \"#utility.yul\":14346:14411   */\n      tag_452\n        /* \"#utility.yul\":14404:14410   */\n      dup2\n        /* \"#utility.yul\":14396:14402   */\n      dup5\n        /* \"#utility.yul\":14390:14394   */\n      dup5\n        /* \"#utility.yul\":14346:14411   */\n      tag_261\n      jump\t// in\n    tag_452:\n        /* \"#utility.yul\":14281:14417   */\n      pop\n        /* \"#utility.yul\":14228:14417   */\n      pop\n      pop\n      jump\t// out\n        /* \"#utility.yul\":14423:14609   */\n    tag_264:\n        /* \"#utility.yul\":14483:14603   */\n    tag_454:\n        /* \"#utility.yul\":14500:14503   */\n      dup2\n        /* \"#utility.yul\":14493:14498   */\n      dup2\n        /* \"#utility.yul\":14490:14504   */\n      lt\n        /* \"#utility.yul\":14483:14603   */\n      iszero\n      tag_456\n      jumpi\n        /* \"#utility.yul\":14554:14593   */\n      tag_457\n        /* \"#utility.yul\":14591:14592   */\n      0x00\n        /* \"#utility.yul\":14584:14589   */\n      dup3\n        /* \"#utility.yul\":14554:14593   */\n      tag_263\n      jump\t// in\n    tag_457:\n        /* \"#utility.yul\":14527:14528   */\n      0x01\n        /* \"#utility.yul\":14520:14525   */\n      dup2\n        /* \"#utility.yul\":14516:14529   */\n      add\n        /* \"#utility.yul\":14507:14529   */\n      swap1\n      pop\n        /* \"#utility.yul\":14483:14603   */\n      jump(tag_454)\n    tag_456:\n        /* \"#utility.yul\":14423:14609   */\n      pop\n      pop\n      jump\t// out\n        /* \"#utility.yul\":14615:15158   */\n    tag_265:\n        /* \"#utility.yul\":14716:14718   */\n      0x1f\n        /* \"#utility.yul\":14711:14714   */\n      dup3\n        /* \"#utility.yul\":14708:14719   */\n      gt\n        /* \"#utility.yul\":14705:15151   */\n      iszero\n      tag_459\n      jumpi\n        /* \"#utility.yul\":14750:14788   */\n      tag_460\n        /* \"#utility.yul\":14782:14787   */\n      dup2\n        /* \"#utility.yul\":14750:14788   */\n      tag_254\n      jump\t// in\n    tag_460:\n        /* \"#utility.yul\":14834:14863   */\n      tag_461\n        /* \"#utility.yul\":14852:14862   */\n      dup5\n        /* \"#utility.yul\":14834:14863   */\n      tag_255\n      jump\t// in\n    tag_461:\n        /* \"#utility.yul\":14824:14832   */\n      dup2\n        /* \"#utility.yul\":14820:14864   */\n      add\n        /* \"#utility.yul\":15017:15019   */\n      0x20\n        /* \"#utility.yul\":15005:15015   */\n      dup6\n        /* \"#utility.yul\":15002:15020   */\n      lt\n        /* \"#utility.yul\":14999:15048   */\n      iszero\n      tag_462\n      jumpi\n        /* \"#utility.yul\":15038:15046   */\n      dup2\n        /* \"#utility.yul\":15023:15046   */\n      swap1\n      pop\n        /* \"#utility.yul\":14999:15048   */\n    tag_462:\n        /* \"#utility.yul\":15061:15141   */\n      tag_463\n        /* \"#utility.yul\":15117:15139   */\n      tag_464\n        /* \"#utility.yul\":15135:15138   */\n      dup6\n        /* \"#utility.yul\":15117:15139   */\n      tag_255\n      jump\t// in\n    tag_464:\n        /* \"#utility.yul\":15107:15115   */\n      dup4\n        /* \"#utility.yul\":15103:15140   */\n      add\n        /* \"#utility.yul\":15090:15101   */\n      dup3\n        /* \"#utility.yul\":15061:15141   */\n      tag_264\n      jump\t// in\n    tag_463:\n        /* \"#utility.yul\":14720:15151   */\n      pop\n      pop\n        /* \"#utility.yul\":14705:15151   */\n    tag_459:\n        /* \"#utility.yul\":14615:15158   */\n      pop\n      pop\n      pop\n      jump\t// out\n        /* \"#utility.yul\":15164:15281   */\n    tag_266:\n        /* \"#utility.yul\":15218:15226   */\n      0x00\n        /* \"#utility.yul\":15268:15273   */\n      dup3\n        /* \"#utility.yul\":15262:15266   */\n      dup3\n        /* \"#utility.yul\":15258:15274   */\n      shr\n        /* \"#utility.yul\":15237:15274   */\n      swap1\n      pop\n        /* \"#utility.yul\":15164:15281   */\n      swap3\n      swap2\n      pop\n      pop\n      jump\t// out\n        /* \"#utility.yul\":15287:15456   */\n    tag_267:\n        /* \"#utility.yul\":15331:15337   */\n      0x00\n        /* \"#utility.yul\":15364:15415   */\n      tag_467\n        /* \"#utility.yul\":15412:15413   */\n      0x00\n        /* \"#utility.yul\":15408:15414   */\n      not\n        /* \"#utility.yul\":15400:15405   */\n      dup5\n        /* \"#utility.yul\":15397:15398   */\n      0x08\n        /* \"#utility.yul\":15393:15406   */\n      mul\n        /* \"#utility.yul\":15364:15415   */\n      tag_266\n      jump\t// in\n    tag_467:\n        /* \"#utility.yul\":15360:15416   */\n      not\n        /* \"#utility.yul\":15445:15449   */\n      dup1\n        /* \"#utility.yul\":15439:15443   */\n      dup4\n        /* \"#utility.yul\":15435:15450   */\n      and\n        /* \"#utility.yul\":15425:15450   */\n      swap2\n      pop\n        /* \"#utility.yul\":15338:15456   */\n      pop\n        /* \"#utility.yul\":15287:15456   */\n      swap3\n      swap2\n      pop\n      pop\n      jump\t// out\n        /* \"#utility.yul\":15461:15756   */\n    tag_268:\n        /* \"#utility.yul\":15537:15541   */\n      0x00\n        /* \"#utility.yul\":15683:15712   */\n      tag_469\n        /* \"#utility.yul\":15708:15711   */\n      dup4\n        /* \"#utility.yul\":15702:15706   */\n      dup4\n        /* \"#utility.yul\":15683:15712   */\n      tag_267\n      jump\t// in\n    tag_469:\n        /* \"#utility.yul\":15675:15712   */\n      swap2\n      pop\n        /* \"#utility.yul\":15745:15748   */\n      dup3\n        /* \"#utility.yul\":15742:15743   */\n      0x02\n        /* \"#utility.yul\":15738:15749   */\n      mul\n        /* \"#utility.yul\":15732:15736   */\n      dup3\n        /* \"#utility.yul\":15729:15750   */\n      or\n        /* \"#utility.yul\":15721:15750   */\n      swap1\n      pop\n        /* \"#utility.yul\":15461:15756   */\n      swap3\n      swap2\n      pop\n      pop\n      jump\t// out\n        /* \"#utility.yul\":15761:17156   */\n    tag_102:\n        /* \"#utility.yul\":15878:15915   */\n      tag_471\n        /* \"#utility.yul\":15911:15914   */\n      dup3\n        /* \"#utility.yul\":15878:15915   */\n      tag_243\n      jump\t// in\n    tag_471:\n        /* \"#utility.yul\":15980:15998   */\n      0xffffffffffffffff\n        /* \"#utility.yul\":15972:15978   */\n      dup2\n        /* \"#utility.yul\":15969:15999   */\n      gt\n        /* \"#utility.yul\":15966:16022   */\n      iszero\n      tag_472\n      jumpi\n        /* \"#utility.yul\":16002:16020   */\n      tag_473\n      tag_224\n      jump\t// in\n    tag_473:\n        /* \"#utility.yul\":15966:16022   */\n    tag_472:\n        /* \"#utility.yul\":16046:16084   */\n      tag_474\n        /* \"#utility.yul\":16078:16082   */\n      dup3\n        /* \"#utility.yul\":16072:16083   */\n      sload\n        /* \"#utility.yul\":16046:16084   */\n      tag_139\n      jump\t// in\n    tag_474:\n        /* \"#utility.yul\":16131:16198   */\n      tag_475\n        /* \"#utility.yul\":16191:16197   */\n      dup3\n        /* \"#utility.yul\":16183:16189   */\n      dup3\n        /* \"#utility.yul\":16177:16181   */\n      dup6\n        /* \"#utility.yul\":16131:16198   */\n      tag_265\n      jump\t// in\n    tag_475:\n        /* \"#utility.yul\":16225:16226   */\n      0x00\n        /* \"#utility.yul\":16249:16253   */\n      0x20\n        /* \"#utility.yul\":16236:16253   */\n      swap1\n      pop\n        /* \"#utility.yul\":16281:16283   */\n      0x1f\n        /* \"#utility.yul\":16273:16279   */\n      dup4\n        /* \"#utility.yul\":16270:16284   */\n      gt\n        /* \"#utility.yul\":16298:16299   */\n      0x01\n        /* \"#utility.yul\":16293:16911   */\n      dup2\n      eq\n      tag_477\n      jumpi\n        /* \"#utility.yul\":16955:16956   */\n      0x00\n        /* \"#utility.yul\":16972:16978   */\n      dup5\n        /* \"#utility.yul\":16969:17046   */\n      iszero\n      tag_478\n      jumpi\n        /* \"#utility.yul\":17021:17030   */\n      dup3\n        /* \"#utility.yul\":17016:17019   */\n      dup8\n        /* \"#utility.yul\":17012:17031   */\n      add\n        /* \"#utility.yul\":17006:17032   */\n      mload\n        /* \"#utility.yul\":16997:17032   */\n      swap1\n      pop\n        /* \"#utility.yul\":16969:17046   */\n    tag_478:\n        /* \"#utility.yul\":17072:17139   */\n      tag_479\n        /* \"#utility.yul\":17132:17138   */\n      dup6\n        /* \"#utility.yul\":17125:17130   */\n      dup3\n        /* \"#utility.yul\":17072:17139   */\n      tag_268\n      jump\t// in\n    tag_479:\n        /* \"#utility.yul\":17066:17070   */\n      dup7\n        /* \"#utility.yul\":17059:17140   */\n      sstore\n        /* \"#utility.yul\":16928:17150   */\n      pop\n        /* \"#utility.yul\":16263:17150   */\n      jump(tag_476)\n        /* \"#utility.yul\":16293:16911   */\n    tag_477:\n        /* \"#utility.yul\":16345:16349   */\n      0x1f\n        /* \"#utility.yul\":16341:16350   */\n      not\n        /* \"#utility.yul\":16333:16339   */\n      dup5\n        /* \"#utility.yul\":16329:16351   */\n      and\n        /* \"#utility.yul\":16379:16416   */\n      tag_480\n        /* \"#utility.yul\":16411:16415   */\n      dup7\n        /* \"#utility.yul\":16379:16416   */\n      tag_254\n      jump\t// in\n    tag_480:\n        /* \"#utility.yul\":16438:16439   */\n      0x00\n        /* \"#utility.yul\":16452:16660   */\n    tag_481:\n        /* \"#utility.yul\":16466:16473   */\n      dup3\n        /* \"#utility.yul\":16463:16464   */\n      dup2\n        /* \"#utility.yul\":16460:16474   */\n      lt\n        /* \"#utility.yul\":16452:16660   */\n      iszero\n      tag_483\n      jumpi\n        /* \"#utility.yul\":16545:16554   */\n      dup5\n        /* \"#utility.yul\":16540:16543   */\n      dup10\n        /* \"#utility.yul\":16536:16555   */\n      add\n        /* \"#utility.yul\":16530:16556   */\n      mload\n        /* \"#utility.yul\":16522:16528   */\n      dup3\n        /* \"#utility.yul\":16515:16557   */\n      sstore\n        /* \"#utility.yul\":16596:16597   */\n      0x01\n        /* \"#utility.yul\":16588:16594   */\n      dup3\n        /* \"#utility.yul\":16584:16598   */\n      add\n        /* \"#utility.yul\":16574:16598   */\n      swap2\n      pop\n        /* \"#utility.yul\":16643:16645   */\n      0x20\n        /* \"#utility.yul\":16632:16641   */\n      dup6\n        /* \"#utility.yul\":16628:16646   */\n      add\n        /* \"#utility.yul\":16615:16646   */\n      swap5\n      pop\n        /* \"#utility.yul\":16489:16493   */\n      0x20\n        /* \"#utility.yul\":16486:16487   */\n      dup2\n        /* \"#utility.yul\":16482:16494   */\n      add\n        /* \"#utility.yul\":16477:16494   */\n      swap1\n      pop\n        /* \"#utility.yul\":16452:16660   */\n      jump(tag_481)\n    tag_483:\n        /* \"#utility.yul\":16688:16694   */\n      dup7\n        /* \"#utility.yul\":16679:16686   */\n      dup4\n        /* \"#utility.yul\":16676:16695   */\n      lt\n        /* \"#utility.yul\":16673:16852   */\n      iszero\n      tag_484\n      jumpi\n        /* \"#utility.yul\":16746:16755   */\n      dup5\n        /* \"#utility.yul\":16741:16744   */\n      dup10\n        /* \"#utility.yul\":16737:16756   */\n      add\n        /* \"#utility.yul\":16731:16757   */\n      mload\n        /* \"#utility.yul\":16789:16837   */\n      tag_485\n        /* \"#utility.yul\":16831:16835   */\n      0x1f\n        /* \"#utility.yul\":16823:16829   */\n      dup10\n        /* \"#utility.yul\":16819:16836   */\n      and\n        /* \"#utility.yul\":16808:16817   */\n      dup3\n        /* \"#utility.yul\":16789:16837   */\n      tag_267\n      jump\t// in\n    tag_485:\n        /* \"#utility.yul\":16781:16787   */\n      dup4\n        /* \"#utility.yul\":16774:16838   */\n      sstore\n        /* \"#utility.yul\":16696:16852   */\n      pop\n        /* \"#utility.yul\":16673:16852   */\n    tag_484:\n        /* \"#utility.yul\":16898:16899   */\n      0x01\n        /* \"#utility.yul\":16894:16895   */\n      0x02\n        /* \"#utility.yul\":16886:16892   */\n      dup9\n        /* \"#utility.yul\":16882:16896   */\n      mul\n        /* \"#utility.yul\":16878:16900   */\n      add\n        /* \"#utility.yul\":16872:16876   */\n      dup9\n        /* \"#utility.yul\":16865:16901   */\n      sstore\n        /* \"#utility.yul\":16300:16911   */\n      pop\n      pop\n      pop\n        /* \"#utility.yul\":16263:17150   */\n    tag_476:\n      pop\n        /* \"#utility.yul\":15853:17156   */\n      pop\n      pop\n      pop\n        /* \"#utility.yul\":15761:17156   */\n      pop\n      pop\n      jump\t// out\n        /* \"#utility.yul\":17162:17695   */\n    tag_104:\n        /* \"#utility.yul\":17331:17335   */\n      0x00\n        /* \"#utility.yul\":17369:17371   */\n      0x60\n        /* \"#utility.yul\":17358:17367   */\n      dup3\n        /* \"#utility.yul\":17354:17372   */\n      add\n        /* \"#utility.yul\":17346:17372   */\n      swap1\n      pop\n        /* \"#utility.yul\":17382:17453   */\n      tag_487\n        /* \"#utility.yul\":17450:17451   */\n      0x00\n        /* \"#utility.yul\":17439:17448   */\n      dup4\n        /* \"#utility.yul\":17435:17452   */\n      add\n        /* \"#utility.yul\":17426:17432   */\n      dup7\n        /* \"#utility.yul\":17382:17453   */\n      tag_242\n      jump\t// in\n    tag_487:\n        /* \"#utility.yul\":17500:17509   */\n      dup2\n        /* \"#utility.yul\":17494:17498   */\n      dup2\n        /* \"#utility.yul\":17490:17510   */\n      sub\n        /* \"#utility.yul\":17485:17487   */\n      0x20\n        /* \"#utility.yul\":17474:17483   */\n      dup4\n        /* \"#utility.yul\":17470:17488   */\n      add\n        /* \"#utility.yul\":17463:17511   */\n      mstore\n        /* \"#utility.yul\":17528:17606   */\n      tag_488\n        /* \"#utility.yul\":17601:17605   */\n      dup2\n        /* \"#utility.yul\":17592:17598   */\n      dup6\n        /* \"#utility.yul\":17528:17606   */\n      tag_246\n      jump\t// in\n    tag_488:\n        /* \"#utility.yul\":17520:17606   */\n      swap1\n      pop\n        /* \"#utility.yul\":17616:17688   */\n      tag_489\n        /* \"#utility.yul\":17684:17686   */\n      0x40\n        /* \"#utility.yul\":17673:17682   */\n      dup4\n        /* \"#utility.yul\":17669:17687   */\n      add\n        /* \"#utility.yul\":17660:17666   */\n      dup5\n        /* \"#utility.yul\":17616:17688   */\n      tag_249\n      jump\t// in\n    tag_489:\n        /* \"#utility.yul\":17162:17695   */\n      swap5\n      swap4\n      pop\n      pop\n      pop\n      pop\n      jump\t// out\n        /* \"#utility.yul\":17701:17923   */\n    tag_124:\n        /* \"#utility.yul\":17794:17798   */\n      0x00\n        /* \"#utility.yul\":17832:17834   */\n      0x20\n        /* \"#utility.yul\":17821:17830   */\n      dup3\n        /* \"#utility.yul\":17817:17835   */\n      add\n        /* \"#utility.yul\":17809:17835   */\n      swap1\n      pop\n        /* \"#utility.yul\":17845:17916   */\n      tag_491\n        /* \"#utility.yul\":17913:17914   */\n      0x00\n        /* \"#utility.yul\":17902:17911   */\n      dup4\n        /* \"#utility.yul\":17898:17915   */\n      add\n        /* \"#utility.yul\":17889:17895   */\n      dup5\n        /* \"#utility.yul\":17845:17916   */\n      tag_249\n      jump\t// in\n    tag_491:\n        /* \"#utility.yul\":17701:17923   */\n      swap3\n      swap2\n      pop\n      pop\n      jump\t// out\n        /* \"#utility.yul\":17929:18072   */\n    tag_269:\n        /* \"#utility.yul\":17986:17991   */\n      0x00\n        /* \"#utility.yul\":18017:18023   */\n      dup2\n        /* \"#utility.yul\":18011:18024   */\n      mload\n        /* \"#utility.yul\":18002:18024   */\n      swap1\n      pop\n        /* \"#utility.yul\":18033:18066   */\n      tag_493\n        /* \"#utility.yul\":18060:18065   */\n      dup2\n        /* \"#utility.yul\":18033:18066   */\n      tag_232\n      jump\t// in\n    tag_493:\n        /* \"#utility.yul\":17929:18072   */\n      swap3\n      swap2\n      pop\n      pop\n      jump\t// out\n        /* \"#utility.yul\":18078:18429   */\n    tag_128:\n        /* \"#utility.yul\":18148:18154   */\n      0x00\n        /* \"#utility.yul\":18197:18199   */\n      0x20\n        /* \"#utility.yul\":18185:18194   */\n      dup3\n        /* \"#utility.yul\":18176:18183   */\n      dup5\n        /* \"#utility.yul\":18172:18195   */\n      sub\n        /* \"#utility.yul\":18168:18200   */\n      slt\n        /* \"#utility.yul\":18165:18284   */\n      iszero\n      tag_495\n      jumpi\n        /* \"#utility.yul\":18203:18282   */\n      tag_496\n      tag_214\n      jump\t// in\n    tag_496:\n        /* \"#utility.yul\":18165:18284   */\n    tag_495:\n        /* \"#utility.yul\":18323:18324   */\n      0x00\n        /* \"#utility.yul\":18348:18412   */\n      tag_497\n        /* \"#utility.yul\":18404:18411   */\n      dup5\n        /* \"#utility.yul\":18395:18401   */\n      dup3\n        /* \"#utility.yul\":18384:18393   */\n      dup6\n        /* \"#utility.yul\":18380:18402   */\n      add\n        /* \"#utility.yul\":18348:18412   */\n      tag_269\n      jump\t// in\n    tag_497:\n        /* \"#utility.yul\":18338:18412   */\n      swap2\n      pop\n        /* \"#utility.yul\":18294:18422   */\n      pop\n        /* \"#utility.yul\":18078:18429   */\n      swap3\n      swap2\n      pop\n      pop\n      jump\t// out\n        /* \"#utility.yul\":18435:18656   */\n    tag_270:\n        /* \"#utility.yul\":18575:18609   */\n      0x536f6c646520696e737566666973616e742064616e73206c6520636f6e747261\n        /* \"#utility.yul\":18571:18572   */\n      0x00\n        /* \"#utility.yul\":18563:18569   */\n      dup3\n        /* \"#utility.yul\":18559:18573   */\n      add\n        /* \"#utility.yul\":18552:18610   */\n      mstore\n        /* \"#utility.yul\":18644:18648   */\n      0x742e000000000000000000000000000000000000000000000000000000000000\n        /* \"#utility.yul\":18639:18641   */\n      0x20\n        /* \"#utility.yul\":18631:18637   */\n      dup3\n        /* \"#utility.yul\":18627:18642   */\n      add\n        /* \"#utility.yul\":18620:18649   */\n      mstore\n        /* \"#utility.yul\":18435:18656   */\n      pop\n      jump\t// out\n        /* \"#utility.yul\":18662:19028   */\n    tag_271:\n        /* \"#utility.yul\":18804:18807   */\n      0x00\n        /* \"#utility.yul\":18825:18892   */\n      tag_500\n        /* \"#utility.yul\":18889:18891   */\n      0x22\n        /* \"#utility.yul\":18884:18887   */\n      dup4\n        /* \"#utility.yul\":18825:18892   */\n      tag_244\n      jump\t// in\n    tag_500:\n        /* \"#utility.yul\":18818:18892   */\n      swap2\n      pop\n        /* \"#utility.yul\":18901:18994   */\n      tag_501\n        /* \"#utility.yul\":18990:18993   */\n      dup3\n        /* \"#utility.yul\":18901:18994   */\n      tag_270\n      jump\t// in\n    tag_501:\n        /* \"#utility.yul\":19019:19021   */\n      0x40\n        /* \"#utility.yul\":19014:19017   */\n      dup3\n        /* \"#utility.yul\":19010:19022   */\n      add\n        /* \"#utility.yul\":19003:19022   */\n      swap1\n      pop\n        /* \"#utility.yul\":18662:19028   */\n      swap2\n      swap1\n      pop\n      jump\t// out\n        /* \"#utility.yul\":19034:19453   */\n    tag_131:\n        /* \"#utility.yul\":19200:19204   */\n      0x00\n        /* \"#utility.yul\":19238:19240   */\n      0x20\n        /* \"#utility.yul\":19227:19236   */\n      dup3\n        /* \"#utility.yul\":19223:19241   */\n      add\n        /* \"#utility.yul\":19215:19241   */\n      swap1\n      pop\n        /* \"#utility.yul\":19287:19296   */\n      dup2\n        /* \"#utility.yul\":19281:19285   */\n      dup2\n        /* \"#utility.yul\":19277:19297   */\n      sub\n        /* \"#utility.yul\":19273:19274   */\n      0x00\n        /* \"#utility.yul\":19262:19271   */\n      dup4\n        /* \"#utility.yul\":19258:19275   */\n      add\n        /* \"#utility.yul\":19251:19298   */\n      mstore\n        /* \"#utility.yul\":19315:19446   */\n      tag_503\n        /* \"#utility.yul\":19441:19445   */\n      dup2\n        /* \"#utility.yul\":19315:19446   */\n      tag_271\n      jump\t// in\n    tag_503:\n        /* \"#utility.yul\":19307:19446   */\n      swap1\n      pop\n        /* \"#utility.yul\":19034:19453   */\n      swap2\n      swap1\n      pop\n      jump\t// out\n        /* \"#utility.yul\":19459:19791   */\n    tag_133:\n        /* \"#utility.yul\":19580:19584   */\n      0x00\n        /* \"#utility.yul\":19618:19620   */\n      0x40\n        /* \"#utility.yul\":19607:19616   */\n      dup3\n        /* \"#utility.yul\":19603:19621   */\n      add\n        /* \"#utility.yul\":19595:19621   */\n      swap1\n      pop\n        /* \"#utility.yul\":19631:19702   */\n      tag_505\n        /* \"#utility.yul\":19699:19700   */\n      0x00\n        /* \"#utility.yul\":19688:19697   */\n      dup4\n        /* \"#utility.yul\":19684:19701   */\n      add\n        /* \"#utility.yul\":19675:19681   */\n      dup6\n        /* \"#utility.yul\":19631:19702   */\n      tag_249\n      jump\t// in\n    tag_505:\n        /* \"#utility.yul\":19712:19784   */\n      tag_506\n        /* \"#utility.yul\":19780:19782   */\n      0x20\n        /* \"#utility.yul\":19769:19778   */\n      dup4\n        /* \"#utility.yul\":19765:19783   */\n      add\n        /* \"#utility.yul\":19756:19762   */\n      dup5\n        /* \"#utility.yul\":19712:19784   */\n      tag_242\n      jump\t// in\n    tag_506:\n        /* \"#utility.yul\":19459:19791   */\n      swap4\n      swap3\n      pop\n      pop\n      pop\n      jump\t// out\n        /* \"#utility.yul\":19797:19913   */\n    tag_272:\n        /* \"#utility.yul\":19867:19888   */\n      tag_508\n        /* \"#utility.yul\":19882:19887   */\n      dup2\n        /* \"#utility.yul\":19867:19888   */\n      tag_219\n      jump\t// in\n    tag_508:\n        /* \"#utility.yul\":19860:19865   */\n      dup2\n        /* \"#utility.yul\":19857:19889   */\n      eq\n        /* \"#utility.yul\":19847:19907   */\n      tag_509\n      jumpi\n        /* \"#utility.yul\":19903:19904   */\n      0x00\n        /* \"#utility.yul\":19900:19901   */\n      dup1\n        /* \"#utility.yul\":19893:19905   */\n      revert\n        /* \"#utility.yul\":19847:19907   */\n    tag_509:\n        /* \"#utility.yul\":19797:19913   */\n      pop\n      jump\t// out\n        /* \"#utility.yul\":19919:20056   */\n    tag_273:\n        /* \"#utility.yul\":19973:19978   */\n      0x00\n        /* \"#utility.yul\":20004:20010   */\n      dup2\n        /* \"#utility.yul\":19998:20011   */\n      mload\n        /* \"#utility.yul\":19989:20011   */\n      swap1\n      pop\n        /* \"#utility.yul\":20020:20050   */\n      tag_511\n        /* \"#utility.yul\":20044:20049   */\n      dup2\n        /* \"#utility.yul\":20020:20050   */\n      tag_272\n      jump\t// in\n    tag_511:\n        /* \"#utility.yul\":19919:20056   */\n      swap3\n      swap2\n      pop\n      pop\n      jump\t// out\n        /* \"#utility.yul\":20062:20407   */\n    tag_137:\n        /* \"#utility.yul\":20129:20135   */\n      0x00\n        /* \"#utility.yul\":20178:20180   */\n      0x20\n        /* \"#utility.yul\":20166:20175   */\n      dup3\n        /* \"#utility.yul\":20157:20164   */\n      dup5\n        /* \"#utility.yul\":20153:20176   */\n      sub\n        /* \"#utility.yul\":20149:20181   */\n      slt\n        /* \"#utility.yul\":20146:20265   */\n      iszero\n      tag_513\n      jumpi\n        /* \"#utility.yul\":20184:20263   */\n      tag_514\n      tag_214\n      jump\t// in\n    tag_514:\n        /* \"#utility.yul\":20146:20265   */\n    tag_513:\n        /* \"#utility.yul\":20304:20305   */\n      0x00\n        /* \"#utility.yul\":20329:20390   */\n      tag_515\n        /* \"#utility.yul\":20382:20389   */\n      dup5\n        /* \"#utility.yul\":20373:20379   */\n      dup3\n        /* \"#utility.yul\":20362:20371   */\n      dup6\n        /* \"#utility.yul\":20358:20380   */\n      add\n        /* \"#utility.yul\":20329:20390   */\n      tag_273\n      jump\t// in\n    tag_515:\n        /* \"#utility.yul\":20319:20390   */\n      swap2\n      pop\n        /* \"#utility.yul\":20275:20400   */\n      pop\n        /* \"#utility.yul\":20062:20407   */\n      swap3\n      swap2\n      pop\n      pop\n      jump\t// out\n        /* \"#utility.yul\":20413:20638   */\n    tag_274:\n        /* \"#utility.yul\":20553:20587   */\n      0x417563756e65206c6f636174696f6e2061637469766520706f75722063657420\n        /* \"#utility.yul\":20549:20550   */\n      0x00\n        /* \"#utility.yul\":20541:20547   */\n      dup3\n        /* \"#utility.yul\":20537:20551   */\n      add\n        /* \"#utility.yul\":20530:20588   */\n      mstore\n        /* \"#utility.yul\":20622:20630   */\n      0x6f626a65742e0000000000000000000000000000000000000000000000000000\n        /* \"#utility.yul\":20617:20619   */\n      0x20\n        /* \"#utility.yul\":20609:20615   */\n      dup3\n        /* \"#utility.yul\":20605:20620   */\n      add\n        /* \"#utility.yul\":20598:20631   */\n      mstore\n        /* \"#utility.yul\":20413:20638   */\n      pop\n      jump\t// out\n        /* \"#utility.yul\":20644:21010   */\n    tag_275:\n        /* \"#utility.yul\":20786:20789   */\n      0x00\n        /* \"#utility.yul\":20807:20874   */\n      tag_518\n        /* \"#utility.yul\":20871:20873   */\n      0x26\n        /* \"#utility.yul\":20866:20869   */\n      dup4\n        /* \"#utility.yul\":20807:20874   */\n      tag_244\n      jump\t// in\n    tag_518:\n        /* \"#utility.yul\":20800:20874   */\n      swap2\n      pop\n        /* \"#utility.yul\":20883:20976   */\n      tag_519\n        /* \"#utility.yul\":20972:20975   */\n      dup3\n        /* \"#utility.yul\":20883:20976   */\n      tag_274\n      jump\t// in\n    tag_519:\n        /* \"#utility.yul\":21001:21003   */\n      0x40\n        /* \"#utility.yul\":20996:20999   */\n      dup3\n        /* \"#utility.yul\":20992:21004   */\n      add\n        /* \"#utility.yul\":20985:21004   */\n      swap1\n      pop\n        /* \"#utility.yul\":20644:21010   */\n      swap2\n      swap1\n      pop\n      jump\t// out\n        /* \"#utility.yul\":21016:21435   */\n    tag_148:\n        /* \"#utility.yul\":21182:21186   */\n      0x00\n        /* \"#utility.yul\":21220:21222   */\n      0x20\n        /* \"#utility.yul\":21209:21218   */\n      dup3\n        /* \"#utility.yul\":21205:21223   */\n      add\n        /* \"#utility.yul\":21197:21223   */\n      swap1\n      pop\n        /* \"#utility.yul\":21269:21278   */\n      dup2\n        /* \"#utility.yul\":21263:21267   */\n      dup2\n        /* \"#utility.yul\":21259:21279   */\n      sub\n        /* \"#utility.yul\":21255:21256   */\n      0x00\n        /* \"#utility.yul\":21244:21253   */\n      dup4\n        /* \"#utility.yul\":21240:21257   */\n      add\n        /* \"#utility.yul\":21233:21280   */\n      mstore\n        /* \"#utility.yul\":21297:21428   */\n      tag_521\n        /* \"#utility.yul\":21423:21427   */\n      dup2\n        /* \"#utility.yul\":21297:21428   */\n      tag_275\n      jump\t// in\n    tag_521:\n        /* \"#utility.yul\":21289:21428   */\n      swap1\n      pop\n        /* \"#utility.yul\":21016:21435   */\n      swap2\n      swap1\n      pop\n      jump\t// out\n        /* \"#utility.yul\":21441:21670   */\n    tag_276:\n        /* \"#utility.yul\":21581:21615   */\n      0x566f7573206e276574657320706173206c65206c6f6361746169726520646520\n        /* \"#utility.yul\":21577:21578   */\n      0x00\n        /* \"#utility.yul\":21569:21575   */\n      dup3\n        /* \"#utility.yul\":21565:21579   */\n      add\n        /* \"#utility.yul\":21558:21616   */\n      mstore\n        /* \"#utility.yul\":21650:21662   */\n      0x636574206f626a65742e00000000000000000000000000000000000000000000\n        /* \"#utility.yul\":21645:21647   */\n      0x20\n        /* \"#utility.yul\":21637:21643   */\n      dup3\n        /* \"#utility.yul\":21633:21648   */\n      add\n        /* \"#utility.yul\":21626:21663   */\n      mstore\n        /* \"#utility.yul\":21441:21670   */\n      pop\n      jump\t// out\n        /* \"#utility.yul\":21676:22042   */\n    tag_277:\n        /* \"#utility.yul\":21818:21821   */\n      0x00\n        /* \"#utility.yul\":21839:21906   */\n      tag_524\n        /* \"#utility.yul\":21903:21905   */\n      0x2a\n        /* \"#utility.yul\":21898:21901   */\n      dup4\n        /* \"#utility.yul\":21839:21906   */\n      tag_244\n      jump\t// in\n    tag_524:\n        /* \"#utility.yul\":21832:21906   */\n      swap2\n      pop\n        /* \"#utility.yul\":21915:22008   */\n      tag_525\n        /* \"#utility.yul\":22004:22007   */\n      dup3\n        /* \"#utility.yul\":21915:22008   */\n      tag_276\n      jump\t// in\n    tag_525:\n        /* \"#utility.yul\":22033:22035   */\n      0x40\n        /* \"#utility.yul\":22028:22031   */\n      dup3\n        /* \"#utility.yul\":22024:22036   */\n      add\n        /* \"#utility.yul\":22017:22036   */\n      swap1\n      pop\n        /* \"#utility.yul\":21676:22042   */\n      swap2\n      swap1\n      pop\n      jump\t// out\n        /* \"#utility.yul\":22048:22467   */\n    tag_151:\n        /* \"#utility.yul\":22214:22218   */\n      0x00\n        /* \"#utility.yul\":22252:22254   */\n      0x20\n        /* \"#utility.yul\":22241:22250   */\n      dup3\n        /* \"#utility.yul\":22237:22255   */\n      add\n        /* \"#utility.yul\":22229:22255   */\n      swap1\n      pop\n        /* \"#utility.yul\":22301:22310   */\n      dup2\n        /* \"#utility.yul\":22295:22299   */\n      dup2\n        /* \"#utility.yul\":22291:22311   */\n      sub\n        /* \"#utility.yul\":22287:22288   */\n      0x00\n        /* \"#utility.yul\":22276:22285   */\n      dup4\n        /* \"#utility.yul\":22272:22289   */\n      add\n        /* \"#utility.yul\":22265:22312   */\n      mstore\n        /* \"#utility.yul\":22329:22460   */\n      tag_527\n        /* \"#utility.yul\":22455:22459   */\n      dup2\n        /* \"#utility.yul\":22329:22460   */\n      tag_277\n      jump\t// in\n    tag_527:\n        /* \"#utility.yul\":22321:22460   */\n      swap1\n      pop\n        /* \"#utility.yul\":22048:22467   */\n      swap2\n      swap1\n      pop\n      jump\t// out\n        /* \"#utility.yul\":22473:22655   */\n    tag_278:\n        /* \"#utility.yul\":22613:22647   */\n      0x4c61206c6f636174696f6e2065737420656e636f726520656e20636f7572732e\n        /* \"#utility.yul\":22609:22610   */\n      0x00\n        /* \"#utility.yul\":22601:22607   */\n      dup3\n        /* \"#utility.yul\":22597:22611   */\n      add\n        /* \"#utility.yul\":22590:22648   */\n      mstore\n        /* \"#utility.yul\":22473:22655   */\n      pop\n      jump\t// out\n        /* \"#utility.yul\":22661:23027   */\n    tag_279:\n        /* \"#utility.yul\":22803:22806   */\n      0x00\n        /* \"#utility.yul\":22824:22891   */\n      tag_530\n        /* \"#utility.yul\":22888:22890   */\n      0x20\n        /* \"#utility.yul\":22883:22886   */\n      dup4\n        /* \"#utility.yul\":22824:22891   */\n      tag_244\n      jump\t// in\n    tag_530:\n        /* \"#utility.yul\":22817:22891   */\n      swap2\n      pop\n        /* \"#utility.yul\":22900:22993   */\n      tag_531\n        /* \"#utility.yul\":22989:22992   */\n      dup3\n        /* \"#utility.yul\":22900:22993   */\n      tag_278\n      jump\t// in\n    tag_531:\n        /* \"#utility.yul\":23018:23020   */\n      0x20\n        /* \"#utility.yul\":23013:23016   */\n      dup3\n        /* \"#utility.yul\":23009:23021   */\n      add\n        /* \"#utility.yul\":23002:23021   */\n      swap1\n      pop\n        /* \"#utility.yul\":22661:23027   */\n      swap2\n      swap1\n      pop\n      jump\t// out\n        /* \"#utility.yul\":23033:23452   */\n    tag_154:\n        /* \"#utility.yul\":23199:23203   */\n      0x00\n        /* \"#utility.yul\":23237:23239   */\n      0x20\n        /* \"#utility.yul\":23226:23235   */\n      dup3\n        /* \"#utility.yul\":23222:23240   */\n      add\n        /* \"#utility.yul\":23214:23240   */\n      swap1\n      pop\n        /* \"#utility.yul\":23286:23295   */\n      dup2\n        /* \"#utility.yul\":23280:23284   */\n      dup2\n        /* \"#utility.yul\":23276:23296   */\n      sub\n        /* \"#utility.yul\":23272:23273   */\n      0x00\n        /* \"#utility.yul\":23261:23270   */\n      dup4\n        /* \"#utility.yul\":23257:23274   */\n      add\n        /* \"#utility.yul\":23250:23297   */\n      mstore\n        /* \"#utility.yul\":23314:23445   */\n      tag_533\n        /* \"#utility.yul\":23440:23444   */\n      dup2\n        /* \"#utility.yul\":23314:23445   */\n      tag_279\n      jump\t// in\n    tag_533:\n        /* \"#utility.yul\":23306:23445   */\n      swap1\n      pop\n        /* \"#utility.yul\":23033:23452   */\n      swap2\n      swap1\n      pop\n      jump\t// out\n        /* \"#utility.yul\":23458:23790   */\n    tag_156:\n        /* \"#utility.yul\":23579:23583   */\n      0x00\n        /* \"#utility.yul\":23617:23619   */\n      0x40\n        /* \"#utility.yul\":23606:23615   */\n      dup3\n        /* \"#utility.yul\":23602:23620   */\n      add\n        /* \"#utility.yul\":23594:23620   */\n      swap1\n      pop\n        /* \"#utility.yul\":23630:23701   */\n      tag_535\n        /* \"#utility.yul\":23698:23699   */\n      0x00\n        /* \"#utility.yul\":23687:23696   */\n      dup4\n        /* \"#utility.yul\":23683:23700   */\n      add\n        /* \"#utility.yul\":23674:23680   */\n      dup6\n        /* \"#utility.yul\":23630:23701   */\n      tag_242\n      jump\t// in\n    tag_535:\n        /* \"#utility.yul\":23711:23783   */\n      tag_536\n        /* \"#utility.yul\":23779:23781   */\n      0x20\n        /* \"#utility.yul\":23768:23777   */\n      dup4\n        /* \"#utility.yul\":23764:23782   */\n      add\n        /* \"#utility.yul\":23755:23761   */\n      dup5\n        /* \"#utility.yul\":23711:23783   */\n      tag_249\n      jump\t// in\n    tag_536:\n        /* \"#utility.yul\":23458:23790   */\n      swap4\n      swap3\n      pop\n      pop\n      pop\n      jump\t// out\n        /* \"#utility.yul\":23796:23975   */\n    tag_280:\n        /* \"#utility.yul\":23936:23967   */\n      0x4c276f626a6574206e276573742070617320646973706f6e69626c652e000000\n        /* \"#utility.yul\":23932:23933   */\n      0x00\n        /* \"#utility.yul\":23924:23930   */\n      dup3\n        /* \"#utility.yul\":23920:23934   */\n      add\n        /* \"#utility.yul\":23913:23968   */\n      mstore\n        /* \"#utility.yul\":23796:23975   */\n      pop\n      jump\t// out\n        /* \"#utility.yul\":23981:24347   */\n    tag_281:\n        /* \"#utility.yul\":24123:24126   */\n      0x00\n        /* \"#utility.yul\":24144:24211   */\n      tag_539\n        /* \"#utility.yul\":24208:24210   */\n      0x1d\n        /* \"#utility.yul\":24203:24206   */\n      dup4\n        /* \"#utility.yul\":24144:24211   */\n      tag_244\n      jump\t// in\n    tag_539:\n        /* \"#utility.yul\":24137:24211   */\n      swap2\n      pop\n        /* \"#utility.yul\":24220:24313   */\n      tag_540\n        /* \"#utility.yul\":24309:24312   */\n      dup3\n        /* \"#utility.yul\":24220:24313   */\n      tag_280\n      jump\t// in\n    tag_540:\n        /* \"#utility.yul\":24338:24340   */\n      0x20\n        /* \"#utility.yul\":24333:24336   */\n      dup3\n        /* \"#utility.yul\":24329:24341   */\n      add\n        /* \"#utility.yul\":24322:24341   */\n      swap1\n      pop\n        /* \"#utility.yul\":23981:24347   */\n      swap2\n      swap1\n      pop\n      jump\t// out\n        /* \"#utility.yul\":24353:24772   */\n    tag_160:\n        /* \"#utility.yul\":24519:24523   */\n      0x00\n        /* \"#utility.yul\":24557:24559   */\n      0x20\n        /* \"#utility.yul\":24546:24555   */\n      dup3\n        /* \"#utility.yul\":24542:24560   */\n      add\n        /* \"#utility.yul\":24534:24560   */\n      swap1\n      pop\n        /* \"#utility.yul\":24606:24615   */\n      dup2\n        /* \"#utility.yul\":24600:24604   */\n      dup2\n        /* \"#utility.yul\":24596:24616   */\n      sub\n        /* \"#utility.yul\":24592:24593   */\n      0x00\n        /* \"#utility.yul\":24581:24590   */\n      dup4\n        /* \"#utility.yul\":24577:24594   */\n      add\n        /* \"#utility.yul\":24570:24617   */\n      mstore\n        /* \"#utility.yul\":24634:24765   */\n      tag_542\n        /* \"#utility.yul\":24760:24764   */\n      dup2\n        /* \"#utility.yul\":24634:24765   */\n      tag_281\n      jump\t// in\n    tag_542:\n        /* \"#utility.yul\":24626:24765   */\n      swap1\n      pop\n        /* \"#utility.yul\":24353:24772   */\n      swap2\n      swap1\n      pop\n      jump\t// out\n        /* \"#utility.yul\":24778:25188   */\n    tag_162:\n        /* \"#utility.yul\":24818:24825   */\n      0x00\n        /* \"#utility.yul\":24841:24861   */\n      tag_544\n        /* \"#utility.yul\":24859:24860   */\n      dup3\n        /* \"#utility.yul\":24841:24861   */\n      tag_231\n      jump\t// in\n    tag_544:\n        /* \"#utility.yul\":24836:24861   */\n      swap2\n      pop\n        /* \"#utility.yul\":24875:24895   */\n      tag_545\n        /* \"#utility.yul\":24893:24894   */\n      dup4\n        /* \"#utility.yul\":24875:24895   */\n      tag_231\n      jump\t// in\n    tag_545:\n        /* \"#utility.yul\":24870:24895   */\n      swap3\n      pop\n        /* \"#utility.yul\":24930:24931   */\n      dup3\n        /* \"#utility.yul\":24927:24928   */\n      dup3\n        /* \"#utility.yul\":24923:24932   */\n      mul\n        /* \"#utility.yul\":24952:24982   */\n      tag_546\n        /* \"#utility.yul\":24970:24981   */\n      dup2\n        /* \"#utility.yul\":24952:24982   */\n      tag_231\n      jump\t// in\n    tag_546:\n        /* \"#utility.yul\":24941:24982   */\n      swap2\n      pop\n        /* \"#utility.yul\":25131:25132   */\n      dup3\n        /* \"#utility.yul\":25122:25129   */\n      dup3\n        /* \"#utility.yul\":25118:25133   */\n      div\n        /* \"#utility.yul\":25115:25116   */\n      dup5\n        /* \"#utility.yul\":25112:25134   */\n      eq\n        /* \"#utility.yul\":25092:25093   */\n      dup4\n        /* \"#utility.yul\":25085:25094   */\n      iszero\n        /* \"#utility.yul\":25065:25148   */\n      or\n        /* \"#utility.yul\":25042:25181   */\n      tag_547\n      jumpi\n        /* \"#utility.yul\":25161:25179   */\n      tag_548\n      tag_252\n      jump\t// in\n    tag_548:\n        /* \"#utility.yul\":25042:25181   */\n    tag_547:\n        /* \"#utility.yul\":24826:25188   */\n      pop\n        /* \"#utility.yul\":24778:25188   */\n      swap3\n      swap2\n      pop\n      pop\n      jump\t// out\n        /* \"#utility.yul\":25194:25372   */\n    tag_282:\n        /* \"#utility.yul\":25334:25364   */\n      0x536f6c646520696e737566666973616e7420656e20746f6b656e732e00000000\n        /* \"#utility.yul\":25330:25331   */\n      0x00\n        /* \"#utility.yul\":25322:25328   */\n      dup3\n        /* \"#utility.yul\":25318:25332   */\n      add\n        /* \"#utility.yul\":25311:25365   */\n      mstore\n        /* \"#utility.yul\":25194:25372   */\n      pop\n      jump\t// out\n        /* \"#utility.yul\":25378:25744   */\n    tag_283:\n        /* \"#utility.yul\":25520:25523   */\n      0x00\n        /* \"#utility.yul\":25541:25608   */\n      tag_551\n        /* \"#utility.yul\":25605:25607   */\n      0x1c\n        /* \"#utility.yul\":25600:25603   */\n      dup4\n        /* \"#utility.yul\":25541:25608   */\n      tag_244\n      jump\t// in\n    tag_551:\n        /* \"#utility.yul\":25534:25608   */\n      swap2\n      pop\n        /* \"#utility.yul\":25617:25710   */\n      tag_552\n        /* \"#utility.yul\":25706:25709   */\n      dup3\n        /* \"#utility.yul\":25617:25710   */\n      tag_282\n      jump\t// in\n    tag_552:\n        /* \"#utility.yul\":25735:25737   */\n      0x20\n        /* \"#utility.yul\":25730:25733   */\n      dup3\n        /* \"#utility.yul\":25726:25738   */\n      add\n        /* \"#utility.yul\":25719:25738   */\n      swap1\n      pop\n        /* \"#utility.yul\":25378:25744   */\n      swap2\n      swap1\n      pop\n      jump\t// out\n        /* \"#utility.yul\":25750:26169   */\n    tag_169:\n        /* \"#utility.yul\":25916:25920   */\n      0x00\n        /* \"#utility.yul\":25954:25956   */\n      0x20\n        /* \"#utility.yul\":25943:25952   */\n      dup3\n        /* \"#utility.yul\":25939:25957   */\n      add\n        /* \"#utility.yul\":25931:25957   */\n      swap1\n      pop\n        /* \"#utility.yul\":26003:26012   */\n      dup2\n        /* \"#utility.yul\":25997:26001   */\n      dup2\n        /* \"#utility.yul\":25993:26013   */\n      sub\n        /* \"#utility.yul\":25989:25990   */\n      0x00\n        /* \"#utility.yul\":25978:25987   */\n      dup4\n        /* \"#utility.yul\":25974:25991   */\n      add\n        /* \"#utility.yul\":25967:26014   */\n      mstore\n        /* \"#utility.yul\":26031:26162   */\n      tag_554\n        /* \"#utility.yul\":26157:26161   */\n      dup2\n        /* \"#utility.yul\":26031:26162   */\n      tag_283\n      jump\t// in\n    tag_554:\n        /* \"#utility.yul\":26023:26162   */\n      swap1\n      pop\n        /* \"#utility.yul\":25750:26169   */\n      swap2\n      swap1\n      pop\n      jump\t// out\n        /* \"#utility.yul\":26175:26317   */\n    tag_284:\n        /* \"#utility.yul\":26225:26234   */\n      0x00\n        /* \"#utility.yul\":26258:26311   */\n      tag_556\n        /* \"#utility.yul\":26276:26310   */\n      tag_557\n        /* \"#utility.yul\":26285:26309   */\n      tag_558\n        /* \"#utility.yul\":26303:26308   */\n      dup5\n        /* \"#utility.yul\":26285:26309   */\n      tag_238\n      jump\t// in\n    tag_558:\n        /* \"#utility.yul\":26276:26310   */\n      tag_258\n      jump\t// in\n    tag_557:\n        /* \"#utility.yul\":26258:26311   */\n      tag_238\n      jump\t// in\n    tag_556:\n        /* \"#utility.yul\":26245:26311   */\n      swap1\n      pop\n        /* \"#utility.yul\":26175:26317   */\n      swap2\n      swap1\n      pop\n      jump\t// out\n        /* \"#utility.yul\":26323:26449   */\n    tag_285:\n        /* \"#utility.yul\":26373:26382   */\n      0x00\n        /* \"#utility.yul\":26406:26443   */\n      tag_560\n        /* \"#utility.yul\":26437:26442   */\n      dup3\n        /* \"#utility.yul\":26406:26443   */\n      tag_284\n      jump\t// in\n    tag_560:\n        /* \"#utility.yul\":26393:26443   */\n      swap1\n      pop\n        /* \"#utility.yul\":26323:26449   */\n      swap2\n      swap1\n      pop\n      jump\t// out\n        /* \"#utility.yul\":26455:26589   */\n    tag_286:\n        /* \"#utility.yul\":26513:26522   */\n      0x00\n        /* \"#utility.yul\":26546:26583   */\n      tag_562\n        /* \"#utility.yul\":26577:26582   */\n      dup3\n        /* \"#utility.yul\":26546:26583   */\n      tag_285\n      jump\t// in\n    tag_562:\n        /* \"#utility.yul\":26533:26583   */\n      swap1\n      pop\n        /* \"#utility.yul\":26455:26589   */\n      swap2\n      swap1\n      pop\n      jump\t// out\n        /* \"#utility.yul\":26595:26742   */\n    tag_287:\n        /* \"#utility.yul\":26690:26735   */\n      tag_564\n        /* \"#utility.yul\":26729:26734   */\n      dup2\n        /* \"#utility.yul\":26690:26735   */\n      tag_286\n      jump\t// in\n    tag_564:\n        /* \"#utility.yul\":26685:26688   */\n      dup3\n        /* \"#utility.yul\":26678:26736   */\n      mstore\n        /* \"#utility.yul\":26595:26742   */\n      pop\n      pop\n      jump\t// out\n        /* \"#utility.yul\":26748:27206   */\n    tag_171:\n        /* \"#utility.yul\":26905:26909   */\n      0x00\n        /* \"#utility.yul\":26943:26945   */\n      0x60\n        /* \"#utility.yul\":26932:26941   */\n      dup3\n        /* \"#utility.yul\":26928:26946   */\n      add\n        /* \"#utility.yul\":26920:26946   */\n      swap1\n      pop\n        /* \"#utility.yul\":26956:27027   */\n      tag_566\n        /* \"#utility.yul\":27024:27025   */\n      0x00\n        /* \"#utility.yul\":27013:27022   */\n      dup4\n        /* \"#utility.yul\":27009:27026   */\n      add\n        /* \"#utility.yul\":27000:27006   */\n      dup7\n        /* \"#utility.yul\":26956:27027   */\n      tag_249\n      jump\t// in\n    tag_566:\n        /* \"#utility.yul\":27037:27117   */\n      tag_567\n        /* \"#utility.yul\":27113:27115   */\n      0x20\n        /* \"#utility.yul\":27102:27111   */\n      dup4\n        /* \"#utility.yul\":27098:27116   */\n      add\n        /* \"#utility.yul\":27089:27095   */\n      dup6\n        /* \"#utility.yul\":27037:27117   */\n      tag_287\n      jump\t// in\n    tag_567:\n        /* \"#utility.yul\":27127:27199   */\n      tag_568\n        /* \"#utility.yul\":27195:27197   */\n      0x40\n        /* \"#utility.yul\":27184:27193   */\n      dup4\n        /* \"#utility.yul\":27180:27198   */\n      add\n        /* \"#utility.yul\":27171:27177   */\n      dup5\n        /* \"#utility.yul\":27127:27199   */\n      tag_242\n      jump\t// in\n    tag_568:\n        /* \"#utility.yul\":26748:27206   */\n      swap5\n      swap4\n      pop\n      pop\n      pop\n      pop\n      jump\t// out\n        /* \"#utility.yul\":27212:27403   */\n    tag_177:\n        /* \"#utility.yul\":27252:27255   */\n      0x00\n        /* \"#utility.yul\":27271:27291   */\n      tag_570\n        /* \"#utility.yul\":27289:27290   */\n      dup3\n        /* \"#utility.yul\":27271:27291   */\n      tag_231\n      jump\t// in\n    tag_570:\n        /* \"#utility.yul\":27266:27291   */\n      swap2\n      pop\n        /* \"#utility.yul\":27305:27325   */\n      tag_571\n        /* \"#utility.yul\":27323:27324   */\n      dup4\n        /* \"#utility.yul\":27305:27325   */\n      tag_231\n      jump\t// in\n    tag_571:\n        /* \"#utility.yul\":27300:27325   */\n      swap3\n      pop\n        /* \"#utility.yul\":27348:27349   */\n      dup3\n        /* \"#utility.yul\":27345:27346   */\n      dup3\n        /* \"#utility.yul\":27341:27350   */\n      add\n        /* \"#utility.yul\":27334:27350   */\n      swap1\n      pop\n        /* \"#utility.yul\":27369:27372   */\n      dup1\n        /* \"#utility.yul\":27366:27367   */\n      dup3\n        /* \"#utility.yul\":27363:27373   */\n      gt\n        /* \"#utility.yul\":27360:27396   */\n      iszero\n      tag_572\n      jumpi\n        /* \"#utility.yul\":27376:27394   */\n      tag_573\n      tag_252\n      jump\t// in\n    tag_573:\n        /* \"#utility.yul\":27360:27396   */\n    tag_572:\n        /* \"#utility.yul\":27212:27403   */\n      swap3\n      swap2\n      pop\n      pop\n      jump\t// out\n        /* \"#utility.yul\":27409:27634   */\n    tag_288:\n        /* \"#utility.yul\":27549:27583   */\n      0x566f757320646576657a20737065636966696572206175206d6f696e7320756e\n        /* \"#utility.yul\":27545:27546   */\n      0x00\n        /* \"#utility.yul\":27537:27543   */\n      dup3\n        /* \"#utility.yul\":27533:27547   */\n      add\n        /* \"#utility.yul\":27526:27584   */\n      mstore\n        /* \"#utility.yul\":27618:27626   */\n      0x206a6f75722e0000000000000000000000000000000000000000000000000000\n        /* \"#utility.yul\":27613:27615   */\n      0x20\n        /* \"#utility.yul\":27605:27611   */\n      dup3\n        /* \"#utility.yul\":27601:27616   */\n      add\n        /* \"#utility.yul\":27594:27627   */\n      mstore\n        /* \"#utility.yul\":27409:27634   */\n      pop\n      jump\t// out\n        /* \"#utility.yul\":27640:28006   */\n    tag_289:\n        /* \"#utility.yul\":27782:27785   */\n      0x00\n        /* \"#utility.yul\":27803:27870   */\n      tag_576\n        /* \"#utility.yul\":27867:27869   */\n      0x26\n        /* \"#utility.yul\":27862:27865   */\n      dup4\n        /* \"#utility.yul\":27803:27870   */\n      tag_244\n      jump\t// in\n    tag_576:\n        /* \"#utility.yul\":27796:27870   */\n      swap2\n      pop\n        /* \"#utility.yul\":27879:27972   */\n      tag_577\n        /* \"#utility.yul\":27968:27971   */\n      dup3\n        /* \"#utility.yul\":27879:27972   */\n      tag_288\n      jump\t// in\n    tag_577:\n        /* \"#utility.yul\":27997:27999   */\n      0x40\n        /* \"#utility.yul\":27992:27995   */\n      dup3\n        /* \"#utility.yul\":27988:28000   */\n      add\n        /* \"#utility.yul\":27981:28000   */\n      swap1\n      pop\n        /* \"#utility.yul\":27640:28006   */\n      swap2\n      swap1\n      pop\n      jump\t// out\n        /* \"#utility.yul\":28012:28431   */\n    tag_189:\n        /* \"#utility.yul\":28178:28182   */\n      0x00\n        /* \"#utility.yul\":28216:28218   */\n      0x20\n        /* \"#utility.yul\":28205:28214   */\n      dup3\n        /* \"#utility.yul\":28201:28219   */\n      add\n        /* \"#utility.yul\":28193:28219   */\n      swap1\n      pop\n        /* \"#utility.yul\":28265:28274   */\n      dup2\n        /* \"#utility.yul\":28259:28263   */\n      dup2\n        /* \"#utility.yul\":28255:28275   */\n      sub\n        /* \"#utility.yul\":28251:28252   */\n      0x00\n        /* \"#utility.yul\":28240:28249   */\n      dup4\n        /* \"#utility.yul\":28236:28253   */\n      add\n        /* \"#utility.yul\":28229:28276   */\n      mstore\n        /* \"#utility.yul\":28293:28424   */\n      tag_579\n        /* \"#utility.yul\":28419:28423   */\n      dup2\n        /* \"#utility.yul\":28293:28424   */\n      tag_289\n      jump\t// in\n    tag_579:\n        /* \"#utility.yul\":28285:28424   */\n      swap1\n      pop\n        /* \"#utility.yul\":28012:28431   */\n      swap2\n      swap1\n      pop\n      jump\t// out\n        /* \"#utility.yul\":28437:28769   */\n    tag_212:\n        /* \"#utility.yul\":28558:28562   */\n      0x00\n        /* \"#utility.yul\":28596:28598   */\n      0x40\n        /* \"#utility.yul\":28585:28594   */\n      dup3\n        /* \"#utility.yul\":28581:28599   */\n      add\n        /* \"#utility.yul\":28573:28599   */\n      swap1\n      pop\n        /* \"#utility.yul\":28609:28680   */\n      tag_581\n        /* \"#utility.yul\":28677:28678   */\n      0x00\n        /* \"#utility.yul\":28666:28675   */\n      dup4\n        /* \"#utility.yul\":28662:28679   */\n      add\n        /* \"#utility.yul\":28653:28659   */\n      dup6\n        /* \"#utility.yul\":28609:28680   */\n      tag_249\n      jump\t// in\n    tag_581:\n        /* \"#utility.yul\":28690:28762   */\n      tag_582\n        /* \"#utility.yul\":28758:28760   */\n      0x20\n        /* \"#utility.yul\":28747:28756   */\n      dup4\n        /* \"#utility.yul\":28743:28761   */\n      add\n        /* \"#utility.yul\":28734:28740   */\n      dup5\n        /* \"#utility.yul\":28690:28762   */\n      tag_237\n      jump\t// in\n    tag_582:\n        /* \"#utility.yul\":28437:28769   */\n      swap4\n      swap3\n      pop\n      pop\n      pop\n      jump\t// out\n\n    auxdata: 0xa2646970667358221220cf1a6b885d3d6c69990d8cb131922391c583d11c10c4881d423df5c2d2f6f79064736f6c634300081a0033\n}\n",
				"bytecode": {
					"linkReferences": {},
					"object": "608060405234801561000f575f80fd5b506040516124583803806124588339818101604052810190610031919061026c565b6100617fa49807205ce4d355092ef5a8a18f56e8913cf4a201fbe287825b095693c21775336100af60201b60201c565b508060045f6101000a81548173ffffffffffffffffffffffffffffffffffffffff021916908373ffffffffffffffffffffffffffffffffffffffff1602179055504260058190555050610297565b5f6100c083836101a460201b60201c565b61019a5760015f808581526020019081526020015f205f015f8473ffffffffffffffffffffffffffffffffffffffff1673ffffffffffffffffffffffffffffffffffffffff1681526020019081526020015f205f6101000a81548160ff02191690831515021790555061013761020760201b60201c565b73ffffffffffffffffffffffffffffffffffffffff168273ffffffffffffffffffffffffffffffffffffffff16847f2f8788117e7eff1d82e926ec794901d17c78024a50270940304540a733656f0d60405160405180910390a46001905061019e565b5f90505b92915050565b5f805f8481526020019081526020015f205f015f8373ffffffffffffffffffffffffffffffffffffffff1673ffffffffffffffffffffffffffffffffffffffff1681526020019081526020015f205f9054906101000a900460ff16905092915050565b5f33905090565b5f80fd5b5f73ffffffffffffffffffffffffffffffffffffffff82169050919050565b5f61023b82610212565b9050919050565b61024b81610231565b8114610255575f80fd5b50565b5f8151905061026681610242565b92915050565b5f602082840312156102815761028061020e565b5b5f61028e84828501610258565b91505092915050565b6121b4806102a45f395ff3fe608060405234801561000f575f80fd5b5060043610610109575f3560e01c806375b238fc116100a0578063b8586e2e1161006f578063b8586e2e146102b7578063b9e0db35146102d3578063d547741f14610305578063d8ae6d7b14610321578063dfa212f61461033d57610109565b806375b238fc1461022f57806391d148541461024d578063a217fddf1461027d578063b4385ad01461029b57610109565b806336568abe116100dc57806336568abe146101a55780633b9fcca4146101c157806373360948146101df578063733da1d5146101fb57610109565b806301ffc9a71461010d5780630251b6731461013d578063248a9ca3146101595780632f2ff15d14610189575b5f80fd5b610127600480360381019061012291906112ba565b61035b565b60405161013491906112ff565b60405180910390f35b61015760048036038101906101529190611487565b6103d4565b005b610173600480360381019061016e9190611514565b610554565b604051610180919061154e565b60405180910390f35b6101a3600480360381019061019e91906115c1565b610570565b005b6101bf60048036038101906101ba91906115c1565b610592565b005b6101c961060d565b6040516101d6919061160e565b60405180910390f35b6101f960048036038101906101f49190611627565b610616565b005b61021560048036038101906102109190611665565b6107bd565b604051610226959493929190611710565b60405180910390f35b6102376108a1565b604051610244919061154e565b60405180910390f35b610267600480360381019061026291906115c1565b6108c5565b60405161027491906112ff565b60405180910390f35b610285610928565b604051610292919061154e565b60405180910390f35b6102b560048036038101906102b09190611665565b61092e565b005b6102d160048036038101906102cc9190611768565b610b79565b005b6102ed60048036038101906102e89190611665565b610ea8565b6040516102fc939291906117b5565b60405180910390f35b61031f600480360381019061031a91906115c1565b610eed565b005b61033b60048036038101906103369190611665565b610f0f565b005b610345610fa7565b604051610352919061160e565b60405180910390f35b5f7f7965db0b000000000000000000000000000000000000000000000000000000007bffffffffffffffffffffffffffffffffffffffffffffffffffffffff1916827bffffffffffffffffffffffffffffffffffffffffffffffffffffffff191614806103cd57506103cc82610fad565b5b9050919050565b5f8111610416576040517f08c379a000000000000000000000000000000000000000000000000000000000815260040161040d9061185a565b60405180910390fd5b60015f815480929190610428906118a5565b91905055506040518060a0016040528060015481526020018381526020018281526020013373ffffffffffffffffffffffffffffffffffffffff1681526020016001151581525060025f60015481526020019081526020015f205f820151815f0155602082015181600101908161049f9190611ae6565b50604082015181600201556060820151816003015f6101000a81548173ffffffffffffffffffffffffffffffffffffffff021916908373ffffffffffffffffffffffffffffffffffffffff16021790555060808201518160030160146101000a81548160ff0219169083151502179055509050507ffec6ce5e9a41de4f57d1fe9377d0c1c573a9793481f6e561a2f6b121e3601376600154833360405161054893929190611bb5565b60405180910390a15050565b5f805f8381526020019081526020015f20600101549050919050565b61057982610554565b61058281611016565b61058c838361102a565b50505050565b61059a611113565b73ffffffffffffffffffffffffffffffffffffffff168173ffffffffffffffffffffffffffffffffffffffff16146105fe576040517f6697b23200000000000000000000000000000000000000000000000000000000815260040160405180910390fd5b610608828261111a565b505050565b5f600554905090565b7fa49807205ce4d355092ef5a8a18f56e8913cf4a201fbe287825b095693c2177561064081611016565b8160045f9054906101000a900473ffffffffffffffffffffffffffffffffffffffff1673ffffffffffffffffffffffffffffffffffffffff166370a08231306040518263ffffffff1660e01b815260040161069b9190611bf1565b602060405180830381865afa1580156106b6573d5f803e3d5ffd5b505050506040513d601f19601f820116820180604052508101906106da9190611c1e565b101561071b576040517f08c379a000000000000000000000000000000000000000000000000000000000815260040161071290611cb9565b60405180910390fd5b60045f9054906101000a900473ffffffffffffffffffffffffffffffffffffffff1673ffffffffffffffffffffffffffffffffffffffff1663a9059cbb84846040518363ffffffff1660e01b8152600401610777929190611cd7565b6020604051808303815f875af1158015610793573d5f803e3d5ffd5b505050506040513d601f19601f820116820180604052508101906107b79190611d28565b50505050565b6002602052805f5260405f205f91509050805f0154908060010180546107e290611919565b80601f016020809104026020016040519081016040528092919081815260200182805461080e90611919565b80156108595780601f1061083057610100808354040283529160200191610859565b820191905f5260205f20905b81548152906001019060200180831161083c57829003601f168201915b505050505090806002015490806003015f9054906101000a900473ffffffffffffffffffffffffffffffffffffffff16908060030160149054906101000a900460ff16905085565b7fa49807205ce4d355092ef5a8a18f56e8913cf4a201fbe287825b095693c2177581565b5f805f8481526020019081526020015f205f015f8373ffffffffffffffffffffffffffffffffffffffff1673ffffffffffffffffffffffffffffffffffffffff1681526020019081526020015f205f9054906101000a900460ff16905092915050565b5f801b81565b5f73ffffffffffffffffffffffffffffffffffffffff1660035f8381526020019081526020015f206001015f9054906101000a900473ffffffffffffffffffffffffffffffffffffffff1673ffffffffffffffffffffffffffffffffffffffff16036109cf576040517f08c379a00000000000000000000000000000000000000000000000000000000081526004016109c690611dc3565b60405180910390fd5b3373ffffffffffffffffffffffffffffffffffffffff1660035f8381526020019081526020015f206001015f9054906101000a900473ffffffffffffffffffffffffffffffffffffffff1673ffffffffffffffffffffffffffffffffffffffff1614610a70576040517f08c379a0000000000000000000000000000000000000000000000000000000008152600401610a6790611e51565b60405180910390fd5b60035f8281526020019081526020015f20600201546005541015610ac9576040517f08c379a0000000000000000000000000000000000000000000000000000000008152600401610ac090611eb9565b60405180910390fd5b600160025f8381526020019081526020015f2060030160146101000a81548160ff02191690831515021790555060035f8281526020019081526020015f205f8082015f9055600182015f6101000a81549073ffffffffffffffffffffffffffffffffffffffff0219169055600282015f905550507f88b44be84c9052ba1bdca3b4b4466d38e2a4b94ea5b796d4bbb6070902d9bd198133604051610b6e929190611ed7565b60405180910390a150565b5f60025f8481526020019081526020015f2090508060030160149054906101000a900460ff16610bde576040517f08c379a0000000000000000000000000000000000000000000000000000000008152600401610bd590611f48565b60405180910390fd5b5f828260020154610bef9190611f66565b90508060045f9054906101000a900473ffffffffffffffffffffffffffffffffffffffff1673ffffffffffffffffffffffffffffffffffffffff166370a08231336040518263ffffffff1660e01b8152600401610c4c9190611bf1565b602060405180830381865afa158015610c67573d5f803e3d5ffd5b505050506040513d601f19601f82011682018060405250810190610c8b9190611c1e565b1015610ccc576040517f08c379a0000000000000000000000000000000000000000000000000000000008152600401610cc390611ff1565b60405180910390fd5b60045f9054906101000a900473ffffffffffffffffffffffffffffffffffffffff1673ffffffffffffffffffffffffffffffffffffffff166323b872dd33846003015f9054906101000a900473ffffffffffffffffffffffffffffffffffffffff16846040518463ffffffff1660e01b8152600401610d4d93929190612061565b6020604051808303815f875af1158015610d69573d5f803e3d5ffd5b505050506040513d601f19601f82011682018060405250810190610d8d9190611d28565b505f6201518084610d9e9190611f66565b600554610dab9190612096565b905060405180606001604052808681526020013373ffffffffffffffffffffffffffffffffffffffff1681526020018281525060035f8781526020019081526020015f205f820151815f01556020820151816001015f6101000a81548173ffffffffffffffffffffffffffffffffffffffff021916908373ffffffffffffffffffffffffffffffffffffffff160217905550604082015181600201559050505f8360030160146101000a81548160ff0219169083151502179055507fd134efc08fe62d7a8a515dd4adfbeccb0fbb4932f18796599feae5c46dc10491853383604051610e99939291906117b5565b60405180910390a15050505050565b6003602052805f5260405f205f91509050805f015490806001015f9054906101000a900473ffffffffffffffffffffffffffffffffffffffff16908060020154905083565b610ef682610554565b610eff81611016565b610f09838361111a565b50505050565b7fa49807205ce4d355092ef5a8a18f56e8913cf4a201fbe287825b095693c21775610f3981611016565b6001821015610f7d576040517f08c379a0000000000000000000000000000000000000000000000000000000008152600401610f7490612139565b60405180910390fd5b6201518082610f8c9190611f66565b60055f828254610f9c9190612096565b925050819055505050565b60055481565b5f7f01ffc9a7000000000000000000000000000000000000000000000000000000007bffffffffffffffffffffffffffffffffffffffffffffffffffffffff1916827bffffffffffffffffffffffffffffffffffffffffffffffffffffffff1916149050919050565b61102781611022611113565b611203565b50565b5f61103583836108c5565b6111095760015f808581526020019081526020015f205f015f8473ffffffffffffffffffffffffffffffffffffffff1673ffffffffffffffffffffffffffffffffffffffff1681526020019081526020015f205f6101000a81548160ff0219169083151502179055506110a6611113565b73ffffffffffffffffffffffffffffffffffffffff168273ffffffffffffffffffffffffffffffffffffffff16847f2f8788117e7eff1d82e926ec794901d17c78024a50270940304540a733656f0d60405160405180910390a46001905061110d565b5f90505b92915050565b5f33905090565b5f61112583836108c5565b156111f9575f805f8581526020019081526020015f205f015f8473ffffffffffffffffffffffffffffffffffffffff1673ffffffffffffffffffffffffffffffffffffffff1681526020019081526020015f205f6101000a81548160ff021916908315150217905550611196611113565b73ffffffffffffffffffffffffffffffffffffffff168273ffffffffffffffffffffffffffffffffffffffff16847ff6391f5c32d9c69d2a47ea670b442974b53935d1edc7fd64eb21e047a839171b60405160405180910390a4600190506111fd565b5f90505b92915050565b61120d82826108c5565b6112505780826040517fe2517d3f000000000000000000000000000000000000000000000000000000008152600401611247929190612157565b60405180910390fd5b5050565b5f604051905090565b5f80fd5b5f80fd5b5f7fffffffff0000000000000000000000000000000000000000000000000000000082169050919050565b61129981611265565b81146112a3575f80fd5b50565b5f813590506112b481611290565b92915050565b5f602082840312156112cf576112ce61125d565b5b5f6112dc848285016112a6565b91505092915050565b5f8115159050919050565b6112f9816112e5565b82525050565b5f6020820190506113125f8301846112f0565b92915050565b5f80fd5b5f80fd5b5f601f19601f8301169050919050565b7f4e487b71000000000000000000000000000000000000000000000000000000005f52604160045260245ffd5b61136682611320565b810181811067ffffffffffffffff8211171561138557611384611330565b5b80604052505050565b5f611397611254565b90506113a3828261135d565b919050565b5f67ffffffffffffffff8211156113c2576113c1611330565b5b6113cb82611320565b9050602081019050919050565b828183375f83830152505050565b5f6113f86113f3846113a8565b61138e565b9050828152602081018484840111156114145761141361131c565b5b61141f8482856113d8565b509392505050565b5f82601f83011261143b5761143a611318565b5b813561144b8482602086016113e6565b91505092915050565b5f819050919050565b61146681611454565b8114611470575f80fd5b50565b5f813590506114818161145d565b92915050565b5f806040838503121561149d5761149c61125d565b5b5f83013567ffffffffffffffff8111156114ba576114b9611261565b5b6114c685828601611427565b92505060206114d785828601611473565b9150509250929050565b5f819050919050565b6114f3816114e1565b81146114fd575f80fd5b50565b5f8135905061150e816114ea565b92915050565b5f602082840312156115295761152861125d565b5b5f61153684828501611500565b91505092915050565b611548816114e1565b82525050565b5f6020820190506115615f83018461153f565b92915050565b5f73ffffffffffffffffffffffffffffffffffffffff82169050919050565b5f61159082611567565b9050919050565b6115a081611586565b81146115aa575f80fd5b50565b5f813590506115bb81611597565b92915050565b5f80604083850312156115d7576115d661125d565b5b5f6115e485828601611500565b92505060206115f5858286016115ad565b9150509250929050565b61160881611454565b82525050565b5f6020820190506116215f8301846115ff565b92915050565b5f806040838503121561163d5761163c61125d565b5b5f61164a858286016115ad565b925050602061165b85828601611473565b9150509250929050565b5f6020828403121561167a5761167961125d565b5b5f61168784828501611473565b91505092915050565b5f81519050919050565b5f82825260208201905092915050565b8281835e5f83830152505050565b5f6116c282611690565b6116cc818561169a565b93506116dc8185602086016116aa565b6116e581611320565b840191505092915050565b5f6116fa82611567565b9050919050565b61170a816116f0565b82525050565b5f60a0820190506117235f8301886115ff565b818103602083015261173581876116b8565b905061174460408301866115ff565b6117516060830185611701565b61175e60808301846112f0565b9695505050505050565b5f806040838503121561177e5761177d61125d565b5b5f61178b85828601611473565b925050602061179c85828601611473565b9150509250929050565b6117af81611586565b82525050565b5f6060820190506117c85f8301866115ff565b6117d560208301856117a6565b6117e260408301846115ff565b949350505050565b7f4c65207461726966206a6f75726e616c69657220646f697420657472652073755f8201527f7065726965757220612030000000000000000000000000000000000000000000602082015250565b5f611844602b8361169a565b915061184f826117ea565b604082019050919050565b5f6020820190508181035f83015261187181611838565b9050919050565b7f4e487b71000000000000000000000000000000000000000000000000000000005f52601160045260245ffd5b5f6118af82611454565b91507fffffffffffffffffffffffffffffffffffffffffffffffffffffffffffffffff82036118e1576118e0611878565b5b600182019050919050565b7f4e487b71000000000000000000000000000000000000000000000000000000005f52602260045260245ffd5b5f600282049050600182168061193057607f821691505b602082108103611943576119426118ec565b5b50919050565b5f819050815f5260205f209050919050565b5f6020601f8301049050919050565b5f82821b905092915050565b5f600883026119a57fffffffffffffffffffffffffffffffffffffffffffffffffffffffffffffffff8261196a565b6119af868361196a565b95508019841693508086168417925050509392505050565b5f819050919050565b5f6119ea6119e56119e084611454565b6119c7565b611454565b9050919050565b5f819050919050565b611a03836119d0565b611a17611a0f826119f1565b848454611976565b825550505050565b5f90565b611a2b611a1f565b611a368184846119fa565b505050565b5b81811015611a5957611a4e5f82611a23565b600181019050611a3c565b5050565b601f821115611a9e57611a6f81611949565b611a788461195b565b81016020851015611a87578190505b611a9b611a938561195b565b830182611a3b565b50505b505050565b5f82821c905092915050565b5f611abe5f1984600802611aa3565b1980831691505092915050565b5f611ad68383611aaf565b9150826002028217905092915050565b611aef82611690565b67ffffffffffffffff811115611b0857611b07611330565b5b611b128254611919565b611b1d828285611a5d565b5f60209050601f831160018114611b4e575f8415611b3c578287015190505b611b468582611acb565b865550611bad565b601f198416611b5c86611949565b5f5b82811015611b8357848901518255600182019150602085019450602081019050611b5e565b86831015611ba05784890151611b9c601f891682611aaf565b8355505b6001600288020188555050505b505050505050565b5f606082019050611bc85f8301866115ff565b8181036020830152611bda81856116b8565b9050611be960408301846117a6565b949350505050565b5f602082019050611c045f8301846117a6565b92915050565b5f81519050611c188161145d565b92915050565b5f60208284031215611c3357611c3261125d565b5b5f611c4084828501611c0a565b91505092915050565b7f536f6c646520696e737566666973616e742064616e73206c6520636f6e7472615f8201527f742e000000000000000000000000000000000000000000000000000000000000602082015250565b5f611ca360228361169a565b9150611cae82611c49565b604082019050919050565b5f6020820190508181035f830152611cd081611c97565b9050919050565b5f604082019050611cea5f8301856117a6565b611cf760208301846115ff565b9392505050565b611d07816112e5565b8114611d11575f80fd5b50565b5f81519050611d2281611cfe565b92915050565b5f60208284031215611d3d57611d3c61125d565b5b5f611d4a84828501611d14565b91505092915050565b7f417563756e65206c6f636174696f6e2061637469766520706f757220636574205f8201527f6f626a65742e0000000000000000000000000000000000000000000000000000602082015250565b5f611dad60268361169a565b9150611db882611d53565b604082019050919050565b5f6020820190508181035f830152611dda81611da1565b9050919050565b7f566f7573206e276574657320706173206c65206c6f63617461697265206465205f8201527f636574206f626a65742e00000000000000000000000000000000000000000000602082015250565b5f611e3b602a8361169a565b9150611e4682611de1565b604082019050919050565b5f6020820190508181035f830152611e6881611e2f565b9050919050565b7f4c61206c6f636174696f6e2065737420656e636f726520656e20636f7572732e5f82015250565b5f611ea360208361169a565b9150611eae82611e6f565b602082019050919050565b5f6020820190508181035f830152611ed081611e97565b9050919050565b5f604082019050611eea5f8301856115ff565b611ef760208301846117a6565b9392505050565b7f4c276f626a6574206e276573742070617320646973706f6e69626c652e0000005f82015250565b5f611f32601d8361169a565b9150611f3d82611efe565b602082019050919050565b5f6020820190508181035f830152611f5f81611f26565b9050919050565b5f611f7082611454565b9150611f7b83611454565b9250828202611f8981611454565b91508282048414831517611fa057611f9f611878565b5b5092915050565b7f536f6c646520696e737566666973616e7420656e20746f6b656e732e000000005f82015250565b5f611fdb601c8361169a565b9150611fe682611fa7565b602082019050919050565b5f6020820190508181035f83015261200881611fcf565b9050919050565b5f61202961202461201f84611567565b6119c7565b611567565b9050919050565b5f61203a8261200f565b9050919050565b5f61204b82612030565b9050919050565b61205b81612041565b82525050565b5f6060820190506120745f8301866117a6565b6120816020830185612052565b61208e60408301846115ff565b949350505050565b5f6120a082611454565b91506120ab83611454565b92508282019050808211156120c3576120c2611878565b5b92915050565b7f566f757320646576657a20737065636966696572206175206d6f696e7320756e5f8201527f206a6f75722e0000000000000000000000000000000000000000000000000000602082015250565b5f61212360268361169a565b915061212e826120c9565b604082019050919050565b5f6020820190508181035f83015261215081612117565b9050919050565b5f60408201905061216a5f8301856117a6565b612177602083018461153f565b939250505056fea2646970667358221220cf1a6b885d3d6c69990d8cb131922391c583d11c10c4881d423df5c2d2f6f79064736f6c634300081a0033",
					"opcodes": "PUSH1 0x80 PUSH1 0x40 MSTORE CALLVALUE DUP1 ISZERO PUSH2 0xF JUMPI PUSH0 DUP1 REVERT JUMPDEST POP PUSH1 0x40 MLOAD PUSH2 0x2458 CODESIZE SUB DUP1 PUSH2 0x2458 DUP4 CODECOPY DUP2 DUP2 ADD PUSH1 0x40 MSTORE DUP2 ADD SWAP1 PUSH2 0x31 SWAP2 SWAP1 PUSH2 0x26C JUMP JUMPDEST PUSH2 0x61 PUSH32 0xA49807205CE4D355092EF5A8A18F56E8913CF4A201FBE287825B095693C21775 CALLER PUSH2 0xAF PUSH1 0x20 SHL PUSH1 0x20 SHR JUMP JUMPDEST POP DUP1 PUSH1 0x4 PUSH0 PUSH2 0x100 EXP DUP2 SLOAD DUP2 PUSH20 0xFFFFFFFFFFFFFFFFFFFFFFFFFFFFFFFFFFFFFFFF MUL NOT AND SWAP1 DUP4 PUSH20 0xFFFFFFFFFFFFFFFFFFFFFFFFFFFFFFFFFFFFFFFF AND MUL OR SWAP1 SSTORE POP TIMESTAMP PUSH1 0x5 DUP2 SWAP1 SSTORE POP POP PUSH2 0x297 JUMP JUMPDEST PUSH0 PUSH2 0xC0 DUP4 DUP4 PUSH2 0x1A4 PUSH1 0x20 SHL PUSH1 0x20 SHR JUMP JUMPDEST PUSH2 0x19A JUMPI PUSH1 0x1 PUSH0 DUP1 DUP6 DUP2 MSTORE PUSH1 0x20 ADD SWAP1 DUP2 MSTORE PUSH1 0x20 ADD PUSH0 KECCAK256 PUSH0 ADD PUSH0 DUP5 PUSH20 0xFFFFFFFFFFFFFFFFFFFFFFFFFFFFFFFFFFFFFFFF AND PUSH20 0xFFFFFFFFFFFFFFFFFFFFFFFFFFFFFFFFFFFFFFFF AND DUP2 MSTORE PUSH1 0x20 ADD SWAP1 DUP2 MSTORE PUSH1 0x20 ADD PUSH0 KECCAK256 PUSH0 PUSH2 0x100 EXP DUP2 SLOAD DUP2 PUSH1 0xFF MUL NOT AND SWAP1 DUP4 ISZERO ISZERO MUL OR SWAP1 SSTORE POP PUSH2 0x137 PUSH2 0x207 PUSH1 0x20 SHL PUSH1 0x20 SHR JUMP JUMPDEST PUSH20 0xFFFFFFFFFFFFFFFFFFFFFFFFFFFFFFFFFFFFFFFF AND DUP3 PUSH20 0xFFFFFFFFFFFFFFFFFFFFFFFFFFFFFFFFFFFFFFFF AND DUP5 PUSH32 0x2F8788117E7EFF1D82E926EC794901D17C78024A50270940304540A733656F0D PUSH1 0x40 MLOAD PUSH1 0x40 MLOAD DUP1 SWAP2 SUB SWAP1 LOG4 PUSH1 0x1 SWAP1 POP PUSH2 0x19E JUMP JUMPDEST PUSH0 SWAP1 POP JUMPDEST SWAP3 SWAP2 POP POP JUMP JUMPDEST PUSH0 DUP1 PUSH0 DUP5 DUP2 MSTORE PUSH1 0x20 ADD SWAP1 DUP2 MSTORE PUSH1 0x20 ADD PUSH0 KECCAK256 PUSH0 ADD PUSH0 DUP4 PUSH20 0xFFFFFFFFFFFFFFFFFFFFFFFFFFFFFFFFFFFFFFFF AND PUSH20 0xFFFFFFFFFFFFFFFFFFFFFFFFFFFFFFFFFFFFFFFF AND DUP2 MSTORE PUSH1 0x20 ADD SWAP1 DUP2 MSTORE PUSH1 0x20 ADD PUSH0 KECCAK256 PUSH0 SWAP1 SLOAD SWAP1 PUSH2 0x100 EXP SWAP1 DIV PUSH1 0xFF AND SWAP1 POP SWAP3 SWAP2 POP POP JUMP JUMPDEST PUSH0 CALLER SWAP1 POP SWAP1 JUMP JUMPDEST PUSH0 DUP1 REVERT JUMPDEST PUSH0 PUSH20 0xFFFFFFFFFFFFFFFFFFFFFFFFFFFFFFFFFFFFFFFF DUP3 AND SWAP1 POP SWAP2 SWAP1 POP JUMP JUMPDEST PUSH0 PUSH2 0x23B DUP3 PUSH2 0x212 JUMP JUMPDEST SWAP1 POP SWAP2 SWAP1 POP JUMP JUMPDEST PUSH2 0x24B DUP2 PUSH2 0x231 JUMP JUMPDEST DUP2 EQ PUSH2 0x255 JUMPI PUSH0 DUP1 REVERT JUMPDEST POP JUMP JUMPDEST PUSH0 DUP2 MLOAD SWAP1 POP PUSH2 0x266 DUP2 PUSH2 0x242 JUMP JUMPDEST SWAP3 SWAP2 POP POP JUMP JUMPDEST PUSH0 PUSH1 0x20 DUP3 DUP5 SUB SLT ISZERO PUSH2 0x281 JUMPI PUSH2 0x280 PUSH2 0x20E JUMP JUMPDEST JUMPDEST PUSH0 PUSH2 0x28E DUP5 DUP3 DUP6 ADD PUSH2 0x258 JUMP JUMPDEST SWAP2 POP POP SWAP3 SWAP2 POP POP JUMP JUMPDEST PUSH2 0x21B4 DUP1 PUSH2 0x2A4 PUSH0 CODECOPY PUSH0 RETURN INVALID PUSH1 0x80 PUSH1 0x40 MSTORE CALLVALUE DUP1 ISZERO PUSH2 0xF JUMPI PUSH0 DUP1 REVERT JUMPDEST POP PUSH1 0x4 CALLDATASIZE LT PUSH2 0x109 JUMPI PUSH0 CALLDATALOAD PUSH1 0xE0 SHR DUP1 PUSH4 0x75B238FC GT PUSH2 0xA0 JUMPI DUP1 PUSH4 0xB8586E2E GT PUSH2 0x6F JUMPI DUP1 PUSH4 0xB8586E2E EQ PUSH2 0x2B7 JUMPI DUP1 PUSH4 0xB9E0DB35 EQ PUSH2 0x2D3 JUMPI DUP1 PUSH4 0xD547741F EQ PUSH2 0x305 JUMPI DUP1 PUSH4 0xD8AE6D7B EQ PUSH2 0x321 JUMPI DUP1 PUSH4 0xDFA212F6 EQ PUSH2 0x33D JUMPI PUSH2 0x109 JUMP JUMPDEST DUP1 PUSH4 0x75B238FC EQ PUSH2 0x22F JUMPI DUP1 PUSH4 0x91D14854 EQ PUSH2 0x24D JUMPI DUP1 PUSH4 0xA217FDDF EQ PUSH2 0x27D JUMPI DUP1 PUSH4 0xB4385AD0 EQ PUSH2 0x29B JUMPI PUSH2 0x109 JUMP JUMPDEST DUP1 PUSH4 0x36568ABE GT PUSH2 0xDC JUMPI DUP1 PUSH4 0x36568ABE EQ PUSH2 0x1A5 JUMPI DUP1 PUSH4 0x3B9FCCA4 EQ PUSH2 0x1C1 JUMPI DUP1 PUSH4 0x73360948 EQ PUSH2 0x1DF JUMPI DUP1 PUSH4 0x733DA1D5 EQ PUSH2 0x1FB JUMPI PUSH2 0x109 JUMP JUMPDEST DUP1 PUSH4 0x1FFC9A7 EQ PUSH2 0x10D JUMPI DUP1 PUSH4 0x251B673 EQ PUSH2 0x13D JUMPI DUP1 PUSH4 0x248A9CA3 EQ PUSH2 0x159 JUMPI DUP1 PUSH4 0x2F2FF15D EQ PUSH2 0x189 JUMPI JUMPDEST PUSH0 DUP1 REVERT JUMPDEST PUSH2 0x127 PUSH1 0x4 DUP1 CALLDATASIZE SUB DUP2 ADD SWAP1 PUSH2 0x122 SWAP2 SWAP1 PUSH2 0x12BA JUMP JUMPDEST PUSH2 0x35B JUMP JUMPDEST PUSH1 0x40 MLOAD PUSH2 0x134 SWAP2 SWAP1 PUSH2 0x12FF JUMP JUMPDEST PUSH1 0x40 MLOAD DUP1 SWAP2 SUB SWAP1 RETURN JUMPDEST PUSH2 0x157 PUSH1 0x4 DUP1 CALLDATASIZE SUB DUP2 ADD SWAP1 PUSH2 0x152 SWAP2 SWAP1 PUSH2 0x1487 JUMP JUMPDEST PUSH2 0x3D4 JUMP JUMPDEST STOP JUMPDEST PUSH2 0x173 PUSH1 0x4 DUP1 CALLDATASIZE SUB DUP2 ADD SWAP1 PUSH2 0x16E SWAP2 SWAP1 PUSH2 0x1514 JUMP JUMPDEST PUSH2 0x554 JUMP JUMPDEST PUSH1 0x40 MLOAD PUSH2 0x180 SWAP2 SWAP1 PUSH2 0x154E JUMP JUMPDEST PUSH1 0x40 MLOAD DUP1 SWAP2 SUB SWAP1 RETURN JUMPDEST PUSH2 0x1A3 PUSH1 0x4 DUP1 CALLDATASIZE SUB DUP2 ADD SWAP1 PUSH2 0x19E SWAP2 SWAP1 PUSH2 0x15C1 JUMP JUMPDEST PUSH2 0x570 JUMP JUMPDEST STOP JUMPDEST PUSH2 0x1BF PUSH1 0x4 DUP1 CALLDATASIZE SUB DUP2 ADD SWAP1 PUSH2 0x1BA SWAP2 SWAP1 PUSH2 0x15C1 JUMP JUMPDEST PUSH2 0x592 JUMP JUMPDEST STOP JUMPDEST PUSH2 0x1C9 PUSH2 0x60D JUMP JUMPDEST PUSH1 0x40 MLOAD PUSH2 0x1D6 SWAP2 SWAP1 PUSH2 0x160E JUMP JUMPDEST PUSH1 0x40 MLOAD DUP1 SWAP2 SUB SWAP1 RETURN JUMPDEST PUSH2 0x1F9 PUSH1 0x4 DUP1 CALLDATASIZE SUB DUP2 ADD SWAP1 PUSH2 0x1F4 SWAP2 SWAP1 PUSH2 0x1627 JUMP JUMPDEST PUSH2 0x616 JUMP JUMPDEST STOP JUMPDEST PUSH2 0x215 PUSH1 0x4 DUP1 CALLDATASIZE SUB DUP2 ADD SWAP1 PUSH2 0x210 SWAP2 SWAP1 PUSH2 0x1665 JUMP JUMPDEST PUSH2 0x7BD JUMP JUMPDEST PUSH1 0x40 MLOAD PUSH2 0x226 SWAP6 SWAP5 SWAP4 SWAP3 SWAP2 SWAP1 PUSH2 0x1710 JUMP JUMPDEST PUSH1 0x40 MLOAD DUP1 SWAP2 SUB SWAP1 RETURN JUMPDEST PUSH2 0x237 PUSH2 0x8A1 JUMP JUMPDEST PUSH1 0x40 MLOAD PUSH2 0x244 SWAP2 SWAP1 PUSH2 0x154E JUMP JUMPDEST PUSH1 0x40 MLOAD DUP1 SWAP2 SUB SWAP1 RETURN JUMPDEST PUSH2 0x267 PUSH1 0x4 DUP1 CALLDATASIZE SUB DUP2 ADD SWAP1 PUSH2 0x262 SWAP2 SWAP1 PUSH2 0x15C1 JUMP JUMPDEST PUSH2 0x8C5 JUMP JUMPDEST PUSH1 0x40 MLOAD PUSH2 0x274 SWAP2 SWAP1 PUSH2 0x12FF JUMP JUMPDEST PUSH1 0x40 MLOAD DUP1 SWAP2 SUB SWAP1 RETURN JUMPDEST PUSH2 0x285 PUSH2 0x928 JUMP JUMPDEST PUSH1 0x40 MLOAD PUSH2 0x292 SWAP2 SWAP1 PUSH2 0x154E JUMP JUMPDEST PUSH1 0x40 MLOAD DUP1 SWAP2 SUB SWAP1 RETURN JUMPDEST PUSH2 0x2B5 PUSH1 0x4 DUP1 CALLDATASIZE SUB DUP2 ADD SWAP1 PUSH2 0x2B0 SWAP2 SWAP1 PUSH2 0x1665 JUMP JUMPDEST PUSH2 0x92E JUMP JUMPDEST STOP JUMPDEST PUSH2 0x2D1 PUSH1 0x4 DUP1 CALLDATASIZE SUB DUP2 ADD SWAP1 PUSH2 0x2CC SWAP2 SWAP1 PUSH2 0x1768 JUMP JUMPDEST PUSH2 0xB79 JUMP JUMPDEST STOP JUMPDEST PUSH2 0x2ED PUSH1 0x4 DUP1 CALLDATASIZE SUB DUP2 ADD SWAP1 PUSH2 0x2E8 SWAP2 SWAP1 PUSH2 0x1665 JUMP JUMPDEST PUSH2 0xEA8 JUMP JUMPDEST PUSH1 0x40 MLOAD PUSH2 0x2FC SWAP4 SWAP3 SWAP2 SWAP1 PUSH2 0x17B5 JUMP JUMPDEST PUSH1 0x40 MLOAD DUP1 SWAP2 SUB SWAP1 RETURN JUMPDEST PUSH2 0x31F PUSH1 0x4 DUP1 CALLDATASIZE SUB DUP2 ADD SWAP1 PUSH2 0x31A SWAP2 SWAP1 PUSH2 0x15C1 JUMP JUMPDEST PUSH2 0xEED JUMP JUMPDEST STOP JUMPDEST PUSH2 0x33B PUSH1 0x4 DUP1 CALLDATASIZE SUB DUP2 ADD SWAP1 PUSH2 0x336 SWAP2 SWAP1 PUSH2 0x1665 JUMP JUMPDEST PUSH2 0xF0F JUMP JUMPDEST STOP JUMPDEST PUSH2 0x345 PUSH2 0xFA7 JUMP JUMPDEST PUSH1 0x40 MLOAD PUSH2 0x352 SWAP2 SWAP1 PUSH2 0x160E JUMP JUMPDEST PUSH1 0x40 MLOAD DUP1 SWAP2 SUB SWAP1 RETURN JUMPDEST PUSH0 PUSH32 0x7965DB0B00000000000000000000000000000000000000000000000000000000 PUSH28 0xFFFFFFFFFFFFFFFFFFFFFFFFFFFFFFFFFFFFFFFFFFFFFFFFFFFFFFFF NOT AND DUP3 PUSH28 0xFFFFFFFFFFFFFFFFFFFFFFFFFFFFFFFFFFFFFFFFFFFFFFFFFFFFFFFF NOT AND EQ DUP1 PUSH2 0x3CD JUMPI POP PUSH2 0x3CC DUP3 PUSH2 0xFAD JUMP JUMPDEST JUMPDEST SWAP1 POP SWAP2 SWAP1 POP JUMP JUMPDEST PUSH0 DUP2 GT PUSH2 0x416 JUMPI PUSH1 0x40 MLOAD PUSH32 0x8C379A000000000000000000000000000000000000000000000000000000000 DUP2 MSTORE PUSH1 0x4 ADD PUSH2 0x40D SWAP1 PUSH2 0x185A JUMP JUMPDEST PUSH1 0x40 MLOAD DUP1 SWAP2 SUB SWAP1 REVERT JUMPDEST PUSH1 0x1 PUSH0 DUP2 SLOAD DUP1 SWAP3 SWAP2 SWAP1 PUSH2 0x428 SWAP1 PUSH2 0x18A5 JUMP JUMPDEST SWAP2 SWAP1 POP SSTORE POP PUSH1 0x40 MLOAD DUP1 PUSH1 0xA0 ADD PUSH1 0x40 MSTORE DUP1 PUSH1 0x1 SLOAD DUP2 MSTORE PUSH1 0x20 ADD DUP4 DUP2 MSTORE PUSH1 0x20 ADD DUP3 DUP2 MSTORE PUSH1 0x20 ADD CALLER PUSH20 0xFFFFFFFFFFFFFFFFFFFFFFFFFFFFFFFFFFFFFFFF AND DUP2 MSTORE PUSH1 0x20 ADD PUSH1 0x1 ISZERO ISZERO DUP2 MSTORE POP PUSH1 0x2 PUSH0 PUSH1 0x1 SLOAD DUP2 MSTORE PUSH1 0x20 ADD SWAP1 DUP2 MSTORE PUSH1 0x20 ADD PUSH0 KECCAK256 PUSH0 DUP3 ADD MLOAD DUP2 PUSH0 ADD SSTORE PUSH1 0x20 DUP3 ADD MLOAD DUP2 PUSH1 0x1 ADD SWAP1 DUP2 PUSH2 0x49F SWAP2 SWAP1 PUSH2 0x1AE6 JUMP JUMPDEST POP PUSH1 0x40 DUP3 ADD MLOAD DUP2 PUSH1 0x2 ADD SSTORE PUSH1 0x60 DUP3 ADD MLOAD DUP2 PUSH1 0x3 ADD PUSH0 PUSH2 0x100 EXP DUP2 SLOAD DUP2 PUSH20 0xFFFFFFFFFFFFFFFFFFFFFFFFFFFFFFFFFFFFFFFF MUL NOT AND SWAP1 DUP4 PUSH20 0xFFFFFFFFFFFFFFFFFFFFFFFFFFFFFFFFFFFFFFFF AND MUL OR SWAP1 SSTORE POP PUSH1 0x80 DUP3 ADD MLOAD DUP2 PUSH1 0x3 ADD PUSH1 0x14 PUSH2 0x100 EXP DUP2 SLOAD DUP2 PUSH1 0xFF MUL NOT AND SWAP1 DUP4 ISZERO ISZERO MUL OR SWAP1 SSTORE POP SWAP1 POP POP PUSH32 0xFEC6CE5E9A41DE4F57D1FE9377D0C1C573A9793481F6E561A2F6B121E3601376 PUSH1 0x1 SLOAD DUP4 CALLER PUSH1 0x40 MLOAD PUSH2 0x548 SWAP4 SWAP3 SWAP2 SWAP1 PUSH2 0x1BB5 JUMP JUMPDEST PUSH1 0x40 MLOAD DUP1 SWAP2 SUB SWAP1 LOG1 POP POP JUMP JUMPDEST PUSH0 DUP1 PUSH0 DUP4 DUP2 MSTORE PUSH1 0x20 ADD SWAP1 DUP2 MSTORE PUSH1 0x20 ADD PUSH0 KECCAK256 PUSH1 0x1 ADD SLOAD SWAP1 POP SWAP2 SWAP1 POP JUMP JUMPDEST PUSH2 0x579 DUP3 PUSH2 0x554 JUMP JUMPDEST PUSH2 0x582 DUP2 PUSH2 0x1016 JUMP JUMPDEST PUSH2 0x58C DUP4 DUP4 PUSH2 0x102A JUMP JUMPDEST POP POP POP POP JUMP JUMPDEST PUSH2 0x59A PUSH2 0x1113 JUMP JUMPDEST PUSH20 0xFFFFFFFFFFFFFFFFFFFFFFFFFFFFFFFFFFFFFFFF AND DUP2 PUSH20 0xFFFFFFFFFFFFFFFFFFFFFFFFFFFFFFFFFFFFFFFF AND EQ PUSH2 0x5FE JUMPI PUSH1 0x40 MLOAD PUSH32 0x6697B23200000000000000000000000000000000000000000000000000000000 DUP2 MSTORE PUSH1 0x4 ADD PUSH1 0x40 MLOAD DUP1 SWAP2 SUB SWAP1 REVERT JUMPDEST PUSH2 0x608 DUP3 DUP3 PUSH2 0x111A JUMP JUMPDEST POP POP POP JUMP JUMPDEST PUSH0 PUSH1 0x5 SLOAD SWAP1 POP SWAP1 JUMP JUMPDEST PUSH32 0xA49807205CE4D355092EF5A8A18F56E8913CF4A201FBE287825B095693C21775 PUSH2 0x640 DUP2 PUSH2 0x1016 JUMP JUMPDEST DUP2 PUSH1 0x4 PUSH0 SWAP1 SLOAD SWAP1 PUSH2 0x100 EXP SWAP1 DIV PUSH20 0xFFFFFFFFFFFFFFFFFFFFFFFFFFFFFFFFFFFFFFFF AND PUSH20 0xFFFFFFFFFFFFFFFFFFFFFFFFFFFFFFFFFFFFFFFF AND PUSH4 0x70A08231 ADDRESS PUSH1 0x40 MLOAD DUP3 PUSH4 0xFFFFFFFF AND PUSH1 0xE0 SHL DUP2 MSTORE PUSH1 0x4 ADD PUSH2 0x69B SWAP2 SWAP1 PUSH2 0x1BF1 JUMP JUMPDEST PUSH1 0x20 PUSH1 0x40 MLOAD DUP1 DUP4 SUB DUP2 DUP7 GAS STATICCALL ISZERO DUP1 ISZERO PUSH2 0x6B6 JUMPI RETURNDATASIZE PUSH0 DUP1 RETURNDATACOPY RETURNDATASIZE PUSH0 REVERT JUMPDEST POP POP POP POP PUSH1 0x40 MLOAD RETURNDATASIZE PUSH1 0x1F NOT PUSH1 0x1F DUP3 ADD AND DUP3 ADD DUP1 PUSH1 0x40 MSTORE POP DUP2 ADD SWAP1 PUSH2 0x6DA SWAP2 SWAP1 PUSH2 0x1C1E JUMP JUMPDEST LT ISZERO PUSH2 0x71B JUMPI PUSH1 0x40 MLOAD PUSH32 0x8C379A000000000000000000000000000000000000000000000000000000000 DUP2 MSTORE PUSH1 0x4 ADD PUSH2 0x712 SWAP1 PUSH2 0x1CB9 JUMP JUMPDEST PUSH1 0x40 MLOAD DUP1 SWAP2 SUB SWAP1 REVERT JUMPDEST PUSH1 0x4 PUSH0 SWAP1 SLOAD SWAP1 PUSH2 0x100 EXP SWAP1 DIV PUSH20 0xFFFFFFFFFFFFFFFFFFFFFFFFFFFFFFFFFFFFFFFF AND PUSH20 0xFFFFFFFFFFFFFFFFFFFFFFFFFFFFFFFFFFFFFFFF AND PUSH4 0xA9059CBB DUP5 DUP5 PUSH1 0x40 MLOAD DUP4 PUSH4 0xFFFFFFFF AND PUSH1 0xE0 SHL DUP2 MSTORE PUSH1 0x4 ADD PUSH2 0x777 SWAP3 SWAP2 SWAP1 PUSH2 0x1CD7 JUMP JUMPDEST PUSH1 0x20 PUSH1 0x40 MLOAD DUP1 DUP4 SUB DUP2 PUSH0 DUP8 GAS CALL ISZERO DUP1 ISZERO PUSH2 0x793 JUMPI RETURNDATASIZE PUSH0 DUP1 RETURNDATACOPY RETURNDATASIZE PUSH0 REVERT JUMPDEST POP POP POP POP PUSH1 0x40 MLOAD RETURNDATASIZE PUSH1 0x1F NOT PUSH1 0x1F DUP3 ADD AND DUP3 ADD DUP1 PUSH1 0x40 MSTORE POP DUP2 ADD SWAP1 PUSH2 0x7B7 SWAP2 SWAP1 PUSH2 0x1D28 JUMP JUMPDEST POP POP POP POP JUMP JUMPDEST PUSH1 0x2 PUSH1 0x20 MSTORE DUP1 PUSH0 MSTORE PUSH1 0x40 PUSH0 KECCAK256 PUSH0 SWAP2 POP SWAP1 POP DUP1 PUSH0 ADD SLOAD SWAP1 DUP1 PUSH1 0x1 ADD DUP1 SLOAD PUSH2 0x7E2 SWAP1 PUSH2 0x1919 JUMP JUMPDEST DUP1 PUSH1 0x1F ADD PUSH1 0x20 DUP1 SWAP2 DIV MUL PUSH1 0x20 ADD PUSH1 0x40 MLOAD SWAP1 DUP2 ADD PUSH1 0x40 MSTORE DUP1 SWAP3 SWAP2 SWAP1 DUP2 DUP2 MSTORE PUSH1 0x20 ADD DUP3 DUP1 SLOAD PUSH2 0x80E SWAP1 PUSH2 0x1919 JUMP JUMPDEST DUP1 ISZERO PUSH2 0x859 JUMPI DUP1 PUSH1 0x1F LT PUSH2 0x830 JUMPI PUSH2 0x100 DUP1 DUP4 SLOAD DIV MUL DUP4 MSTORE SWAP2 PUSH1 0x20 ADD SWAP2 PUSH2 0x859 JUMP JUMPDEST DUP3 ADD SWAP2 SWAP1 PUSH0 MSTORE PUSH1 0x20 PUSH0 KECCAK256 SWAP1 JUMPDEST DUP2 SLOAD DUP2 MSTORE SWAP1 PUSH1 0x1 ADD SWAP1 PUSH1 0x20 ADD DUP1 DUP4 GT PUSH2 0x83C JUMPI DUP3 SWAP1 SUB PUSH1 0x1F AND DUP3 ADD SWAP2 JUMPDEST POP POP POP POP POP SWAP1 DUP1 PUSH1 0x2 ADD SLOAD SWAP1 DUP1 PUSH1 0x3 ADD PUSH0 SWAP1 SLOAD SWAP1 PUSH2 0x100 EXP SWAP1 DIV PUSH20 0xFFFFFFFFFFFFFFFFFFFFFFFFFFFFFFFFFFFFFFFF AND SWAP1 DUP1 PUSH1 0x3 ADD PUSH1 0x14 SWAP1 SLOAD SWAP1 PUSH2 0x100 EXP SWAP1 DIV PUSH1 0xFF AND SWAP1 POP DUP6 JUMP JUMPDEST PUSH32 0xA49807205CE4D355092EF5A8A18F56E8913CF4A201FBE287825B095693C21775 DUP2 JUMP JUMPDEST PUSH0 DUP1 PUSH0 DUP5 DUP2 MSTORE PUSH1 0x20 ADD SWAP1 DUP2 MSTORE PUSH1 0x20 ADD PUSH0 KECCAK256 PUSH0 ADD PUSH0 DUP4 PUSH20 0xFFFFFFFFFFFFFFFFFFFFFFFFFFFFFFFFFFFFFFFF AND PUSH20 0xFFFFFFFFFFFFFFFFFFFFFFFFFFFFFFFFFFFFFFFF AND DUP2 MSTORE PUSH1 0x20 ADD SWAP1 DUP2 MSTORE PUSH1 0x20 ADD PUSH0 KECCAK256 PUSH0 SWAP1 SLOAD SWAP1 PUSH2 0x100 EXP SWAP1 DIV PUSH1 0xFF AND SWAP1 POP SWAP3 SWAP2 POP POP JUMP JUMPDEST PUSH0 DUP1 SHL DUP2 JUMP JUMPDEST PUSH0 PUSH20 0xFFFFFFFFFFFFFFFFFFFFFFFFFFFFFFFFFFFFFFFF AND PUSH1 0x3 PUSH0 DUP4 DUP2 MSTORE PUSH1 0x20 ADD SWAP1 DUP2 MSTORE PUSH1 0x20 ADD PUSH0 KECCAK256 PUSH1 0x1 ADD PUSH0 SWAP1 SLOAD SWAP1 PUSH2 0x100 EXP SWAP1 DIV PUSH20 0xFFFFFFFFFFFFFFFFFFFFFFFFFFFFFFFFFFFFFFFF AND PUSH20 0xFFFFFFFFFFFFFFFFFFFFFFFFFFFFFFFFFFFFFFFF AND SUB PUSH2 0x9CF JUMPI PUSH1 0x40 MLOAD PUSH32 0x8C379A000000000000000000000000000000000000000000000000000000000 DUP2 MSTORE PUSH1 0x4 ADD PUSH2 0x9C6 SWAP1 PUSH2 0x1DC3 JUMP JUMPDEST PUSH1 0x40 MLOAD DUP1 SWAP2 SUB SWAP1 REVERT JUMPDEST CALLER PUSH20 0xFFFFFFFFFFFFFFFFFFFFFFFFFFFFFFFFFFFFFFFF AND PUSH1 0x3 PUSH0 DUP4 DUP2 MSTORE PUSH1 0x20 ADD SWAP1 DUP2 MSTORE PUSH1 0x20 ADD PUSH0 KECCAK256 PUSH1 0x1 ADD PUSH0 SWAP1 SLOAD SWAP1 PUSH2 0x100 EXP SWAP1 DIV PUSH20 0xFFFFFFFFFFFFFFFFFFFFFFFFFFFFFFFFFFFFFFFF AND PUSH20 0xFFFFFFFFFFFFFFFFFFFFFFFFFFFFFFFFFFFFFFFF AND EQ PUSH2 0xA70 JUMPI PUSH1 0x40 MLOAD PUSH32 0x8C379A000000000000000000000000000000000000000000000000000000000 DUP2 MSTORE PUSH1 0x4 ADD PUSH2 0xA67 SWAP1 PUSH2 0x1E51 JUMP JUMPDEST PUSH1 0x40 MLOAD DUP1 SWAP2 SUB SWAP1 REVERT JUMPDEST PUSH1 0x3 PUSH0 DUP3 DUP2 MSTORE PUSH1 0x20 ADD SWAP1 DUP2 MSTORE PUSH1 0x20 ADD PUSH0 KECCAK256 PUSH1 0x2 ADD SLOAD PUSH1 0x5 SLOAD LT ISZERO PUSH2 0xAC9 JUMPI PUSH1 0x40 MLOAD PUSH32 0x8C379A000000000000000000000000000000000000000000000000000000000 DUP2 MSTORE PUSH1 0x4 ADD PUSH2 0xAC0 SWAP1 PUSH2 0x1EB9 JUMP JUMPDEST PUSH1 0x40 MLOAD DUP1 SWAP2 SUB SWAP1 REVERT JUMPDEST PUSH1 0x1 PUSH1 0x2 PUSH0 DUP4 DUP2 MSTORE PUSH1 0x20 ADD SWAP1 DUP2 MSTORE PUSH1 0x20 ADD PUSH0 KECCAK256 PUSH1 0x3 ADD PUSH1 0x14 PUSH2 0x100 EXP DUP2 SLOAD DUP2 PUSH1 0xFF MUL NOT AND SWAP1 DUP4 ISZERO ISZERO MUL OR SWAP1 SSTORE POP PUSH1 0x3 PUSH0 DUP3 DUP2 MSTORE PUSH1 0x20 ADD SWAP1 DUP2 MSTORE PUSH1 0x20 ADD PUSH0 KECCAK256 PUSH0 DUP1 DUP3 ADD PUSH0 SWAP1 SSTORE PUSH1 0x1 DUP3 ADD PUSH0 PUSH2 0x100 EXP DUP2 SLOAD SWAP1 PUSH20 0xFFFFFFFFFFFFFFFFFFFFFFFFFFFFFFFFFFFFFFFF MUL NOT AND SWAP1 SSTORE PUSH1 0x2 DUP3 ADD PUSH0 SWAP1 SSTORE POP POP PUSH32 0x88B44BE84C9052BA1BDCA3B4B4466D38E2A4B94EA5B796D4BBB6070902D9BD19 DUP2 CALLER PUSH1 0x40 MLOAD PUSH2 0xB6E SWAP3 SWAP2 SWAP1 PUSH2 0x1ED7 JUMP JUMPDEST PUSH1 0x40 MLOAD DUP1 SWAP2 SUB SWAP1 LOG1 POP JUMP JUMPDEST PUSH0 PUSH1 0x2 PUSH0 DUP5 DUP2 MSTORE PUSH1 0x20 ADD SWAP1 DUP2 MSTORE PUSH1 0x20 ADD PUSH0 KECCAK256 SWAP1 POP DUP1 PUSH1 0x3 ADD PUSH1 0x14 SWAP1 SLOAD SWAP1 PUSH2 0x100 EXP SWAP1 DIV PUSH1 0xFF AND PUSH2 0xBDE JUMPI PUSH1 0x40 MLOAD PUSH32 0x8C379A000000000000000000000000000000000000000000000000000000000 DUP2 MSTORE PUSH1 0x4 ADD PUSH2 0xBD5 SWAP1 PUSH2 0x1F48 JUMP JUMPDEST PUSH1 0x40 MLOAD DUP1 SWAP2 SUB SWAP1 REVERT JUMPDEST PUSH0 DUP3 DUP3 PUSH1 0x2 ADD SLOAD PUSH2 0xBEF SWAP2 SWAP1 PUSH2 0x1F66 JUMP JUMPDEST SWAP1 POP DUP1 PUSH1 0x4 PUSH0 SWAP1 SLOAD SWAP1 PUSH2 0x100 EXP SWAP1 DIV PUSH20 0xFFFFFFFFFFFFFFFFFFFFFFFFFFFFFFFFFFFFFFFF AND PUSH20 0xFFFFFFFFFFFFFFFFFFFFFFFFFFFFFFFFFFFFFFFF AND PUSH4 0x70A08231 CALLER PUSH1 0x40 MLOAD DUP3 PUSH4 0xFFFFFFFF AND PUSH1 0xE0 SHL DUP2 MSTORE PUSH1 0x4 ADD PUSH2 0xC4C SWAP2 SWAP1 PUSH2 0x1BF1 JUMP JUMPDEST PUSH1 0x20 PUSH1 0x40 MLOAD DUP1 DUP4 SUB DUP2 DUP7 GAS STATICCALL ISZERO DUP1 ISZERO PUSH2 0xC67 JUMPI RETURNDATASIZE PUSH0 DUP1 RETURNDATACOPY RETURNDATASIZE PUSH0 REVERT JUMPDEST POP POP POP POP PUSH1 0x40 MLOAD RETURNDATASIZE PUSH1 0x1F NOT PUSH1 0x1F DUP3 ADD AND DUP3 ADD DUP1 PUSH1 0x40 MSTORE POP DUP2 ADD SWAP1 PUSH2 0xC8B SWAP2 SWAP1 PUSH2 0x1C1E JUMP JUMPDEST LT ISZERO PUSH2 0xCCC JUMPI PUSH1 0x40 MLOAD PUSH32 0x8C379A000000000000000000000000000000000000000000000000000000000 DUP2 MSTORE PUSH1 0x4 ADD PUSH2 0xCC3 SWAP1 PUSH2 0x1FF1 JUMP JUMPDEST PUSH1 0x40 MLOAD DUP1 SWAP2 SUB SWAP1 REVERT JUMPDEST PUSH1 0x4 PUSH0 SWAP1 SLOAD SWAP1 PUSH2 0x100 EXP SWAP1 DIV PUSH20 0xFFFFFFFFFFFFFFFFFFFFFFFFFFFFFFFFFFFFFFFF AND PUSH20 0xFFFFFFFFFFFFFFFFFFFFFFFFFFFFFFFFFFFFFFFF AND PUSH4 0x23B872DD CALLER DUP5 PUSH1 0x3 ADD PUSH0 SWAP1 SLOAD SWAP1 PUSH2 0x100 EXP SWAP1 DIV PUSH20 0xFFFFFFFFFFFFFFFFFFFFFFFFFFFFFFFFFFFFFFFF AND DUP5 PUSH1 0x40 MLOAD DUP5 PUSH4 0xFFFFFFFF AND PUSH1 0xE0 SHL DUP2 MSTORE PUSH1 0x4 ADD PUSH2 0xD4D SWAP4 SWAP3 SWAP2 SWAP1 PUSH2 0x2061 JUMP JUMPDEST PUSH1 0x20 PUSH1 0x40 MLOAD DUP1 DUP4 SUB DUP2 PUSH0 DUP8 GAS CALL ISZERO DUP1 ISZERO PUSH2 0xD69 JUMPI RETURNDATASIZE PUSH0 DUP1 RETURNDATACOPY RETURNDATASIZE PUSH0 REVERT JUMPDEST POP POP POP POP PUSH1 0x40 MLOAD RETURNDATASIZE PUSH1 0x1F NOT PUSH1 0x1F DUP3 ADD AND DUP3 ADD DUP1 PUSH1 0x40 MSTORE POP DUP2 ADD SWAP1 PUSH2 0xD8D SWAP2 SWAP1 PUSH2 0x1D28 JUMP JUMPDEST POP PUSH0 PUSH3 0x15180 DUP5 PUSH2 0xD9E SWAP2 SWAP1 PUSH2 0x1F66 JUMP JUMPDEST PUSH1 0x5 SLOAD PUSH2 0xDAB SWAP2 SWAP1 PUSH2 0x2096 JUMP JUMPDEST SWAP1 POP PUSH1 0x40 MLOAD DUP1 PUSH1 0x60 ADD PUSH1 0x40 MSTORE DUP1 DUP7 DUP2 MSTORE PUSH1 0x20 ADD CALLER PUSH20 0xFFFFFFFFFFFFFFFFFFFFFFFFFFFFFFFFFFFFFFFF AND DUP2 MSTORE PUSH1 0x20 ADD DUP3 DUP2 MSTORE POP PUSH1 0x3 PUSH0 DUP8 DUP2 MSTORE PUSH1 0x20 ADD SWAP1 DUP2 MSTORE PUSH1 0x20 ADD PUSH0 KECCAK256 PUSH0 DUP3 ADD MLOAD DUP2 PUSH0 ADD SSTORE PUSH1 0x20 DUP3 ADD MLOAD DUP2 PUSH1 0x1 ADD PUSH0 PUSH2 0x100 EXP DUP2 SLOAD DUP2 PUSH20 0xFFFFFFFFFFFFFFFFFFFFFFFFFFFFFFFFFFFFFFFF MUL NOT AND SWAP1 DUP4 PUSH20 0xFFFFFFFFFFFFFFFFFFFFFFFFFFFFFFFFFFFFFFFF AND MUL OR SWAP1 SSTORE POP PUSH1 0x40 DUP3 ADD MLOAD DUP2 PUSH1 0x2 ADD SSTORE SWAP1 POP POP PUSH0 DUP4 PUSH1 0x3 ADD PUSH1 0x14 PUSH2 0x100 EXP DUP2 SLOAD DUP2 PUSH1 0xFF MUL NOT AND SWAP1 DUP4 ISZERO ISZERO MUL OR SWAP1 SSTORE POP PUSH32 0xD134EFC08FE62D7A8A515DD4ADFBECCB0FBB4932F18796599FEAE5C46DC10491 DUP6 CALLER DUP4 PUSH1 0x40 MLOAD PUSH2 0xE99 SWAP4 SWAP3 SWAP2 SWAP1 PUSH2 0x17B5 JUMP JUMPDEST PUSH1 0x40 MLOAD DUP1 SWAP2 SUB SWAP1 LOG1 POP POP POP POP POP JUMP JUMPDEST PUSH1 0x3 PUSH1 0x20 MSTORE DUP1 PUSH0 MSTORE PUSH1 0x40 PUSH0 KECCAK256 PUSH0 SWAP2 POP SWAP1 POP DUP1 PUSH0 ADD SLOAD SWAP1 DUP1 PUSH1 0x1 ADD PUSH0 SWAP1 SLOAD SWAP1 PUSH2 0x100 EXP SWAP1 DIV PUSH20 0xFFFFFFFFFFFFFFFFFFFFFFFFFFFFFFFFFFFFFFFF AND SWAP1 DUP1 PUSH1 0x2 ADD SLOAD SWAP1 POP DUP4 JUMP JUMPDEST PUSH2 0xEF6 DUP3 PUSH2 0x554 JUMP JUMPDEST PUSH2 0xEFF DUP2 PUSH2 0x1016 JUMP JUMPDEST PUSH2 0xF09 DUP4 DUP4 PUSH2 0x111A JUMP JUMPDEST POP POP POP POP JUMP JUMPDEST PUSH32 0xA49807205CE4D355092EF5A8A18F56E8913CF4A201FBE287825B095693C21775 PUSH2 0xF39 DUP2 PUSH2 0x1016 JUMP JUMPDEST PUSH1 0x1 DUP3 LT ISZERO PUSH2 0xF7D JUMPI PUSH1 0x40 MLOAD PUSH32 0x8C379A000000000000000000000000000000000000000000000000000000000 DUP2 MSTORE PUSH1 0x4 ADD PUSH2 0xF74 SWAP1 PUSH2 0x2139 JUMP JUMPDEST PUSH1 0x40 MLOAD DUP1 SWAP2 SUB SWAP1 REVERT JUMPDEST PUSH3 0x15180 DUP3 PUSH2 0xF8C SWAP2 SWAP1 PUSH2 0x1F66 JUMP JUMPDEST PUSH1 0x5 PUSH0 DUP3 DUP3 SLOAD PUSH2 0xF9C SWAP2 SWAP1 PUSH2 0x2096 JUMP JUMPDEST SWAP3 POP POP DUP2 SWAP1 SSTORE POP POP POP JUMP JUMPDEST PUSH1 0x5 SLOAD DUP2 JUMP JUMPDEST PUSH0 PUSH32 0x1FFC9A700000000000000000000000000000000000000000000000000000000 PUSH28 0xFFFFFFFFFFFFFFFFFFFFFFFFFFFFFFFFFFFFFFFFFFFFFFFFFFFFFFFF NOT AND DUP3 PUSH28 0xFFFFFFFFFFFFFFFFFFFFFFFFFFFFFFFFFFFFFFFFFFFFFFFFFFFFFFFF NOT AND EQ SWAP1 POP SWAP2 SWAP1 POP JUMP JUMPDEST PUSH2 0x1027 DUP2 PUSH2 0x1022 PUSH2 0x1113 JUMP JUMPDEST PUSH2 0x1203 JUMP JUMPDEST POP JUMP JUMPDEST PUSH0 PUSH2 0x1035 DUP4 DUP4 PUSH2 0x8C5 JUMP JUMPDEST PUSH2 0x1109 JUMPI PUSH1 0x1 PUSH0 DUP1 DUP6 DUP2 MSTORE PUSH1 0x20 ADD SWAP1 DUP2 MSTORE PUSH1 0x20 ADD PUSH0 KECCAK256 PUSH0 ADD PUSH0 DUP5 PUSH20 0xFFFFFFFFFFFFFFFFFFFFFFFFFFFFFFFFFFFFFFFF AND PUSH20 0xFFFFFFFFFFFFFFFFFFFFFFFFFFFFFFFFFFFFFFFF AND DUP2 MSTORE PUSH1 0x20 ADD SWAP1 DUP2 MSTORE PUSH1 0x20 ADD PUSH0 KECCAK256 PUSH0 PUSH2 0x100 EXP DUP2 SLOAD DUP2 PUSH1 0xFF MUL NOT AND SWAP1 DUP4 ISZERO ISZERO MUL OR SWAP1 SSTORE POP PUSH2 0x10A6 PUSH2 0x1113 JUMP JUMPDEST PUSH20 0xFFFFFFFFFFFFFFFFFFFFFFFFFFFFFFFFFFFFFFFF AND DUP3 PUSH20 0xFFFFFFFFFFFFFFFFFFFFFFFFFFFFFFFFFFFFFFFF AND DUP5 PUSH32 0x2F8788117E7EFF1D82E926EC794901D17C78024A50270940304540A733656F0D PUSH1 0x40 MLOAD PUSH1 0x40 MLOAD DUP1 SWAP2 SUB SWAP1 LOG4 PUSH1 0x1 SWAP1 POP PUSH2 0x110D JUMP JUMPDEST PUSH0 SWAP1 POP JUMPDEST SWAP3 SWAP2 POP POP JUMP JUMPDEST PUSH0 CALLER SWAP1 POP SWAP1 JUMP JUMPDEST PUSH0 PUSH2 0x1125 DUP4 DUP4 PUSH2 0x8C5 JUMP JUMPDEST ISZERO PUSH2 0x11F9 JUMPI PUSH0 DUP1 PUSH0 DUP6 DUP2 MSTORE PUSH1 0x20 ADD SWAP1 DUP2 MSTORE PUSH1 0x20 ADD PUSH0 KECCAK256 PUSH0 ADD PUSH0 DUP5 PUSH20 0xFFFFFFFFFFFFFFFFFFFFFFFFFFFFFFFFFFFFFFFF AND PUSH20 0xFFFFFFFFFFFFFFFFFFFFFFFFFFFFFFFFFFFFFFFF AND DUP2 MSTORE PUSH1 0x20 ADD SWAP1 DUP2 MSTORE PUSH1 0x20 ADD PUSH0 KECCAK256 PUSH0 PUSH2 0x100 EXP DUP2 SLOAD DUP2 PUSH1 0xFF MUL NOT AND SWAP1 DUP4 ISZERO ISZERO MUL OR SWAP1 SSTORE POP PUSH2 0x1196 PUSH2 0x1113 JUMP JUMPDEST PUSH20 0xFFFFFFFFFFFFFFFFFFFFFFFFFFFFFFFFFFFFFFFF AND DUP3 PUSH20 0xFFFFFFFFFFFFFFFFFFFFFFFFFFFFFFFFFFFFFFFF AND DUP5 PUSH32 0xF6391F5C32D9C69D2A47EA670B442974B53935D1EDC7FD64EB21E047A839171B PUSH1 0x40 MLOAD PUSH1 0x40 MLOAD DUP1 SWAP2 SUB SWAP1 LOG4 PUSH1 0x1 SWAP1 POP PUSH2 0x11FD JUMP JUMPDEST PUSH0 SWAP1 POP JUMPDEST SWAP3 SWAP2 POP POP JUMP JUMPDEST PUSH2 0x120D DUP3 DUP3 PUSH2 0x8C5 JUMP JUMPDEST PUSH2 0x1250 JUMPI DUP1 DUP3 PUSH1 0x40 MLOAD PUSH32 0xE2517D3F00000000000000000000000000000000000000000000000000000000 DUP2 MSTORE PUSH1 0x4 ADD PUSH2 0x1247 SWAP3 SWAP2 SWAP1 PUSH2 0x2157 JUMP JUMPDEST PUSH1 0x40 MLOAD DUP1 SWAP2 SUB SWAP1 REVERT JUMPDEST POP POP JUMP JUMPDEST PUSH0 PUSH1 0x40 MLOAD SWAP1 POP SWAP1 JUMP JUMPDEST PUSH0 DUP1 REVERT JUMPDEST PUSH0 DUP1 REVERT JUMPDEST PUSH0 PUSH32 0xFFFFFFFF00000000000000000000000000000000000000000000000000000000 DUP3 AND SWAP1 POP SWAP2 SWAP1 POP JUMP JUMPDEST PUSH2 0x1299 DUP2 PUSH2 0x1265 JUMP JUMPDEST DUP2 EQ PUSH2 0x12A3 JUMPI PUSH0 DUP1 REVERT JUMPDEST POP JUMP JUMPDEST PUSH0 DUP2 CALLDATALOAD SWAP1 POP PUSH2 0x12B4 DUP2 PUSH2 0x1290 JUMP JUMPDEST SWAP3 SWAP2 POP POP JUMP JUMPDEST PUSH0 PUSH1 0x20 DUP3 DUP5 SUB SLT ISZERO PUSH2 0x12CF JUMPI PUSH2 0x12CE PUSH2 0x125D JUMP JUMPDEST JUMPDEST PUSH0 PUSH2 0x12DC DUP5 DUP3 DUP6 ADD PUSH2 0x12A6 JUMP JUMPDEST SWAP2 POP POP SWAP3 SWAP2 POP POP JUMP JUMPDEST PUSH0 DUP2 ISZERO ISZERO SWAP1 POP SWAP2 SWAP1 POP JUMP JUMPDEST PUSH2 0x12F9 DUP2 PUSH2 0x12E5 JUMP JUMPDEST DUP3 MSTORE POP POP JUMP JUMPDEST PUSH0 PUSH1 0x20 DUP3 ADD SWAP1 POP PUSH2 0x1312 PUSH0 DUP4 ADD DUP5 PUSH2 0x12F0 JUMP JUMPDEST SWAP3 SWAP2 POP POP JUMP JUMPDEST PUSH0 DUP1 REVERT JUMPDEST PUSH0 DUP1 REVERT JUMPDEST PUSH0 PUSH1 0x1F NOT PUSH1 0x1F DUP4 ADD AND SWAP1 POP SWAP2 SWAP1 POP JUMP JUMPDEST PUSH32 0x4E487B7100000000000000000000000000000000000000000000000000000000 PUSH0 MSTORE PUSH1 0x41 PUSH1 0x4 MSTORE PUSH1 0x24 PUSH0 REVERT JUMPDEST PUSH2 0x1366 DUP3 PUSH2 0x1320 JUMP JUMPDEST DUP2 ADD DUP2 DUP2 LT PUSH8 0xFFFFFFFFFFFFFFFF DUP3 GT OR ISZERO PUSH2 0x1385 JUMPI PUSH2 0x1384 PUSH2 0x1330 JUMP JUMPDEST JUMPDEST DUP1 PUSH1 0x40 MSTORE POP POP POP JUMP JUMPDEST PUSH0 PUSH2 0x1397 PUSH2 0x1254 JUMP JUMPDEST SWAP1 POP PUSH2 0x13A3 DUP3 DUP3 PUSH2 0x135D JUMP JUMPDEST SWAP2 SWAP1 POP JUMP JUMPDEST PUSH0 PUSH8 0xFFFFFFFFFFFFFFFF DUP3 GT ISZERO PUSH2 0x13C2 JUMPI PUSH2 0x13C1 PUSH2 0x1330 JUMP JUMPDEST JUMPDEST PUSH2 0x13CB DUP3 PUSH2 0x1320 JUMP JUMPDEST SWAP1 POP PUSH1 0x20 DUP2 ADD SWAP1 POP SWAP2 SWAP1 POP JUMP JUMPDEST DUP3 DUP2 DUP4 CALLDATACOPY PUSH0 DUP4 DUP4 ADD MSTORE POP POP POP JUMP JUMPDEST PUSH0 PUSH2 0x13F8 PUSH2 0x13F3 DUP5 PUSH2 0x13A8 JUMP JUMPDEST PUSH2 0x138E JUMP JUMPDEST SWAP1 POP DUP3 DUP2 MSTORE PUSH1 0x20 DUP2 ADD DUP5 DUP5 DUP5 ADD GT ISZERO PUSH2 0x1414 JUMPI PUSH2 0x1413 PUSH2 0x131C JUMP JUMPDEST JUMPDEST PUSH2 0x141F DUP5 DUP3 DUP6 PUSH2 0x13D8 JUMP JUMPDEST POP SWAP4 SWAP3 POP POP POP JUMP JUMPDEST PUSH0 DUP3 PUSH1 0x1F DUP4 ADD SLT PUSH2 0x143B JUMPI PUSH2 0x143A PUSH2 0x1318 JUMP JUMPDEST JUMPDEST DUP2 CALLDATALOAD PUSH2 0x144B DUP5 DUP3 PUSH1 0x20 DUP7 ADD PUSH2 0x13E6 JUMP JUMPDEST SWAP2 POP POP SWAP3 SWAP2 POP POP JUMP JUMPDEST PUSH0 DUP2 SWAP1 POP SWAP2 SWAP1 POP JUMP JUMPDEST PUSH2 0x1466 DUP2 PUSH2 0x1454 JUMP JUMPDEST DUP2 EQ PUSH2 0x1470 JUMPI PUSH0 DUP1 REVERT JUMPDEST POP JUMP JUMPDEST PUSH0 DUP2 CALLDATALOAD SWAP1 POP PUSH2 0x1481 DUP2 PUSH2 0x145D JUMP JUMPDEST SWAP3 SWAP2 POP POP JUMP JUMPDEST PUSH0 DUP1 PUSH1 0x40 DUP4 DUP6 SUB SLT ISZERO PUSH2 0x149D JUMPI PUSH2 0x149C PUSH2 0x125D JUMP JUMPDEST JUMPDEST PUSH0 DUP4 ADD CALLDATALOAD PUSH8 0xFFFFFFFFFFFFFFFF DUP2 GT ISZERO PUSH2 0x14BA JUMPI PUSH2 0x14B9 PUSH2 0x1261 JUMP JUMPDEST JUMPDEST PUSH2 0x14C6 DUP6 DUP3 DUP7 ADD PUSH2 0x1427 JUMP JUMPDEST SWAP3 POP POP PUSH1 0x20 PUSH2 0x14D7 DUP6 DUP3 DUP7 ADD PUSH2 0x1473 JUMP JUMPDEST SWAP2 POP POP SWAP3 POP SWAP3 SWAP1 POP JUMP JUMPDEST PUSH0 DUP2 SWAP1 POP SWAP2 SWAP1 POP JUMP JUMPDEST PUSH2 0x14F3 DUP2 PUSH2 0x14E1 JUMP JUMPDEST DUP2 EQ PUSH2 0x14FD JUMPI PUSH0 DUP1 REVERT JUMPDEST POP JUMP JUMPDEST PUSH0 DUP2 CALLDATALOAD SWAP1 POP PUSH2 0x150E DUP2 PUSH2 0x14EA JUMP JUMPDEST SWAP3 SWAP2 POP POP JUMP JUMPDEST PUSH0 PUSH1 0x20 DUP3 DUP5 SUB SLT ISZERO PUSH2 0x1529 JUMPI PUSH2 0x1528 PUSH2 0x125D JUMP JUMPDEST JUMPDEST PUSH0 PUSH2 0x1536 DUP5 DUP3 DUP6 ADD PUSH2 0x1500 JUMP JUMPDEST SWAP2 POP POP SWAP3 SWAP2 POP POP JUMP JUMPDEST PUSH2 0x1548 DUP2 PUSH2 0x14E1 JUMP JUMPDEST DUP3 MSTORE POP POP JUMP JUMPDEST PUSH0 PUSH1 0x20 DUP3 ADD SWAP1 POP PUSH2 0x1561 PUSH0 DUP4 ADD DUP5 PUSH2 0x153F JUMP JUMPDEST SWAP3 SWAP2 POP POP JUMP JUMPDEST PUSH0 PUSH20 0xFFFFFFFFFFFFFFFFFFFFFFFFFFFFFFFFFFFFFFFF DUP3 AND SWAP1 POP SWAP2 SWAP1 POP JUMP JUMPDEST PUSH0 PUSH2 0x1590 DUP3 PUSH2 0x1567 JUMP JUMPDEST SWAP1 POP SWAP2 SWAP1 POP JUMP JUMPDEST PUSH2 0x15A0 DUP2 PUSH2 0x1586 JUMP JUMPDEST DUP2 EQ PUSH2 0x15AA JUMPI PUSH0 DUP1 REVERT JUMPDEST POP JUMP JUMPDEST PUSH0 DUP2 CALLDATALOAD SWAP1 POP PUSH2 0x15BB DUP2 PUSH2 0x1597 JUMP JUMPDEST SWAP3 SWAP2 POP POP JUMP JUMPDEST PUSH0 DUP1 PUSH1 0x40 DUP4 DUP6 SUB SLT ISZERO PUSH2 0x15D7 JUMPI PUSH2 0x15D6 PUSH2 0x125D JUMP JUMPDEST JUMPDEST PUSH0 PUSH2 0x15E4 DUP6 DUP3 DUP7 ADD PUSH2 0x1500 JUMP JUMPDEST SWAP3 POP POP PUSH1 0x20 PUSH2 0x15F5 DUP6 DUP3 DUP7 ADD PUSH2 0x15AD JUMP JUMPDEST SWAP2 POP POP SWAP3 POP SWAP3 SWAP1 POP JUMP JUMPDEST PUSH2 0x1608 DUP2 PUSH2 0x1454 JUMP JUMPDEST DUP3 MSTORE POP POP JUMP JUMPDEST PUSH0 PUSH1 0x20 DUP3 ADD SWAP1 POP PUSH2 0x1621 PUSH0 DUP4 ADD DUP5 PUSH2 0x15FF JUMP JUMPDEST SWAP3 SWAP2 POP POP JUMP JUMPDEST PUSH0 DUP1 PUSH1 0x40 DUP4 DUP6 SUB SLT ISZERO PUSH2 0x163D JUMPI PUSH2 0x163C PUSH2 0x125D JUMP JUMPDEST JUMPDEST PUSH0 PUSH2 0x164A DUP6 DUP3 DUP7 ADD PUSH2 0x15AD JUMP JUMPDEST SWAP3 POP POP PUSH1 0x20 PUSH2 0x165B DUP6 DUP3 DUP7 ADD PUSH2 0x1473 JUMP JUMPDEST SWAP2 POP POP SWAP3 POP SWAP3 SWAP1 POP JUMP JUMPDEST PUSH0 PUSH1 0x20 DUP3 DUP5 SUB SLT ISZERO PUSH2 0x167A JUMPI PUSH2 0x1679 PUSH2 0x125D JUMP JUMPDEST JUMPDEST PUSH0 PUSH2 0x1687 DUP5 DUP3 DUP6 ADD PUSH2 0x1473 JUMP JUMPDEST SWAP2 POP POP SWAP3 SWAP2 POP POP JUMP JUMPDEST PUSH0 DUP2 MLOAD SWAP1 POP SWAP2 SWAP1 POP JUMP JUMPDEST PUSH0 DUP3 DUP3 MSTORE PUSH1 0x20 DUP3 ADD SWAP1 POP SWAP3 SWAP2 POP POP JUMP JUMPDEST DUP3 DUP2 DUP4 MCOPY PUSH0 DUP4 DUP4 ADD MSTORE POP POP POP JUMP JUMPDEST PUSH0 PUSH2 0x16C2 DUP3 PUSH2 0x1690 JUMP JUMPDEST PUSH2 0x16CC DUP2 DUP6 PUSH2 0x169A JUMP JUMPDEST SWAP4 POP PUSH2 0x16DC DUP2 DUP6 PUSH1 0x20 DUP7 ADD PUSH2 0x16AA JUMP JUMPDEST PUSH2 0x16E5 DUP2 PUSH2 0x1320 JUMP JUMPDEST DUP5 ADD SWAP2 POP POP SWAP3 SWAP2 POP POP JUMP JUMPDEST PUSH0 PUSH2 0x16FA DUP3 PUSH2 0x1567 JUMP JUMPDEST SWAP1 POP SWAP2 SWAP1 POP JUMP JUMPDEST PUSH2 0x170A DUP2 PUSH2 0x16F0 JUMP JUMPDEST DUP3 MSTORE POP POP JUMP JUMPDEST PUSH0 PUSH1 0xA0 DUP3 ADD SWAP1 POP PUSH2 0x1723 PUSH0 DUP4 ADD DUP9 PUSH2 0x15FF JUMP JUMPDEST DUP2 DUP2 SUB PUSH1 0x20 DUP4 ADD MSTORE PUSH2 0x1735 DUP2 DUP8 PUSH2 0x16B8 JUMP JUMPDEST SWAP1 POP PUSH2 0x1744 PUSH1 0x40 DUP4 ADD DUP7 PUSH2 0x15FF JUMP JUMPDEST PUSH2 0x1751 PUSH1 0x60 DUP4 ADD DUP6 PUSH2 0x1701 JUMP JUMPDEST PUSH2 0x175E PUSH1 0x80 DUP4 ADD DUP5 PUSH2 0x12F0 JUMP JUMPDEST SWAP7 SWAP6 POP POP POP POP POP POP JUMP JUMPDEST PUSH0 DUP1 PUSH1 0x40 DUP4 DUP6 SUB SLT ISZERO PUSH2 0x177E JUMPI PUSH2 0x177D PUSH2 0x125D JUMP JUMPDEST JUMPDEST PUSH0 PUSH2 0x178B DUP6 DUP3 DUP7 ADD PUSH2 0x1473 JUMP JUMPDEST SWAP3 POP POP PUSH1 0x20 PUSH2 0x179C DUP6 DUP3 DUP7 ADD PUSH2 0x1473 JUMP JUMPDEST SWAP2 POP POP SWAP3 POP SWAP3 SWAP1 POP JUMP JUMPDEST PUSH2 0x17AF DUP2 PUSH2 0x1586 JUMP JUMPDEST DUP3 MSTORE POP POP JUMP JUMPDEST PUSH0 PUSH1 0x60 DUP3 ADD SWAP1 POP PUSH2 0x17C8 PUSH0 DUP4 ADD DUP7 PUSH2 0x15FF JUMP JUMPDEST PUSH2 0x17D5 PUSH1 0x20 DUP4 ADD DUP6 PUSH2 0x17A6 JUMP JUMPDEST PUSH2 0x17E2 PUSH1 0x40 DUP4 ADD DUP5 PUSH2 0x15FF JUMP JUMPDEST SWAP5 SWAP4 POP POP POP POP JUMP JUMPDEST PUSH32 0x4C65207461726966206A6F75726E616C69657220646F69742065747265207375 PUSH0 DUP3 ADD MSTORE PUSH32 0x7065726965757220612030000000000000000000000000000000000000000000 PUSH1 0x20 DUP3 ADD MSTORE POP JUMP JUMPDEST PUSH0 PUSH2 0x1844 PUSH1 0x2B DUP4 PUSH2 0x169A JUMP JUMPDEST SWAP2 POP PUSH2 0x184F DUP3 PUSH2 0x17EA JUMP JUMPDEST PUSH1 0x40 DUP3 ADD SWAP1 POP SWAP2 SWAP1 POP JUMP JUMPDEST PUSH0 PUSH1 0x20 DUP3 ADD SWAP1 POP DUP2 DUP2 SUB PUSH0 DUP4 ADD MSTORE PUSH2 0x1871 DUP2 PUSH2 0x1838 JUMP JUMPDEST SWAP1 POP SWAP2 SWAP1 POP JUMP JUMPDEST PUSH32 0x4E487B7100000000000000000000000000000000000000000000000000000000 PUSH0 MSTORE PUSH1 0x11 PUSH1 0x4 MSTORE PUSH1 0x24 PUSH0 REVERT JUMPDEST PUSH0 PUSH2 0x18AF DUP3 PUSH2 0x1454 JUMP JUMPDEST SWAP2 POP PUSH32 0xFFFFFFFFFFFFFFFFFFFFFFFFFFFFFFFFFFFFFFFFFFFFFFFFFFFFFFFFFFFFFFFF DUP3 SUB PUSH2 0x18E1 JUMPI PUSH2 0x18E0 PUSH2 0x1878 JUMP JUMPDEST JUMPDEST PUSH1 0x1 DUP3 ADD SWAP1 POP SWAP2 SWAP1 POP JUMP JUMPDEST PUSH32 0x4E487B7100000000000000000000000000000000000000000000000000000000 PUSH0 MSTORE PUSH1 0x22 PUSH1 0x4 MSTORE PUSH1 0x24 PUSH0 REVERT JUMPDEST PUSH0 PUSH1 0x2 DUP3 DIV SWAP1 POP PUSH1 0x1 DUP3 AND DUP1 PUSH2 0x1930 JUMPI PUSH1 0x7F DUP3 AND SWAP2 POP JUMPDEST PUSH1 0x20 DUP3 LT DUP2 SUB PUSH2 0x1943 JUMPI PUSH2 0x1942 PUSH2 0x18EC JUMP JUMPDEST JUMPDEST POP SWAP2 SWAP1 POP JUMP JUMPDEST PUSH0 DUP2 SWAP1 POP DUP2 PUSH0 MSTORE PUSH1 0x20 PUSH0 KECCAK256 SWAP1 POP SWAP2 SWAP1 POP JUMP JUMPDEST PUSH0 PUSH1 0x20 PUSH1 0x1F DUP4 ADD DIV SWAP1 POP SWAP2 SWAP1 POP JUMP JUMPDEST PUSH0 DUP3 DUP3 SHL SWAP1 POP SWAP3 SWAP2 POP POP JUMP JUMPDEST PUSH0 PUSH1 0x8 DUP4 MUL PUSH2 0x19A5 PUSH32 0xFFFFFFFFFFFFFFFFFFFFFFFFFFFFFFFFFFFFFFFFFFFFFFFFFFFFFFFFFFFFFFFF DUP3 PUSH2 0x196A JUMP JUMPDEST PUSH2 0x19AF DUP7 DUP4 PUSH2 0x196A JUMP JUMPDEST SWAP6 POP DUP1 NOT DUP5 AND SWAP4 POP DUP1 DUP7 AND DUP5 OR SWAP3 POP POP POP SWAP4 SWAP3 POP POP POP JUMP JUMPDEST PUSH0 DUP2 SWAP1 POP SWAP2 SWAP1 POP JUMP JUMPDEST PUSH0 PUSH2 0x19EA PUSH2 0x19E5 PUSH2 0x19E0 DUP5 PUSH2 0x1454 JUMP JUMPDEST PUSH2 0x19C7 JUMP JUMPDEST PUSH2 0x1454 JUMP JUMPDEST SWAP1 POP SWAP2 SWAP1 POP JUMP JUMPDEST PUSH0 DUP2 SWAP1 POP SWAP2 SWAP1 POP JUMP JUMPDEST PUSH2 0x1A03 DUP4 PUSH2 0x19D0 JUMP JUMPDEST PUSH2 0x1A17 PUSH2 0x1A0F DUP3 PUSH2 0x19F1 JUMP JUMPDEST DUP5 DUP5 SLOAD PUSH2 0x1976 JUMP JUMPDEST DUP3 SSTORE POP POP POP POP JUMP JUMPDEST PUSH0 SWAP1 JUMP JUMPDEST PUSH2 0x1A2B PUSH2 0x1A1F JUMP JUMPDEST PUSH2 0x1A36 DUP2 DUP5 DUP5 PUSH2 0x19FA JUMP JUMPDEST POP POP POP JUMP JUMPDEST JUMPDEST DUP2 DUP2 LT ISZERO PUSH2 0x1A59 JUMPI PUSH2 0x1A4E PUSH0 DUP3 PUSH2 0x1A23 JUMP JUMPDEST PUSH1 0x1 DUP2 ADD SWAP1 POP PUSH2 0x1A3C JUMP JUMPDEST POP POP JUMP JUMPDEST PUSH1 0x1F DUP3 GT ISZERO PUSH2 0x1A9E JUMPI PUSH2 0x1A6F DUP2 PUSH2 0x1949 JUMP JUMPDEST PUSH2 0x1A78 DUP5 PUSH2 0x195B JUMP JUMPDEST DUP2 ADD PUSH1 0x20 DUP6 LT ISZERO PUSH2 0x1A87 JUMPI DUP2 SWAP1 POP JUMPDEST PUSH2 0x1A9B PUSH2 0x1A93 DUP6 PUSH2 0x195B JUMP JUMPDEST DUP4 ADD DUP3 PUSH2 0x1A3B JUMP JUMPDEST POP POP JUMPDEST POP POP POP JUMP JUMPDEST PUSH0 DUP3 DUP3 SHR SWAP1 POP SWAP3 SWAP2 POP POP JUMP JUMPDEST PUSH0 PUSH2 0x1ABE PUSH0 NOT DUP5 PUSH1 0x8 MUL PUSH2 0x1AA3 JUMP JUMPDEST NOT DUP1 DUP4 AND SWAP2 POP POP SWAP3 SWAP2 POP POP JUMP JUMPDEST PUSH0 PUSH2 0x1AD6 DUP4 DUP4 PUSH2 0x1AAF JUMP JUMPDEST SWAP2 POP DUP3 PUSH1 0x2 MUL DUP3 OR SWAP1 POP SWAP3 SWAP2 POP POP JUMP JUMPDEST PUSH2 0x1AEF DUP3 PUSH2 0x1690 JUMP JUMPDEST PUSH8 0xFFFFFFFFFFFFFFFF DUP2 GT ISZERO PUSH2 0x1B08 JUMPI PUSH2 0x1B07 PUSH2 0x1330 JUMP JUMPDEST JUMPDEST PUSH2 0x1B12 DUP3 SLOAD PUSH2 0x1919 JUMP JUMPDEST PUSH2 0x1B1D DUP3 DUP3 DUP6 PUSH2 0x1A5D JUMP JUMPDEST PUSH0 PUSH1 0x20 SWAP1 POP PUSH1 0x1F DUP4 GT PUSH1 0x1 DUP2 EQ PUSH2 0x1B4E JUMPI PUSH0 DUP5 ISZERO PUSH2 0x1B3C JUMPI DUP3 DUP8 ADD MLOAD SWAP1 POP JUMPDEST PUSH2 0x1B46 DUP6 DUP3 PUSH2 0x1ACB JUMP JUMPDEST DUP7 SSTORE POP PUSH2 0x1BAD JUMP JUMPDEST PUSH1 0x1F NOT DUP5 AND PUSH2 0x1B5C DUP7 PUSH2 0x1949 JUMP JUMPDEST PUSH0 JUMPDEST DUP3 DUP2 LT ISZERO PUSH2 0x1B83 JUMPI DUP5 DUP10 ADD MLOAD DUP3 SSTORE PUSH1 0x1 DUP3 ADD SWAP2 POP PUSH1 0x20 DUP6 ADD SWAP5 POP PUSH1 0x20 DUP2 ADD SWAP1 POP PUSH2 0x1B5E JUMP JUMPDEST DUP7 DUP4 LT ISZERO PUSH2 0x1BA0 JUMPI DUP5 DUP10 ADD MLOAD PUSH2 0x1B9C PUSH1 0x1F DUP10 AND DUP3 PUSH2 0x1AAF JUMP JUMPDEST DUP4 SSTORE POP JUMPDEST PUSH1 0x1 PUSH1 0x2 DUP9 MUL ADD DUP9 SSTORE POP POP POP JUMPDEST POP POP POP POP POP POP JUMP JUMPDEST PUSH0 PUSH1 0x60 DUP3 ADD SWAP1 POP PUSH2 0x1BC8 PUSH0 DUP4 ADD DUP7 PUSH2 0x15FF JUMP JUMPDEST DUP2 DUP2 SUB PUSH1 0x20 DUP4 ADD MSTORE PUSH2 0x1BDA DUP2 DUP6 PUSH2 0x16B8 JUMP JUMPDEST SWAP1 POP PUSH2 0x1BE9 PUSH1 0x40 DUP4 ADD DUP5 PUSH2 0x17A6 JUMP JUMPDEST SWAP5 SWAP4 POP POP POP POP JUMP JUMPDEST PUSH0 PUSH1 0x20 DUP3 ADD SWAP1 POP PUSH2 0x1C04 PUSH0 DUP4 ADD DUP5 PUSH2 0x17A6 JUMP JUMPDEST SWAP3 SWAP2 POP POP JUMP JUMPDEST PUSH0 DUP2 MLOAD SWAP1 POP PUSH2 0x1C18 DUP2 PUSH2 0x145D JUMP JUMPDEST SWAP3 SWAP2 POP POP JUMP JUMPDEST PUSH0 PUSH1 0x20 DUP3 DUP5 SUB SLT ISZERO PUSH2 0x1C33 JUMPI PUSH2 0x1C32 PUSH2 0x125D JUMP JUMPDEST JUMPDEST PUSH0 PUSH2 0x1C40 DUP5 DUP3 DUP6 ADD PUSH2 0x1C0A JUMP JUMPDEST SWAP2 POP POP SWAP3 SWAP2 POP POP JUMP JUMPDEST PUSH32 0x536F6C646520696E737566666973616E742064616E73206C6520636F6E747261 PUSH0 DUP3 ADD MSTORE PUSH32 0x742E000000000000000000000000000000000000000000000000000000000000 PUSH1 0x20 DUP3 ADD MSTORE POP JUMP JUMPDEST PUSH0 PUSH2 0x1CA3 PUSH1 0x22 DUP4 PUSH2 0x169A JUMP JUMPDEST SWAP2 POP PUSH2 0x1CAE DUP3 PUSH2 0x1C49 JUMP JUMPDEST PUSH1 0x40 DUP3 ADD SWAP1 POP SWAP2 SWAP1 POP JUMP JUMPDEST PUSH0 PUSH1 0x20 DUP3 ADD SWAP1 POP DUP2 DUP2 SUB PUSH0 DUP4 ADD MSTORE PUSH2 0x1CD0 DUP2 PUSH2 0x1C97 JUMP JUMPDEST SWAP1 POP SWAP2 SWAP1 POP JUMP JUMPDEST PUSH0 PUSH1 0x40 DUP3 ADD SWAP1 POP PUSH2 0x1CEA PUSH0 DUP4 ADD DUP6 PUSH2 0x17A6 JUMP JUMPDEST PUSH2 0x1CF7 PUSH1 0x20 DUP4 ADD DUP5 PUSH2 0x15FF JUMP JUMPDEST SWAP4 SWAP3 POP POP POP JUMP JUMPDEST PUSH2 0x1D07 DUP2 PUSH2 0x12E5 JUMP JUMPDEST DUP2 EQ PUSH2 0x1D11 JUMPI PUSH0 DUP1 REVERT JUMPDEST POP JUMP JUMPDEST PUSH0 DUP2 MLOAD SWAP1 POP PUSH2 0x1D22 DUP2 PUSH2 0x1CFE JUMP JUMPDEST SWAP3 SWAP2 POP POP JUMP JUMPDEST PUSH0 PUSH1 0x20 DUP3 DUP5 SUB SLT ISZERO PUSH2 0x1D3D JUMPI PUSH2 0x1D3C PUSH2 0x125D JUMP JUMPDEST JUMPDEST PUSH0 PUSH2 0x1D4A DUP5 DUP3 DUP6 ADD PUSH2 0x1D14 JUMP JUMPDEST SWAP2 POP POP SWAP3 SWAP2 POP POP JUMP JUMPDEST PUSH32 0x417563756E65206C6F636174696F6E2061637469766520706F75722063657420 PUSH0 DUP3 ADD MSTORE PUSH32 0x6F626A65742E0000000000000000000000000000000000000000000000000000 PUSH1 0x20 DUP3 ADD MSTORE POP JUMP JUMPDEST PUSH0 PUSH2 0x1DAD PUSH1 0x26 DUP4 PUSH2 0x169A JUMP JUMPDEST SWAP2 POP PUSH2 0x1DB8 DUP3 PUSH2 0x1D53 JUMP JUMPDEST PUSH1 0x40 DUP3 ADD SWAP1 POP SWAP2 SWAP1 POP JUMP JUMPDEST PUSH0 PUSH1 0x20 DUP3 ADD SWAP1 POP DUP2 DUP2 SUB PUSH0 DUP4 ADD MSTORE PUSH2 0x1DDA DUP2 PUSH2 0x1DA1 JUMP JUMPDEST SWAP1 POP SWAP2 SWAP1 POP JUMP JUMPDEST PUSH32 0x566F7573206E276574657320706173206C65206C6F6361746169726520646520 PUSH0 DUP3 ADD MSTORE PUSH32 0x636574206F626A65742E00000000000000000000000000000000000000000000 PUSH1 0x20 DUP3 ADD MSTORE POP JUMP JUMPDEST PUSH0 PUSH2 0x1E3B PUSH1 0x2A DUP4 PUSH2 0x169A JUMP JUMPDEST SWAP2 POP PUSH2 0x1E46 DUP3 PUSH2 0x1DE1 JUMP JUMPDEST PUSH1 0x40 DUP3 ADD SWAP1 POP SWAP2 SWAP1 POP JUMP JUMPDEST PUSH0 PUSH1 0x20 DUP3 ADD SWAP1 POP DUP2 DUP2 SUB PUSH0 DUP4 ADD MSTORE PUSH2 0x1E68 DUP2 PUSH2 0x1E2F JUMP JUMPDEST SWAP1 POP SWAP2 SWAP1 POP JUMP JUMPDEST PUSH32 0x4C61206C6F636174696F6E2065737420656E636F726520656E20636F7572732E PUSH0 DUP3 ADD MSTORE POP JUMP JUMPDEST PUSH0 PUSH2 0x1EA3 PUSH1 0x20 DUP4 PUSH2 0x169A JUMP JUMPDEST SWAP2 POP PUSH2 0x1EAE DUP3 PUSH2 0x1E6F JUMP JUMPDEST PUSH1 0x20 DUP3 ADD SWAP1 POP SWAP2 SWAP1 POP JUMP JUMPDEST PUSH0 PUSH1 0x20 DUP3 ADD SWAP1 POP DUP2 DUP2 SUB PUSH0 DUP4 ADD MSTORE PUSH2 0x1ED0 DUP2 PUSH2 0x1E97 JUMP JUMPDEST SWAP1 POP SWAP2 SWAP1 POP JUMP JUMPDEST PUSH0 PUSH1 0x40 DUP3 ADD SWAP1 POP PUSH2 0x1EEA PUSH0 DUP4 ADD DUP6 PUSH2 0x15FF JUMP JUMPDEST PUSH2 0x1EF7 PUSH1 0x20 DUP4 ADD DUP5 PUSH2 0x17A6 JUMP JUMPDEST SWAP4 SWAP3 POP POP POP JUMP JUMPDEST PUSH32 0x4C276F626A6574206E276573742070617320646973706F6E69626C652E000000 PUSH0 DUP3 ADD MSTORE POP JUMP JUMPDEST PUSH0 PUSH2 0x1F32 PUSH1 0x1D DUP4 PUSH2 0x169A JUMP JUMPDEST SWAP2 POP PUSH2 0x1F3D DUP3 PUSH2 0x1EFE JUMP JUMPDEST PUSH1 0x20 DUP3 ADD SWAP1 POP SWAP2 SWAP1 POP JUMP JUMPDEST PUSH0 PUSH1 0x20 DUP3 ADD SWAP1 POP DUP2 DUP2 SUB PUSH0 DUP4 ADD MSTORE PUSH2 0x1F5F DUP2 PUSH2 0x1F26 JUMP JUMPDEST SWAP1 POP SWAP2 SWAP1 POP JUMP JUMPDEST PUSH0 PUSH2 0x1F70 DUP3 PUSH2 0x1454 JUMP JUMPDEST SWAP2 POP PUSH2 0x1F7B DUP4 PUSH2 0x1454 JUMP JUMPDEST SWAP3 POP DUP3 DUP3 MUL PUSH2 0x1F89 DUP2 PUSH2 0x1454 JUMP JUMPDEST SWAP2 POP DUP3 DUP3 DIV DUP5 EQ DUP4 ISZERO OR PUSH2 0x1FA0 JUMPI PUSH2 0x1F9F PUSH2 0x1878 JUMP JUMPDEST JUMPDEST POP SWAP3 SWAP2 POP POP JUMP JUMPDEST PUSH32 0x536F6C646520696E737566666973616E7420656E20746F6B656E732E00000000 PUSH0 DUP3 ADD MSTORE POP JUMP JUMPDEST PUSH0 PUSH2 0x1FDB PUSH1 0x1C DUP4 PUSH2 0x169A JUMP JUMPDEST SWAP2 POP PUSH2 0x1FE6 DUP3 PUSH2 0x1FA7 JUMP JUMPDEST PUSH1 0x20 DUP3 ADD SWAP1 POP SWAP2 SWAP1 POP JUMP JUMPDEST PUSH0 PUSH1 0x20 DUP3 ADD SWAP1 POP DUP2 DUP2 SUB PUSH0 DUP4 ADD MSTORE PUSH2 0x2008 DUP2 PUSH2 0x1FCF JUMP JUMPDEST SWAP1 POP SWAP2 SWAP1 POP JUMP JUMPDEST PUSH0 PUSH2 0x2029 PUSH2 0x2024 PUSH2 0x201F DUP5 PUSH2 0x1567 JUMP JUMPDEST PUSH2 0x19C7 JUMP JUMPDEST PUSH2 0x1567 JUMP JUMPDEST SWAP1 POP SWAP2 SWAP1 POP JUMP JUMPDEST PUSH0 PUSH2 0x203A DUP3 PUSH2 0x200F JUMP JUMPDEST SWAP1 POP SWAP2 SWAP1 POP JUMP JUMPDEST PUSH0 PUSH2 0x204B DUP3 PUSH2 0x2030 JUMP JUMPDEST SWAP1 POP SWAP2 SWAP1 POP JUMP JUMPDEST PUSH2 0x205B DUP2 PUSH2 0x2041 JUMP JUMPDEST DUP3 MSTORE POP POP JUMP JUMPDEST PUSH0 PUSH1 0x60 DUP3 ADD SWAP1 POP PUSH2 0x2074 PUSH0 DUP4 ADD DUP7 PUSH2 0x17A6 JUMP JUMPDEST PUSH2 0x2081 PUSH1 0x20 DUP4 ADD DUP6 PUSH2 0x2052 JUMP JUMPDEST PUSH2 0x208E PUSH1 0x40 DUP4 ADD DUP5 PUSH2 0x15FF JUMP JUMPDEST SWAP5 SWAP4 POP POP POP POP JUMP JUMPDEST PUSH0 PUSH2 0x20A0 DUP3 PUSH2 0x1454 JUMP JUMPDEST SWAP2 POP PUSH2 0x20AB DUP4 PUSH2 0x1454 JUMP JUMPDEST SWAP3 POP DUP3 DUP3 ADD SWAP1 POP DUP1 DUP3 GT ISZERO PUSH2 0x20C3 JUMPI PUSH2 0x20C2 PUSH2 0x1878 JUMP JUMPDEST JUMPDEST SWAP3 SWAP2 POP POP JUMP JUMPDEST PUSH32 0x566F757320646576657A20737065636966696572206175206D6F696E7320756E PUSH0 DUP3 ADD MSTORE PUSH32 0x206A6F75722E0000000000000000000000000000000000000000000000000000 PUSH1 0x20 DUP3 ADD MSTORE POP JUMP JUMPDEST PUSH0 PUSH2 0x2123 PUSH1 0x26 DUP4 PUSH2 0x169A JUMP JUMPDEST SWAP2 POP PUSH2 0x212E DUP3 PUSH2 0x20C9 JUMP JUMPDEST PUSH1 0x40 DUP3 ADD SWAP1 POP SWAP2 SWAP1 POP JUMP JUMPDEST PUSH0 PUSH1 0x20 DUP3 ADD SWAP1 POP DUP2 DUP2 SUB PUSH0 DUP4 ADD MSTORE PUSH2 0x2150 DUP2 PUSH2 0x2117 JUMP JUMPDEST SWAP1 POP SWAP2 SWAP1 POP JUMP JUMPDEST PUSH0 PUSH1 0x40 DUP3 ADD SWAP1 POP PUSH2 0x216A PUSH0 DUP4 ADD DUP6 PUSH2 0x17A6 JUMP JUMPDEST PUSH2 0x2177 PUSH1 0x20 DUP4 ADD DUP5 PUSH2 0x153F JUMP JUMPDEST SWAP4 SWAP3 POP POP POP JUMP INVALID LOG2 PUSH5 0x6970667358 0x22 SLT KECCAK256 0xCF BYTE PUSH12 0x885D3D6C69990D8CB1319223 SWAP2 0xC5 DUP4 0xD1 SHR LT 0xC4 DUP9 SAR TIMESTAMP RETURNDATASIZE CREATE2 0xC2 0xD2 0xF6 0xF7 SWAP1 PUSH5 0x736F6C6343 STOP ADDMOD BYTE STOP CALLER "
				},
				"gasEstimates": {
					"creation": {
						"codeDepositCost": "1725600",
						"executionCost": "infinite",
						"totalCost": "infinite"
					},
					"external": {
						"ADMIN_ROLE()": "348",
						"DEFAULT_ADMIN_ROLE()": "397",
						"ajouterObjet(string,uint256)": "infinite",
						"getRoleAdmin(bytes32)": "infinite",
						"getSimulatedTime()": "2477",
						"grantRole(bytes32,address)": "infinite",
						"hasRole(bytes32,address)": "3167",
						"locations(uint256)": "infinite",
						"louerObjet(uint256,uint256)": "infinite",
						"objets(uint256)": "infinite",
						"passerLeTemps(uint256)": "infinite",
						"renounceRole(bytes32,address)": "infinite",
						"retirerTokens(address,uint256)": "infinite",
						"revokeRole(bytes32,address)": "infinite",
						"simulatedTime()": "2535",
						"supportsInterface(bytes4)": "741",
						"terminerLocation(uint256)": "infinite"
					}
				},
				"methodIdentifiers": {
					"ADMIN_ROLE()": "75b238fc",
					"DEFAULT_ADMIN_ROLE()": "a217fddf",
					"ajouterObjet(string,uint256)": "0251b673",
					"getRoleAdmin(bytes32)": "248a9ca3",
					"getSimulatedTime()": "3b9fcca4",
					"grantRole(bytes32,address)": "2f2ff15d",
					"hasRole(bytes32,address)": "91d14854",
					"locations(uint256)": "b9e0db35",
					"louerObjet(uint256,uint256)": "b8586e2e",
					"objets(uint256)": "733da1d5",
					"passerLeTemps(uint256)": "d8ae6d7b",
					"renounceRole(bytes32,address)": "36568abe",
					"retirerTokens(address,uint256)": "73360948",
					"revokeRole(bytes32,address)": "d547741f",
					"simulatedTime()": "dfa212f6",
					"supportsInterface(bytes4)": "01ffc9a7",
					"terminerLocation(uint256)": "b4385ad0"
				}
			},
			"storageLayout": {
				"storage": [
					{
						"astId": 26,
						"contract": "helloworld.sol:LocationObjets",
						"label": "_roles",
						"offset": 0,
						"slot": "0",
						"type": "t_mapping(t_bytes32,t_struct(RoleData)21_storage)"
					},
					{
						"astId": 1231,
						"contract": "helloworld.sol:LocationObjets",
						"label": "compteurObjets",
						"offset": 0,
						"slot": "1",
						"type": "t_uint256"
					},
					{
						"astId": 1236,
						"contract": "helloworld.sol:LocationObjets",
						"label": "objets",
						"offset": 0,
						"slot": "2",
						"type": "t_mapping(t_uint256,t_struct(Objet)1222_storage)"
					},
					{
						"astId": 1241,
						"contract": "helloworld.sol:LocationObjets",
						"label": "locations",
						"offset": 0,
						"slot": "3",
						"type": "t_mapping(t_uint256,t_struct(Location)1229_storage)"
					},
					{
						"astId": 1244,
						"contract": "helloworld.sol:LocationObjets",
						"label": "token",
						"offset": 0,
						"slot": "4",
						"type": "t_contract(SNFTToken)1556"
					},
					{
						"astId": 1246,
						"contract": "helloworld.sol:LocationObjets",
						"label": "simulatedTime",
						"offset": 0,
						"slot": "5",
						"type": "t_uint256"
					}
				],
				"types": {
					"t_address": {
						"encoding": "inplace",
						"label": "address",
						"numberOfBytes": "20"
					},
					"t_address_payable": {
						"encoding": "inplace",
						"label": "address payable",
						"numberOfBytes": "20"
					},
					"t_bool": {
						"encoding": "inplace",
						"label": "bool",
						"numberOfBytes": "1"
					},
					"t_bytes32": {
						"encoding": "inplace",
						"label": "bytes32",
						"numberOfBytes": "32"
					},
					"t_contract(SNFTToken)1556": {
						"encoding": "inplace",
						"label": "contract SNFTToken",
						"numberOfBytes": "20"
					},
					"t_mapping(t_address,t_bool)": {
						"encoding": "mapping",
						"key": "t_address",
						"label": "mapping(address => bool)",
						"numberOfBytes": "32",
						"value": "t_bool"
					},
					"t_mapping(t_bytes32,t_struct(RoleData)21_storage)": {
						"encoding": "mapping",
						"key": "t_bytes32",
						"label": "mapping(bytes32 => struct AccessControl.RoleData)",
						"numberOfBytes": "32",
						"value": "t_struct(RoleData)21_storage"
					},
					"t_mapping(t_uint256,t_struct(Location)1229_storage)": {
						"encoding": "mapping",
						"key": "t_uint256",
						"label": "mapping(uint256 => struct LocationObjets.Location)",
						"numberOfBytes": "32",
						"value": "t_struct(Location)1229_storage"
					},
					"t_mapping(t_uint256,t_struct(Objet)1222_storage)": {
						"encoding": "mapping",
						"key": "t_uint256",
						"label": "mapping(uint256 => struct LocationObjets.Objet)",
						"numberOfBytes": "32",
						"value": "t_struct(Objet)1222_storage"
					},
					"t_string_storage": {
						"encoding": "bytes",
						"label": "string",
						"numberOfBytes": "32"
					},
					"t_struct(Location)1229_storage": {
						"encoding": "inplace",
						"label": "struct LocationObjets.Location",
						"members": [
							{
								"astId": 1224,
								"contract": "helloworld.sol:LocationObjets",
								"label": "idObjet",
								"offset": 0,
								"slot": "0",
								"type": "t_uint256"
							},
							{
								"astId": 1226,
								"contract": "helloworld.sol:LocationObjets",
								"label": "locataire",
								"offset": 0,
								"slot": "1",
								"type": "t_address"
							},
							{
								"astId": 1228,
								"contract": "helloworld.sol:LocationObjets",
								"label": "dateFin",
								"offset": 0,
								"slot": "2",
								"type": "t_uint256"
							}
						],
						"numberOfBytes": "96"
					},
					"t_struct(Objet)1222_storage": {
						"encoding": "inplace",
						"label": "struct LocationObjets.Objet",
						"members": [
							{
								"astId": 1213,
								"contract": "helloworld.sol:LocationObjets",
								"label": "id",
								"offset": 0,
								"slot": "0",
								"type": "t_uint256"
							},
							{
								"astId": 1215,
								"contract": "helloworld.sol:LocationObjets",
								"label": "nom",
								"offset": 0,
								"slot": "1",
								"type": "t_string_storage"
							},
							{
								"astId": 1217,
								"contract": "helloworld.sol:LocationObjets",
								"label": "tarifJournalier",
								"offset": 0,
								"slot": "2",
								"type": "t_uint256"
							},
							{
								"astId": 1219,
								"contract": "helloworld.sol:LocationObjets",
								"label": "proprietaire",
								"offset": 0,
								"slot": "3",
								"type": "t_address_payable"
							},
							{
								"astId": 1221,
								"contract": "helloworld.sol:LocationObjets",
								"label": "disponible",
								"offset": 20,
								"slot": "3",
								"type": "t_bool"
							}
						],
						"numberOfBytes": "128"
					},
					"t_struct(RoleData)21_storage": {
						"encoding": "inplace",
						"label": "struct AccessControl.RoleData",
						"members": [
							{
								"astId": 18,
								"contract": "helloworld.sol:LocationObjets",
								"label": "hasRole",
								"offset": 0,
								"slot": "0",
								"type": "t_mapping(t_address,t_bool)"
							},
							{
								"astId": 20,
								"contract": "helloworld.sol:LocationObjets",
								"label": "adminRole",
								"offset": 0,
								"slot": "1",
								"type": "t_bytes32"
							}
						],
						"numberOfBytes": "64"
					},
					"t_uint256": {
						"encoding": "inplace",
						"label": "uint256",
						"numberOfBytes": "32"
					}
				}
			},
			"userdoc": {
				"kind": "user",
				"methods": {},
				"version": 1
			}
		}
	}
}