{
	".learneth/ethereum/remix-workshops/1. Introduction/introduction.sol": {
		"Quiz": {
			"abi": [
				{
					"inputs": [],
					"name": "question1",
					"outputs": [
						{
							"internalType": "uint8",
							"name": "",
							"type": "uint8"
						}
					],
					"stateMutability": "view",
					"type": "function"
				},
				{
					"inputs": [],
					"name": "question2",
					"outputs": [
						{
							"internalType": "uint8",
							"name": "",
							"type": "uint8"
						}
					],
					"stateMutability": "view",
					"type": "function"
				},
				{
					"inputs": [],
					"name": "question3",
					"outputs": [
						{
							"internalType": "uint8",
							"name": "",
							"type": "uint8"
						}
					],
					"stateMutability": "view",
					"type": "function"
				}
			],
			"devdoc": {
				"kind": "dev",
				"methods": {},
				"version": 1
			},
			"evm": {
				"assembly": "    /* \".learneth/ethereum/remix-workshops/1. Introduction/introduction.sol\":57:170  contract Quiz {... */\n  mstore(0x40, 0x80)\n    /* \".learneth/ethereum/remix-workshops/1. Introduction/introduction.sol\":102:103  2 */\n  0x02\n    /* \".learneth/ethereum/remix-workshops/1. Introduction/introduction.sol\":77:103  uint8 public question1 = 2 */\n  0x00\n  dup1\n  0x0100\n  exp\n  dup2\n  sload\n  dup2\n  0xff\n  mul\n  not\n  and\n  swap1\n  dup4\n  0xff\n  and\n  mul\n  or\n  swap1\n  sstore\n  pop\n    /* \".learneth/ethereum/remix-workshops/1. Introduction/introduction.sol\":134:135  3 */\n  0x03\n    /* \".learneth/ethereum/remix-workshops/1. Introduction/introduction.sol\":109:135  uint8 public question2 = 3 */\n  0x00\n  exp(0x0100, 0x01)\n  dup2\n  sload\n  dup2\n  0xff\n  mul\n  not\n  and\n  swap1\n  dup4\n  0xff\n  and\n  mul\n  or\n  swap1\n  sstore\n  pop\n    /* \".learneth/ethereum/remix-workshops/1. Introduction/introduction.sol\":166:167  2 */\n  0x02\n    /* \".learneth/ethereum/remix-workshops/1. Introduction/introduction.sol\":141:167  uint8 public question3 = 2 */\n  0x00\n  exp(0x0100, 0x02)\n  dup2\n  sload\n  dup2\n  0xff\n  mul\n  not\n  and\n  swap1\n  dup4\n  0xff\n  and\n  mul\n  or\n  swap1\n  sstore\n  pop\n    /* \".learneth/ethereum/remix-workshops/1. Introduction/introduction.sol\":57:170  contract Quiz {... */\n  callvalue\n  dup1\n  iszero\n  tag_1\n  jumpi\n  0x00\n  dup1\n  revert\ntag_1:\n  pop\n  dataSize(sub_0)\n  dup1\n  dataOffset(sub_0)\n  0x00\n  codecopy\n  0x00\n  return\nstop\n\nsub_0: assembly {\n        /* \".learneth/ethereum/remix-workshops/1. Introduction/introduction.sol\":57:170  contract Quiz {... */\n      mstore(0x40, 0x80)\n      callvalue\n      dup1\n      iszero\n      tag_1\n      jumpi\n      0x00\n      dup1\n      revert\n    tag_1:\n      pop\n      jumpi(tag_2, lt(calldatasize, 0x04))\n      shr(0xe0, calldataload(0x00))\n      dup1\n      0x10cd83c0\n      eq\n      tag_3\n      jumpi\n      dup1\n      0x33d1c2fc\n      eq\n      tag_4\n      jumpi\n      dup1\n      0x36f4a006\n      eq\n      tag_5\n      jumpi\n    tag_2:\n      0x00\n      dup1\n      revert\n        /* \".learneth/ethereum/remix-workshops/1. Introduction/introduction.sol\":77:103  uint8 public question1 = 2 */\n    tag_3:\n      tag_6\n      tag_7\n      jump\t// in\n    tag_6:\n      mload(0x40)\n      tag_8\n      swap2\n      swap1\n      tag_9\n      jump\t// in\n    tag_8:\n      mload(0x40)\n      dup1\n      swap2\n      sub\n      swap1\n      return\n        /* \".learneth/ethereum/remix-workshops/1. Introduction/introduction.sol\":109:135  uint8 public question2 = 3 */\n    tag_4:\n      tag_10\n      tag_11\n      jump\t// in\n    tag_10:\n      mload(0x40)\n      tag_12\n      swap2\n      swap1\n      tag_9\n      jump\t// in\n    tag_12:\n      mload(0x40)\n      dup1\n      swap2\n      sub\n      swap1\n      return\n        /* \".learneth/ethereum/remix-workshops/1. Introduction/introduction.sol\":141:167  uint8 public question3 = 2 */\n    tag_5:\n      tag_13\n      tag_14\n      jump\t// in\n    tag_13:\n      mload(0x40)\n      tag_15\n      swap2\n      swap1\n      tag_9\n      jump\t// in\n    tag_15:\n      mload(0x40)\n      dup1\n      swap2\n      sub\n      swap1\n      return\n        /* \".learneth/ethereum/remix-workshops/1. Introduction/introduction.sol\":77:103  uint8 public question1 = 2 */\n    tag_7:\n      0x00\n      dup1\n      sload\n      swap1\n      0x0100\n      exp\n      swap1\n      div\n      0xff\n      and\n      dup2\n      jump\t// out\n        /* \".learneth/ethereum/remix-workshops/1. Introduction/introduction.sol\":109:135  uint8 public question2 = 3 */\n    tag_11:\n      0x00\n      0x01\n      swap1\n      sload\n      swap1\n      0x0100\n      exp\n      swap1\n      div\n      0xff\n      and\n      dup2\n      jump\t// out\n        /* \".learneth/ethereum/remix-workshops/1. Introduction/introduction.sol\":141:167  uint8 public question3 = 2 */\n    tag_14:\n      0x00\n      0x02\n      swap1\n      sload\n      swap1\n      0x0100\n      exp\n      swap1\n      div\n      0xff\n      and\n      dup2\n      jump\t// out\n        /* \"#utility.yul\":7:93   */\n    tag_16:\n        /* \"#utility.yul\":42:49   */\n      0x00\n        /* \"#utility.yul\":82:86   */\n      0xff\n        /* \"#utility.yul\":75:80   */\n      dup3\n        /* \"#utility.yul\":71:87   */\n      and\n        /* \"#utility.yul\":60:87   */\n      swap1\n      pop\n        /* \"#utility.yul\":7:93   */\n      swap2\n      swap1\n      pop\n      jump\t// out\n        /* \"#utility.yul\":99:211   */\n    tag_17:\n        /* \"#utility.yul\":182:204   */\n      tag_21\n        /* \"#utility.yul\":198:203   */\n      dup2\n        /* \"#utility.yul\":182:204   */\n      tag_16\n      jump\t// in\n    tag_21:\n        /* \"#utility.yul\":177:180   */\n      dup3\n        /* \"#utility.yul\":170:205   */\n      mstore\n        /* \"#utility.yul\":99:211   */\n      pop\n      pop\n      jump\t// out\n        /* \"#utility.yul\":217:431   */\n    tag_9:\n        /* \"#utility.yul\":306:310   */\n      0x00\n        /* \"#utility.yul\":344:346   */\n      0x20\n        /* \"#utility.yul\":333:342   */\n      dup3\n        /* \"#utility.yul\":329:347   */\n      add\n        /* \"#utility.yul\":321:347   */\n      swap1\n      pop\n        /* \"#utility.yul\":357:424   */\n      tag_23\n        /* \"#utility.yul\":421:422   */\n      0x00\n        /* \"#utility.yul\":410:419   */\n      dup4\n        /* \"#utility.yul\":406:423   */\n      add\n        /* \"#utility.yul\":397:403   */\n      dup5\n        /* \"#utility.yul\":357:424   */\n      tag_17\n      jump\t// in\n    tag_23:\n        /* \"#utility.yul\":217:431   */\n      swap3\n      swap2\n      pop\n      pop\n      jump\t// out\n\n    auxdata: 0xa26469706673582212205d0845eaa32ab2c07dfc42bdf8f80e797ee41fe5eb27ec5621211cb18718a09364736f6c634300081a0033\n}\n",
				"bytecode": {
					"linkReferences": {},
					"object": "608060405260025f806101000a81548160ff021916908360ff16021790555060035f60016101000a81548160ff021916908360ff16021790555060025f60026101000a81548160ff021916908360ff160217905550348015605e575f80fd5b506101268061006c5f395ff3fe6080604052348015600e575f80fd5b5060043610603a575f3560e01c806310cd83c014603e57806333d1c2fc14605857806336f4a006146072575b5f80fd5b6044608c565b604051604f919060d9565b60405180910390f35b605e609c565b6040516069919060d9565b60405180910390f35b607860ae565b6040516083919060d9565b60405180910390f35b5f8054906101000a900460ff1681565b5f60019054906101000a900460ff1681565b5f60029054906101000a900460ff1681565b5f60ff82169050919050565b60d38160c0565b82525050565b5f60208201905060ea5f83018460cc565b9291505056fea26469706673582212205d0845eaa32ab2c07dfc42bdf8f80e797ee41fe5eb27ec5621211cb18718a09364736f6c634300081a0033",
					"opcodes": "PUSH1 0x80 PUSH1 0x40 MSTORE PUSH1 0x2 PUSH0 DUP1 PUSH2 0x100 EXP DUP2 SLOAD DUP2 PUSH1 0xFF MUL NOT AND SWAP1 DUP4 PUSH1 0xFF AND MUL OR SWAP1 SSTORE POP PUSH1 0x3 PUSH0 PUSH1 0x1 PUSH2 0x100 EXP DUP2 SLOAD DUP2 PUSH1 0xFF MUL NOT AND SWAP1 DUP4 PUSH1 0xFF AND MUL OR SWAP1 SSTORE POP PUSH1 0x2 PUSH0 PUSH1 0x2 PUSH2 0x100 EXP DUP2 SLOAD DUP2 PUSH1 0xFF MUL NOT AND SWAP1 DUP4 PUSH1 0xFF AND MUL OR SWAP1 SSTORE POP CALLVALUE DUP1 ISZERO PUSH1 0x5E JUMPI PUSH0 DUP1 REVERT JUMPDEST POP PUSH2 0x126 DUP1 PUSH2 0x6C PUSH0 CODECOPY PUSH0 RETURN INVALID PUSH1 0x80 PUSH1 0x40 MSTORE CALLVALUE DUP1 ISZERO PUSH1 0xE JUMPI PUSH0 DUP1 REVERT JUMPDEST POP PUSH1 0x4 CALLDATASIZE LT PUSH1 0x3A JUMPI PUSH0 CALLDATALOAD PUSH1 0xE0 SHR DUP1 PUSH4 0x10CD83C0 EQ PUSH1 0x3E JUMPI DUP1 PUSH4 0x33D1C2FC EQ PUSH1 0x58 JUMPI DUP1 PUSH4 0x36F4A006 EQ PUSH1 0x72 JUMPI JUMPDEST PUSH0 DUP1 REVERT JUMPDEST PUSH1 0x44 PUSH1 0x8C JUMP JUMPDEST PUSH1 0x40 MLOAD PUSH1 0x4F SWAP2 SWAP1 PUSH1 0xD9 JUMP JUMPDEST PUSH1 0x40 MLOAD DUP1 SWAP2 SUB SWAP1 RETURN JUMPDEST PUSH1 0x5E PUSH1 0x9C JUMP JUMPDEST PUSH1 0x40 MLOAD PUSH1 0x69 SWAP2 SWAP1 PUSH1 0xD9 JUMP JUMPDEST PUSH1 0x40 MLOAD DUP1 SWAP2 SUB SWAP1 RETURN JUMPDEST PUSH1 0x78 PUSH1 0xAE JUMP JUMPDEST PUSH1 0x40 MLOAD PUSH1 0x83 SWAP2 SWAP1 PUSH1 0xD9 JUMP JUMPDEST PUSH1 0x40 MLOAD DUP1 SWAP2 SUB SWAP1 RETURN JUMPDEST PUSH0 DUP1 SLOAD SWAP1 PUSH2 0x100 EXP SWAP1 DIV PUSH1 0xFF AND DUP2 JUMP JUMPDEST PUSH0 PUSH1 0x1 SWAP1 SLOAD SWAP1 PUSH2 0x100 EXP SWAP1 DIV PUSH1 0xFF AND DUP2 JUMP JUMPDEST PUSH0 PUSH1 0x2 SWAP1 SLOAD SWAP1 PUSH2 0x100 EXP SWAP1 DIV PUSH1 0xFF AND DUP2 JUMP JUMPDEST PUSH0 PUSH1 0xFF DUP3 AND SWAP1 POP SWAP2 SWAP1 POP JUMP JUMPDEST PUSH1 0xD3 DUP2 PUSH1 0xC0 JUMP JUMPDEST DUP3 MSTORE POP POP JUMP JUMPDEST PUSH0 PUSH1 0x20 DUP3 ADD SWAP1 POP PUSH1 0xEA PUSH0 DUP4 ADD DUP5 PUSH1 0xCC JUMP JUMPDEST SWAP3 SWAP2 POP POP JUMP INVALID LOG2 PUSH5 0x6970667358 0x22 SLT KECCAK256 TSTORE ADDMOD GASLIMIT 0xEA LOG3 0x2A 0xB2 0xC0 PUSH30 0xFC42BDF8F80E797EE41FE5EB27EC5621211CB18718A09364736F6C634300 ADDMOD BYTE STOP CALLER "
				},
				"gasEstimates": {
					"creation": {
						"codeDepositCost": "58800",
						"executionCost": "73007",
						"totalCost": "131807"
					},
					"external": {
						"question1()": "2441",
						"question2()": "2516",
						"question3()": "2538"
					}
				},
				"methodIdentifiers": {
					"question1()": "10cd83c0",
					"question2()": "33d1c2fc",
					"question3()": "36f4a006"
				}
			},
			"storageLayout": {
				"storage": [
					{
						"astId": 4,
						"contract": ".learneth/ethereum/remix-workshops/1. Introduction/introduction.sol:Quiz",
						"label": "question1",
						"offset": 0,
						"slot": "0",
						"type": "t_uint8"
					},
					{
						"astId": 7,
						"contract": ".learneth/ethereum/remix-workshops/1. Introduction/introduction.sol:Quiz",
						"label": "question2",
						"offset": 1,
						"slot": "0",
						"type": "t_uint8"
					},
					{
						"astId": 10,
						"contract": ".learneth/ethereum/remix-workshops/1. Introduction/introduction.sol:Quiz",
						"label": "question3",
						"offset": 2,
						"slot": "0",
						"type": "t_uint8"
					}
				],
				"types": {
					"t_uint8": {
						"encoding": "inplace",
						"label": "uint8",
						"numberOfBytes": "1"
					}
				}
			},
			"userdoc": {
				"kind": "user",
				"methods": {},
				"version": 1
			}
		}
	}
}