{
	"data": {
		"bytecode": {
			"linkReferences": {},
			"object": "6080604052348015600f57600080fd5b5060ac8061001e6000396000f3fe6080604052348015600f57600080fd5b506004361060325760003560e01c8063df3689a1146037578063e498d766146053575b600080fd5b603d605b565b6040518082815260200191505060405180910390f35b60596064565b005b60008054905090565b600080815480929190600101919050555056fea265627a7a723158205c44c6751751b4c144f31e295808ea4aba594504ec2e844a6a2b2f7363bf1a4864736f6c63430005110032",
			"opcodes": "PUSH1 0x80 PUSH1 0x40 MSTORE CALLVALUE DUP1 ISZERO PUSH1 0xF JUMPI PUSH1 0x0 DUP1 REVERT JUMPDEST POP PUSH1 0xAC DUP1 PUSH2 0x1E PUSH1 0x0 CODECOPY PUSH1 0x0 RETURN INVALID PUSH1 0x80 PUSH1 0x40 MSTORE CALLVALUE DUP1 ISZERO PUSH1 0xF JUMPI PUSH1 0x0 DUP1 REVERT JUMPDEST POP PUSH1 0x4 CALLDATASIZE LT PUSH1 0x32 JUMPI PUSH1 0x0 CALLDATALOAD PUSH1 0xE0 SHR DUP1 PUSH4 0xDF3689A1 EQ PUSH1 0x37 JUMPI DUP1 PUSH4 0xE498D766 EQ PUSH1 0x53 JUMPI JUMPDEST PUSH1 0x0 DUP1 REVERT JUMPDEST PUSH1 0x3D PUSH1 0x5B JUMP JUMPDEST PUSH1 0x40 MLOAD DUP1 DUP3 DUP2 MSTORE PUSH1 0x20 ADD SWAP2 POP POP PUSH1 0x40 MLOAD DUP1 SWAP2 SUB SWAP1 RETURN JUMPDEST PUSH1 0x59 PUSH1 0x64 JUMP JUMPDEST STOP JUMPDEST PUSH1 0x0 DUP1 SLOAD SWAP1 POP SWAP1 JUMP JUMPDEST PUSH1 0x0 DUP1 DUP2 SLOAD DUP1 SWAP3 SWAP2 SWAP1 PUSH1 0x1 ADD SWAP2 SWAP1 POP SSTORE POP JUMP INVALID LOG2 PUSH6 0x627A7A723158 KECCAK256 0x5C DIFFICULTY 0xC6 PUSH22 0x1751B4C144F31E295808EA4ABA594504EC2E844A6A2B 0x2F PUSH20 0x63BF1A4864736F6C634300051100320000000000 "
		},
		"gasEstimates": {
			"creation": {
				"codeDepositCost": "34400",
				"executionCost": "87",
				"totalCost": "34487"
			},
			"external": {
				"getcounter()": "991",
				"incrementcounter()": "20981"
			}
		},
		"methodIdentifiers": {
			"getcounter()": "df3689a1",
			"incrementcounter()": "e498d766"
		}
	},
	"abi": [
		{
			"constant": true,
			"inputs": [],
			"name": "getcounter",
			"outputs": [
				{
					"internalType": "uint256",
					"name": "",
					"type": "uint256"
				}
			],
			"payable": false,
			"stateMutability": "view",
			"type": "function"
		},
		{
			"constant": false,
			"inputs": [],
			"name": "incrementcounter",
			"outputs": [],
			"payable": false,
			"stateMutability": "nonpayable",
			"type": "function"
		}
	]
}